{
    "contractName": "ControlStateMachine",
    "abi": [
        {
            "inputs": [
                {
                    "internalType": "address",
                    "name": "_controlled",
                    "type": "address"
                },
                {
                    "internalType": "address",
                    "name": "_controller",
                    "type": "address"
                },
                {
                    "internalType": "uint256",
                    "name": "_id",
                    "type": "uint256"
                }
            ],
            "stateMutability": "nonpayable",
            "type": "constructor"
        },
        {
            "anonymous": false,
            "inputs": [
                {
                    "indexed": false,
                    "internalType": "uint256",
                    "name": "controlId",
                    "type": "uint256"
                },
                {
                    "indexed": false,
                    "internalType": "address",
                    "name": "controlledEntity",
                    "type": "address"
                },
                {
                    "indexed": false,
                    "internalType": "address",
                    "name": "controlEntity",
                    "type": "address"
                }
            ],
            "name": "ControlCreated",
            "type": "event"
        },
        {
            "anonymous": false,
            "inputs": [
                {
                    "components": [
                        {
                            "internalType": "uint256",
                            "name": "controlId",
                            "type": "uint256"
                        },
                        {
                            "internalType": "uint256",
                            "name": "timeOfControl",
                            "type": "uint256"
                        },
                        {
                            "internalType": "enum Enums.ControlStatus",
                            "name": "status",
                            "type": "uint8"
                        },
                        {
                            "internalType": "address",
                            "name": "controlled",
                            "type": "address"
                        },
                        {
                            "internalType": "address",
                            "name": "controller",
                            "type": "address"
                        }
                    ],
                    "indexed": false,
                    "internalType": "struct Structs.GSEControl",
                    "name": "control",
                    "type": "tuple"
                }
            ],
            "name": "ControlFinished",
            "type": "event"
        },
        {
            "anonymous": false,
            "inputs": [
                {
                    "indexed": false,
                    "internalType": "uint256",
                    "name": "controlId",
                    "type": "uint256"
                },
                {
                    "components": [
                        {
                            "internalType": "bool",
                            "name": "gseOK",
                            "type": "bool"
                        },
                        {
                            "internalType": "bytes32[]",
                            "name": "findings",
                            "type": "bytes32[]"
                        }
                    ],
                    "indexed": false,
                    "internalType": "struct Structs.GSEControlDetails",
                    "name": "findings",
                    "type": "tuple"
                }
            ],
            "name": "FindingsForControlReported",
            "type": "event"
        },
        {
            "anonymous": false,
            "inputs": [
                {
                    "indexed": true,
                    "internalType": "address",
                    "name": "previousOwner",
                    "type": "address"
                },
                {
                    "indexed": true,
                    "internalType": "address",
                    "name": "newOwner",
                    "type": "address"
                }
            ],
            "name": "OwnershipTransferred",
            "type": "event"
        },
        {
            "inputs": [
                {
                    "components": [
                        {
                            "internalType": "bool",
                            "name": "gseOK",
                            "type": "bool"
                        },
                        {
                            "internalType": "bytes32[]",
                            "name": "findings",
                            "type": "bytes32[]"
                        }
                    ],
                    "internalType": "struct Structs.GSEControlDetails",
                    "name": "_findings",
                    "type": "tuple"
                }
            ],
            "name": "addFindings",
            "outputs": [],
            "stateMutability": "nonpayable",
            "type": "function"
        },
        {
            "inputs": [
                {
                    "internalType": "bool",
                    "name": "_agree",
                    "type": "bool"
                }
            ],
            "name": "commentControl",
            "outputs": [],
            "stateMutability": "payable",
            "type": "function"
        },
        {
            "inputs": [],
            "name": "getStage",
            "outputs": [
                {
                    "internalType": "enum Enums.ControlStage",
                    "name": "",
                    "type": "uint8"
                }
            ],
            "stateMutability": "view",
            "type": "function"
        },
        {
            "inputs": [],
            "name": "owner",
            "outputs": [
                {
                    "internalType": "address",
                    "name": "",
                    "type": "address"
                }
            ],
            "stateMutability": "view",
            "type": "function"
        },
        {
            "inputs": [],
            "name": "renounceOwnership",
            "outputs": [],
            "stateMutability": "nonpayable",
            "type": "function"
        },
        {
            "inputs": [
                {
                    "internalType": "address",
                    "name": "newOwner",
                    "type": "address"
                }
            ],
            "name": "transferOwnership",
            "outputs": [],
            "stateMutability": "nonpayable",
            "type": "function"
        }
    ],
    "bytecode": "608060405234801561001057600080fd5b50604051610abb380380610abb83398101604081905261002f91610130565b6000610039610110565b600080546001600160a01b0319166001600160a01b0383169081178255604051929350917f8be0079c531659141344cd1fd0a4f28419497f9722a3daafe3b4186f6b6457e0908290a350426002556003805460018390556001600160a81b0319166101006001600160a01b0386811682029290921792839055600480546001600160a01b03191686841617908190556040517fc93e6e6324bec34a688386cec07ef891a19f3c30bee2ae0e00724915b569224394610100948794909104811692169061016b565b60405180910390a150505061018a565b3390565b80516001600160a01b038116811461012b57600080fd5b919050565b600080600060608486031215610144578283fd5b61014d84610114565b925061015b60208501610114565b9150604084015190509250925092565b9283526001600160a01b03918216602084015216604082015260600190565b610922806101996000396000f3fe6080604052600436106100555760003560e01c8063715018a61461005a5780638da5cb5b14610071578063b921db491461009c578063e9feb336146100af578063f2fde38b146100cf578063fcaa7664146100ef575b600080fd5b34801561006657600080fd5b5061006f610111565b005b34801561007d57600080fd5b506100866101a3565b6040516100939190610707565b60405180910390f35b61006f6100aa3660046105f3565b6101b2565b3480156100bb57600080fd5b5061006f6100ca36600461060d565b6102d7565b3480156100db57600080fd5b5061006f6100ea3660046105c5565b6103c1565b3480156100fb57600080fd5b50610104610481565b604051610093919061071b565b6101196104cc565b6001600160a01b031661012a6101a3565b6001600160a01b0316146101595760405162461bcd60e51b81526004016101509061077b565b60405180910390fd5b600080546040516001600160a01b03909116907f8be0079c531659141344cd1fd0a4f28419497f9722a3daafe3b4186f6b6457e0908390a3600080546001600160a01b0319169055565b6000546001600160a01b031690565b60018060035460ff1660028111156101da57634e487b7160e01b600052602160045260246000fd5b146101e457600080fd5b6101ec6104cc565b6001600160a01b03166101fd6101a3565b6001600160a01b0316146102235760405162461bcd60e51b81526004016101509061077b565b6000821561023357506000610237565b5060015b7f59c3c2dcac5cc5e1df4fea342be6116b13d03e887de915a1ca4fa58b80d32f566040518060a001604052806001548152602001600254815260200183600181111561029357634e487b7160e01b600052602160045260246000fd5b81526003546001600160a01b036101009091048116602083015260045416604091820152516102c291906107b0565b60405180910390a16102d26104d0565b505050565b60008060035460ff1660028111156102ff57634e487b7160e01b600052602160045260246000fd5b1461030957600080fd5b6103116104cc565b6001600160a01b03166103226101a3565b6001600160a01b0316146103485760405162461bcd60e51b81526004016101509061077b565b81516005805460ff1916911515919091178155602080840151805185939261037592600692910190610550565b509050507f8715283c51fbbeaeb5c6683ab7b029260566f576ae627c2500d16670be0c288b60015460056040516103ad929190610807565b60405180910390a16103bd6104d0565b5050565b6103c96104cc565b6001600160a01b03166103da6101a3565b6001600160a01b0316146104005760405162461bcd60e51b81526004016101509061077b565b6001600160a01b0381166104265760405162461bcd60e51b815260040161015090610735565b600080546040516001600160a01b03808516939216917f8be0079c531659141344cd1fd0a4f28419497f9722a3daafe3b4186f6b6457e091a3600080546001600160a01b0319166001600160a01b0392909216919091179055565b600061048b6104cc565b6001600160a01b031661049c6101a3565b6001600160a01b0316146104c25760405162461bcd60e51b81526004016101509061077b565b5060035460ff1690565b3390565b60035460ff1660028111156104f557634e487b7160e01b600052602160045260246000fd5b61050090600161089c565b600281111561051f57634e487b7160e01b600052602160045260246000fd5b6003805460ff1916600183600281111561054957634e487b7160e01b600052602160045260246000fd5b0217905550565b82805482825590600052602060002090810192821561058b579160200282015b8281111561058b578251825591602001919060010190610570565b5061059792915061059b565b5090565b5b80821115610597576000815560010161059c565b803580151581146105c057600080fd5b919050565b6000602082840312156105d6578081fd5b81356001600160a01b03811681146105ec578182fd5b9392505050565b600060208284031215610604578081fd5b6105ec826105b0565b6000602080838503121561061f578182fd5b823567ffffffffffffffff80821115610636578384fd5b9084019060408287031215610649578384fd5b604051604081018181108382111715610664576106646108d6565b604052610670836105b0565b81528383013582811115610682578586fd5b80840193505086601f840112610696578485fd5b8235828111156106a8576106a86108d6565b84810292506106b8858401610872565b8181528581019085870185870188018b10156106d2578889fd5b8896505b838710156106f45780358352600196909601959187019187016106d6565b5095830195909552509695505050505050565b6001600160a01b0391909116815260200190565b602081016003831061072f5761072f6108c0565b91905290565b60208082526026908201527f4f776e61626c653a206e6577206f776e657220697320746865207a65726f206160408201526564647265737360d01b606082015260800190565b6020808252818101527f4f776e61626c653a2063616c6c6572206973206e6f7420746865206f776e6572604082015260600190565b8151815260208083015190820152604082015160a0820190600281106107d8576107d86108c0565b60408301526060838101516001600160a01b039081169184019190915260809384015116929091019190915290565b600083825260206040818401526080830160ff8554161515604085015260018086016040606087015282815480855260a08801915082875285872094508692505b808310156108655784548252938301939183019190850190610848565b5098975050505050505050565b60405181810167ffffffffffffffff81118282101715610894576108946108d6565b604052919050565b600082198211156108bb57634e487b7160e01b81526011600452602481fd5b500190565b634e487b7160e01b600052602160045260246000fd5b634e487b7160e01b600052604160045260246000fdfea264697066735822122055ce573ad37c2b30402fc84d0335c51059b7e285a150683acbd28fdf83b4e21264736f6c63430008000033",
    "sourcePath": "/Users/jabbathegut/repositories/textile-supply-chain-ethereum/contracts/ControlStateMachine.sol",
    "compiler": {
        "name": "solc",
        "version": "0.8.0+commit.c7dfd78e"
    },
    "functionHashes": {
        "addFindings((bool,bytes32[]))": "e9feb336",
        "commentControl(bool)": "b921db49",
        "getStage()": "fcaa7664",
        "owner()": "8da5cb5b",
        "renounceOwnership()": "715018a6",
        "transferOwnership(address)": "f2fde38b"
    },
    "gasEstimates": {
        "creation": {
            "codeDepositCost": "467600",
            "executionCost": "infinite",
            "totalCost": "infinite"
        },
        "external": {
            "addFindings((bool,bytes32[]))": "infinite",
            "commentControl(bool)": "29616",
            "getStage()": "2083",
            "owner()": "1070",
            "renounceOwnership()": "24233",
            "transferOwnership(address)": "24521"
        },
        "internal": {
            "nextStage()": "21800"
        }
    }
}