{
    "contractName": "LKGRegistry",
    "abi": [
        {
            "inputs": [],
            "stateMutability": "nonpayable",
            "type": "constructor"
        },
        {
            "anonymous": false,
            "inputs": [
                {
                    "indexed": true,
                    "internalType": "address",
                    "name": "previousOwner",
                    "type": "address"
                },
                {
                    "indexed": true,
                    "internalType": "address",
                    "name": "newOwner",
                    "type": "address"
                }
            ],
            "name": "OwnershipTransferred",
            "type": "event"
        },
        {
            "inputs": [
                {
                    "internalType": "address",
                    "name": "_entity",
                    "type": "address"
                },
                {
                    "components": [
                        {
                            "internalType": "uint256",
                            "name": "time",
                            "type": "uint256"
                        },
                        {
                            "internalType": "uint256",
                            "name": "tokenId",
                            "type": "uint256"
                        },
                        {
                            "internalType": "address",
                            "name": "from",
                            "type": "address"
                        },
                        {
                            "internalType": "address",
                            "name": "to",
                            "type": "address"
                        }
                    ],
                    "internalType": "struct Structs.NonGSETransaction",
                    "name": "_transaction",
                    "type": "tuple"
                }
            ],
            "name": "addNonGSETransaction",
            "outputs": [],
            "stateMutability": "nonpayable",
            "type": "function"
        },
        {
            "inputs": [
                {
                    "internalType": "address",
                    "name": "_entity",
                    "type": "address"
                }
            ],
            "name": "getSupplyChainEntity",
            "outputs": [
                {
                    "components": [
                        {
                            "internalType": "enum Enums.SupplyChainRole",
                            "name": "role",
                            "type": "uint8"
                        },
                        {
                            "internalType": "string",
                            "name": "tier",
                            "type": "string"
                        },
                        {
                            "internalType": "bool",
                            "name": "gseStatus",
                            "type": "bool"
                        },
                        {
                            "components": [
                                {
                                    "internalType": "uint256",
                                    "name": "controlId",
                                    "type": "uint256"
                                },
                                {
                                    "internalType": "uint256",
                                    "name": "timeOfControl",
                                    "type": "uint256"
                                },
                                {
                                    "internalType": "enum Enums.ControlStatus",
                                    "name": "status",
                                    "type": "uint8"
                                },
                                {
                                    "internalType": "address",
                                    "name": "controlled",
                                    "type": "address"
                                },
                                {
                                    "internalType": "address",
                                    "name": "controller",
                                    "type": "address"
                                }
                            ],
                            "internalType": "struct Structs.GSEControl[]",
                            "name": "controls",
                            "type": "tuple[]"
                        },
                        {
                            "components": [
                                {
                                    "internalType": "uint256",
                                    "name": "time",
                                    "type": "uint256"
                                },
                                {
                                    "internalType": "uint256",
                                    "name": "tokenId",
                                    "type": "uint256"
                                },
                                {
                                    "internalType": "address",
                                    "name": "from",
                                    "type": "address"
                                },
                                {
                                    "internalType": "address",
                                    "name": "to",
                                    "type": "address"
                                }
                            ],
                            "internalType": "struct Structs.NonGSETransaction[]",
                            "name": "transactions",
                            "type": "tuple[]"
                        }
                    ],
                    "internalType": "struct Structs.SupplyChainEntity",
                    "name": "",
                    "type": "tuple"
                }
            ],
            "stateMutability": "nonpayable",
            "type": "function"
        },
        {
            "inputs": [],
            "name": "owner",
            "outputs": [
                {
                    "internalType": "address",
                    "name": "",
                    "type": "address"
                }
            ],
            "stateMutability": "view",
            "type": "function"
        },
        {
            "inputs": [],
            "name": "renounceOwnership",
            "outputs": [],
            "stateMutability": "nonpayable",
            "type": "function"
        },
        {
            "inputs": [
                {
                    "internalType": "address",
                    "name": "newOwner",
                    "type": "address"
                }
            ],
            "name": "transferOwnership",
            "outputs": [],
            "stateMutability": "nonpayable",
            "type": "function"
        }
    ],
    "bytecode": "608060405234801561001057600080fd5b50600061001b61006a565b600080546001600160a01b0319166001600160a01b0383169081178255604051929350917f8be0079c531659141344cd1fd0a4f28419497f9722a3daafe3b4186f6b6457e0908290a35061006e565b3390565b6105d58061007d6000396000f3fe608060405234801561001057600080fd5b50600436106100575760003560e01c806333424a351461005c578063715018a6146100855780638da5cb5b1461008f578063c0fd0dce146100a4578063f2fde38b146100b7575b600080fd5b61006f61006a366004610289565b6100ca565b60405161007c91906104c2565b60405180910390f35b61008d6100d7565b005b610097610169565b60405161007c9190610433565b61008d6100b23660046102aa565b610178565b61008d6100c5366004610289565b61017c565b6100d2610240565b919050565b6100df61023c565b6001600160a01b03166100f0610169565b6001600160a01b03161461011f5760405162461bcd60e51b81526004016101169061048d565b60405180910390fd5b600080546040516001600160a01b03909116907f8be0079c531659141344cd1fd0a4f28419497f9722a3daafe3b4186f6b6457e0908390a3600080546001600160a01b0319169055565b6000546001600160a01b031690565b5050565b61018461023c565b6001600160a01b0316610195610169565b6001600160a01b0316146101bb5760405162461bcd60e51b81526004016101169061048d565b6001600160a01b0381166101e15760405162461bcd60e51b815260040161011690610447565b600080546040516001600160a01b03808516939216917f8be0079c531659141344cd1fd0a4f28419497f9722a3daafe3b4186f6b6457e091a3600080546001600160a01b0319166001600160a01b0392909216919091179055565b3390565b6040805160a0810190915280600081526020016060815260200160001515815260200160608152602001606081525090565b80356001600160a01b03811681146100d257600080fd5b60006020828403121561029a578081fd5b6102a382610272565b9392505050565b60008082840360a08112156102bd578182fd5b6102c684610272565b92506080601f19820112156102d9578182fd5b506040516080810181811067ffffffffffffffff8211171561030957634e487b7160e01b83526041600452602483fd5b8060405250602084013581526040840135602082015261032b60608501610272565b604082015261033c60808501610272565b6060820152809150509250929050565b6000815180845260208085019450808401835b838110156103c45781518051885283810151848901526040808201516002811061038b5761038b610589565b908901526060818101516001600160a01b03908116918a0191909152608091820151169088015260a0909601959082019060010161035f565b509495945050505050565b6000815180845260208085019450808401835b838110156103c45781518051885283810151848901526040808201516001600160a01b03908116918a01919091526060918201511690880152608090960195908201906001016103e2565b15159052565b6001600160a01b0391909116815260200190565b60208082526026908201527f4f776e61626c653a206e6577206f776e657220697320746865207a65726f206160408201526564647265737360d01b606082015260800190565b6020808252818101527f4f776e61626c653a2063616c6c6572206973206e6f7420746865206f776e6572604082015260600190565b600060208083528351600381106104db576104db610589565b838201528381015160a06040850152805160c08501819052835b818110156105115782810184015186820160e0015283016104f5565b81811115610522578460e083880101525b50601f19925082601f82011685019150506040850151610545606086018261042d565b50606085015160c085830301608086015261056360e083018261034c565b9150506080850151828583030160a086015261057f82826103cf565b9695505050505050565b634e487b7160e01b600052602160045260246000fdfea26469706673582212209fdb86d1ef7e95104220da3d75016f5300c7e69fc32f46bb9b8c9166bbe7483564736f6c63430008000033",
    "sourcePath": "/Users/jabbathegut/repositories/textile-supply-chain-ethereum/contracts/LKGRegistry.sol",
    "compiler": {
        "name": "solc",
        "version": "0.8.0+commit.c7dfd78e"
    },
    "functionHashes": {
        "addNonGSETransaction(address,(uint256,uint256,address,address))": "c0fd0dce",
        "getSupplyChainEntity(address)": "33424a35",
        "owner()": "8da5cb5b",
        "renounceOwnership()": "715018a6",
        "transferOwnership(address)": "f2fde38b"
    },
    "gasEstimates": {
        "creation": {
            "codeDepositCost": "298600",
            "executionCost": "22772",
            "totalCost": "321372"
        },
        "external": {
            "addNonGSETransaction(address,(uint256,uint256,address,address))": "infinite",
            "getSupplyChainEntity(address)": "infinite",
            "owner()": "1092",
            "renounceOwnership()": "24255",
            "transferOwnership(address)": "24556"
        }
    }
}