{
    "contractName": "LKGRegistry",
    "abi": [
        {
            "inputs": [
                {
                    "internalType": "address",
                    "name": "_rbac",
                    "type": "address"
                }
            ],
            "stateMutability": "nonpayable",
            "type": "constructor"
        },
        {
            "inputs": [
                {
                    "components": [
                        {
                            "internalType": "uint256",
                            "name": "time",
                            "type": "uint256"
                        },
                        {
                            "internalType": "uint256",
                            "name": "tokenId",
                            "type": "uint256"
                        },
                        {
                            "internalType": "address[2]",
                            "name": "violators",
                            "type": "address[2]"
                        }
                    ],
                    "internalType": "struct Structs.NonGSETransaction",
                    "name": "_transaction",
                    "type": "tuple"
                }
            ],
            "name": "addNonGSETransaction",
            "outputs": [],
            "stateMutability": "nonpayable",
            "type": "function"
        },
        {
            "inputs": [
                {
                    "components": [
                        {
                            "internalType": "enum Enums.SupplyChainRole",
                            "name": "role",
                            "type": "uint8"
                        },
                        {
                            "internalType": "string",
                            "name": "tier",
                            "type": "string"
                        },
                        {
                            "internalType": "bool",
                            "name": "gseStatus",
                            "type": "bool"
                        },
                        {
                            "components": [
                                {
                                    "internalType": "uint256",
                                    "name": "controlId",
                                    "type": "uint256"
                                },
                                {
                                    "internalType": "uint256",
                                    "name": "timeOfControl",
                                    "type": "uint256"
                                },
                                {
                                    "internalType": "enum Enums.ControlStatus",
                                    "name": "status",
                                    "type": "uint8"
                                },
                                {
                                    "internalType": "address",
                                    "name": "controlled",
                                    "type": "address"
                                },
                                {
                                    "internalType": "address",
                                    "name": "controller",
                                    "type": "address"
                                }
                            ],
                            "internalType": "struct Structs.GSEControl[]",
                            "name": "controls",
                            "type": "tuple[]"
                        },
                        {
                            "components": [
                                {
                                    "internalType": "uint256",
                                    "name": "time",
                                    "type": "uint256"
                                },
                                {
                                    "internalType": "uint256",
                                    "name": "tokenId",
                                    "type": "uint256"
                                },
                                {
                                    "internalType": "address[2]",
                                    "name": "violators",
                                    "type": "address[2]"
                                }
                            ],
                            "internalType": "struct Structs.NonGSETransaction[]",
                            "name": "transactions",
                            "type": "tuple[]"
                        }
                    ],
                    "internalType": "struct Structs.SupplyChainEntity",
                    "name": "_entity",
                    "type": "tuple"
                }
            ],
            "name": "addSupplyChainEntity",
            "outputs": [],
            "stateMutability": "nonpayable",
            "type": "function"
        },
        {
            "inputs": [
                {
                    "internalType": "address",
                    "name": "_rbac",
                    "type": "address"
                }
            ],
            "name": "getSupplyChainEntity",
            "outputs": [
                {
                    "components": [
                        {
                            "internalType": "enum Enums.SupplyChainRole",
                            "name": "role",
                            "type": "uint8"
                        },
                        {
                            "internalType": "string",
                            "name": "tier",
                            "type": "string"
                        },
                        {
                            "internalType": "bool",
                            "name": "gseStatus",
                            "type": "bool"
                        },
                        {
                            "components": [
                                {
                                    "internalType": "uint256",
                                    "name": "controlId",
                                    "type": "uint256"
                                },
                                {
                                    "internalType": "uint256",
                                    "name": "timeOfControl",
                                    "type": "uint256"
                                },
                                {
                                    "internalType": "enum Enums.ControlStatus",
                                    "name": "status",
                                    "type": "uint8"
                                },
                                {
                                    "internalType": "address",
                                    "name": "controlled",
                                    "type": "address"
                                },
                                {
                                    "internalType": "address",
                                    "name": "controller",
                                    "type": "address"
                                }
                            ],
                            "internalType": "struct Structs.GSEControl[]",
                            "name": "controls",
                            "type": "tuple[]"
                        },
                        {
                            "components": [
                                {
                                    "internalType": "uint256",
                                    "name": "time",
                                    "type": "uint256"
                                },
                                {
                                    "internalType": "uint256",
                                    "name": "tokenId",
                                    "type": "uint256"
                                },
                                {
                                    "internalType": "address[2]",
                                    "name": "violators",
                                    "type": "address[2]"
                                }
                            ],
                            "internalType": "struct Structs.NonGSETransaction[]",
                            "name": "transactions",
                            "type": "tuple[]"
                        }
                    ],
                    "internalType": "struct Structs.SupplyChainEntity",
                    "name": "",
                    "type": "tuple"
                }
            ],
            "stateMutability": "nonpayable",
            "type": "function"
        }
    ],
    "bytecode": "608060405234801561001057600080fd5b506040516109e33803806109e383398101604081905261002f91610035565b50610063565b600060208284031215610046578081fd5b81516001600160a01b038116811461005c578182fd5b9392505050565b610971806100726000396000f3fe608060405234801561001057600080fd5b50600436106100415760003560e01c806333424a3514610046578063e7a1f6201461006f578063f9ef7ec714610084575b600080fd5b6100596100543660046104a5565b610097565b6040516100669190610764565b60405180910390f35b61008261007d366004610555565b6100c3565b005b610082610092366004610570565b6100c6565b61009f6101f1565b600080546001600160a01b0319166001600160a01b03939093169290921790915590565b50565b6000546001600160a01b031663217fe6c66100df6101ed565b60008054604080516339e7c5f560e01b815290516001600160a01b03909216926339e7c5f592600480840193829003018186803b15801561011f57600080fd5b505afa158015610133573d6000803e3d6000fd5b505050506040513d6000823e601f3d908101601f1916820160405261015b91908101906104e2565b6040518363ffffffff1660e01b81526004016101789291906106ea565b60206040518083038186803b15801561019057600080fd5b505afa1580156101a4573d6000803e3d6000fd5b505050506040513d601f19601f820116820180604052508101906101c891906104c6565b6100c35760405162461bcd60e51b81526004016101e490610716565b60405180910390fd5b3390565b6040805160a0810190915280600081526020016060815260200160001515815260200160608152602001606081525090565b80356001600160a01b038116811461023a57600080fd5b919050565b600082601f83011261024f578081fd5b8135602061026461025f83610885565b61085b565b8281528181019085830160a080860288018501891015610282578687fd5b865b8681101561031c5781838b03121561029a578788fd5b6040805183810181811067ffffffffffffffff821117156102bd576102bd610917565b825284358152878501358882015284820135600281106102db578a8bfd5b808383015250606091506102f0828601610223565b8282015260809150610303828601610223565b9181019190915285529385019391810191600101610284565b509198975050505050505050565b600082601f83011261033a578081fd5b8135602061034a61025f83610885565b82815281810190858301608080860288018501891015610368578687fd5b865b8681101561031c5761037c8a846103f4565b8552938501939181019160010161036a565b803561023a8161092d565b80356003811061023a57600080fd5b600082601f8301126103b8578081fd5b81356103c661025f826108a9565b8181528460208386010111156103da578283fd5b816020850160208301379081016020019190915292915050565b600060808284031215610405578081fd5b6040516060810181811067ffffffffffffffff8211171561042857610428610917565b8060405250809150823581526020808401358183015284605f85011261044d57600080fd5b610457604061085b565b80604086018760808801111561046c57600080fd5b60005b60028110156104935761048182610223565b8452928401929084019060010161046f565b50508060408501525050505092915050565b6000602082840312156104b6578081fd5b6104bf82610223565b9392505050565b6000602082840312156104d7578081fd5b81516104bf8161092d565b6000602082840312156104f3578081fd5b815167ffffffffffffffff811115610509578182fd5b8201601f81018413610519578182fd5b805161052761025f826108a9565b81815285602083850101111561053b578384fd5b61054c8260208301602086016108d1565b95945050505050565b600060808284031215610566578081fd5b6104bf83836103f4565b600060208284031215610581578081fd5b813567ffffffffffffffff80821115610598578283fd5b9083019060a082860312156105ab578283fd5b6105b560a061085b565b6105be83610399565b81526020830135828111156105d1578485fd5b6105dd878286016103a8565b6020830152506105ef6040840161038e565b6040820152606083013582811115610605578485fd5b6106118782860161023f565b606083015250608083013582811115610628578485fd5b6106348782860161032a565b60808301525095945050505050565b6000815180845260208085019450808401835b838110156106b3578151805188528381015184890152604090810151908801865b600281101561069d5782516001600160a01b031682529185019190850190600101610677565b5050506080969096019590820190600101610656565b509495945050505050565b600081518084526106d68160208601602086016108d1565b601f01601f19169290920160200192915050565b6001600160a01b038316815260406020820181905260009061070e908301846106be565b949350505050565b6020808252602e908201527f4f6e6c7920737570706c7920636861696e2061646d696e2063616e2063616c6c60408201526d103a3434b990333ab731ba34b7b760911b606082015260800190565b6000602080835283516003811061077d5761077d610901565b838201528381015160a0604080860182905261079c60c08701846106be565b925080870151606081151581890152808901519150601f196080818a880301818b0152868451808952898901915089860198508a95505b80861015610831578851805183528a8101518b84015287810151600281106107fd576107fd610901565b83890152808601516001600160a01b03908116878501529084015116838301529789019760019590950194908701906107d3565b50818c01519850828b820301878c015261084b818a610643565b9c9b505050505050505050505050565b60405181810167ffffffffffffffff8111828210171561087d5761087d610917565b604052919050565b600067ffffffffffffffff82111561089f5761089f610917565b5060209081020190565b600067ffffffffffffffff8211156108c3576108c3610917565b50601f01601f191660200190565b60005b838110156108ec5781810151838201526020016108d4565b838111156108fb576000848401525b50505050565b634e487b7160e01b600052602160045260246000fd5b634e487b7160e01b600052604160045260246000fd5b80151581146100c357600080fdfea2646970667358221220db26e523f1722bf635c187cf798c0ca8c9fcdbe8040b7eb90e2af3fc65a8027c64736f6c63430008000033",
    "sourcePath": "/Users/jabbathegut/repositories/textile-supply-chain-ethereum/contracts/LKGRegistry.sol",
    "compiler": {
        "name": "solc",
        "version": "0.8.0+commit.c7dfd78e"
    },
    "functionHashes": {
        "addNonGSETransaction((uint256,uint256,address[2]))": "e7a1f620",
        "addSupplyChainEntity((uint8,string,bool,(uint256,uint256,uint8,address,address)[],(uint256,uint256,address[2])[]))": "f9ef7ec7",
        "getSupplyChainEntity(address)": "33424a35"
    },
    "gasEstimates": {
        "creation": {
            "codeDepositCost": "483400",
            "executionCost": "infinite",
            "totalCost": "infinite"
        },
        "external": {
            "addNonGSETransaction((uint256,uint256,address[2]))": "infinite",
            "addSupplyChainEntity((uint8,string,bool,(uint256,uint256,uint8,address,address)[],(uint256,uint256,address[2])[]))": "infinite",
            "getSupplyChainEntity(address)": "infinite"
        }
    }
}