{
    "contractName": "RBAC",
    "abi": [
        {
            "inputs": [],
            "stateMutability": "nonpayable",
            "type": "constructor"
        },
        {
            "anonymous": false,
            "inputs": [
                {
                    "indexed": false,
                    "internalType": "address",
                    "name": "member",
                    "type": "address"
                },
                {
                    "indexed": false,
                    "internalType": "string",
                    "name": "roleId",
                    "type": "string"
                }
            ],
            "name": "MemberAdded",
            "type": "event"
        },
        {
            "anonymous": false,
            "inputs": [
                {
                    "indexed": false,
                    "internalType": "address",
                    "name": "member",
                    "type": "address"
                },
                {
                    "indexed": false,
                    "internalType": "string",
                    "name": "roleId",
                    "type": "string"
                }
            ],
            "name": "MemberRemoved",
            "type": "event"
        },
        {
            "anonymous": false,
            "inputs": [
                {
                    "indexed": false,
                    "internalType": "string",
                    "name": "roleId",
                    "type": "string"
                }
            ],
            "name": "RoleCreated",
            "type": "event"
        },
        {
            "inputs": [],
            "name": "ROOT_ROLE",
            "outputs": [
                {
                    "internalType": "string",
                    "name": "",
                    "type": "string"
                }
            ],
            "stateMutability": "view",
            "type": "function"
        },
        {
            "inputs": [],
            "name": "SUPPLY_CHAIN_ADMIN_ROLE",
            "outputs": [
                {
                    "internalType": "string",
                    "name": "",
                    "type": "string"
                }
            ],
            "stateMutability": "view",
            "type": "function"
        },
        {
            "inputs": [],
            "name": "SUPPLY_CHAIN_CONTROL_ENTITY_ROLE",
            "outputs": [
                {
                    "internalType": "string",
                    "name": "",
                    "type": "string"
                }
            ],
            "stateMutability": "view",
            "type": "function"
        },
        {
            "inputs": [],
            "name": "SUPPLY_CHAIN_ENTITY_ROLE",
            "outputs": [
                {
                    "internalType": "string",
                    "name": "",
                    "type": "string"
                }
            ],
            "stateMutability": "view",
            "type": "function"
        },
        {
            "inputs": [
                {
                    "internalType": "address",
                    "name": "_member",
                    "type": "address"
                },
                {
                    "internalType": "string",
                    "name": "_roleId",
                    "type": "string"
                }
            ],
            "name": "addMember",
            "outputs": [],
            "stateMutability": "nonpayable",
            "type": "function"
        },
        {
            "inputs": [
                {
                    "internalType": "address",
                    "name": "_member",
                    "type": "address"
                },
                {
                    "internalType": "string",
                    "name": "_roleId",
                    "type": "string"
                }
            ],
            "name": "hasRole",
            "outputs": [
                {
                    "internalType": "bool",
                    "name": "",
                    "type": "bool"
                }
            ],
            "stateMutability": "view",
            "type": "function"
        },
        {
            "inputs": [
                {
                    "internalType": "address",
                    "name": "_member",
                    "type": "address"
                },
                {
                    "internalType": "string",
                    "name": "_roleId",
                    "type": "string"
                }
            ],
            "name": "removeMember",
            "outputs": [],
            "stateMutability": "nonpayable",
            "type": "function"
        },
        {
            "inputs": [
                {
                    "internalType": "string",
                    "name": "_roleId",
                    "type": "string"
                }
            ],
            "name": "roleExists",
            "outputs": [
                {
                    "internalType": "bool",
                    "name": "",
                    "type": "bool"
                }
            ],
            "stateMutability": "view",
            "type": "function"
        }
    ],
    "bytecode": "60806040523480156200001157600080fd5b506200006c6200002062000249565b60408051808201825260048152631493d3d560e21b602082015290516000916200004a91620004a0565b90815260200160405180910390206200024d60201b6200040e1790919060201c565b50600180604051806040016040528060048152602001631493d3d560e21b8152506040516200009c9190620004a0565b9081526040805160209281900383018120805460ff1916941515949094179093558281019052600782526610d3d3951493d360ca1b90820152620000e0906200026d565b604080518082019091526013815272535550504c595f434841494e5f454e5449545960681b602082015262000115906200026d565b60408051808201825260048152631493d3d560e21b6020820152905160008051602062000f1c833981519152916200014d91620004ec565b60405180910390a1604080518082018252600781526610d3d3951493d360ca1b6020820152905160008051602062000f1c833981519152916200019091620004ec565b60405180910390a16040805180820182526013815272535550504c595f434841494e5f454e5449545960681b6020820152905160008051602062000f1c83398151915291620001df91620004ec565b60405180910390a17f5660dfedd5f2d238aa153a2c488e927eb29ea0e780d70089f0e90c7409a2079c6200021262000249565b60408051808201825260048152631493d3d560e21b602082015290516200023b929190620004be565b60405180910390a1620005d9565b3390565b600062000264836001600160a01b03841662000361565b90505b92915050565b6200027881620003b0565b15620002a15760405162461bcd60e51b8152600401620002989062000538565b60405180910390fd5b620002d0620002af62000249565b6040805180820190915260048152631493d3d560e21b6020820152620003de565b620002ef5760405162461bcd60e51b8152600401620002989062000501565b600081604051620003019190620004a0565b52604051600190819062000317908490620004a0565b908152604051908190036020018120805492151560ff199093169290921790915560008051602062000f1c8339815191529062000356908390620004ec565b60405180910390a150565b60006200036f838362000443565b620003a75750815460018181018455600084815260208082209093018490558454848252828601909352604090209190915562000267565b50600062000267565b6000600182604051620003c49190620004a0565b9081526040519081900360200190205460ff169050919050565b6000620003eb82620003b0565b6200040a5760405162461bcd60e51b815260040162000298906200056f565b6200026483600084604051620004219190620004a0565b90815260200160405180910390206200045b60201b620004231790919060201c565b60009081526001919091016020526040902054151590565b600062000264836001600160a01b03841662000443565b600081518084526200048c816020860160208601620005a6565b601f01601f19169290920160200192915050565b60008251620004b4818460208701620005a6565b9190910192915050565b6001600160a01b0383168152604060208201819052600090620004e49083018462000472565b949350505050565b60006020825262000264602083018462000472565b6020808252601f908201527f43616c6c65722061646472657373206973206e6f7420616e2061646d696e2e00604082015260600190565b60208082526014908201527f526f6c6520616c7265616479206578697374732e000000000000000000000000604082015260600190565b60208082526013908201527f526f6c6520646f65736e27742065786973742e00000000000000000000000000604082015260600190565b60005b83811015620005c3578181015183820152602001620005a9565b83811115620005d3576000848401525b50505050565b61093380620005e96000396000f3fe608060405234801561001057600080fd5b50600436106100885760003560e01c80637e8c7f081161005b5780637e8c7f08146100e85780638c84d39c146100f0578063c127c247146100f8578063d00cce411461010b57610088565b806313552bf81461008d5780631cee4a9d146100a2578063217fe6c6146100c057806339e7c5f5146100e0575b600080fd5b6100a061009b36600461064b565b61011e565b005b6100aa61023d565b6040516100b79190610756565b60405180910390f35b6100d36100ce36600461064b565b61026c565b6040516100b7919061074b565b6100aa6102b0565b6100aa6102d3565b6100aa6102f3565b6100a061010636600461064b565b610314565b6100d36101193660046106a4565b6103e2565b610127816103e2565b61014c5760405162461bcd60e51b815260040161014390610825565b60405180910390fd5b610194610157610438565b60408051808201825260048152631493d3d560e21b6020820152905160009161017f9161070b565b90815260405190819003602001902090610423565b6101b05760405162461bcd60e51b8152600401610143906107e1565b6101ba828261026c565b6101d65760405162461bcd60e51b815260040161014390610769565b6101ff826000836040516101ea919061070b565b9081526040519081900360200190209061043c565b507f969f49cd69e4049f144b7dd012d53b6ef9064eca8bca1f4b30162ab52e04f5c18282604051610231929190610727565b60405180910390a15050565b60405180604001604052806013815260200172535550504c595f434841494e5f454e5449545960681b81525081565b6000610277826103e2565b6102935760405162461bcd60e51b815260040161014390610825565b6102a78360008460405161017f919061070b565b90505b92915050565b6040518060400160405280600781526020016610d3d3951493d360ca1b81525081565b604051806040016040528060048152602001631493d3d560e21b81525081565b6040518060400160405280600581526020016420a226a4a760d91b81525081565b61031d816103e2565b6103395760405162461bcd60e51b815260040161014390610825565b610344610157610438565b6103605760405162461bcd60e51b8152600401610143906107a0565b61036a828261026c565b156103875760405162461bcd60e51b815260040161014390610852565b6103b08260008360405161039b919061070b565b9081526040519081900360200190209061040e565b507f5660dfedd5f2d238aa153a2c488e927eb29ea0e780d70089f0e90c7409a2079c8282604051610231929190610727565b60006001826040516103f4919061070b565b9081526040519081900360200190205460ff169050919050565b60006102a7836001600160a01b038416610451565b60006102a7836001600160a01b03841661049b565b3390565b60006102a7836001600160a01b0384166104b3565b600061045d838361049b565b610493575081546001818101845560008481526020808220909301849055845484825282860190935260409020919091556102aa565b5060006102aa565b60009081526001919091016020526040902054151590565b600081815260018301602052604081205480156105c05760006104d7600183610894565b85549091506000906104eb90600190610894565b9050600086600001828154811061051257634e487b7160e01b600052603260045260246000fd5b906000526020600020015490508087600001848154811061054357634e487b7160e01b600052603260045260246000fd5b60009182526020808320909101929092558281526001890190915260409020849055865487908061058457634e487b7160e01b600052603160045260246000fd5b600190038181906000526020600020016000905590558660010160008781526020019081526020016000206000905560019450505050506102aa565b60009150506102aa565b600082601f8301126105da578081fd5b813567ffffffffffffffff808211156105f5576105f56108e7565b604051601f8301601f191681016020018281118282101715610619576106196108e7565b604052828152848301602001861015610630578384fd5b82602086016020830137918201602001929092529392505050565b6000806040838503121561065d578182fd5b82356001600160a01b0381168114610673578283fd5b9150602083013567ffffffffffffffff81111561068e578182fd5b61069a858286016105ca565b9150509250929050565b6000602082840312156106b5578081fd5b813567ffffffffffffffff8111156106cb578182fd5b6106d7848285016105ca565b949350505050565b600081518084526106f78160208601602086016108b7565b601f01601f19169290920160200192915050565b6000825161071d8184602087016108b7565b9190910192915050565b6001600160a01b03831681526040602082018190526000906106d7908301846106df565b901515815260200190565b6000602082526102a760208301846106df565b6020808252601e908201527f41646472657373206973206e6f74206d656d626572206f6620726f6c652e0000604082015260600190565b60208082526021908201527f43616c6c657220616464726573732063616e277420616464206d656d626572736040820152601760f91b606082015260800190565b60208082526024908201527f43616c6c657220616464726573732063616e27742072656d6f7665206d656d6260408201526332b9399760e11b606082015260800190565b6020808252601390820152722937b632903237b2b9b713ba1032bc34b9ba1760691b604082015260600190565b60208082526022908201527f4164647265737320697320616c7265616479206d656d626572206f6620726f6c604082015261329760f11b606082015260800190565b6000828210156108b257634e487b7160e01b81526011600452602481fd5b500390565b60005b838110156108d25781810151838201526020016108ba565b838111156108e1576000848401525b50505050565b634e487b7160e01b600052604160045260246000fdfea26469706673582212203b47f36e160f657d262c912b8a32de17339b7e39cfbc8524486464e8a3849fb964736f6c63430008000033b166be894521206d0ac51e4d2cee3a7fe26260bbef03f04377cfc34ed93d04a6",
    "sourcePath": "/Users/jabbathegut/repositories/textile-supply-chain-ethereum/contracts/RBAC.sol",
    "compiler": {
        "name": "solc",
        "version": "0.8.0+commit.c7dfd78e"
    },
    "functionHashes": {
        "ROOT_ROLE()": "7e8c7f08",
        "SUPPLY_CHAIN_ADMIN_ROLE()": "8c84d39c",
        "SUPPLY_CHAIN_CONTROL_ENTITY_ROLE()": "39e7c5f5",
        "SUPPLY_CHAIN_ENTITY_ROLE()": "1cee4a9d",
        "addMember(address,string)": "c127c247",
        "hasRole(address,string)": "217fe6c6",
        "removeMember(address,string)": "13552bf8",
        "roleExists(string)": "d00cce41"
    },
    "gasEstimates": {
        "creation": {
            "codeDepositCost": "471000",
            "executionCost": "infinite",
            "totalCost": "infinite"
        },
        "external": {
            "ROOT_ROLE()": "infinite",
            "SUPPLY_CHAIN_ADMIN_ROLE()": "infinite",
            "SUPPLY_CHAIN_CONTROL_ENTITY_ROLE()": "infinite",
            "SUPPLY_CHAIN_ENTITY_ROLE()": "infinite",
            "addMember(address,string)": "infinite",
            "hasRole(address,string)": "infinite",
            "removeMember(address,string)": "infinite",
            "roleExists(string)": "infinite"
        },
        "internal": {
            "addRole(string memory)": "infinite"
        }
    }
}