{
    "contractName": "SupplyChainNFT",
    "abi": [
        {
            "inputs": [
                {
                    "internalType": "string",
                    "name": "_name",
                    "type": "string"
                },
                {
                    "internalType": "string",
                    "name": "_symbol",
                    "type": "string"
                },
                {
                    "internalType": "address",
                    "name": "_registry",
                    "type": "address"
                },
                {
                    "internalType": "address",
                    "name": "_rbac",
                    "type": "address"
                }
            ],
            "stateMutability": "nonpayable",
            "type": "constructor"
        },
        {
            "anonymous": false,
            "inputs": [
                {
                    "indexed": true,
                    "internalType": "address",
                    "name": "owner",
                    "type": "address"
                },
                {
                    "indexed": true,
                    "internalType": "address",
                    "name": "approved",
                    "type": "address"
                },
                {
                    "indexed": true,
                    "internalType": "uint256",
                    "name": "tokenId",
                    "type": "uint256"
                }
            ],
            "name": "Approval",
            "type": "event"
        },
        {
            "anonymous": false,
            "inputs": [
                {
                    "indexed": true,
                    "internalType": "address",
                    "name": "owner",
                    "type": "address"
                },
                {
                    "indexed": true,
                    "internalType": "address",
                    "name": "operator",
                    "type": "address"
                },
                {
                    "indexed": false,
                    "internalType": "bool",
                    "name": "approved",
                    "type": "bool"
                }
            ],
            "name": "ApprovalForAll",
            "type": "event"
        },
        {
            "anonymous": false,
            "inputs": [
                {
                    "indexed": true,
                    "internalType": "address",
                    "name": "previousOwner",
                    "type": "address"
                },
                {
                    "indexed": true,
                    "internalType": "address",
                    "name": "newOwner",
                    "type": "address"
                }
            ],
            "name": "OwnershipTransferred",
            "type": "event"
        },
        {
            "anonymous": false,
            "inputs": [
                {
                    "indexed": true,
                    "internalType": "address",
                    "name": "from",
                    "type": "address"
                },
                {
                    "indexed": true,
                    "internalType": "address",
                    "name": "to",
                    "type": "address"
                },
                {
                    "indexed": true,
                    "internalType": "uint256",
                    "name": "tokenId",
                    "type": "uint256"
                }
            ],
            "name": "Transfer",
            "type": "event"
        },
        {
            "inputs": [
                {
                    "internalType": "address",
                    "name": "to",
                    "type": "address"
                },
                {
                    "internalType": "uint256",
                    "name": "tokenId",
                    "type": "uint256"
                }
            ],
            "name": "approve",
            "outputs": [],
            "stateMutability": "nonpayable",
            "type": "function"
        },
        {
            "inputs": [
                {
                    "internalType": "address",
                    "name": "owner",
                    "type": "address"
                }
            ],
            "name": "balanceOf",
            "outputs": [
                {
                    "internalType": "uint256",
                    "name": "",
                    "type": "uint256"
                }
            ],
            "stateMutability": "view",
            "type": "function"
        },
        {
            "inputs": [
                {
                    "internalType": "uint256",
                    "name": "tokenId",
                    "type": "uint256"
                }
            ],
            "name": "getApproved",
            "outputs": [
                {
                    "internalType": "address",
                    "name": "",
                    "type": "address"
                }
            ],
            "stateMutability": "view",
            "type": "function"
        },
        {
            "inputs": [
                {
                    "internalType": "uint256",
                    "name": "_tokenId",
                    "type": "uint256"
                }
            ],
            "name": "getTokenMetadata",
            "outputs": [
                {
                    "internalType": "uint256",
                    "name": "",
                    "type": "uint256"
                },
                {
                    "internalType": "uint256[]",
                    "name": "",
                    "type": "uint256[]"
                }
            ],
            "stateMutability": "view",
            "type": "function"
        },
        {
            "inputs": [
                {
                    "internalType": "address",
                    "name": "owner",
                    "type": "address"
                },
                {
                    "internalType": "address",
                    "name": "operator",
                    "type": "address"
                }
            ],
            "name": "isApprovedForAll",
            "outputs": [
                {
                    "internalType": "bool",
                    "name": "",
                    "type": "bool"
                }
            ],
            "stateMutability": "view",
            "type": "function"
        },
        {
            "inputs": [
                {
                    "internalType": "address",
                    "name": "_owner",
                    "type": "address"
                },
                {
                    "components": [
                        {
                            "internalType": "uint256",
                            "name": "itemId",
                            "type": "uint256"
                        },
                        {
                            "internalType": "uint256[]",
                            "name": "sourceItemIds",
                            "type": "uint256[]"
                        }
                    ],
                    "internalType": "struct Structs.Metadata",
                    "name": "_tokenData",
                    "type": "tuple"
                }
            ],
            "name": "mintToken",
            "outputs": [],
            "stateMutability": "nonpayable",
            "type": "function"
        },
        {
            "inputs": [],
            "name": "name",
            "outputs": [
                {
                    "internalType": "string",
                    "name": "",
                    "type": "string"
                }
            ],
            "stateMutability": "view",
            "type": "function"
        },
        {
            "inputs": [],
            "name": "owner",
            "outputs": [
                {
                    "internalType": "address",
                    "name": "",
                    "type": "address"
                }
            ],
            "stateMutability": "view",
            "type": "function"
        },
        {
            "inputs": [
                {
                    "internalType": "uint256",
                    "name": "tokenId",
                    "type": "uint256"
                }
            ],
            "name": "ownerOf",
            "outputs": [
                {
                    "internalType": "address",
                    "name": "",
                    "type": "address"
                }
            ],
            "stateMutability": "view",
            "type": "function"
        },
        {
            "inputs": [],
            "name": "renounceOwnership",
            "outputs": [],
            "stateMutability": "nonpayable",
            "type": "function"
        },
        {
            "inputs": [
                {
                    "internalType": "address",
                    "name": "from",
                    "type": "address"
                },
                {
                    "internalType": "address",
                    "name": "to",
                    "type": "address"
                },
                {
                    "internalType": "uint256",
                    "name": "tokenId",
                    "type": "uint256"
                }
            ],
            "name": "safeTransferFrom",
            "outputs": [],
            "stateMutability": "nonpayable",
            "type": "function"
        },
        {
            "inputs": [
                {
                    "internalType": "address",
                    "name": "from",
                    "type": "address"
                },
                {
                    "internalType": "address",
                    "name": "to",
                    "type": "address"
                },
                {
                    "internalType": "uint256",
                    "name": "tokenId",
                    "type": "uint256"
                },
                {
                    "internalType": "bytes",
                    "name": "_data",
                    "type": "bytes"
                }
            ],
            "name": "safeTransferFrom",
            "outputs": [],
            "stateMutability": "nonpayable",
            "type": "function"
        },
        {
            "inputs": [
                {
                    "internalType": "address",
                    "name": "operator",
                    "type": "address"
                },
                {
                    "internalType": "bool",
                    "name": "approved",
                    "type": "bool"
                }
            ],
            "name": "setApprovalForAll",
            "outputs": [],
            "stateMutability": "nonpayable",
            "type": "function"
        },
        {
            "inputs": [
                {
                    "internalType": "bytes4",
                    "name": "interfaceId",
                    "type": "bytes4"
                }
            ],
            "name": "supportsInterface",
            "outputs": [
                {
                    "internalType": "bool",
                    "name": "",
                    "type": "bool"
                }
            ],
            "stateMutability": "view",
            "type": "function"
        },
        {
            "inputs": [],
            "name": "symbol",
            "outputs": [
                {
                    "internalType": "string",
                    "name": "",
                    "type": "string"
                }
            ],
            "stateMutability": "view",
            "type": "function"
        },
        {
            "inputs": [
                {
                    "internalType": "address",
                    "name": "from",
                    "type": "address"
                },
                {
                    "internalType": "address",
                    "name": "to",
                    "type": "address"
                },
                {
                    "internalType": "uint256",
                    "name": "tokenId",
                    "type": "uint256"
                }
            ],
            "name": "transferFrom",
            "outputs": [],
            "stateMutability": "nonpayable",
            "type": "function"
        },
        {
            "inputs": [
                {
                    "internalType": "address",
                    "name": "newOwner",
                    "type": "address"
                }
            ],
            "name": "transferOwnership",
            "outputs": [],
            "stateMutability": "nonpayable",
            "type": "function"
        }
    ],
    "bytecode": "60806040523480156200001157600080fd5b50604051620020e3380380620020e38339810160408190526200003491620002d8565b604080518082018252601081526f29bab838363ca1b430b4b72a37b5b2b760811b60208083019182528351808501909452600384526214d0d560ea1b90840152815191929162000087916000916200016a565b5080516200009d9060019060208401906200016a565b5050506000620000b26200016660201b60201c565b600680546001600160a01b0319166001600160a01b038316908117909155604051919250906000907f8be0079c531659141344cd1fd0a4f28419497f9722a3daafe3b4186f6b6457e0908290a350600880546001600160a01b038085166001600160a01b031992831617909255600980549284169290911691909117905583516200014590600a9060208701906200016a565b5082516200015b90600b9060208601906200016a565b5050505050620003b7565b3390565b828054620001789062000364565b90600052602060002090601f0160209004810192826200019c5760008555620001e7565b82601f10620001b757805160ff1916838001178555620001e7565b82800160010185558215620001e7579182015b82811115620001e7578251825591602001919060010190620001ca565b50620001f5929150620001f9565b5090565b5b80821115620001f55760008155600101620001fa565b80516001600160a01b03811681146200022857600080fd5b919050565b600082601f8301126200023e578081fd5b81516001600160401b03808211156200025b576200025b620003a1565b6040516020601f8401601f1916820181018381118382101715620002835762000283620003a1565b60405283825285840181018710156200029a578485fd5b8492505b83831015620002bd57858301810151828401820152918201916200029e565b83831115620002ce57848185840101525b5095945050505050565b60008060008060808587031215620002ee578384fd5b84516001600160401b038082111562000305578586fd5b62000313888389016200022d565b9550602087015191508082111562000329578485fd5b5062000338878288016200022d565b935050620003496040860162000210565b9150620003596060860162000210565b905092959194509250565b6002810460018216806200037957607f821691505b602082108114156200039b57634e487b7160e01b600052602260045260246000fd5b50919050565b634e487b7160e01b600052604160045260246000fd5b611d1c80620003c76000396000f3fe608060405234801561001057600080fd5b506004361061010b5760003560e01c806370a08231116100a2578063a22cb46511610071578063a22cb46514610215578063b88d4fde14610228578063dec4775c1461023b578063e985e9c51461024e578063f2fde38b146102615761010b565b806370a08231146101dd578063715018a6146101fd5780638da5cb5b1461020557806395d89b411461020d5761010b565b806323b872dd116100de57806323b872dd1461018357806342842e0e1461019657806360316801146101a95780636352211e146101ca5761010b565b806301ffc9a71461011057806306fdde0314610139578063081812fc1461014e578063095ea7b31461016e575b600080fd5b61012361011e366004611463565b610274565b604051610130919061165a565b60405180910390f35b6101416102a1565b6040516101309190611665565b61016161015c3660046115a1565b61032f565b60405161013091906115e5565b61018161017c36600461141c565b61037b565b005b610181610191366004611216565b610413565b6101816101a4366004611216565b61044b565b6101bc6101b73660046115a1565b610466565b604051610130929190611b25565b6101616101d83660046115a1565b610500565b6101f06101eb3660046111bb565b610535565b6040516101309190611b1c565b610181610579565b610161610602565b610141610611565b6101816102233660046112f8565b61061e565b610181610236366004611256565b6106ec565b610181610249366004611325565b61072b565b61012361025c3660046111de565b6108d5565b61018161026f3660046111bb565b610903565b60006001600160e01b031982166380ac58cd60e01b14806102995750610299826109c4565b90505b919050565b600a80546102ae90611c43565b80601f01602080910402602001604051908101604052809291908181526020018280546102da90611c43565b80156103275780601f106102fc57610100808354040283529160200191610327565b820191906000526020600020905b81548152906001019060200180831161030a57829003601f168201915b505050505081565b600061033a826109dd565b61035f5760405162461bcd60e51b8152600401610356906119c0565b60405180910390fd5b506000908152600460205260409020546001600160a01b031690565b600061038682610500565b9050806001600160a01b0316836001600160a01b031614156103ba5760405162461bcd60e51b815260040161035690611a8a565b806001600160a01b03166103cc6109fa565b6001600160a01b031614806103e857506103e88161025c6109fa565b6104045760405162461bcd60e51b81526004016103569061185a565b61040e83836109fe565b505050565b61042461041e6109fa565b82610a6c565b6104405760405162461bcd60e51b815260040161035690611acb565b61040e838383610af1565b61040e838383604051806020016040528060008152506106ec565b60006060610473836109dd565b61048f5760405162461bcd60e51b81526004016103569061197f565b6000838152600c602090815260409182902080546001909101805484518185028101850190955280855291939092909183918301828280156104f057602002820191906000526020600020905b8154815260200190600101908083116104dc575b5050505050905091509150915091565b6000818152600260205260408120546001600160a01b0316806102995760405162461bcd60e51b815260040161035690611901565b60006001600160a01b03821661055d5760405162461bcd60e51b8152600401610356906118b7565b506001600160a01b031660009081526003602052604090205490565b6105816109fa565b6001600160a01b0316610592610602565b6001600160a01b0316146105b85760405162461bcd60e51b815260040161035690611a0c565b6006546040516000916001600160a01b0316907f8be0079c531659141344cd1fd0a4f28419497f9722a3daafe3b4186f6b6457e0908390a3600680546001600160a01b0319169055565b6006546001600160a01b031690565b600b80546102ae90611c43565b6106266109fa565b6001600160a01b0316826001600160a01b031614156106575760405162461bcd60e51b8152600401610356906117d7565b80600560006106646109fa565b6001600160a01b03908116825260208083019390935260409182016000908120918716808252919093529120805460ff1916921515929092179091556106a86109fa565b6001600160a01b03167f17307eab39ab6107e8899845ad3d59bd9653f200f220920489ca2b5937696c31836040516106e0919061165a565b60405180910390a35050565b6106fd6106f76109fa565b83610a6c565b6107195760405162461bcd60e51b815260040161035690611acb565b61072584848484610c1e565b50505050565b6107336109fa565b6001600160a01b0316610744610602565b6001600160a01b03161461076a5760405162461bcd60e51b815260040161035690611a0c565b60095460408051631cee4a9d60e01b815290516001600160a01b039092169163217fe6c69133918491631cee4a9d916004808301926000929190829003018186803b1580156107b857600080fd5b505afa1580156107cc573d6000803e3d6000fd5b505050506040513d6000823e601f3d908101601f191682016040526107f4919081019061149b565b6040518363ffffffff1660e01b8152600401610811929190611636565b60206040518083038186803b15801561082957600080fd5b505afa15801561083d573d6000803e3d6000fd5b505050506040513d601f19601f820116820180604052508101906108619190611447565b61087d5760405162461bcd60e51b815260040161035690611678565b6108876007610c51565b60006108936007610c5a565b905061089f8382610c5e565b6000818152600c602090815260409091208351815581840151805185936108cd926001850192910190610f71565b505050505050565b6001600160a01b03918216600090815260056020908152604080832093909416825291909152205460ff1690565b61090b6109fa565b6001600160a01b031661091c610602565b6001600160a01b0316146109425760405162461bcd60e51b815260040161035690611a0c565b6001600160a01b0381166109685760405162461bcd60e51b815260040161035690611716565b6006546040516001600160a01b038084169216907f8be0079c531659141344cd1fd0a4f28419497f9722a3daafe3b4186f6b6457e090600090a3600680546001600160a01b0319166001600160a01b0392909216919091179055565b6001600160e01b031981166301ffc9a760e01b14919050565b6000908152600260205260409020546001600160a01b0316151590565b3390565b600081815260046020526040902080546001600160a01b0319166001600160a01b0384169081179091558190610a3382610500565b6001600160a01b03167f8c5be1e5ebec7d5bd14f71427d1e84f3dd0314c0f7b2291e5b200ac8c7c3b92560405160405180910390a45050565b6000610a77826109dd565b610a935760405162461bcd60e51b81526004016103569061180e565b6000610a9e83610500565b9050806001600160a01b0316846001600160a01b03161480610ad95750836001600160a01b0316610ace8461032f565b6001600160a01b0316145b80610ae95750610ae981856108d5565b949350505050565b826001600160a01b0316610b0482610500565b6001600160a01b031614610b2a5760405162461bcd60e51b815260040161035690611a41565b6001600160a01b038216610b505760405162461bcd60e51b815260040161035690611793565b610b5b838383610d3d565b610b666000826109fe565b6001600160a01b0383166000908152600360205260408120805460019290610b8f908490611c00565b90915550506001600160a01b0382166000908152600360205260408120805460019290610bbd908490611be8565b909155505060008181526002602052604080822080546001600160a01b0319166001600160a01b0386811691821790925591518493918716917fddf252ad1be2c89b69c2b068fc378daa952ba7f163c4a11628f55a4df523b3ef91a4505050565b610c29848484610af1565b610c3584848484610e50565b6107255760405162461bcd60e51b8152600401610356906116c4565b80546001019055565b5490565b6001600160a01b038216610c845760405162461bcd60e51b81526004016103569061194a565b610c8d816109dd565b15610caa5760405162461bcd60e51b81526004016103569061175c565b610cb660008383610d3d565b6001600160a01b0382166000908152600360205260408120805460019290610cdf908490611be8565b909155505060008181526002602052604080822080546001600160a01b0319166001600160a01b03861690811790915590518392907fddf252ad1be2c89b69c2b068fc378daa952ba7f163c4a11628f55a4df523b3ef908290a45050565b6008546040516333424a3560e01b81526000916001600160a01b0316906333424a3590610d6e9087906004016115e5565b600060405180830381600087803b158015610d8857600080fd5b505af1158015610d9c573d6000803e3d6000fd5b505050506040513d6000823e601f3d908101601f19168201604052610dc491908101906114ce565b6008546040516333424a3560e01b81529192506000916001600160a01b03909116906333424a3590610dfa9087906004016115e5565b600060405180830381600087803b158015610e1457600080fd5b505af1158015610e28573d6000803e3d6000fd5b505050506040513d6000823e601f3d908101601f191682016040526108cd91908101906114ce565b6000610e64846001600160a01b0316610f6b565b15610f6057836001600160a01b031663150b7a02610e806109fa565b8786866040518563ffffffff1660e01b8152600401610ea294939291906115f9565b602060405180830381600087803b158015610ebc57600080fd5b505af1925050508015610eec575060408051601f3d908101601f19168201909252610ee99181019061147f565b60015b610f46573d808015610f1a576040519150601f19603f3d011682016040523d82523d6000602084013e610f1f565b606091505b508051610f3e5760405162461bcd60e51b8152600401610356906116c4565b805181602001fd5b6001600160e01b031916630a85bd0160e11b149050610ae9565b506001949350505050565b3b151590565b828054828255906000526020600020908101928215610fac579160200282015b82811115610fac578251825591602001919060010190610f91565b50610fb8929150610fbc565b5090565b5b80821115610fb85760008155600101610fbd565b805161029c81611caa565b600082601f830112610fec578081fd5b81516020611001610ffc83611b9c565b611b72565b8281528181019085830160a08086028801850189101561101f578687fd5b865b868110156110b95781838b031215611037578788fd5b6040805183810181811067ffffffffffffffff8211171561105a5761105a611c94565b82528451815287850151888201528482015160028110611078578a8bfd5b8083830152506060915061108d828601610fd1565b82820152608091506110a0828601610fd1565b9181019190915285529385019391810191600101611021565b509198975050505050505050565b600082601f8301126110d7578081fd5b815160206110e7610ffc83611b9c565b82815281810190858301604080860288018501891015611105578687fd5b865b868110156110b95781838b03121561111d578788fd5b815182810181811067ffffffffffffffff8211171561113e5761113e611c94565b835283518152868401518782015285529385019391810191600101611107565b805161029c81611cc2565b80516003811061029c57600080fd5b600082601f830112611188578081fd5b8151611196610ffc82611bc0565b8181528460208386010111156111aa578283fd5b610ae9826020830160208701611c17565b6000602082840312156111cc578081fd5b81356111d781611caa565b9392505050565b600080604083850312156111f0578081fd5b82356111fb81611caa565b9150602083013561120b81611caa565b809150509250929050565b60008060006060848603121561122a578081fd5b833561123581611caa565b9250602084013561124581611caa565b929592945050506040919091013590565b6000806000806080858703121561126b578182fd5b843561127681611caa565b9350602085013561128681611caa565b925060408501359150606085013567ffffffffffffffff8111156112a8578182fd5b8501601f810187136112b8578182fd5b80356112c6610ffc82611bc0565b8181528860208385010111156112da578384fd5b81602084016020830137908101602001929092525092959194509250565b6000806040838503121561130a578182fd5b823561131581611caa565b9150602083013561120b81611cc2565b60008060408385031215611337578182fd5b823561134281611caa565b915060208381013567ffffffffffffffff8082111561135f578384fd5b9085019060408288031215611372578384fd5b60405160408101818110838211171561138d5761138d611c94565b6040528235815283830135828111156113a4578586fd5b80840193505087601f8401126113b8578485fd5b823591506113c8610ffc83611b9c565b82815284810190848601868502860187018b10156113e4578788fd5b8795505b848610156114065780358352600195909501949186019186016113e8565b5080868401525050809450505050509250929050565b6000806040838503121561142e578182fd5b823561143981611caa565b946020939093013593505050565b600060208284031215611458578081fd5b81516111d781611cc2565b600060208284031215611474578081fd5b81356111d781611cd0565b600060208284031215611490578081fd5b81516111d781611cd0565b6000602082840312156114ac578081fd5b815167ffffffffffffffff8111156114c2578182fd5b610ae984828501611178565b6000602082840312156114df578081fd5b815167ffffffffffffffff808211156114f6578283fd5b9083019060a08286031215611509578283fd5b61151360a0611b72565b61151c83611169565b815260208301518281111561152f578485fd5b61153b87828601611178565b60208301525061154d6040840161115e565b6040820152606083015182811115611563578485fd5b61156f87828601610fdc565b606083015250608083015182811115611586578485fd5b611592878286016110c7565b60808301525095945050505050565b6000602082840312156115b2578081fd5b5035919050565b600081518084526115d1816020860160208601611c17565b601f01601f19169290920160200192915050565b6001600160a01b0391909116815260200190565b6001600160a01b038581168252841660208201526040810183905260806060820181905260009061162c908301846115b9565b9695505050505050565b6001600160a01b0383168152604060208201819052600090610ae9908301846115b9565b901515815260200190565b6000602082526111d760208301846115b9565b6020808252602c908201527f4f6e6c7920737570706c7920636861696e20656e7469746965732063616e206360408201526b726561746520746f6b656e7360a01b606082015260800190565b60208082526032908201527f4552433732313a207472616e7366657220746f206e6f6e20455243373231526560408201527131b2b4bb32b91034b6b83632b6b2b73a32b960711b606082015260800190565b60208082526026908201527f4f776e61626c653a206e6577206f776e657220697320746865207a65726f206160408201526564647265737360d01b606082015260800190565b6020808252601c908201527f4552433732313a20746f6b656e20616c7265616479206d696e74656400000000604082015260600190565b60208082526024908201527f4552433732313a207472616e7366657220746f20746865207a65726f206164646040820152637265737360e01b606082015260800190565b60208082526019908201527f4552433732313a20617070726f766520746f2063616c6c657200000000000000604082015260600190565b6020808252602c908201527f4552433732313a206f70657261746f7220717565727920666f72206e6f6e657860408201526b34b9ba32b73a103a37b5b2b760a11b606082015260800190565b60208082526038908201527f4552433732313a20617070726f76652063616c6c6572206973206e6f74206f7760408201527f6e6572206e6f7220617070726f76656420666f7220616c6c0000000000000000606082015260800190565b6020808252602a908201527f4552433732313a2062616c616e636520717565727920666f7220746865207a65604082015269726f206164647265737360b01b606082015260800190565b60208082526029908201527f4552433732313a206f776e657220717565727920666f72206e6f6e657869737460408201526832b73a103a37b5b2b760b91b606082015260800190565b6020808252818101527f4552433732313a206d696e7420746f20746865207a65726f2061646472657373604082015260600190565b60208082526021908201527f546f6b656e2077697468206769766520494420646f6573206e6f7420657869736040820152601d60fa1b606082015260800190565b6020808252602c908201527f4552433732313a20617070726f76656420717565727920666f72206e6f6e657860408201526b34b9ba32b73a103a37b5b2b760a11b606082015260800190565b6020808252818101527f4f776e61626c653a2063616c6c6572206973206e6f7420746865206f776e6572604082015260600190565b60208082526029908201527f4552433732313a207472616e73666572206f6620746f6b656e2074686174206960408201526839903737ba1037bbb760b91b606082015260800190565b60208082526021908201527f4552433732313a20617070726f76616c20746f2063757272656e74206f776e656040820152603960f91b606082015260800190565b60208082526031908201527f4552433732313a207472616e736665722063616c6c6572206973206e6f74206f6040820152701ddb995c881b9bdc88185c1c1c9bdd9959607a1b606082015260800190565b90815260200190565b60006040820184835260206040818501528185518084526060860191508287019350845b81811015611b6557845183529383019391830191600101611b49565b5090979650505050505050565b60405181810167ffffffffffffffff81118282101715611b9457611b94611c94565b604052919050565b600067ffffffffffffffff821115611bb657611bb6611c94565b5060209081020190565b600067ffffffffffffffff821115611bda57611bda611c94565b50601f01601f191660200190565b60008219821115611bfb57611bfb611c7e565b500190565b600082821015611c1257611c12611c7e565b500390565b60005b83811015611c32578181015183820152602001611c1a565b838111156107255750506000910152565b600281046001821680611c5757607f821691505b60208210811415611c7857634e487b7160e01b600052602260045260246000fd5b50919050565b634e487b7160e01b600052601160045260246000fd5b634e487b7160e01b600052604160045260246000fd5b6001600160a01b0381168114611cbf57600080fd5b50565b8015158114611cbf57600080fd5b6001600160e01b031981168114611cbf57600080fdfea26469706673582212208fb946097e1cfe06b24eb4a1e76cbae176e547e370eab4df4d656bfee873bc1a64736f6c63430008000033",
    "sourcePath": "/Users/jabbathegut/repositories/textile-supply-chain-ethereum/contracts/SupplyChainNFT.sol",
    "compiler": {
        "name": "solc",
        "version": "0.8.0+commit.c7dfd78e"
    },
    "functionHashes": {
        "approve(address,uint256)": "095ea7b3",
        "balanceOf(address)": "70a08231",
        "getApproved(uint256)": "081812fc",
        "getTokenMetadata(uint256)": "60316801",
        "isApprovedForAll(address,address)": "e985e9c5",
        "mintToken(address,(uint256,uint256[]))": "dec4775c",
        "name()": "06fdde03",
        "owner()": "8da5cb5b",
        "ownerOf(uint256)": "6352211e",
        "renounceOwnership()": "715018a6",
        "safeTransferFrom(address,address,uint256)": "42842e0e",
        "safeTransferFrom(address,address,uint256,bytes)": "b88d4fde",
        "setApprovalForAll(address,bool)": "a22cb465",
        "supportsInterface(bytes4)": "01ffc9a7",
        "symbol()": "95d89b41",
        "transferFrom(address,address,uint256)": "23b872dd",
        "transferOwnership(address)": "f2fde38b"
    },
    "gasEstimates": {
        "creation": {
            "codeDepositCost": "1490400",
            "executionCost": "infinite",
            "totalCost": "infinite"
        },
        "external": {
            "approve(address,uint256)": "infinite",
            "balanceOf(address)": "1327",
            "getApproved(uint256)": "2223",
            "getTokenMetadata(uint256)": "infinite",
            "isApprovedForAll(address,address)": "infinite",
            "mintToken(address,(uint256,uint256[]))": "infinite",
            "name()": "infinite",
            "owner()": "1137",
            "ownerOf(uint256)": "1366",
            "renounceOwnership()": "24297",
            "safeTransferFrom(address,address,uint256)": "infinite",
            "safeTransferFrom(address,address,uint256,bytes)": "infinite",
            "setApprovalForAll(address,bool)": "infinite",
            "supportsInterface(bytes4)": "549",
            "symbol()": "infinite",
            "transferFrom(address,address,uint256)": "infinite",
            "transferOwnership(address)": "24594"
        },
        "internal": {
            "_beforeTokenTransfer(address,address,uint256)": "infinite"
        }
    }
}