{
    "contractName": "SupplyChainNFT",
    "abi": [
        {
            "inputs": [
                {
                    "internalType": "string",
                    "name": "_name",
                    "type": "string"
                },
                {
                    "internalType": "string",
                    "name": "_symbol",
                    "type": "string"
                },
                {
                    "internalType": "address",
                    "name": "_registry",
                    "type": "address"
                },
                {
                    "internalType": "address",
                    "name": "_rbac",
                    "type": "address"
                }
            ],
            "stateMutability": "nonpayable",
            "type": "constructor"
        },
        {
            "anonymous": false,
            "inputs": [
                {
                    "indexed": true,
                    "internalType": "address",
                    "name": "owner",
                    "type": "address"
                },
                {
                    "indexed": true,
                    "internalType": "address",
                    "name": "approved",
                    "type": "address"
                },
                {
                    "indexed": true,
                    "internalType": "uint256",
                    "name": "tokenId",
                    "type": "uint256"
                }
            ],
            "name": "Approval",
            "type": "event"
        },
        {
            "anonymous": false,
            "inputs": [
                {
                    "indexed": true,
                    "internalType": "address",
                    "name": "owner",
                    "type": "address"
                },
                {
                    "indexed": true,
                    "internalType": "address",
                    "name": "operator",
                    "type": "address"
                },
                {
                    "indexed": false,
                    "internalType": "bool",
                    "name": "approved",
                    "type": "bool"
                }
            ],
            "name": "ApprovalForAll",
            "type": "event"
        },
        {
            "anonymous": false,
            "inputs": [
                {
                    "indexed": true,
                    "internalType": "address",
                    "name": "previousOwner",
                    "type": "address"
                },
                {
                    "indexed": true,
                    "internalType": "address",
                    "name": "newOwner",
                    "type": "address"
                }
            ],
            "name": "OwnershipTransferred",
            "type": "event"
        },
        {
            "anonymous": false,
            "inputs": [
                {
                    "indexed": true,
                    "internalType": "address",
                    "name": "from",
                    "type": "address"
                },
                {
                    "indexed": true,
                    "internalType": "address",
                    "name": "to",
                    "type": "address"
                },
                {
                    "indexed": true,
                    "internalType": "uint256",
                    "name": "tokenId",
                    "type": "uint256"
                }
            ],
            "name": "Transfer",
            "type": "event"
        },
        {
            "inputs": [
                {
                    "internalType": "address",
                    "name": "to",
                    "type": "address"
                },
                {
                    "internalType": "uint256",
                    "name": "tokenId",
                    "type": "uint256"
                }
            ],
            "name": "approve",
            "outputs": [],
            "stateMutability": "nonpayable",
            "type": "function"
        },
        {
            "inputs": [
                {
                    "internalType": "address",
                    "name": "owner",
                    "type": "address"
                }
            ],
            "name": "balanceOf",
            "outputs": [
                {
                    "internalType": "uint256",
                    "name": "",
                    "type": "uint256"
                }
            ],
            "stateMutability": "view",
            "type": "function"
        },
        {
            "inputs": [
                {
                    "internalType": "uint256",
                    "name": "tokenId",
                    "type": "uint256"
                }
            ],
            "name": "getApproved",
            "outputs": [
                {
                    "internalType": "address",
                    "name": "",
                    "type": "address"
                }
            ],
            "stateMutability": "view",
            "type": "function"
        },
        {
            "inputs": [
                {
                    "internalType": "address",
                    "name": "owner",
                    "type": "address"
                },
                {
                    "internalType": "address",
                    "name": "operator",
                    "type": "address"
                }
            ],
            "name": "isApprovedForAll",
            "outputs": [
                {
                    "internalType": "bool",
                    "name": "",
                    "type": "bool"
                }
            ],
            "stateMutability": "view",
            "type": "function"
        },
        {
            "inputs": [],
            "name": "name",
            "outputs": [
                {
                    "internalType": "string",
                    "name": "",
                    "type": "string"
                }
            ],
            "stateMutability": "view",
            "type": "function"
        },
        {
            "inputs": [],
            "name": "owner",
            "outputs": [
                {
                    "internalType": "address",
                    "name": "",
                    "type": "address"
                }
            ],
            "stateMutability": "view",
            "type": "function"
        },
        {
            "inputs": [
                {
                    "internalType": "uint256",
                    "name": "tokenId",
                    "type": "uint256"
                }
            ],
            "name": "ownerOf",
            "outputs": [
                {
                    "internalType": "address",
                    "name": "",
                    "type": "address"
                }
            ],
            "stateMutability": "view",
            "type": "function"
        },
        {
            "inputs": [],
            "name": "renounceOwnership",
            "outputs": [],
            "stateMutability": "nonpayable",
            "type": "function"
        },
        {
            "inputs": [
                {
                    "internalType": "address",
                    "name": "from",
                    "type": "address"
                },
                {
                    "internalType": "address",
                    "name": "to",
                    "type": "address"
                },
                {
                    "internalType": "uint256",
                    "name": "tokenId",
                    "type": "uint256"
                }
            ],
            "name": "safeTransferFrom",
            "outputs": [],
            "stateMutability": "nonpayable",
            "type": "function"
        },
        {
            "inputs": [
                {
                    "internalType": "address",
                    "name": "from",
                    "type": "address"
                },
                {
                    "internalType": "address",
                    "name": "to",
                    "type": "address"
                },
                {
                    "internalType": "uint256",
                    "name": "tokenId",
                    "type": "uint256"
                },
                {
                    "internalType": "bytes",
                    "name": "_data",
                    "type": "bytes"
                }
            ],
            "name": "safeTransferFrom",
            "outputs": [],
            "stateMutability": "nonpayable",
            "type": "function"
        },
        {
            "inputs": [
                {
                    "internalType": "address",
                    "name": "operator",
                    "type": "address"
                },
                {
                    "internalType": "bool",
                    "name": "approved",
                    "type": "bool"
                }
            ],
            "name": "setApprovalForAll",
            "outputs": [],
            "stateMutability": "nonpayable",
            "type": "function"
        },
        {
            "inputs": [
                {
                    "internalType": "bytes4",
                    "name": "interfaceId",
                    "type": "bytes4"
                }
            ],
            "name": "supportsInterface",
            "outputs": [
                {
                    "internalType": "bool",
                    "name": "",
                    "type": "bool"
                }
            ],
            "stateMutability": "view",
            "type": "function"
        },
        {
            "inputs": [],
            "name": "symbol",
            "outputs": [
                {
                    "internalType": "string",
                    "name": "",
                    "type": "string"
                }
            ],
            "stateMutability": "view",
            "type": "function"
        },
        {
            "inputs": [
                {
                    "internalType": "address",
                    "name": "from",
                    "type": "address"
                },
                {
                    "internalType": "address",
                    "name": "to",
                    "type": "address"
                },
                {
                    "internalType": "uint256",
                    "name": "tokenId",
                    "type": "uint256"
                }
            ],
            "name": "transferFrom",
            "outputs": [],
            "stateMutability": "nonpayable",
            "type": "function"
        },
        {
            "inputs": [
                {
                    "internalType": "address",
                    "name": "newOwner",
                    "type": "address"
                }
            ],
            "name": "transferOwnership",
            "outputs": [],
            "stateMutability": "nonpayable",
            "type": "function"
        }
    ],
    "bytecode": "60806040523480156200001157600080fd5b5060405162001622380380620016228339810160408190526200003491620002d8565b604080518082018252601081526f29bab838363ca1b430b4b72a37b5b2b760811b60208083019182528351808501909452600384526214d0d560ea1b90840152815191929162000087916000916200016a565b5080516200009d9060019060208401906200016a565b5050506000620000b26200016660201b60201c565b600680546001600160a01b0319166001600160a01b038316908117909155604051919250906000907f8be0079c531659141344cd1fd0a4f28419497f9722a3daafe3b4186f6b6457e0908290a350600880546001600160a01b038085166001600160a01b031992831617909255600980549284169290911691909117905583516200014590600a9060208701906200016a565b5082516200015b90600b9060208601906200016a565b5050505050620003b7565b3390565b828054620001789062000364565b90600052602060002090601f0160209004810192826200019c5760008555620001e7565b82601f10620001b757805160ff1916838001178555620001e7565b82800160010185558215620001e7579182015b82811115620001e7578251825591602001919060010190620001ca565b50620001f5929150620001f9565b5090565b5b80821115620001f55760008155600101620001fa565b80516001600160a01b03811681146200022857600080fd5b919050565b600082601f8301126200023e578081fd5b81516001600160401b03808211156200025b576200025b620003a1565b6040516020601f8401601f1916820181018381118382101715620002835762000283620003a1565b60405283825285840181018710156200029a578485fd5b8492505b83831015620002bd57858301810151828401820152918201916200029e565b83831115620002ce57848185840101525b5095945050505050565b60008060008060808587031215620002ee578384fd5b84516001600160401b038082111562000305578586fd5b62000313888389016200022d565b9550602087015191508082111562000329578485fd5b5062000338878288016200022d565b935050620003496040860162000210565b9150620003596060860162000210565b905092959194509250565b6002810460018216806200037957607f821691505b602082108114156200039b57634e487b7160e01b600052602260045260246000fd5b50919050565b634e487b7160e01b600052604160045260246000fd5b61125b80620003c76000396000f3fe608060405234801561001057600080fd5b50600436106100f55760003560e01c806370a0823111610097578063a22cb46511610066578063a22cb465146101de578063b88d4fde146101f1578063e985e9c514610204578063f2fde38b14610217576100f5565b806370a08231146101a6578063715018a6146101c65780638da5cb5b146101ce57806395d89b41146101d6576100f5565b8063095ea7b3116100d3578063095ea7b31461015857806323b872dd1461016d57806342842e0e146101805780636352211e14610193576100f5565b806301ffc9a7146100fa57806306fdde0314610123578063081812fc14610138575b600080fd5b61010d610108366004610cb8565b61022a565b60405161011a9190610da4565b60405180910390f35b61012b610257565b60405161011a9190610daf565b61014b610146366004610cf0565b6102e5565b60405161011a9190610d53565b61016b610166366004610c8f565b610331565b005b61016b61017b366004610b4e565b6103c9565b61016b61018e366004610b4e565b610401565b61014b6101a1366004610cf0565b61041c565b6101b96101b4366004610afb565b610451565b60405161011a919061116d565b61016b610495565b61014b61051e565b61012b61052d565b61016b6101ec366004610c55565b61053a565b61016b6101ff366004610b89565b610608565b61010d610212366004610b1c565b610647565b61016b610225366004610afb565b610675565b60006001600160e01b031982166380ac58cd60e01b148061024f575061024f82610736565b90505b919050565b600a8054610264906111a5565b80601f0160208091040260200160405190810160405280929190818152602001828054610290906111a5565b80156102dd5780601f106102b2576101008083540402835291602001916102dd565b820191906000526020600020905b8154815290600101906020018083116102c057829003601f168201915b505050505081565b60006102f08261074f565b6103155760405162461bcd60e51b815260040161030c90611011565b60405180910390fd5b506000908152600460205260409020546001600160a01b031690565b600061033c8261041c565b9050806001600160a01b0316836001600160a01b031614156103705760405162461bcd60e51b815260040161030c906110db565b806001600160a01b031661038261076c565b6001600160a01b0316148061039e575061039e8161021261076c565b6103ba5760405162461bcd60e51b815260040161030c90610f21565b6103c48383610770565b505050565b6103da6103d461076c565b826107de565b6103f65760405162461bcd60e51b815260040161030c9061111c565b6103c4838383610863565b6103c483838360405180602001604052806000815250610608565b6000818152600260205260408120546001600160a01b03168061024f5760405162461bcd60e51b815260040161030c90610fc8565b60006001600160a01b0382166104795760405162461bcd60e51b815260040161030c90610f7e565b506001600160a01b031660009081526003602052604090205490565b61049d61076c565b6001600160a01b03166104ae61051e565b6001600160a01b0316146104d45760405162461bcd60e51b815260040161030c9061105d565b6006546040516000916001600160a01b0316907f8be0079c531659141344cd1fd0a4f28419497f9722a3daafe3b4186f6b6457e0908390a3600680546001600160a01b0319169055565b6006546001600160a01b031690565b600b8054610264906111a5565b61054261076c565b6001600160a01b0316826001600160a01b031614156105735760405162461bcd60e51b815260040161030c90610e9e565b806005600061058061076c565b6001600160a01b03908116825260208083019390935260409182016000908120918716808252919093529120805460ff1916921515929092179091556105c461076c565b6001600160a01b03167f17307eab39ab6107e8899845ad3d59bd9653f200f220920489ca2b5937696c31836040516105fc9190610da4565b60405180910390a35050565b61061961061361076c565b836107de565b6106355760405162461bcd60e51b815260040161030c9061111c565b61064184848484610990565b50505050565b6001600160a01b03918216600090815260056020908152604080832093909416825291909152205460ff1690565b61067d61076c565b6001600160a01b031661068e61051e565b6001600160a01b0316146106b45760405162461bcd60e51b815260040161030c9061105d565b6001600160a01b0381166106da5760405162461bcd60e51b815260040161030c90610e14565b6006546040516001600160a01b038084169216907f8be0079c531659141344cd1fd0a4f28419497f9722a3daafe3b4186f6b6457e090600090a3600680546001600160a01b0319166001600160a01b0392909216919091179055565b6001600160e01b031981166301ffc9a760e01b14919050565b6000908152600260205260409020546001600160a01b0316151590565b3390565b600081815260046020526040902080546001600160a01b0319166001600160a01b03841690811790915581906107a58261041c565b6001600160a01b03167f8c5be1e5ebec7d5bd14f71427d1e84f3dd0314c0f7b2291e5b200ac8c7c3b92560405160405180910390a45050565b60006107e98261074f565b6108055760405162461bcd60e51b815260040161030c90610ed5565b60006108108361041c565b9050806001600160a01b0316846001600160a01b0316148061084b5750836001600160a01b0316610840846102e5565b6001600160a01b0316145b8061085b575061085b8185610647565b949350505050565b826001600160a01b03166108768261041c565b6001600160a01b03161461089c5760405162461bcd60e51b815260040161030c90611092565b6001600160a01b0382166108c25760405162461bcd60e51b815260040161030c90610e5a565b6108cd8383836103c4565b6108d8600082610770565b6001600160a01b038316600090815260036020526040812080546001929061090190849061118e565b90915550506001600160a01b038216600090815260036020526040812080546001929061092f908490611176565b909155505060008181526002602052604080822080546001600160a01b0319166001600160a01b0386811691821790925591518493918716917fddf252ad1be2c89b69c2b068fc378daa952ba7f163c4a11628f55a4df523b3ef91a4505050565b61099b848484610863565b6109a7848484846109c3565b6106415760405162461bcd60e51b815260040161030c90610dc2565b60006109d7846001600160a01b0316610ade565b15610ad357836001600160a01b031663150b7a026109f361076c565b8786866040518563ffffffff1660e01b8152600401610a159493929190610d67565b602060405180830381600087803b158015610a2f57600080fd5b505af1925050508015610a5f575060408051601f3d908101601f19168201909252610a5c91810190610cd4565b60015b610ab9573d808015610a8d576040519150601f19603f3d011682016040523d82523d6000602084013e610a92565b606091505b508051610ab15760405162461bcd60e51b815260040161030c90610dc2565b805181602001fd5b6001600160e01b031916630a85bd0160e11b14905061085b565b506001949350505050565b3b151590565b80356001600160a01b038116811461025257600080fd5b600060208284031215610b0c578081fd5b610b1582610ae4565b9392505050565b60008060408385031215610b2e578081fd5b610b3783610ae4565b9150610b4560208401610ae4565b90509250929050565b600080600060608486031215610b62578081fd5b610b6b84610ae4565b9250610b7960208501610ae4565b9150604084013590509250925092565b60008060008060808587031215610b9e578081fd5b610ba785610ae4565b93506020610bb6818701610ae4565b935060408601359250606086013567ffffffffffffffff80821115610bd9578384fd5b818801915088601f830112610bec578384fd5b813581811115610bfe57610bfe6111f6565b604051601f8201601f1916810185018381118282101715610c2157610c216111f6565b60405281815283820185018b1015610c37578586fd5b81858501868301379081019093019390935250939692955090935050565b60008060408385031215610c67578182fd5b610c7083610ae4565b915060208301358015158114610c84578182fd5b809150509250929050565b60008060408385031215610ca1578182fd5b610caa83610ae4565b946020939093013593505050565b600060208284031215610cc9578081fd5b8135610b158161120c565b600060208284031215610ce5578081fd5b8151610b158161120c565b600060208284031215610d01578081fd5b5035919050565b60008151808452815b81811015610d2d57602081850181015186830182015201610d11565b81811115610d3e5782602083870101525b50601f01601f19169290920160200192915050565b6001600160a01b0391909116815260200190565b6001600160a01b0385811682528416602082015260408101839052608060608201819052600090610d9a90830184610d08565b9695505050505050565b901515815260200190565b600060208252610b156020830184610d08565b60208082526032908201527f4552433732313a207472616e7366657220746f206e6f6e20455243373231526560408201527131b2b4bb32b91034b6b83632b6b2b73a32b960711b606082015260800190565b60208082526026908201527f4f776e61626c653a206e6577206f776e657220697320746865207a65726f206160408201526564647265737360d01b606082015260800190565b60208082526024908201527f4552433732313a207472616e7366657220746f20746865207a65726f206164646040820152637265737360e01b606082015260800190565b60208082526019908201527f4552433732313a20617070726f766520746f2063616c6c657200000000000000604082015260600190565b6020808252602c908201527f4552433732313a206f70657261746f7220717565727920666f72206e6f6e657860408201526b34b9ba32b73a103a37b5b2b760a11b606082015260800190565b60208082526038908201527f4552433732313a20617070726f76652063616c6c6572206973206e6f74206f7760408201527f6e6572206e6f7220617070726f76656420666f7220616c6c0000000000000000606082015260800190565b6020808252602a908201527f4552433732313a2062616c616e636520717565727920666f7220746865207a65604082015269726f206164647265737360b01b606082015260800190565b60208082526029908201527f4552433732313a206f776e657220717565727920666f72206e6f6e657869737460408201526832b73a103a37b5b2b760b91b606082015260800190565b6020808252602c908201527f4552433732313a20617070726f76656420717565727920666f72206e6f6e657860408201526b34b9ba32b73a103a37b5b2b760a11b606082015260800190565b6020808252818101527f4f776e61626c653a2063616c6c6572206973206e6f7420746865206f776e6572604082015260600190565b60208082526029908201527f4552433732313a207472616e73666572206f6620746f6b656e2074686174206960408201526839903737ba1037bbb760b91b606082015260800190565b60208082526021908201527f4552433732313a20617070726f76616c20746f2063757272656e74206f776e656040820152603960f91b606082015260800190565b60208082526031908201527f4552433732313a207472616e736665722063616c6c6572206973206e6f74206f6040820152701ddb995c881b9bdc88185c1c1c9bdd9959607a1b606082015260800190565b90815260200190565b60008219821115611189576111896111e0565b500190565b6000828210156111a0576111a06111e0565b500390565b6002810460018216806111b957607f821691505b602082108114156111da57634e487b7160e01b600052602260045260246000fd5b50919050565b634e487b7160e01b600052601160045260246000fd5b634e487b7160e01b600052604160045260246000fd5b6001600160e01b03198116811461122257600080fd5b5056fea26469706673582212200ff7ceaa79a10b1ac95802031240733a0d08ff01b24ca5d783a641ab9972889064736f6c63430008000033",
    "sourcePath": "/Users/jabbathegut/repositories/textile-supply-chain-ethereum/contracts/SupplyChainNFT.sol",
    "compiler": {
        "name": "solc",
        "version": "0.8.0+commit.c7dfd78e"
    },
    "functionHashes": {
        "approve(address,uint256)": "095ea7b3",
        "balanceOf(address)": "70a08231",
        "getApproved(uint256)": "081812fc",
        "isApprovedForAll(address,address)": "e985e9c5",
        "name()": "06fdde03",
        "owner()": "8da5cb5b",
        "ownerOf(uint256)": "6352211e",
        "renounceOwnership()": "715018a6",
        "safeTransferFrom(address,address,uint256)": "42842e0e",
        "safeTransferFrom(address,address,uint256,bytes)": "b88d4fde",
        "setApprovalForAll(address,bool)": "a22cb465",
        "supportsInterface(bytes4)": "01ffc9a7",
        "symbol()": "95d89b41",
        "transferFrom(address,address,uint256)": "23b872dd",
        "transferOwnership(address)": "f2fde38b"
    },
    "gasEstimates": {
        "creation": {
            "codeDepositCost": "939800",
            "executionCost": "infinite",
            "totalCost": "infinite"
        },
        "external": {
            "approve(address,uint256)": "infinite",
            "balanceOf(address)": "1333",
            "getApproved(uint256)": "2223",
            "isApprovedForAll(address,address)": "infinite",
            "name()": "infinite",
            "owner()": "1137",
            "ownerOf(uint256)": "1366",
            "renounceOwnership()": "24297",
            "safeTransferFrom(address,address,uint256)": "infinite",
            "safeTransferFrom(address,address,uint256,bytes)": "infinite",
            "setApprovalForAll(address,bool)": "infinite",
            "supportsInterface(bytes4)": "549",
            "symbol()": "infinite",
            "transferFrom(address,address,uint256)": "infinite",
            "transferOwnership(address)": "24578"
        }
    }
}