{
  "contractName": "ChainOfCustodyToken",
  "abi": [
    {
      "inputs": [
        {
          "internalType": "string",
          "name": "_name",
          "type": "string"
        },
        {
          "internalType": "string",
          "name": "_symbol",
          "type": "string"
        },
        {
          "internalType": "address",
          "name": "_registry",
          "type": "address"
        },
        {
          "internalType": "address",
          "name": "_rbac",
          "type": "address"
        }
      ],
      "stateMutability": "nonpayable",
      "type": "constructor"
    },
    {
      "anonymous": false,
      "inputs": [
        {
          "indexed": true,
          "internalType": "address",
          "name": "owner",
          "type": "address"
        },
        {
          "indexed": true,
          "internalType": "address",
          "name": "approved",
          "type": "address"
        },
        {
          "indexed": true,
          "internalType": "uint256",
          "name": "tokenId",
          "type": "uint256"
        }
      ],
      "name": "Approval",
      "type": "event"
    },
    {
      "anonymous": false,
      "inputs": [
        {
          "indexed": true,
          "internalType": "address",
          "name": "owner",
          "type": "address"
        },
        {
          "indexed": true,
          "internalType": "address",
          "name": "operator",
          "type": "address"
        },
        {
          "indexed": false,
          "internalType": "bool",
          "name": "approved",
          "type": "bool"
        }
      ],
      "name": "ApprovalForAll",
      "type": "event"
    },
    {
      "anonymous": false,
      "inputs": [
        {
          "components": [
            {
              "internalType": "uint256",
              "name": "time",
              "type": "uint256"
            },
            {
              "internalType": "uint256",
              "name": "tokenId",
              "type": "uint256"
            }
          ],
          "indexed": false,
          "internalType": "struct Structs.NonGSETransaction",
          "name": "",
          "type": "tuple"
        }
      ],
      "name": "NonGSETransaction",
      "type": "event"
    },
    {
      "anonymous": false,
      "inputs": [
        {
          "indexed": true,
          "internalType": "address",
          "name": "previousOwner",
          "type": "address"
        },
        {
          "indexed": true,
          "internalType": "address",
          "name": "newOwner",
          "type": "address"
        }
      ],
      "name": "OwnershipTransferred",
      "type": "event"
    },
    {
      "anonymous": false,
      "inputs": [
        {
          "indexed": false,
          "internalType": "address",
          "name": "",
          "type": "address"
        },
        {
          "indexed": false,
          "internalType": "address",
          "name": "",
          "type": "address"
        },
        {
          "indexed": false,
          "internalType": "uint256",
          "name": "",
          "type": "uint256"
        }
      ],
      "name": "TokenTransfer",
      "type": "event"
    },
    {
      "anonymous": false,
      "inputs": [
        {
          "indexed": true,
          "internalType": "address",
          "name": "from",
          "type": "address"
        },
        {
          "indexed": true,
          "internalType": "address",
          "name": "to",
          "type": "address"
        },
        {
          "indexed": true,
          "internalType": "uint256",
          "name": "tokenId",
          "type": "uint256"
        }
      ],
      "name": "Transfer",
      "type": "event"
    },
    {
      "inputs": [
        {
          "internalType": "address",
          "name": "to",
          "type": "address"
        },
        {
          "internalType": "uint256",
          "name": "tokenId",
          "type": "uint256"
        }
      ],
      "name": "approve",
      "outputs": [],
      "stateMutability": "nonpayable",
      "type": "function"
    },
    {
      "inputs": [
        {
          "internalType": "address",
          "name": "owner",
          "type": "address"
        }
      ],
      "name": "balanceOf",
      "outputs": [
        {
          "internalType": "uint256",
          "name": "",
          "type": "uint256"
        }
      ],
      "stateMutability": "view",
      "type": "function",
      "constant": true
    },
    {
      "inputs": [
        {
          "internalType": "uint256",
          "name": "tokenId",
          "type": "uint256"
        }
      ],
      "name": "getApproved",
      "outputs": [
        {
          "internalType": "address",
          "name": "",
          "type": "address"
        }
      ],
      "stateMutability": "view",
      "type": "function",
      "constant": true
    },
    {
      "inputs": [
        {
          "internalType": "address",
          "name": "owner",
          "type": "address"
        },
        {
          "internalType": "address",
          "name": "operator",
          "type": "address"
        }
      ],
      "name": "isApprovedForAll",
      "outputs": [
        {
          "internalType": "bool",
          "name": "",
          "type": "bool"
        }
      ],
      "stateMutability": "view",
      "type": "function",
      "constant": true
    },
    {
      "inputs": [],
      "name": "name",
      "outputs": [
        {
          "internalType": "string",
          "name": "",
          "type": "string"
        }
      ],
      "stateMutability": "view",
      "type": "function",
      "constant": true
    },
    {
      "inputs": [],
      "name": "owner",
      "outputs": [
        {
          "internalType": "address",
          "name": "",
          "type": "address"
        }
      ],
      "stateMutability": "view",
      "type": "function",
      "constant": true
    },
    {
      "inputs": [
        {
          "internalType": "uint256",
          "name": "tokenId",
          "type": "uint256"
        }
      ],
      "name": "ownerOf",
      "outputs": [
        {
          "internalType": "address",
          "name": "",
          "type": "address"
        }
      ],
      "stateMutability": "view",
      "type": "function",
      "constant": true
    },
    {
      "inputs": [],
      "name": "renounceOwnership",
      "outputs": [],
      "stateMutability": "nonpayable",
      "type": "function"
    },
    {
      "inputs": [
        {
          "internalType": "address",
          "name": "from",
          "type": "address"
        },
        {
          "internalType": "address",
          "name": "to",
          "type": "address"
        },
        {
          "internalType": "uint256",
          "name": "tokenId",
          "type": "uint256"
        }
      ],
      "name": "safeTransferFrom",
      "outputs": [],
      "stateMutability": "nonpayable",
      "type": "function"
    },
    {
      "inputs": [
        {
          "internalType": "address",
          "name": "from",
          "type": "address"
        },
        {
          "internalType": "address",
          "name": "to",
          "type": "address"
        },
        {
          "internalType": "uint256",
          "name": "tokenId",
          "type": "uint256"
        },
        {
          "internalType": "bytes",
          "name": "_data",
          "type": "bytes"
        }
      ],
      "name": "safeTransferFrom",
      "outputs": [],
      "stateMutability": "nonpayable",
      "type": "function"
    },
    {
      "inputs": [
        {
          "internalType": "address",
          "name": "operator",
          "type": "address"
        },
        {
          "internalType": "bool",
          "name": "approved",
          "type": "bool"
        }
      ],
      "name": "setApprovalForAll",
      "outputs": [],
      "stateMutability": "nonpayable",
      "type": "function"
    },
    {
      "inputs": [
        {
          "internalType": "bytes4",
          "name": "interfaceId",
          "type": "bytes4"
        }
      ],
      "name": "supportsInterface",
      "outputs": [
        {
          "internalType": "bool",
          "name": "",
          "type": "bool"
        }
      ],
      "stateMutability": "view",
      "type": "function",
      "constant": true
    },
    {
      "inputs": [],
      "name": "symbol",
      "outputs": [
        {
          "internalType": "string",
          "name": "",
          "type": "string"
        }
      ],
      "stateMutability": "view",
      "type": "function",
      "constant": true
    },
    {
      "inputs": [
        {
          "internalType": "address",
          "name": "from",
          "type": "address"
        },
        {
          "internalType": "address",
          "name": "to",
          "type": "address"
        },
        {
          "internalType": "uint256",
          "name": "tokenId",
          "type": "uint256"
        }
      ],
      "name": "transferFrom",
      "outputs": [],
      "stateMutability": "nonpayable",
      "type": "function"
    },
    {
      "inputs": [
        {
          "internalType": "address",
          "name": "newOwner",
          "type": "address"
        }
      ],
      "name": "transferOwnership",
      "outputs": [],
      "stateMutability": "nonpayable",
      "type": "function"
    },
    {
      "inputs": [
        {
          "internalType": "address",
          "name": "_owner",
          "type": "address"
        },
        {
          "components": [
            {
              "internalType": "uint256[]",
              "name": "sourceTokenIds",
              "type": "uint256[]"
            }
          ],
          "internalType": "struct Structs.Metadata",
          "name": "_tokenData",
          "type": "tuple"
        }
      ],
      "name": "mintToken",
      "outputs": [
        {
          "internalType": "uint256",
          "name": "",
          "type": "uint256"
        }
      ],
      "stateMutability": "nonpayable",
      "type": "function"
    },
    {
      "inputs": [
        {
          "internalType": "address",
          "name": "_from",
          "type": "address"
        },
        {
          "internalType": "address",
          "name": "_to",
          "type": "address"
        },
        {
          "internalType": "uint256",
          "name": "_tokenId",
          "type": "uint256"
        }
      ],
      "name": "transferToken",
      "outputs": [],
      "stateMutability": "nonpayable",
      "type": "function"
    },
    {
      "inputs": [
        {
          "internalType": "uint256",
          "name": "_tokenId",
          "type": "uint256"
        }
      ],
      "name": "getTokenMetadata",
      "outputs": [
        {
          "components": [
            {
              "internalType": "uint256[]",
              "name": "sourceTokenIds",
              "type": "uint256[]"
            }
          ],
          "internalType": "struct Structs.Metadata",
          "name": "",
          "type": "tuple"
        }
      ],
      "stateMutability": "view",
      "type": "function",
      "constant": true
    }
  ],
  "bytecode": "0x60806040523480156200001157600080fd5b50604051620044b0380380620044b0833981810160405281019062000037919062000387565b6040518060400160405280601081526020017f537570706c79436861696e546f6b656e000000000000000000000000000000008152506040518060400160405280600381526020017f53435400000000000000000000000000000000000000000000000000000000008152508160009080519060200190620000bb9291906200024e565b508060019080519060200190620000d49291906200024e565b5050506000620000e96200024660201b60201c565b905080600660006101000a81548173ffffffffffffffffffffffffffffffffffffffff021916908373ffffffffffffffffffffffffffffffffffffffff1602179055508073ffffffffffffffffffffffffffffffffffffffff16600073ffffffffffffffffffffffffffffffffffffffff167f8be0079c531659141344cd1fd0a4f28419497f9722a3daafe3b4186f6b6457e060405160405180910390a35081600860006101000a81548173ffffffffffffffffffffffffffffffffffffffff021916908373ffffffffffffffffffffffffffffffffffffffff16021790555080600960006101000a81548173ffffffffffffffffffffffffffffffffffffffff021916908373ffffffffffffffffffffffffffffffffffffffff16021790555083600a9080519060200190620002229291906200024e565b5082600b90805190602001906200023b9291906200024e565b5050505050620005a4565b600033905090565b8280546200025c90620004f6565b90600052602060002090601f016020900481019282620002805760008555620002cc565b82601f106200029b57805160ff1916838001178555620002cc565b82800160010185558215620002cc579182015b82811115620002cb578251825591602001919060010190620002ae565b5b509050620002db9190620002df565b5090565b5b80821115620002fa576000816000905550600101620002e0565b5090565b6000620003156200030f8462000459565b62000425565b9050828152602081018484840111156200032e57600080fd5b6200033b848285620004c0565b509392505050565b60008151905062000354816200058a565b92915050565b600082601f8301126200036c57600080fd5b81516200037e848260208601620002fe565b91505092915050565b600080600080608085870312156200039e57600080fd5b600085015167ffffffffffffffff811115620003b957600080fd5b620003c7878288016200035a565b945050602085015167ffffffffffffffff811115620003e557600080fd5b620003f3878288016200035a565b9350506040620004068782880162000343565b9250506060620004198782880162000343565b91505092959194509250565b6000604051905081810181811067ffffffffffffffff821117156200044f576200044e6200055b565b5b8060405250919050565b600067ffffffffffffffff8211156200047757620004766200055b565b5b601f19601f8301169050602081019050919050565b60006200049982620004a0565b9050919050565b600073ffffffffffffffffffffffffffffffffffffffff82169050919050565b60005b83811015620004e0578082015181840152602081019050620004c3565b83811115620004f0576000848401525b50505050565b600060028204905060018216806200050f57607f821691505b602082108114156200052657620005256200052c565b5b50919050565b7f4e487b7100000000000000000000000000000000000000000000000000000000600052602260045260246000fd5b7f4e487b7100000000000000000000000000000000000000000000000000000000600052604160045260246000fd5b62000595816200048c565b8114620005a157600080fd5b50565b613efc80620005b46000396000f3fe608060405234801561001057600080fd5b50600436106101165760003560e01c8063715018a6116100a2578063b88d4fde11610071578063b88d4fde146102df578063c47e42b9146102fb578063e985e9c51461032b578063f2fde38b1461035b578063f5537ede1461037757610116565b8063715018a61461027d5780638da5cb5b1461028757806395d89b41146102a5578063a22cb465146102c357610116565b806323b872dd116100e957806323b872dd146101b557806342842e0e146101d157806360316801146101ed5780636352211e1461021d57806370a082311461024d57610116565b806301ffc9a71461011b57806306fdde031461014b578063081812fc14610169578063095ea7b314610199575b600080fd5b61013560048036038101906101309190612be1565b610393565b604051610142919061377e565b60405180910390f35b61015361040d565b6040516101609190613799565b60405180910390f35b610183600480360381019061017e9190612cb5565b61049b565b6040516101909190613687565b60405180910390f35b6101b360048036038101906101ae9190612b7c565b610520565b005b6101cf60048036038101906101ca9190612a22565b610638565b005b6101eb60048036038101906101e69190612a22565b610698565b005b61020760048036038101906102029190612cb5565b6106b8565b6040516102149190613a7b565b60405180910390f35b61023760048036038101906102329190612cb5565b610785565b6040516102449190613687565b60405180910390f35b610267600480360381019061026291906129bd565b610837565b6040516102749190613ab8565b60405180910390f35b6102856108ef565b005b61028f610a2c565b60405161029c9190613687565b60405180910390f35b6102ad610a56565b6040516102ba9190613799565b60405180910390f35b6102dd60048036038101906102d89190612aec565b610ae4565b005b6102f960048036038101906102f49190612a71565b610c65565b005b61031560048036038101906103109190612b28565b610cc7565b6040516103229190613ab8565b60405180910390f35b610345600480360381019061034091906129e6565b61114e565b604051610352919061377e565b60405180910390f35b610375600480360381019061037091906129bd565b6111e2565b005b610391600480360381019061038c9190612a22565b61138e565b005b60007f80ac58cd000000000000000000000000000000000000000000000000000000007bffffffffffffffffffffffffffffffffffffffffffffffffffffffff1916827bffffffffffffffffffffffffffffffffffffffffffffffffffffffff191614806104065750610405826117a8565b5b9050919050565b600a805461041a90613d41565b80601f016020809104026020016040519081016040528092919081815260200182805461044690613d41565b80156104935780601f1061046857610100808354040283529160200191610493565b820191906000526020600020905b81548152906001019060200180831161047657829003601f168201915b505050505081565b60006104a682611812565b6104e5576040517f08c379a00000000000000000000000000000000000000000000000000000000081526004016104dc9061395b565b60405180910390fd5b6004600083815260200190815260200160002060009054906101000a900473ffffffffffffffffffffffffffffffffffffffff169050919050565b600061052b82610785565b90508073ffffffffffffffffffffffffffffffffffffffff168373ffffffffffffffffffffffffffffffffffffffff16141561059c576040517f08c379a0000000000000000000000000000000000000000000000000000000008152600401610593906139db565b60405180910390fd5b8073ffffffffffffffffffffffffffffffffffffffff166105bb61187e565b73ffffffffffffffffffffffffffffffffffffffff1614806105ea57506105e9816105e461187e565b61114e565b5b610629576040517f08c379a00000000000000000000000000000000000000000000000000000000081526004016106209061389b565b60405180910390fd5b6106338383611886565b505050565b61064961064361187e565b8261193f565b610688576040517f08c379a000000000000000000000000000000000000000000000000000000000815260040161067f906139fb565b60405180910390fd5b610693838383611a1d565b505050565b6106b383838360405180602001604052806000815250610c65565b505050565b6106c061257c565b6106c982611812565b610708576040517f08c379a00000000000000000000000000000000000000000000000000000000081526004016106ff9061391b565b60405180910390fd5b600c60008381526020019081526020016000206040518060200160405290816000820180548060200260200160405190810160405280929190818152602001828054801561077557602002820191906000526020600020905b815481526020019060010190808311610761575b5050505050815250509050919050565b6000806002600084815260200190815260200160002060009054906101000a900473ffffffffffffffffffffffffffffffffffffffff169050600073ffffffffffffffffffffffffffffffffffffffff168173ffffffffffffffffffffffffffffffffffffffff16141561082e576040517f08c379a0000000000000000000000000000000000000000000000000000000008152600401610825906138db565b60405180910390fd5b80915050919050565b60008073ffffffffffffffffffffffffffffffffffffffff168273ffffffffffffffffffffffffffffffffffffffff1614156108a8576040517f08c379a000000000000000000000000000000000000000000000000000000000815260040161089f906138bb565b60405180910390fd5b600360008373ffffffffffffffffffffffffffffffffffffffff1673ffffffffffffffffffffffffffffffffffffffff168152602001908152602001600020549050919050565b6108f761187e565b73ffffffffffffffffffffffffffffffffffffffff16610915610a2c565b73ffffffffffffffffffffffffffffffffffffffff161461096b576040517f08c379a00000000000000000000000000000000000000000000000000000000081526004016109629061399b565b60405180910390fd5b600073ffffffffffffffffffffffffffffffffffffffff16600660009054906101000a900473ffffffffffffffffffffffffffffffffffffffff1673ffffffffffffffffffffffffffffffffffffffff167f8be0079c531659141344cd1fd0a4f28419497f9722a3daafe3b4186f6b6457e060405160405180910390a36000600660006101000a81548173ffffffffffffffffffffffffffffffffffffffff021916908373ffffffffffffffffffffffffffffffffffffffff160217905550565b6000600660009054906101000a900473ffffffffffffffffffffffffffffffffffffffff16905090565b600b8054610a6390613d41565b80601f0160208091040260200160405190810160405280929190818152602001828054610a8f90613d41565b8015610adc5780601f10610ab157610100808354040283529160200191610adc565b820191906000526020600020905b815481529060010190602001808311610abf57829003601f168201915b505050505081565b610aec61187e565b73ffffffffffffffffffffffffffffffffffffffff168273ffffffffffffffffffffffffffffffffffffffff161415610b5a576040517f08c379a0000000000000000000000000000000000000000000000000000000008152600401610b519061385b565b60405180910390fd5b8060056000610b6761187e565b73ffffffffffffffffffffffffffffffffffffffff1673ffffffffffffffffffffffffffffffffffffffff16815260200190815260200160002060008473ffffffffffffffffffffffffffffffffffffffff1673ffffffffffffffffffffffffffffffffffffffff16815260200190815260200160002060006101000a81548160ff0219169083151502179055508173ffffffffffffffffffffffffffffffffffffffff16610c1461187e565b73ffffffffffffffffffffffffffffffffffffffff167f17307eab39ab6107e8899845ad3d59bd9653f200f220920489ca2b5937696c3183604051610c59919061377e565b60405180910390a35050565b610c76610c7061187e565b8361193f565b610cb5576040517f08c379a0000000000000000000000000000000000000000000000000000000008152600401610cac906139fb565b60405180910390fd5b610cc184848484611c79565b50505050565b6000600960009054906101000a900473ffffffffffffffffffffffffffffffffffffffff1673ffffffffffffffffffffffffffffffffffffffff1663217fe6c6610d0f61187e565b600960009054906101000a900473ffffffffffffffffffffffffffffffffffffffff1673ffffffffffffffffffffffffffffffffffffffff16634426fb0b6040518163ffffffff1660e01b815260040160006040518083038186803b158015610d7757600080fd5b505afa158015610d8b573d6000803e3d6000fd5b505050506040513d6000823e3d601f19601f82011682018060405250810190610db49190612c33565b6040518363ffffffff1660e01b8152600401610dd1929190613725565b60206040518083038186803b158015610de957600080fd5b505afa158015610dfd573d6000803e3d6000fd5b505050506040513d601f19601f82011682018060405250810190610e219190612bb8565b610e60576040517f08c379a0000000000000000000000000000000000000000000000000000000008152600401610e579061397b565b60405180910390fd5b600960009054906101000a900473ffffffffffffffffffffffffffffffffffffffff1673ffffffffffffffffffffffffffffffffffffffff1663217fe6c684600960009054906101000a900473ffffffffffffffffffffffffffffffffffffffff1673ffffffffffffffffffffffffffffffffffffffff16631cee4a9d6040518163ffffffff1660e01b815260040160006040518083038186803b158015610f0757600080fd5b505afa158015610f1b573d6000803e3d6000fd5b505050506040513d6000823e3d601f19601f82011682018060405250810190610f449190612c33565b6040518363ffffffff1660e01b8152600401610f61929190613725565b60206040518083038186803b158015610f7957600080fd5b505afa158015610f8d573d6000803e3d6000fd5b505050506040513d601f19601f82011682018060405250810190610fb19190612bb8565b610ff0576040517f08c379a0000000000000000000000000000000000000000000000000000000008152600401610fe7906137bb565b60405180910390fd5b610ffa6007611cd5565b60006110066007611ceb565b90506110128482611cf9565b82600c6000838152602001908152602001600020600082015181600001908051906020019061104292919061258f565b509050506001600d600083815260200190815260200160002060006101000a81548160ff02191690831515021790555060008360000151905060005b8151811015611106576000600d60008484815181106110c6577f4e487b7100000000000000000000000000000000000000000000000000000000600052603260045260246000fd5b6020026020010151815260200190815260200160002060006101000a81548160ff02191690831515021790555080806110fe90613d73565b91505061107e565b507fd0ed88a3f042c6bbb1e3ea406079b5f2b4b198afccaa535d837f4c63abbc4de66000868460405161113b939291906136a2565b60405180910390a1819250505092915050565b6000600560008473ffffffffffffffffffffffffffffffffffffffff1673ffffffffffffffffffffffffffffffffffffffff16815260200190815260200160002060008373ffffffffffffffffffffffffffffffffffffffff1673ffffffffffffffffffffffffffffffffffffffff16815260200190815260200160002060009054906101000a900460ff16905092915050565b6111ea61187e565b73ffffffffffffffffffffffffffffffffffffffff16611208610a2c565b73ffffffffffffffffffffffffffffffffffffffff161461125e576040517f08c379a00000000000000000000000000000000000000000000000000000000081526004016112559061399b565b60405180910390fd5b600073ffffffffffffffffffffffffffffffffffffffff168173ffffffffffffffffffffffffffffffffffffffff1614156112ce576040517f08c379a00000000000000000000000000000000000000000000000000000000081526004016112c5906137fb565b60405180910390fd5b8073ffffffffffffffffffffffffffffffffffffffff16600660009054906101000a900473ffffffffffffffffffffffffffffffffffffffff1673ffffffffffffffffffffffffffffffffffffffff167f8be0079c531659141344cd1fd0a4f28419497f9722a3daafe3b4186f6b6457e060405160405180910390a380600660006101000a81548173ffffffffffffffffffffffffffffffffffffffff021916908373ffffffffffffffffffffffffffffffffffffffff16021790555050565b600960009054906101000a900473ffffffffffffffffffffffffffffffffffffffff1673ffffffffffffffffffffffffffffffffffffffff1663217fe6c66113d461187e565b600960009054906101000a900473ffffffffffffffffffffffffffffffffffffffff1673ffffffffffffffffffffffffffffffffffffffff16631cee4a9d6040518163ffffffff1660e01b815260040160006040518083038186803b15801561143c57600080fd5b505afa158015611450573d6000803e3d6000fd5b505050506040513d6000823e3d601f19601f820116820180604052508101906114799190612c33565b6040518363ffffffff1660e01b8152600401611496929190613725565b60206040518083038186803b1580156114ae57600080fd5b505afa1580156114c2573d6000803e3d6000fd5b505050506040513d601f19601f820116820180604052508101906114e69190612bb8565b611525576040517f08c379a000000000000000000000000000000000000000000000000000000000815260040161151c90613a3b565b60405180910390fd5b600960009054906101000a900473ffffffffffffffffffffffffffffffffffffffff1673ffffffffffffffffffffffffffffffffffffffff1663217fe6c683600960009054906101000a900473ffffffffffffffffffffffffffffffffffffffff1673ffffffffffffffffffffffffffffffffffffffff16631cee4a9d6040518163ffffffff1660e01b815260040160006040518083038186803b1580156115cc57600080fd5b505afa1580156115e0573d6000803e3d6000fd5b505050506040513d6000823e3d601f19601f820116820180604052508101906116099190612c33565b6040518363ffffffff1660e01b8152600401611626929190613725565b60206040518083038186803b15801561163e57600080fd5b505afa158015611652573d6000803e3d6000fd5b505050506040513d601f19601f820116820180604052508101906116769190612bb8565b6116b5576040517f08c379a00000000000000000000000000000000000000000000000000000000081526004016116ac9061393b565b60405180910390fd5b6116be81611812565b6116fd576040517f08c379a00000000000000000000000000000000000000000000000000000000081526004016116f490613a5b565b60405180910390fd5b600d600082815260200190815260200160002060009054906101000a900460ff1661175d576040517f08c379a000000000000000000000000000000000000000000000000000000000815260040161175490613a1b565b60405180910390fd5b611768838383611a1d565b7fd0ed88a3f042c6bbb1e3ea406079b5f2b4b198afccaa535d837f4c63abbc4de683838360405161179b939291906136a2565b60405180910390a1505050565b60007f01ffc9a7000000000000000000000000000000000000000000000000000000007bffffffffffffffffffffffffffffffffffffffffffffffffffffffff1916827bffffffffffffffffffffffffffffffffffffffffffffffffffffffff1916149050919050565b60008073ffffffffffffffffffffffffffffffffffffffff166002600084815260200190815260200160002060009054906101000a900473ffffffffffffffffffffffffffffffffffffffff1673ffffffffffffffffffffffffffffffffffffffff1614159050919050565b600033905090565b816004600083815260200190815260200160002060006101000a81548173ffffffffffffffffffffffffffffffffffffffff021916908373ffffffffffffffffffffffffffffffffffffffff160217905550808273ffffffffffffffffffffffffffffffffffffffff166118f983610785565b73ffffffffffffffffffffffffffffffffffffffff167f8c5be1e5ebec7d5bd14f71427d1e84f3dd0314c0f7b2291e5b200ac8c7c3b92560405160405180910390a45050565b600061194a82611812565b611989576040517f08c379a00000000000000000000000000000000000000000000000000000000081526004016119809061387b565b60405180910390fd5b600061199483610785565b90508073ffffffffffffffffffffffffffffffffffffffff168473ffffffffffffffffffffffffffffffffffffffff161480611a0357508373ffffffffffffffffffffffffffffffffffffffff166119eb8461049b565b73ffffffffffffffffffffffffffffffffffffffff16145b80611a145750611a13818561114e565b5b91505092915050565b8273ffffffffffffffffffffffffffffffffffffffff16611a3d82610785565b73ffffffffffffffffffffffffffffffffffffffff1614611a93576040517f08c379a0000000000000000000000000000000000000000000000000000000008152600401611a8a906139bb565b60405180910390fd5b600073ffffffffffffffffffffffffffffffffffffffff168273ffffffffffffffffffffffffffffffffffffffff161415611b03576040517f08c379a0000000000000000000000000000000000000000000000000000000008152600401611afa9061383b565b60405180910390fd5b611b0e838383611ec7565b611b19600082611886565b6001600360008573ffffffffffffffffffffffffffffffffffffffff1673ffffffffffffffffffffffffffffffffffffffff1681526020019081526020016000206000828254611b699190613c57565b925050819055506001600360008473ffffffffffffffffffffffffffffffffffffffff1673ffffffffffffffffffffffffffffffffffffffff1681526020019081526020016000206000828254611bc09190613c01565b92505081905550816002600083815260200190815260200160002060006101000a81548173ffffffffffffffffffffffffffffffffffffffff021916908373ffffffffffffffffffffffffffffffffffffffff160217905550808273ffffffffffffffffffffffffffffffffffffffff168473ffffffffffffffffffffffffffffffffffffffff167fddf252ad1be2c89b69c2b068fc378daa952ba7f163c4a11628f55a4df523b3ef60405160405180910390a4505050565b611c84848484611a1d565b611c90848484846123d2565b611ccf576040517f08c379a0000000000000000000000000000000000000000000000000000000008152600401611cc6906137db565b60405180910390fd5b50505050565b6001816000016000828254019250508190555050565b600081600001549050919050565b600073ffffffffffffffffffffffffffffffffffffffff168273ffffffffffffffffffffffffffffffffffffffff161415611d69576040517f08c379a0000000000000000000000000000000000000000000000000000000008152600401611d60906138fb565b60405180910390fd5b611d7281611812565b15611db2576040517f08c379a0000000000000000000000000000000000000000000000000000000008152600401611da99061381b565b60405180910390fd5b611dbe60008383611ec7565b6001600360008473ffffffffffffffffffffffffffffffffffffffff1673ffffffffffffffffffffffffffffffffffffffff1681526020019081526020016000206000828254611e0e9190613c01565b92505081905550816002600083815260200190815260200160002060006101000a81548173ffffffffffffffffffffffffffffffffffffffff021916908373ffffffffffffffffffffffffffffffffffffffff160217905550808273ffffffffffffffffffffffffffffffffffffffff16600073ffffffffffffffffffffffffffffffffffffffff167fddf252ad1be2c89b69c2b068fc378daa952ba7f163c4a11628f55a4df523b3ef60405160405180910390a45050565b600960009054906101000a900473ffffffffffffffffffffffffffffffffffffffff1673ffffffffffffffffffffffffffffffffffffffff1663217fe6c683600960009054906101000a900473ffffffffffffffffffffffffffffffffffffffff1673ffffffffffffffffffffffffffffffffffffffff16631cee4a9d6040518163ffffffff1660e01b815260040160006040518083038186803b158015611f6e57600080fd5b505afa158015611f82573d6000803e3d6000fd5b505050506040513d6000823e3d601f19601f82011682018060405250810190611fab9190612c33565b6040518363ffffffff1660e01b8152600401611fc8929190613725565b60206040518083038186803b158015611fe057600080fd5b505afa158015611ff4573d6000803e3d6000fd5b505050506040513d601f19601f820116820180604052508101906120189190612bb8565b612057576040517f08c379a000000000000000000000000000000000000000000000000000000000815260040161204e9061393b565b60405180910390fd5b600073ffffffffffffffffffffffffffffffffffffffff168373ffffffffffffffffffffffffffffffffffffffff16141580156120c15750600073ffffffffffffffffffffffffffffffffffffffff168273ffffffffffffffffffffffffffffffffffffffff1614155b156123cd576000600860009054906101000a900473ffffffffffffffffffffffffffffffffffffffff1673ffffffffffffffffffffffffffffffffffffffff166333424a35846040518263ffffffff1660e01b81526004016121239190613687565b60006040518083038186803b15801561213b57600080fd5b505afa15801561214f573d6000803e3d6000fd5b505050506040513d6000823e3d601f19601f820116820180604052508101906121789190612c74565b90506000600860009054906101000a900473ffffffffffffffffffffffffffffffffffffffff1673ffffffffffffffffffffffffffffffffffffffff166333424a35866040518263ffffffff1660e01b81526004016121d79190613687565b60006040518083038186803b1580156121ef57600080fd5b505afa158015612203573d6000803e3d6000fd5b505050506040513d6000823e3d601f19601f8201168201806040525081019061222c9190612c74565b90508160400151158061224157508060400151155b156123ca576000604051806040016040528042815260200185815250905082604001516122f857600860009054906101000a900473ffffffffffffffffffffffffffffffffffffffff1673ffffffffffffffffffffffffffffffffffffffff166355b1910a86836040518363ffffffff1660e01b81526004016122c5929190613755565b600060405180830381600087803b1580156122df57600080fd5b505af11580156122f3573d6000803e3d6000fd5b505050505b816040015161239157600860009054906101000a900473ffffffffffffffffffffffffffffffffffffffff1673ffffffffffffffffffffffffffffffffffffffff166355b1910a87836040518363ffffffff1660e01b815260040161235e929190613755565b600060405180830381600087803b15801561237857600080fd5b505af115801561238c573d6000803e3d6000fd5b505050505b7f42877a9eea42c1ac691908c865d7725b555cf0dbd1a6e88da1c18db2051a2803816040516123c09190613a9d565b60405180910390a1505b50505b505050565b60006123f38473ffffffffffffffffffffffffffffffffffffffff16612569565b1561255c578373ffffffffffffffffffffffffffffffffffffffff1663150b7a0261241c61187e565b8786866040518563ffffffff1660e01b815260040161243e94939291906136d9565b602060405180830381600087803b15801561245857600080fd5b505af192505050801561248957506040513d601f19601f820116820180604052508101906124869190612c0a565b60015b61250c573d80600081146124b9576040519150601f19603f3d011682016040523d82523d6000602084013e6124be565b606091505b50600081511415612504576040517f08c379a00000000000000000000000000000000000000000000000000000000081526004016124fb906137db565b60405180910390fd5b805181602001fd5b63150b7a0260e01b7bffffffffffffffffffffffffffffffffffffffffffffffffffffffff1916817bffffffffffffffffffffffffffffffffffffffffffffffffffffffff191614915050612561565b600190505b949350505050565b600080823b905060008111915050919050565b6040518060200160405280606081525090565b8280548282559060005260206000209081019282156125cb579160200282015b828111156125ca5782518255916020019190600101906125af565b5b5090506125d891906125dc565b5090565b5b808211156125f55760008160009055506001016125dd565b5090565b600061260c61260784613b04565b613ad3565b9050808382526020820190508285602086028201111561262b57600080fd5b60005b8581101561265b57816126418882612993565b84526020840193506020830192505060018101905061262e565b5050509392505050565b600061267861267384613b04565b613ad3565b9050808382526020820190508285602086028201111561269757600080fd5b60005b858110156126c757816126ad88826129a8565b84526020840193506020830192505060018101905061269a565b5050509392505050565b60006126e46126df84613b30565b613ad3565b9050828152602081018484840111156126fc57600080fd5b612707848285613cff565b509392505050565b600061272261271d84613b60565b613ad3565b90508281526020810184848401111561273a57600080fd5b612745848285613d0e565b509392505050565b60008135905061275c81613e5a565b92915050565b600082601f83011261277357600080fd5b81356127838482602086016125f9565b91505092915050565b600082601f83011261279d57600080fd5b81516127ad848260208601612665565b91505092915050565b6000813590506127c581613e71565b92915050565b6000815190506127da81613e71565b92915050565b6000813590506127ef81613e88565b92915050565b60008151905061280481613e88565b92915050565b600082601f83011261281b57600080fd5b813561282b8482602086016126d1565b91505092915050565b60008151905061284381613e9f565b92915050565b600082601f83011261285a57600080fd5b815161286a84826020860161270f565b91505092915050565b60006020828403121561288557600080fd5b61288f6020613ad3565b9050600082013567ffffffffffffffff8111156128ab57600080fd5b6128b784828501612762565b60008301525092915050565b600060a082840312156128d557600080fd5b6128df60a0613ad3565b905060006128ef84828501612834565b600083015250602082015167ffffffffffffffff81111561290f57600080fd5b61291b84828501612849565b602083015250604061292f848285016127cb565b604083015250606082015167ffffffffffffffff81111561294f57600080fd5b61295b8482850161278c565b606083015250608082015167ffffffffffffffff81111561297b57600080fd5b6129878482850161278c565b60808301525092915050565b6000813590506129a281613eaf565b92915050565b6000815190506129b781613eaf565b92915050565b6000602082840312156129cf57600080fd5b60006129dd8482850161274d565b91505092915050565b600080604083850312156129f957600080fd5b6000612a078582860161274d565b9250506020612a188582860161274d565b9150509250929050565b600080600060608486031215612a3757600080fd5b6000612a458682870161274d565b9350506020612a568682870161274d565b9250506040612a6786828701612993565b9150509250925092565b60008060008060808587031215612a8757600080fd5b6000612a958782880161274d565b9450506020612aa68782880161274d565b9350506040612ab787828801612993565b925050606085013567ffffffffffffffff811115612ad457600080fd5b612ae08782880161280a565b91505092959194509250565b60008060408385031215612aff57600080fd5b6000612b0d8582860161274d565b9250506020612b1e858286016127b6565b9150509250929050565b60008060408385031215612b3b57600080fd5b6000612b498582860161274d565b925050602083013567ffffffffffffffff811115612b6657600080fd5b612b7285828601612873565b9150509250929050565b60008060408385031215612b8f57600080fd5b6000612b9d8582860161274d565b9250506020612bae85828601612993565b9150509250929050565b600060208284031215612bca57600080fd5b6000612bd8848285016127cb565b91505092915050565b600060208284031215612bf357600080fd5b6000612c01848285016127e0565b91505092915050565b600060208284031215612c1c57600080fd5b6000612c2a848285016127f5565b91505092915050565b600060208284031215612c4557600080fd5b600082015167ffffffffffffffff811115612c5f57600080fd5b612c6b84828501612849565b91505092915050565b600060208284031215612c8657600080fd5b600082015167ffffffffffffffff811115612ca057600080fd5b612cac848285016128c3565b91505092915050565b600060208284031215612cc757600080fd5b6000612cd584828501612993565b91505092915050565b6000612cea8383613669565b60208301905092915050565b612cff81613c8b565b82525050565b6000612d1082613ba0565b612d1a8185613bce565b9350612d2583613b90565b8060005b83811015612d56578151612d3d8882612cde565b9750612d4883613bc1565b925050600181019050612d29565b5085935050505092915050565b612d6c81613c9d565b82525050565b6000612d7d82613bab565b612d878185613bdf565b9350612d97818560208601613d0e565b612da081613e49565b840191505092915050565b6000612db682613bb6565b612dc08185613bf0565b9350612dd0818560208601613d0e565b612dd981613e49565b840191505092915050565b6000612df1602383613bf0565b91507f4f776e6572206d757374206265206120737570706c7920636861696e20656e7460008301527f69747900000000000000000000000000000000000000000000000000000000006020830152604082019050919050565b6000612e57603283613bf0565b91507f4552433732313a207472616e7366657220746f206e6f6e20455243373231526560008301527f63656976657220696d706c656d656e74657200000000000000000000000000006020830152604082019050919050565b6000612ebd602683613bf0565b91507f4f776e61626c653a206e6577206f776e657220697320746865207a65726f206160008301527f64647265737300000000000000000000000000000000000000000000000000006020830152604082019050919050565b6000612f23601c83613bf0565b91507f4552433732313a20746f6b656e20616c7265616479206d696e746564000000006000830152602082019050919050565b6000612f63602483613bf0565b91507f4552433732313a207472616e7366657220746f20746865207a65726f2061646460008301527f72657373000000000000000000000000000000000000000000000000000000006020830152604082019050919050565b6000612fc9601983613bf0565b91507f4552433732313a20617070726f766520746f2063616c6c6572000000000000006000830152602082019050919050565b6000613009602c83613bf0565b91507f4552433732313a206f70657261746f7220717565727920666f72206e6f6e657860008301527f697374656e7420746f6b656e00000000000000000000000000000000000000006020830152604082019050919050565b600061306f603883613bf0565b91507f4552433732313a20617070726f76652063616c6c6572206973206e6f74206f7760008301527f6e6572206e6f7220617070726f76656420666f7220616c6c00000000000000006020830152604082019050919050565b60006130d5602a83613bf0565b91507f4552433732313a2062616c616e636520717565727920666f7220746865207a6560008301527f726f2061646472657373000000000000000000000000000000000000000000006020830152604082019050919050565b600061313b602983613bf0565b91507f4552433732313a206f776e657220717565727920666f72206e6f6e657869737460008301527f656e7420746f6b656e00000000000000000000000000000000000000000000006020830152604082019050919050565b60006131a1602083613bf0565b91507f4552433732313a206d696e7420746f20746865207a65726f20616464726573736000830152602082019050919050565b60006131e1602183613bf0565b91507f546f6b656e2077697468206769766520494420646f6573206e6f74206578697360008301527f74000000000000000000000000000000000000000000000000000000000000006020830152604082019050919050565b6000613247602d83613bf0565b91507f4f6e6c7920737570706c7920636861696e20656e7469746965732063616e207260008301527f65636569766520746f6b656e73000000000000000000000000000000000000006020830152604082019050919050565b60006132ad602c83613bf0565b91507f4552433732313a20617070726f76656420717565727920666f72206e6f6e657860008301527f697374656e7420746f6b656e00000000000000000000000000000000000000006020830152604082019050919050565b6000613313602383613bf0565b91507f4e6f74207468652076616c696420726f6c6520746f2063726561746520746f6b60008301527f656e7300000000000000000000000000000000000000000000000000000000006020830152604082019050919050565b6000613379602083613bf0565b91507f4f776e61626c653a2063616c6c6572206973206e6f7420746865206f776e65726000830152602082019050919050565b60006133b9602983613bf0565b91507f4552433732313a207472616e73666572206f6620746f6b656e2074686174206960008301527f73206e6f74206f776e00000000000000000000000000000000000000000000006020830152604082019050919050565b600061341f602183613bf0565b91507f4552433732313a20617070726f76616c20746f2063757272656e74206f776e6560008301527f72000000000000000000000000000000000000000000000000000000000000006020830152604082019050919050565b6000613485603183613bf0565b91507f4552433732313a207472616e736665722063616c6c6572206973206e6f74206f60008301527f776e6572206e6f7220617070726f7665640000000000000000000000000000006020830152604082019050919050565b60006134eb602883613bf0565b91507f546f6b656e206d7573742062652061637469766520746f206265207472616e7360008301527f6665727261626c650000000000000000000000000000000000000000000000006020830152604082019050919050565b6000613551602e83613bf0565b91507f4f6e6c7920737570706c7920636861696e20656e7469746965732063616e207460008301527f72616e7366657220746f6b656e730000000000000000000000000000000000006020830152604082019050919050565b60006135b7602283613bf0565b91507f546f6b656e207769746820676976656e20494420646f6573206e6f742065786960008301527f73740000000000000000000000000000000000000000000000000000000000006020830152604082019050919050565b6000602083016000830151848203600086015261362d8282612d05565b9150508091505092915050565b6040820160008201516136506000850182613669565b5060208201516136636020850182613669565b50505050565b61367281613cf5565b82525050565b61368181613cf5565b82525050565b600060208201905061369c6000830184612cf6565b92915050565b60006060820190506136b76000830186612cf6565b6136c46020830185612cf6565b6136d16040830184613678565b949350505050565b60006080820190506136ee6000830187612cf6565b6136fb6020830186612cf6565b6137086040830185613678565b818103606083015261371a8184612d72565b905095945050505050565b600060408201905061373a6000830185612cf6565b818103602083015261374c8184612dab565b90509392505050565b600060608201905061376a6000830185612cf6565b613777602083018461363a565b9392505050565b60006020820190506137936000830184612d63565b92915050565b600060208201905081810360008301526137b38184612dab565b905092915050565b600060208201905081810360008301526137d481612de4565b9050919050565b600060208201905081810360008301526137f481612e4a565b9050919050565b6000602082019050818103600083015261381481612eb0565b9050919050565b6000602082019050818103600083015261383481612f16565b9050919050565b6000602082019050818103600083015261385481612f56565b9050919050565b6000602082019050818103600083015261387481612fbc565b9050919050565b6000602082019050818103600083015261389481612ffc565b9050919050565b600060208201905081810360008301526138b481613062565b9050919050565b600060208201905081810360008301526138d4816130c8565b9050919050565b600060208201905081810360008301526138f48161312e565b9050919050565b6000602082019050818103600083015261391481613194565b9050919050565b60006020820190508181036000830152613934816131d4565b9050919050565b600060208201905081810360008301526139548161323a565b9050919050565b60006020820190508181036000830152613974816132a0565b9050919050565b6000602082019050818103600083015261399481613306565b9050919050565b600060208201905081810360008301526139b48161336c565b9050919050565b600060208201905081810360008301526139d4816133ac565b9050919050565b600060208201905081810360008301526139f481613412565b9050919050565b60006020820190508181036000830152613a1481613478565b9050919050565b60006020820190508181036000830152613a34816134de565b9050919050565b60006020820190508181036000830152613a5481613544565b9050919050565b60006020820190508181036000830152613a74816135aa565b9050919050565b60006020820190508181036000830152613a958184613610565b905092915050565b6000604082019050613ab2600083018461363a565b92915050565b6000602082019050613acd6000830184613678565b92915050565b6000604051905081810181811067ffffffffffffffff82111715613afa57613af9613e1a565b5b8060405250919050565b600067ffffffffffffffff821115613b1f57613b1e613e1a565b5b602082029050602081019050919050565b600067ffffffffffffffff821115613b4b57613b4a613e1a565b5b601f19601f8301169050602081019050919050565b600067ffffffffffffffff821115613b7b57613b7a613e1a565b5b601f19601f8301169050602081019050919050565b6000819050602082019050919050565b600081519050919050565b600081519050919050565b600081519050919050565b6000602082019050919050565b600082825260208201905092915050565b600082825260208201905092915050565b600082825260208201905092915050565b6000613c0c82613cf5565b9150613c1783613cf5565b9250827fffffffffffffffffffffffffffffffffffffffffffffffffffffffffffffffff03821115613c4c57613c4b613dbc565b5b828201905092915050565b6000613c6282613cf5565b9150613c6d83613cf5565b925082821015613c8057613c7f613dbc565b5b828203905092915050565b6000613c9682613cd5565b9050919050565b60008115159050919050565b60007fffffffff0000000000000000000000000000000000000000000000000000000082169050919050565b600073ffffffffffffffffffffffffffffffffffffffff82169050919050565b6000819050919050565b82818337600083830152505050565b60005b83811015613d2c578082015181840152602081019050613d11565b83811115613d3b576000848401525b50505050565b60006002820490506001821680613d5957607f821691505b60208210811415613d6d57613d6c613deb565b5b50919050565b6000613d7e82613cf5565b91507fffffffffffffffffffffffffffffffffffffffffffffffffffffffffffffffff821415613db157613db0613dbc565b5b600182019050919050565b7f4e487b7100000000000000000000000000000000000000000000000000000000600052601160045260246000fd5b7f4e487b7100000000000000000000000000000000000000000000000000000000600052602260045260246000fd5b7f4e487b7100000000000000000000000000000000000000000000000000000000600052604160045260246000fd5b6000601f19601f8301169050919050565b613e6381613c8b565b8114613e6e57600080fd5b50565b613e7a81613c9d565b8114613e8557600080fd5b50565b613e9181613ca9565b8114613e9c57600080fd5b50565b60038110613eac57600080fd5b50565b613eb881613cf5565b8114613ec357600080fd5b5056fea26469706673582212206a76d9fb509b964a24e3b51934f275a414ae3ba5f8605f9e0fb0d48702fbbe4664736f6c63430008000033",
  "immutableReferences": {},
  "source": "// SPDX-License-Identifier: MIT\npragma solidity >=0.4.22 <0.9.0;\n\nimport \"./ERC721.sol\";\nimport \"./LKGRegistry.sol\";\nimport \"./Structs.sol\";\nimport \"./RBAC.sol\";\nimport \"openzeppelin-solidity/contracts/utils/Counters.sol\";\nimport \"openzeppelin-solidity/contracts/access/Ownable.sol\";\n\n/**\n * Contract that represents a NFT in the supply chain. Such a NFT is the digital twin of a real word good\n * and is used to track it on the blockchain.\n */\ncontract ChainOfCustodyToken is ERC721, Ownable {\n    using Counters for Counters.Counter;\n    Counters.Counter private _tokenIds;\n    LKGRegistry private registry;\n    RBAC private rbac;\n    string public name;\n    string public symbol;\n    mapping(uint256 => Structs.Metadata) metadata;\n    mapping(uint256 => bool) activeIndex;\n\n    event NonGSETransaction(Structs.NonGSETransaction);\n    event TokenTransfer(address, address, uint256);\n\n    constructor(\n        string memory _name,\n        string memory _symbol,\n        address _registry,\n        address _rbac\n    ) ERC721(\"SupplyChainToken\", \"SCT\") {\n        registry = LKGRegistry(_registry);\n        rbac = RBAC(_rbac);\n        name = _name;\n        symbol = _symbol;\n    }\n\n    /**\n     * @notice Creates a token and set's the given address as new owner\n     * @param _owner owner of the newly created token\n     * @param _tokenData metadata for the token to be created\n     * @return id of the created token\n     */\n    function mintToken(address _owner, Structs.Metadata memory _tokenData)\n        public\n        returns (uint256)\n    {\n        require(\n            rbac.hasRole(_msgSender(), rbac.SUPPLY_CHAIN_MINTER_ROLE()),\n            \"Not the valid role to create tokens\"\n        );\n        require(\n            rbac.hasRole(_owner, rbac.SUPPLY_CHAIN_ENTITY_ROLE()),\n            \"Owner must be a supply chain entity\"\n        );\n\n        // increment counter for first tokenID\n        _tokenIds.increment();\n        uint256 tokenID = _tokenIds.current();\n\n        // mint token\n        _mint(_owner, tokenID);\n\n        // add _tokenData to internal mapping\n        metadata[tokenID] = _tokenData;\n        // set token as active\n        activeIndex[tokenID] = true;\n        // set all input tokens to inactive, so they cannot be transferred further\n        uint256[] memory inputTokens = _tokenData.sourceTokenIds;\n        for (uint256 i = 0; i < inputTokens.length; i++) {\n            activeIndex[inputTokens[i]] = false;\n        }\n\n        emit TokenTransfer(address(0), _owner, tokenID);\n\n        return tokenID;\n    }\n\n    /**\n     * @notice Transfer token from one entity to another\n     * @param _from sender entity\n     * @param _to receiver entity\n     * @param _tokenId id of the token to be transferred\n     */\n    function transferToken(\n        address _from,\n        address _to,\n        uint256 _tokenId\n    ) public {\n        require(\n            rbac.hasRole(_msgSender(), rbac.SUPPLY_CHAIN_ENTITY_ROLE()),\n            \"Only supply chain entities can transfer tokens\"\n        );\n        require(\n            rbac.hasRole(_to, rbac.SUPPLY_CHAIN_ENTITY_ROLE()),\n            \"Only supply chain entities can receive tokens\"\n        );\n        require(_exists(_tokenId), \"Token with given ID does not exist\");\n        require(\n            activeIndex[_tokenId],\n            \"Token must be active to be transferrable\"\n        );\n\n        _transfer(_from, _to, _tokenId);\n\n        emit TokenTransfer(_from, _to, _tokenId);\n    }\n\n    /**\n     * @notice Returns the metadata belonging to a token\n     * @param _tokenId of the token\n     * @return metadata of the token\n     */\n    function getTokenMetadata(uint256 _tokenId)\n        public\n        view\n        returns (Structs.Metadata memory)\n    {\n        require(_exists(_tokenId), \"Token with give ID does not exist\");\n\n        return metadata[_tokenId];\n    }\n\n    /**\n     * @notice Function that gets called before every transfer of a token. Checks if the from and to addresses\n     * have conformed to the GSE\n     * @param _from address of the token owner\n     * @param _to address of the token receiver\n     * @param _tokenId of the token to be transferred\n     */\n    function _beforeTokenTransfer(\n        address _from,\n        address _to,\n        uint256 _tokenId\n    ) internal virtual override {\n        require(\n            rbac.hasRole(_to, rbac.SUPPLY_CHAIN_ENTITY_ROLE()),\n            \"Only supply chain entities can receive tokens\"\n        );\n\n        // only check for gse status if it's not a mint or burn operation\n        if (_from != address(0) && _to != address(0)) {\n            Structs.SupplyChainEntity memory toEntity =\n                registry.getSupplyChainEntity(_to);\n\n            Structs.SupplyChainEntity memory fromEntity =\n                registry.getSupplyChainEntity(_from);\n\n            if (!toEntity.gseStatus || !fromEntity.gseStatus) {\n                Structs.NonGSETransaction memory transaction =\n                    Structs.NonGSETransaction({\n                        time: block.timestamp,\n                        tokenId: _tokenId\n                    });\n\n                if (!toEntity.gseStatus) {\n                    registry.addNonGSETransaction(_to, transaction);\n                }\n                if (!fromEntity.gseStatus) {\n                    registry.addNonGSETransaction(_from, transaction);\n                }\n\n                emit NonGSETransaction(transaction);\n            }\n        }\n    }\n}\n",
  "sourcePath": "/Users/jabbathegut/repositories/ba_sources/textile-supply-chain/contracts/ChainOfCustodyToken.sol",
  "compiler": {
    "name": "solc",
    "version": "0.8.0+commit.c7dfd78e.Emscripten.clang"
  },
  "schemaVersion": "3.3.4",
  "updatedAt": "2021-05-19T19:07:12.082Z",
  "networkType": "ethereum",
  "devdoc": {
    "kind": "dev",
    "methods": {
      "approve(address,uint256)": {
        "details": "See {IERC721-approve}."
      },
      "balanceOf(address)": {
        "details": "See {IERC721-balanceOf}."
      },
      "getApproved(uint256)": {
        "details": "See {IERC721-getApproved}."
      },
      "getTokenMetadata(uint256)": {
        "params": {
          "_tokenId": "of the token"
        },
        "returns": {
          "_0": "metadata of the token"
        }
      },
      "isApprovedForAll(address,address)": {
        "details": "See {IERC721-isApprovedForAll}."
      },
      "mintToken(address,(uint256[]))": {
        "params": {
          "_owner": "owner of the newly created token",
          "_tokenData": "metadata for the token to be created"
        },
        "returns": {
          "_0": "id of the created token"
        }
      },
      "owner()": {
        "details": "Returns the address of the current owner."
      },
      "ownerOf(uint256)": {
        "details": "See {IERC721-ownerOf}."
      },
      "renounceOwnership()": {
        "details": "Leaves the contract without owner. It will not be possible to call `onlyOwner` functions anymore. Can only be called by the current owner. NOTE: Renouncing ownership will leave the contract without an owner, thereby removing any functionality that is only available to the owner."
      },
      "safeTransferFrom(address,address,uint256)": {
        "details": "See {IERC721-safeTransferFrom}."
      },
      "safeTransferFrom(address,address,uint256,bytes)": {
        "details": "See {IERC721-safeTransferFrom}."
      },
      "setApprovalForAll(address,bool)": {
        "details": "See {IERC721-setApprovalForAll}."
      },
      "supportsInterface(bytes4)": {
        "details": "See {IERC165-supportsInterface}."
      },
      "transferFrom(address,address,uint256)": {
        "details": "See {IERC721-transferFrom}."
      },
      "transferOwnership(address)": {
        "details": "Transfers ownership of the contract to a new account (`newOwner`). Can only be called by the current owner."
      },
      "transferToken(address,address,uint256)": {
        "params": {
          "_from": "sender entity",
          "_to": "receiver entity",
          "_tokenId": "id of the token to be transferred"
        }
      }
    },
    "version": 1
  },
  "userdoc": {
    "kind": "user",
    "methods": {
      "getTokenMetadata(uint256)": {
        "notice": "Returns the metadata belonging to a token"
      },
      "mintToken(address,(uint256[]))": {
        "notice": "Creates a token and set's the given address as new owner"
      },
      "transferToken(address,address,uint256)": {
        "notice": "Transfer token from one entity to another"
      }
    },
    "notice": "Contract that represents a NFT in the supply chain. Such a NFT is the digital twin of a real word good and is used to track it on the blockchain.",
    "version": 1
  }
}