{
  "contractName": "ChainOfCustodyToken",
  "abi": [
    {
      "inputs": [
        {
          "internalType": "string",
          "name": "_name",
          "type": "string"
        },
        {
          "internalType": "string",
          "name": "_symbol",
          "type": "string"
        },
        {
          "internalType": "address",
          "name": "_registry",
          "type": "address"
        },
        {
          "internalType": "address",
          "name": "_rbac",
          "type": "address"
        }
      ],
      "stateMutability": "nonpayable",
      "type": "constructor"
    },
    {
      "anonymous": false,
      "inputs": [
        {
          "indexed": true,
          "internalType": "address",
          "name": "owner",
          "type": "address"
        },
        {
          "indexed": true,
          "internalType": "address",
          "name": "approved",
          "type": "address"
        },
        {
          "indexed": true,
          "internalType": "uint256",
          "name": "tokenId",
          "type": "uint256"
        }
      ],
      "name": "Approval",
      "type": "event"
    },
    {
      "anonymous": false,
      "inputs": [
        {
          "indexed": true,
          "internalType": "address",
          "name": "owner",
          "type": "address"
        },
        {
          "indexed": true,
          "internalType": "address",
          "name": "operator",
          "type": "address"
        },
        {
          "indexed": false,
          "internalType": "bool",
          "name": "approved",
          "type": "bool"
        }
      ],
      "name": "ApprovalForAll",
      "type": "event"
    },
    {
      "anonymous": false,
      "inputs": [
        {
          "components": [
            {
              "internalType": "uint256",
              "name": "time",
              "type": "uint256"
            },
            {
              "internalType": "uint256",
              "name": "tokenId",
              "type": "uint256"
            }
          ],
          "indexed": false,
          "internalType": "struct Structs.NonGSETransaction",
          "name": "",
          "type": "tuple"
        }
      ],
      "name": "NonGSETransaction",
      "type": "event"
    },
    {
      "anonymous": false,
      "inputs": [
        {
          "indexed": true,
          "internalType": "address",
          "name": "previousOwner",
          "type": "address"
        },
        {
          "indexed": true,
          "internalType": "address",
          "name": "newOwner",
          "type": "address"
        }
      ],
      "name": "OwnershipTransferred",
      "type": "event"
    },
    {
      "anonymous": false,
      "inputs": [
        {
          "indexed": true,
          "internalType": "address",
          "name": "from",
          "type": "address"
        },
        {
          "indexed": true,
          "internalType": "address",
          "name": "to",
          "type": "address"
        },
        {
          "indexed": true,
          "internalType": "uint256",
          "name": "tokenId",
          "type": "uint256"
        }
      ],
      "name": "Transfer",
      "type": "event"
    },
    {
      "inputs": [
        {
          "internalType": "address",
          "name": "to",
          "type": "address"
        },
        {
          "internalType": "uint256",
          "name": "tokenId",
          "type": "uint256"
        }
      ],
      "name": "approve",
      "outputs": [],
      "stateMutability": "nonpayable",
      "type": "function"
    },
    {
      "inputs": [
        {
          "internalType": "address",
          "name": "owner",
          "type": "address"
        }
      ],
      "name": "balanceOf",
      "outputs": [
        {
          "internalType": "uint256",
          "name": "",
          "type": "uint256"
        }
      ],
      "stateMutability": "view",
      "type": "function",
      "constant": true
    },
    {
      "inputs": [
        {
          "internalType": "uint256",
          "name": "tokenId",
          "type": "uint256"
        }
      ],
      "name": "getApproved",
      "outputs": [
        {
          "internalType": "address",
          "name": "",
          "type": "address"
        }
      ],
      "stateMutability": "view",
      "type": "function",
      "constant": true
    },
    {
      "inputs": [
        {
          "internalType": "address",
          "name": "owner",
          "type": "address"
        },
        {
          "internalType": "address",
          "name": "operator",
          "type": "address"
        }
      ],
      "name": "isApprovedForAll",
      "outputs": [
        {
          "internalType": "bool",
          "name": "",
          "type": "bool"
        }
      ],
      "stateMutability": "view",
      "type": "function",
      "constant": true
    },
    {
      "inputs": [],
      "name": "name",
      "outputs": [
        {
          "internalType": "string",
          "name": "",
          "type": "string"
        }
      ],
      "stateMutability": "view",
      "type": "function",
      "constant": true
    },
    {
      "inputs": [],
      "name": "owner",
      "outputs": [
        {
          "internalType": "address",
          "name": "",
          "type": "address"
        }
      ],
      "stateMutability": "view",
      "type": "function",
      "constant": true
    },
    {
      "inputs": [
        {
          "internalType": "uint256",
          "name": "tokenId",
          "type": "uint256"
        }
      ],
      "name": "ownerOf",
      "outputs": [
        {
          "internalType": "address",
          "name": "",
          "type": "address"
        }
      ],
      "stateMutability": "view",
      "type": "function",
      "constant": true
    },
    {
      "inputs": [],
      "name": "renounceOwnership",
      "outputs": [],
      "stateMutability": "nonpayable",
      "type": "function"
    },
    {
      "inputs": [
        {
          "internalType": "address",
          "name": "from",
          "type": "address"
        },
        {
          "internalType": "address",
          "name": "to",
          "type": "address"
        },
        {
          "internalType": "uint256",
          "name": "tokenId",
          "type": "uint256"
        }
      ],
      "name": "safeTransferFrom",
      "outputs": [],
      "stateMutability": "nonpayable",
      "type": "function"
    },
    {
      "inputs": [
        {
          "internalType": "address",
          "name": "from",
          "type": "address"
        },
        {
          "internalType": "address",
          "name": "to",
          "type": "address"
        },
        {
          "internalType": "uint256",
          "name": "tokenId",
          "type": "uint256"
        },
        {
          "internalType": "bytes",
          "name": "_data",
          "type": "bytes"
        }
      ],
      "name": "safeTransferFrom",
      "outputs": [],
      "stateMutability": "nonpayable",
      "type": "function"
    },
    {
      "inputs": [
        {
          "internalType": "address",
          "name": "operator",
          "type": "address"
        },
        {
          "internalType": "bool",
          "name": "approved",
          "type": "bool"
        }
      ],
      "name": "setApprovalForAll",
      "outputs": [],
      "stateMutability": "nonpayable",
      "type": "function"
    },
    {
      "inputs": [
        {
          "internalType": "bytes4",
          "name": "interfaceId",
          "type": "bytes4"
        }
      ],
      "name": "supportsInterface",
      "outputs": [
        {
          "internalType": "bool",
          "name": "",
          "type": "bool"
        }
      ],
      "stateMutability": "view",
      "type": "function",
      "constant": true
    },
    {
      "inputs": [],
      "name": "symbol",
      "outputs": [
        {
          "internalType": "string",
          "name": "",
          "type": "string"
        }
      ],
      "stateMutability": "view",
      "type": "function",
      "constant": true
    },
    {
      "inputs": [
        {
          "internalType": "address",
          "name": "from",
          "type": "address"
        },
        {
          "internalType": "address",
          "name": "to",
          "type": "address"
        },
        {
          "internalType": "uint256",
          "name": "tokenId",
          "type": "uint256"
        }
      ],
      "name": "transferFrom",
      "outputs": [],
      "stateMutability": "nonpayable",
      "type": "function"
    },
    {
      "inputs": [
        {
          "internalType": "address",
          "name": "newOwner",
          "type": "address"
        }
      ],
      "name": "transferOwnership",
      "outputs": [],
      "stateMutability": "nonpayable",
      "type": "function"
    },
    {
      "inputs": [
        {
          "internalType": "address",
          "name": "_owner",
          "type": "address"
        },
        {
          "components": [
            {
              "internalType": "uint256[]",
              "name": "sourceTokenIds",
              "type": "uint256[]"
            }
          ],
          "internalType": "struct Structs.Metadata",
          "name": "_tokenData",
          "type": "tuple"
        }
      ],
      "name": "mintToken",
      "outputs": [
        {
          "internalType": "uint256",
          "name": "",
          "type": "uint256"
        }
      ],
      "stateMutability": "nonpayable",
      "type": "function"
    },
    {
      "inputs": [
        {
          "internalType": "address",
          "name": "_from",
          "type": "address"
        },
        {
          "internalType": "address",
          "name": "_to",
          "type": "address"
        },
        {
          "internalType": "uint256",
          "name": "_tokenId",
          "type": "uint256"
        }
      ],
      "name": "transferToken",
      "outputs": [],
      "stateMutability": "nonpayable",
      "type": "function"
    },
    {
      "inputs": [
        {
          "internalType": "uint256",
          "name": "_tokenId",
          "type": "uint256"
        }
      ],
      "name": "getTokenMetadata",
      "outputs": [
        {
          "components": [
            {
              "internalType": "uint256[]",
              "name": "sourceTokenIds",
              "type": "uint256[]"
            }
          ],
          "internalType": "struct Structs.Metadata",
          "name": "",
          "type": "tuple"
        }
      ],
      "stateMutability": "view",
      "type": "function",
      "constant": true
    }
  ],
  "bytecode": "0x60806040523480156200001157600080fd5b506040516200440238038062004402833981810160405281019062000037919062000387565b6040518060400160405280601081526020017f537570706c79436861696e546f6b656e000000000000000000000000000000008152506040518060400160405280600381526020017f53435400000000000000000000000000000000000000000000000000000000008152508160009080519060200190620000bb9291906200024e565b508060019080519060200190620000d49291906200024e565b5050506000620000e96200024660201b60201c565b905080600660006101000a81548173ffffffffffffffffffffffffffffffffffffffff021916908373ffffffffffffffffffffffffffffffffffffffff1602179055508073ffffffffffffffffffffffffffffffffffffffff16600073ffffffffffffffffffffffffffffffffffffffff167f8be0079c531659141344cd1fd0a4f28419497f9722a3daafe3b4186f6b6457e060405160405180910390a35081600860006101000a81548173ffffffffffffffffffffffffffffffffffffffff021916908373ffffffffffffffffffffffffffffffffffffffff16021790555080600960006101000a81548173ffffffffffffffffffffffffffffffffffffffff021916908373ffffffffffffffffffffffffffffffffffffffff16021790555083600a9080519060200190620002229291906200024e565b5082600b90805190602001906200023b9291906200024e565b5050505050620005a4565b600033905090565b8280546200025c90620004f6565b90600052602060002090601f016020900481019282620002805760008555620002cc565b82601f106200029b57805160ff1916838001178555620002cc565b82800160010185558215620002cc579182015b82811115620002cb578251825591602001919060010190620002ae565b5b509050620002db9190620002df565b5090565b5b80821115620002fa576000816000905550600101620002e0565b5090565b6000620003156200030f8462000459565b62000425565b9050828152602081018484840111156200032e57600080fd5b6200033b848285620004c0565b509392505050565b60008151905062000354816200058a565b92915050565b600082601f8301126200036c57600080fd5b81516200037e848260208601620002fe565b91505092915050565b600080600080608085870312156200039e57600080fd5b600085015167ffffffffffffffff811115620003b957600080fd5b620003c7878288016200035a565b945050602085015167ffffffffffffffff811115620003e557600080fd5b620003f3878288016200035a565b9350506040620004068782880162000343565b9250506060620004198782880162000343565b91505092959194509250565b6000604051905081810181811067ffffffffffffffff821117156200044f576200044e6200055b565b5b8060405250919050565b600067ffffffffffffffff8211156200047757620004766200055b565b5b601f19601f8301169050602081019050919050565b60006200049982620004a0565b9050919050565b600073ffffffffffffffffffffffffffffffffffffffff82169050919050565b60005b83811015620004e0578082015181840152602081019050620004c3565b83811115620004f0576000848401525b50505050565b600060028204905060018216806200050f57607f821691505b602082108114156200052657620005256200052c565b5b50919050565b7f4e487b7100000000000000000000000000000000000000000000000000000000600052602260045260246000fd5b7f4e487b7100000000000000000000000000000000000000000000000000000000600052604160045260246000fd5b62000595816200048c565b8114620005a157600080fd5b50565b613e4e80620005b46000396000f3fe608060405234801561001057600080fd5b50600436106101165760003560e01c8063715018a6116100a2578063b88d4fde11610071578063b88d4fde146102df578063c47e42b9146102fb578063e985e9c51461032b578063f2fde38b1461035b578063f5537ede1461037757610116565b8063715018a61461027d5780638da5cb5b1461028757806395d89b41146102a5578063a22cb465146102c357610116565b806323b872dd116100e957806323b872dd146101b557806342842e0e146101d157806360316801146101ed5780636352211e1461021d57806370a082311461024d57610116565b806301ffc9a71461011b57806306fdde031461014b578063081812fc14610169578063095ea7b314610199575b600080fd5b61013560048036038101906101309190612b6a565b610393565b60405161014291906136d0565b60405180910390f35b61015361040d565b60405161016091906136eb565b60405180910390f35b610183600480360381019061017e9190612c3e565b61049b565b6040516101909190613610565b60405180910390f35b6101b360048036038101906101ae9190612b05565b610520565b005b6101cf60048036038101906101ca91906129ab565b610638565b005b6101eb60048036038101906101e691906129ab565b610698565b005b61020760048036038101906102029190612c3e565b6106b8565b60405161021491906139cd565b60405180910390f35b61023760048036038101906102329190612c3e565b610785565b6040516102449190613610565b60405180910390f35b61026760048036038101906102629190612946565b610837565b6040516102749190613a0a565b60405180910390f35b6102856108ef565b005b61028f610a2c565b60405161029c9190613610565b60405180910390f35b6102ad610a56565b6040516102ba91906136eb565b60405180910390f35b6102dd60048036038101906102d89190612a75565b610ae4565b005b6102f960048036038101906102f491906129fa565b610c65565b005b61031560048036038101906103109190612ab1565b610cc7565b6040516103229190613a0a565b60405180910390f35b6103456004803603810190610340919061296f565b611112565b60405161035291906136d0565b60405180910390f35b61037560048036038101906103709190612946565b6111a6565b005b610391600480360381019061038c91906129ab565b611352565b005b60007f80ac58cd000000000000000000000000000000000000000000000000000000007bffffffffffffffffffffffffffffffffffffffffffffffffffffffff1916827bffffffffffffffffffffffffffffffffffffffffffffffffffffffff19161480610406575061040582611731565b5b9050919050565b600a805461041a90613c93565b80601f016020809104026020016040519081016040528092919081815260200182805461044690613c93565b80156104935780601f1061046857610100808354040283529160200191610493565b820191906000526020600020905b81548152906001019060200180831161047657829003601f168201915b505050505081565b60006104a68261179b565b6104e5576040517f08c379a00000000000000000000000000000000000000000000000000000000081526004016104dc906138ad565b60405180910390fd5b6004600083815260200190815260200160002060009054906101000a900473ffffffffffffffffffffffffffffffffffffffff169050919050565b600061052b82610785565b90508073ffffffffffffffffffffffffffffffffffffffff168373ffffffffffffffffffffffffffffffffffffffff16141561059c576040517f08c379a00000000000000000000000000000000000000000000000000000000081526004016105939061392d565b60405180910390fd5b8073ffffffffffffffffffffffffffffffffffffffff166105bb611807565b73ffffffffffffffffffffffffffffffffffffffff1614806105ea57506105e9816105e4611807565b611112565b5b610629576040517f08c379a0000000000000000000000000000000000000000000000000000000008152600401610620906137ed565b60405180910390fd5b610633838361180f565b505050565b610649610643611807565b826118c8565b610688576040517f08c379a000000000000000000000000000000000000000000000000000000000815260040161067f9061394d565b60405180910390fd5b6106938383836119a6565b505050565b6106b383838360405180602001604052806000815250610c65565b505050565b6106c0612505565b6106c98261179b565b610708576040517f08c379a00000000000000000000000000000000000000000000000000000000081526004016106ff9061386d565b60405180910390fd5b600c60008381526020019081526020016000206040518060200160405290816000820180548060200260200160405190810160405280929190818152602001828054801561077557602002820191906000526020600020905b815481526020019060010190808311610761575b5050505050815250509050919050565b6000806002600084815260200190815260200160002060009054906101000a900473ffffffffffffffffffffffffffffffffffffffff169050600073ffffffffffffffffffffffffffffffffffffffff168173ffffffffffffffffffffffffffffffffffffffff16141561082e576040517f08c379a00000000000000000000000000000000000000000000000000000000081526004016108259061382d565b60405180910390fd5b80915050919050565b60008073ffffffffffffffffffffffffffffffffffffffff168273ffffffffffffffffffffffffffffffffffffffff1614156108a8576040517f08c379a000000000000000000000000000000000000000000000000000000000815260040161089f9061380d565b60405180910390fd5b600360008373ffffffffffffffffffffffffffffffffffffffff1673ffffffffffffffffffffffffffffffffffffffff168152602001908152602001600020549050919050565b6108f7611807565b73ffffffffffffffffffffffffffffffffffffffff16610915610a2c565b73ffffffffffffffffffffffffffffffffffffffff161461096b576040517f08c379a0000000000000000000000000000000000000000000000000000000008152600401610962906138ed565b60405180910390fd5b600073ffffffffffffffffffffffffffffffffffffffff16600660009054906101000a900473ffffffffffffffffffffffffffffffffffffffff1673ffffffffffffffffffffffffffffffffffffffff167f8be0079c531659141344cd1fd0a4f28419497f9722a3daafe3b4186f6b6457e060405160405180910390a36000600660006101000a81548173ffffffffffffffffffffffffffffffffffffffff021916908373ffffffffffffffffffffffffffffffffffffffff160217905550565b6000600660009054906101000a900473ffffffffffffffffffffffffffffffffffffffff16905090565b600b8054610a6390613c93565b80601f0160208091040260200160405190810160405280929190818152602001828054610a8f90613c93565b8015610adc5780601f10610ab157610100808354040283529160200191610adc565b820191906000526020600020905b815481529060010190602001808311610abf57829003601f168201915b505050505081565b610aec611807565b73ffffffffffffffffffffffffffffffffffffffff168273ffffffffffffffffffffffffffffffffffffffff161415610b5a576040517f08c379a0000000000000000000000000000000000000000000000000000000008152600401610b51906137ad565b60405180910390fd5b8060056000610b67611807565b73ffffffffffffffffffffffffffffffffffffffff1673ffffffffffffffffffffffffffffffffffffffff16815260200190815260200160002060008473ffffffffffffffffffffffffffffffffffffffff1673ffffffffffffffffffffffffffffffffffffffff16815260200190815260200160002060006101000a81548160ff0219169083151502179055508173ffffffffffffffffffffffffffffffffffffffff16610c14611807565b73ffffffffffffffffffffffffffffffffffffffff167f17307eab39ab6107e8899845ad3d59bd9653f200f220920489ca2b5937696c3183604051610c5991906136d0565b60405180910390a35050565b610c76610c70611807565b836118c8565b610cb5576040517f08c379a0000000000000000000000000000000000000000000000000000000008152600401610cac9061394d565b60405180910390fd5b610cc184848484611c02565b50505050565b6000600960009054906101000a900473ffffffffffffffffffffffffffffffffffffffff1673ffffffffffffffffffffffffffffffffffffffff1663217fe6c6610d0f611807565b600960009054906101000a900473ffffffffffffffffffffffffffffffffffffffff1673ffffffffffffffffffffffffffffffffffffffff16634426fb0b6040518163ffffffff1660e01b815260040160006040518083038186803b158015610d7757600080fd5b505afa158015610d8b573d6000803e3d6000fd5b505050506040513d6000823e3d601f19601f82011682018060405250810190610db49190612bbc565b6040518363ffffffff1660e01b8152600401610dd1929190613677565b60206040518083038186803b158015610de957600080fd5b505afa158015610dfd573d6000803e3d6000fd5b505050506040513d601f19601f82011682018060405250810190610e219190612b41565b610e60576040517f08c379a0000000000000000000000000000000000000000000000000000000008152600401610e57906138cd565b60405180910390fd5b600960009054906101000a900473ffffffffffffffffffffffffffffffffffffffff1673ffffffffffffffffffffffffffffffffffffffff1663217fe6c684600960009054906101000a900473ffffffffffffffffffffffffffffffffffffffff1673ffffffffffffffffffffffffffffffffffffffff16631cee4a9d6040518163ffffffff1660e01b815260040160006040518083038186803b158015610f0757600080fd5b505afa158015610f1b573d6000803e3d6000fd5b505050506040513d6000823e3d601f19601f82011682018060405250810190610f449190612bbc565b6040518363ffffffff1660e01b8152600401610f61929190613677565b60206040518083038186803b158015610f7957600080fd5b505afa158015610f8d573d6000803e3d6000fd5b505050506040513d601f19601f82011682018060405250810190610fb19190612b41565b610ff0576040517f08c379a0000000000000000000000000000000000000000000000000000000008152600401610fe79061370d565b60405180910390fd5b610ffa6007611c5e565b60006110066007611c74565b90506110128482611c82565b82600c60008381526020019081526020016000206000820151816000019080519060200190611042929190612518565b509050506001600d600083815260200190815260200160002060006101000a81548160ff02191690831515021790555060008360000151905060005b8151811015611106576000600d60008484815181106110c6577f4e487b7100000000000000000000000000000000000000000000000000000000600052603260045260246000fd5b6020026020010151815260200190815260200160002060006101000a81548160ff02191690831515021790555080806110fe90613cc5565b91505061107e565b50819250505092915050565b6000600560008473ffffffffffffffffffffffffffffffffffffffff1673ffffffffffffffffffffffffffffffffffffffff16815260200190815260200160002060008373ffffffffffffffffffffffffffffffffffffffff1673ffffffffffffffffffffffffffffffffffffffff16815260200190815260200160002060009054906101000a900460ff16905092915050565b6111ae611807565b73ffffffffffffffffffffffffffffffffffffffff166111cc610a2c565b73ffffffffffffffffffffffffffffffffffffffff1614611222576040517f08c379a0000000000000000000000000000000000000000000000000000000008152600401611219906138ed565b60405180910390fd5b600073ffffffffffffffffffffffffffffffffffffffff168173ffffffffffffffffffffffffffffffffffffffff161415611292576040517f08c379a00000000000000000000000000000000000000000000000000000000081526004016112899061374d565b60405180910390fd5b8073ffffffffffffffffffffffffffffffffffffffff16600660009054906101000a900473ffffffffffffffffffffffffffffffffffffffff1673ffffffffffffffffffffffffffffffffffffffff167f8be0079c531659141344cd1fd0a4f28419497f9722a3daafe3b4186f6b6457e060405160405180910390a380600660006101000a81548173ffffffffffffffffffffffffffffffffffffffff021916908373ffffffffffffffffffffffffffffffffffffffff16021790555050565b600960009054906101000a900473ffffffffffffffffffffffffffffffffffffffff1673ffffffffffffffffffffffffffffffffffffffff1663217fe6c6611398611807565b600960009054906101000a900473ffffffffffffffffffffffffffffffffffffffff1673ffffffffffffffffffffffffffffffffffffffff16631cee4a9d6040518163ffffffff1660e01b815260040160006040518083038186803b15801561140057600080fd5b505afa158015611414573d6000803e3d6000fd5b505050506040513d6000823e3d601f19601f8201168201806040525081019061143d9190612bbc565b6040518363ffffffff1660e01b815260040161145a929190613677565b60206040518083038186803b15801561147257600080fd5b505afa158015611486573d6000803e3d6000fd5b505050506040513d601f19601f820116820180604052508101906114aa9190612b41565b6114e9576040517f08c379a00000000000000000000000000000000000000000000000000000000081526004016114e09061398d565b60405180910390fd5b600960009054906101000a900473ffffffffffffffffffffffffffffffffffffffff1673ffffffffffffffffffffffffffffffffffffffff1663217fe6c683600960009054906101000a900473ffffffffffffffffffffffffffffffffffffffff1673ffffffffffffffffffffffffffffffffffffffff16631cee4a9d6040518163ffffffff1660e01b815260040160006040518083038186803b15801561159057600080fd5b505afa1580156115a4573d6000803e3d6000fd5b505050506040513d6000823e3d601f19601f820116820180604052508101906115cd9190612bbc565b6040518363ffffffff1660e01b81526004016115ea929190613677565b60206040518083038186803b15801561160257600080fd5b505afa158015611616573d6000803e3d6000fd5b505050506040513d601f19601f8201168201806040525081019061163a9190612b41565b611679576040517f08c379a00000000000000000000000000000000000000000000000000000000081526004016116709061388d565b60405180910390fd5b6116828161179b565b6116c1576040517f08c379a00000000000000000000000000000000000000000000000000000000081526004016116b8906139ad565b60405180910390fd5b600d600082815260200190815260200160002060009054906101000a900460ff16611721576040517f08c379a00000000000000000000000000000000000000000000000000000000081526004016117189061396d565b60405180910390fd5b61172c8383836119a6565b505050565b60007f01ffc9a7000000000000000000000000000000000000000000000000000000007bffffffffffffffffffffffffffffffffffffffffffffffffffffffff1916827bffffffffffffffffffffffffffffffffffffffffffffffffffffffff1916149050919050565b60008073ffffffffffffffffffffffffffffffffffffffff166002600084815260200190815260200160002060009054906101000a900473ffffffffffffffffffffffffffffffffffffffff1673ffffffffffffffffffffffffffffffffffffffff1614159050919050565b600033905090565b816004600083815260200190815260200160002060006101000a81548173ffffffffffffffffffffffffffffffffffffffff021916908373ffffffffffffffffffffffffffffffffffffffff160217905550808273ffffffffffffffffffffffffffffffffffffffff1661188283610785565b73ffffffffffffffffffffffffffffffffffffffff167f8c5be1e5ebec7d5bd14f71427d1e84f3dd0314c0f7b2291e5b200ac8c7c3b92560405160405180910390a45050565b60006118d38261179b565b611912576040517f08c379a0000000000000000000000000000000000000000000000000000000008152600401611909906137cd565b60405180910390fd5b600061191d83610785565b90508073ffffffffffffffffffffffffffffffffffffffff168473ffffffffffffffffffffffffffffffffffffffff16148061198c57508373ffffffffffffffffffffffffffffffffffffffff166119748461049b565b73ffffffffffffffffffffffffffffffffffffffff16145b8061199d575061199c8185611112565b5b91505092915050565b8273ffffffffffffffffffffffffffffffffffffffff166119c682610785565b73ffffffffffffffffffffffffffffffffffffffff1614611a1c576040517f08c379a0000000000000000000000000000000000000000000000000000000008152600401611a139061390d565b60405180910390fd5b600073ffffffffffffffffffffffffffffffffffffffff168273ffffffffffffffffffffffffffffffffffffffff161415611a8c576040517f08c379a0000000000000000000000000000000000000000000000000000000008152600401611a839061378d565b60405180910390fd5b611a97838383611e50565b611aa260008261180f565b6001600360008573ffffffffffffffffffffffffffffffffffffffff1673ffffffffffffffffffffffffffffffffffffffff1681526020019081526020016000206000828254611af29190613ba9565b925050819055506001600360008473ffffffffffffffffffffffffffffffffffffffff1673ffffffffffffffffffffffffffffffffffffffff1681526020019081526020016000206000828254611b499190613b53565b92505081905550816002600083815260200190815260200160002060006101000a81548173ffffffffffffffffffffffffffffffffffffffff021916908373ffffffffffffffffffffffffffffffffffffffff160217905550808273ffffffffffffffffffffffffffffffffffffffff168473ffffffffffffffffffffffffffffffffffffffff167fddf252ad1be2c89b69c2b068fc378daa952ba7f163c4a11628f55a4df523b3ef60405160405180910390a4505050565b611c0d8484846119a6565b611c198484848461235b565b611c58576040517f08c379a0000000000000000000000000000000000000000000000000000000008152600401611c4f9061372d565b60405180910390fd5b50505050565b6001816000016000828254019250508190555050565b600081600001549050919050565b600073ffffffffffffffffffffffffffffffffffffffff168273ffffffffffffffffffffffffffffffffffffffff161415611cf2576040517f08c379a0000000000000000000000000000000000000000000000000000000008152600401611ce99061384d565b60405180910390fd5b611cfb8161179b565b15611d3b576040517f08c379a0000000000000000000000000000000000000000000000000000000008152600401611d329061376d565b60405180910390fd5b611d4760008383611e50565b6001600360008473ffffffffffffffffffffffffffffffffffffffff1673ffffffffffffffffffffffffffffffffffffffff1681526020019081526020016000206000828254611d979190613b53565b92505081905550816002600083815260200190815260200160002060006101000a81548173ffffffffffffffffffffffffffffffffffffffff021916908373ffffffffffffffffffffffffffffffffffffffff160217905550808273ffffffffffffffffffffffffffffffffffffffff16600073ffffffffffffffffffffffffffffffffffffffff167fddf252ad1be2c89b69c2b068fc378daa952ba7f163c4a11628f55a4df523b3ef60405160405180910390a45050565b600960009054906101000a900473ffffffffffffffffffffffffffffffffffffffff1673ffffffffffffffffffffffffffffffffffffffff1663217fe6c683600960009054906101000a900473ffffffffffffffffffffffffffffffffffffffff1673ffffffffffffffffffffffffffffffffffffffff16631cee4a9d6040518163ffffffff1660e01b815260040160006040518083038186803b158015611ef757600080fd5b505afa158015611f0b573d6000803e3d6000fd5b505050506040513d6000823e3d601f19601f82011682018060405250810190611f349190612bbc565b6040518363ffffffff1660e01b8152600401611f51929190613677565b60206040518083038186803b158015611f6957600080fd5b505afa158015611f7d573d6000803e3d6000fd5b505050506040513d601f19601f82011682018060405250810190611fa19190612b41565b611fe0576040517f08c379a0000000000000000000000000000000000000000000000000000000008152600401611fd79061388d565b60405180910390fd5b600073ffffffffffffffffffffffffffffffffffffffff168373ffffffffffffffffffffffffffffffffffffffff161415801561204a5750600073ffffffffffffffffffffffffffffffffffffffff168273ffffffffffffffffffffffffffffffffffffffff1614155b15612356576000600860009054906101000a900473ffffffffffffffffffffffffffffffffffffffff1673ffffffffffffffffffffffffffffffffffffffff166333424a35846040518263ffffffff1660e01b81526004016120ac9190613610565b60006040518083038186803b1580156120c457600080fd5b505afa1580156120d8573d6000803e3d6000fd5b505050506040513d6000823e3d601f19601f820116820180604052508101906121019190612bfd565b90506000600860009054906101000a900473ffffffffffffffffffffffffffffffffffffffff1673ffffffffffffffffffffffffffffffffffffffff166333424a35866040518263ffffffff1660e01b81526004016121609190613610565b60006040518083038186803b15801561217857600080fd5b505afa15801561218c573d6000803e3d6000fd5b505050506040513d6000823e3d601f19601f820116820180604052508101906121b59190612bfd565b9050816040015115806121ca57508060400151155b156123535760006040518060400160405280428152602001858152509050826040015161228157600860009054906101000a900473ffffffffffffffffffffffffffffffffffffffff1673ffffffffffffffffffffffffffffffffffffffff166355b1910a86836040518363ffffffff1660e01b815260040161224e9291906136a7565b600060405180830381600087803b15801561226857600080fd5b505af115801561227c573d6000803e3d6000fd5b505050505b816040015161231a57600860009054906101000a900473ffffffffffffffffffffffffffffffffffffffff1673ffffffffffffffffffffffffffffffffffffffff166355b1910a87836040518363ffffffff1660e01b81526004016122e79291906136a7565b600060405180830381600087803b15801561230157600080fd5b505af1158015612315573d6000803e3d6000fd5b505050505b7f42877a9eea42c1ac691908c865d7725b555cf0dbd1a6e88da1c18db2051a28038160405161234991906139ef565b60405180910390a1505b50505b505050565b600061237c8473ffffffffffffffffffffffffffffffffffffffff166124f2565b156124e5578373ffffffffffffffffffffffffffffffffffffffff1663150b7a026123a5611807565b8786866040518563ffffffff1660e01b81526004016123c7949392919061362b565b602060405180830381600087803b1580156123e157600080fd5b505af192505050801561241257506040513d601f19601f8201168201806040525081019061240f9190612b93565b60015b612495573d8060008114612442576040519150601f19603f3d011682016040523d82523d6000602084013e612447565b606091505b5060008151141561248d576040517f08c379a00000000000000000000000000000000000000000000000000000000081526004016124849061372d565b60405180910390fd5b805181602001fd5b63150b7a0260e01b7bffffffffffffffffffffffffffffffffffffffffffffffffffffffff1916817bffffffffffffffffffffffffffffffffffffffffffffffffffffffff1916149150506124ea565b600190505b949350505050565b600080823b905060008111915050919050565b6040518060200160405280606081525090565b828054828255906000526020600020908101928215612554579160200282015b82811115612553578251825591602001919060010190612538565b5b5090506125619190612565565b5090565b5b8082111561257e576000816000905550600101612566565b5090565b600061259561259084613a56565b613a25565b905080838252602082019050828560208602820111156125b457600080fd5b60005b858110156125e457816125ca888261291c565b8452602084019350602083019250506001810190506125b7565b5050509392505050565b60006126016125fc84613a56565b613a25565b9050808382526020820190508285602086028201111561262057600080fd5b60005b8581101561265057816126368882612931565b845260208401935060208301925050600181019050612623565b5050509392505050565b600061266d61266884613a82565b613a25565b90508281526020810184848401111561268557600080fd5b612690848285613c51565b509392505050565b60006126ab6126a684613ab2565b613a25565b9050828152602081018484840111156126c357600080fd5b6126ce848285613c60565b509392505050565b6000813590506126e581613dac565b92915050565b600082601f8301126126fc57600080fd5b813561270c848260208601612582565b91505092915050565b600082601f83011261272657600080fd5b81516127368482602086016125ee565b91505092915050565b60008135905061274e81613dc3565b92915050565b60008151905061276381613dc3565b92915050565b60008135905061277881613dda565b92915050565b60008151905061278d81613dda565b92915050565b600082601f8301126127a457600080fd5b81356127b484826020860161265a565b91505092915050565b6000815190506127cc81613df1565b92915050565b600082601f8301126127e357600080fd5b81516127f3848260208601612698565b91505092915050565b60006020828403121561280e57600080fd5b6128186020613a25565b9050600082013567ffffffffffffffff81111561283457600080fd5b612840848285016126eb565b60008301525092915050565b600060a0828403121561285e57600080fd5b61286860a0613a25565b90506000612878848285016127bd565b600083015250602082015167ffffffffffffffff81111561289857600080fd5b6128a4848285016127d2565b60208301525060406128b884828501612754565b604083015250606082015167ffffffffffffffff8111156128d857600080fd5b6128e484828501612715565b606083015250608082015167ffffffffffffffff81111561290457600080fd5b61291084828501612715565b60808301525092915050565b60008135905061292b81613e01565b92915050565b60008151905061294081613e01565b92915050565b60006020828403121561295857600080fd5b6000612966848285016126d6565b91505092915050565b6000806040838503121561298257600080fd5b6000612990858286016126d6565b92505060206129a1858286016126d6565b9150509250929050565b6000806000606084860312156129c057600080fd5b60006129ce868287016126d6565b93505060206129df868287016126d6565b92505060406129f08682870161291c565b9150509250925092565b60008060008060808587031215612a1057600080fd5b6000612a1e878288016126d6565b9450506020612a2f878288016126d6565b9350506040612a408782880161291c565b925050606085013567ffffffffffffffff811115612a5d57600080fd5b612a6987828801612793565b91505092959194509250565b60008060408385031215612a8857600080fd5b6000612a96858286016126d6565b9250506020612aa78582860161273f565b9150509250929050565b60008060408385031215612ac457600080fd5b6000612ad2858286016126d6565b925050602083013567ffffffffffffffff811115612aef57600080fd5b612afb858286016127fc565b9150509250929050565b60008060408385031215612b1857600080fd5b6000612b26858286016126d6565b9250506020612b378582860161291c565b9150509250929050565b600060208284031215612b5357600080fd5b6000612b6184828501612754565b91505092915050565b600060208284031215612b7c57600080fd5b6000612b8a84828501612769565b91505092915050565b600060208284031215612ba557600080fd5b6000612bb38482850161277e565b91505092915050565b600060208284031215612bce57600080fd5b600082015167ffffffffffffffff811115612be857600080fd5b612bf4848285016127d2565b91505092915050565b600060208284031215612c0f57600080fd5b600082015167ffffffffffffffff811115612c2957600080fd5b612c358482850161284c565b91505092915050565b600060208284031215612c5057600080fd5b6000612c5e8482850161291c565b91505092915050565b6000612c7383836135f2565b60208301905092915050565b612c8881613bdd565b82525050565b6000612c9982613af2565b612ca38185613b20565b9350612cae83613ae2565b8060005b83811015612cdf578151612cc68882612c67565b9750612cd183613b13565b925050600181019050612cb2565b5085935050505092915050565b612cf581613bef565b82525050565b6000612d0682613afd565b612d108185613b31565b9350612d20818560208601613c60565b612d2981613d9b565b840191505092915050565b6000612d3f82613b08565b612d498185613b42565b9350612d59818560208601613c60565b612d6281613d9b565b840191505092915050565b6000612d7a602383613b42565b91507f4f776e6572206d757374206265206120737570706c7920636861696e20656e7460008301527f69747900000000000000000000000000000000000000000000000000000000006020830152604082019050919050565b6000612de0603283613b42565b91507f4552433732313a207472616e7366657220746f206e6f6e20455243373231526560008301527f63656976657220696d706c656d656e74657200000000000000000000000000006020830152604082019050919050565b6000612e46602683613b42565b91507f4f776e61626c653a206e6577206f776e657220697320746865207a65726f206160008301527f64647265737300000000000000000000000000000000000000000000000000006020830152604082019050919050565b6000612eac601c83613b42565b91507f4552433732313a20746f6b656e20616c7265616479206d696e746564000000006000830152602082019050919050565b6000612eec602483613b42565b91507f4552433732313a207472616e7366657220746f20746865207a65726f2061646460008301527f72657373000000000000000000000000000000000000000000000000000000006020830152604082019050919050565b6000612f52601983613b42565b91507f4552433732313a20617070726f766520746f2063616c6c6572000000000000006000830152602082019050919050565b6000612f92602c83613b42565b91507f4552433732313a206f70657261746f7220717565727920666f72206e6f6e657860008301527f697374656e7420746f6b656e00000000000000000000000000000000000000006020830152604082019050919050565b6000612ff8603883613b42565b91507f4552433732313a20617070726f76652063616c6c6572206973206e6f74206f7760008301527f6e6572206e6f7220617070726f76656420666f7220616c6c00000000000000006020830152604082019050919050565b600061305e602a83613b42565b91507f4552433732313a2062616c616e636520717565727920666f7220746865207a6560008301527f726f2061646472657373000000000000000000000000000000000000000000006020830152604082019050919050565b60006130c4602983613b42565b91507f4552433732313a206f776e657220717565727920666f72206e6f6e657869737460008301527f656e7420746f6b656e00000000000000000000000000000000000000000000006020830152604082019050919050565b600061312a602083613b42565b91507f4552433732313a206d696e7420746f20746865207a65726f20616464726573736000830152602082019050919050565b600061316a602183613b42565b91507f546f6b656e2077697468206769766520494420646f6573206e6f74206578697360008301527f74000000000000000000000000000000000000000000000000000000000000006020830152604082019050919050565b60006131d0602d83613b42565b91507f4f6e6c7920737570706c7920636861696e20656e7469746965732063616e207260008301527f65636569766520746f6b656e73000000000000000000000000000000000000006020830152604082019050919050565b6000613236602c83613b42565b91507f4552433732313a20617070726f76656420717565727920666f72206e6f6e657860008301527f697374656e7420746f6b656e00000000000000000000000000000000000000006020830152604082019050919050565b600061329c602383613b42565b91507f4e6f74207468652076616c696420726f6c6520746f2063726561746520746f6b60008301527f656e7300000000000000000000000000000000000000000000000000000000006020830152604082019050919050565b6000613302602083613b42565b91507f4f776e61626c653a2063616c6c6572206973206e6f7420746865206f776e65726000830152602082019050919050565b6000613342602983613b42565b91507f4552433732313a207472616e73666572206f6620746f6b656e2074686174206960008301527f73206e6f74206f776e00000000000000000000000000000000000000000000006020830152604082019050919050565b60006133a8602183613b42565b91507f4552433732313a20617070726f76616c20746f2063757272656e74206f776e6560008301527f72000000000000000000000000000000000000000000000000000000000000006020830152604082019050919050565b600061340e603183613b42565b91507f4552433732313a207472616e736665722063616c6c6572206973206e6f74206f60008301527f776e6572206e6f7220617070726f7665640000000000000000000000000000006020830152604082019050919050565b6000613474602883613b42565b91507f546f6b656e206d7573742062652061637469766520746f206265207472616e7360008301527f6665727261626c650000000000000000000000000000000000000000000000006020830152604082019050919050565b60006134da602e83613b42565b91507f4f6e6c7920737570706c7920636861696e20656e7469746965732063616e207460008301527f72616e7366657220746f6b656e730000000000000000000000000000000000006020830152604082019050919050565b6000613540602283613b42565b91507f546f6b656e207769746820676976656e20494420646f6573206e6f742065786960008301527f73740000000000000000000000000000000000000000000000000000000000006020830152604082019050919050565b600060208301600083015184820360008601526135b68282612c8e565b9150508091505092915050565b6040820160008201516135d960008501826135f2565b5060208201516135ec60208501826135f2565b50505050565b6135fb81613c47565b82525050565b61360a81613c47565b82525050565b60006020820190506136256000830184612c7f565b92915050565b60006080820190506136406000830187612c7f565b61364d6020830186612c7f565b61365a6040830185613601565b818103606083015261366c8184612cfb565b905095945050505050565b600060408201905061368c6000830185612c7f565b818103602083015261369e8184612d34565b90509392505050565b60006060820190506136bc6000830185612c7f565b6136c960208301846135c3565b9392505050565b60006020820190506136e56000830184612cec565b92915050565b600060208201905081810360008301526137058184612d34565b905092915050565b6000602082019050818103600083015261372681612d6d565b9050919050565b6000602082019050818103600083015261374681612dd3565b9050919050565b6000602082019050818103600083015261376681612e39565b9050919050565b6000602082019050818103600083015261378681612e9f565b9050919050565b600060208201905081810360008301526137a681612edf565b9050919050565b600060208201905081810360008301526137c681612f45565b9050919050565b600060208201905081810360008301526137e681612f85565b9050919050565b6000602082019050818103600083015261380681612feb565b9050919050565b6000602082019050818103600083015261382681613051565b9050919050565b60006020820190508181036000830152613846816130b7565b9050919050565b600060208201905081810360008301526138668161311d565b9050919050565b600060208201905081810360008301526138868161315d565b9050919050565b600060208201905081810360008301526138a6816131c3565b9050919050565b600060208201905081810360008301526138c681613229565b9050919050565b600060208201905081810360008301526138e68161328f565b9050919050565b60006020820190508181036000830152613906816132f5565b9050919050565b6000602082019050818103600083015261392681613335565b9050919050565b600060208201905081810360008301526139468161339b565b9050919050565b6000602082019050818103600083015261396681613401565b9050919050565b6000602082019050818103600083015261398681613467565b9050919050565b600060208201905081810360008301526139a6816134cd565b9050919050565b600060208201905081810360008301526139c681613533565b9050919050565b600060208201905081810360008301526139e78184613599565b905092915050565b6000604082019050613a0460008301846135c3565b92915050565b6000602082019050613a1f6000830184613601565b92915050565b6000604051905081810181811067ffffffffffffffff82111715613a4c57613a4b613d6c565b5b8060405250919050565b600067ffffffffffffffff821115613a7157613a70613d6c565b5b602082029050602081019050919050565b600067ffffffffffffffff821115613a9d57613a9c613d6c565b5b601f19601f8301169050602081019050919050565b600067ffffffffffffffff821115613acd57613acc613d6c565b5b601f19601f8301169050602081019050919050565b6000819050602082019050919050565b600081519050919050565b600081519050919050565b600081519050919050565b6000602082019050919050565b600082825260208201905092915050565b600082825260208201905092915050565b600082825260208201905092915050565b6000613b5e82613c47565b9150613b6983613c47565b9250827fffffffffffffffffffffffffffffffffffffffffffffffffffffffffffffffff03821115613b9e57613b9d613d0e565b5b828201905092915050565b6000613bb482613c47565b9150613bbf83613c47565b925082821015613bd257613bd1613d0e565b5b828203905092915050565b6000613be882613c27565b9050919050565b60008115159050919050565b60007fffffffff0000000000000000000000000000000000000000000000000000000082169050919050565b600073ffffffffffffffffffffffffffffffffffffffff82169050919050565b6000819050919050565b82818337600083830152505050565b60005b83811015613c7e578082015181840152602081019050613c63565b83811115613c8d576000848401525b50505050565b60006002820490506001821680613cab57607f821691505b60208210811415613cbf57613cbe613d3d565b5b50919050565b6000613cd082613c47565b91507fffffffffffffffffffffffffffffffffffffffffffffffffffffffffffffffff821415613d0357613d02613d0e565b5b600182019050919050565b7f4e487b7100000000000000000000000000000000000000000000000000000000600052601160045260246000fd5b7f4e487b7100000000000000000000000000000000000000000000000000000000600052602260045260246000fd5b7f4e487b7100000000000000000000000000000000000000000000000000000000600052604160045260246000fd5b6000601f19601f8301169050919050565b613db581613bdd565b8114613dc057600080fd5b50565b613dcc81613bef565b8114613dd757600080fd5b50565b613de381613bfb565b8114613dee57600080fd5b50565b60038110613dfe57600080fd5b50565b613e0a81613c47565b8114613e1557600080fd5b5056fea2646970667358221220876d3b9558dcd72f7ed3dfa0e55c4264a91b8f10050fc549a7f3a8d7983c3fdb64736f6c63430008000033",
  "immutableReferences": {},
  "source": "// SPDX-License-Identifier: MIT\npragma solidity >=0.4.22 <0.9.0;\n\nimport \"./ERC721.sol\";\nimport \"./LKGRegistry.sol\";\nimport \"./Structs.sol\";\nimport \"./RBAC.sol\";\nimport \"openzeppelin-solidity/contracts/utils/Counters.sol\";\nimport \"openzeppelin-solidity/contracts/access/Ownable.sol\";\n\n/**\n * Contract that represents a NFT in the supply chain. Such a NFT is the digital twin of a real word good\n * and is used to track it on the blockchain.\n */\ncontract ChainOfCustodyToken is ERC721, Ownable {\n    using Counters for Counters.Counter;\n    Counters.Counter private _tokenIds;\n    LKGRegistry private registry;\n    RBAC private rbac;\n    string public name;\n    string public symbol;\n    mapping(uint256 => Structs.Metadata) metadata;\n    mapping(uint256 => bool) activeIndex;\n\n    event NonGSETransaction(Structs.NonGSETransaction);\n\n    constructor(\n        string memory _name,\n        string memory _symbol,\n        address _registry,\n        address _rbac\n    ) ERC721(\"SupplyChainToken\", \"SCT\") {\n        registry = LKGRegistry(_registry);\n        rbac = RBAC(_rbac);\n        name = _name;\n        symbol = _symbol;\n    }\n\n    /**\n     * @notice Creates a token and set's the given address as new owner\n     * @param _owner owner of the newly created token\n     * @param _tokenData metadata for the token to be created\n     * @return id of the created token\n     */\n    function mintToken(address _owner, Structs.Metadata memory _tokenData)\n        public\n        returns (uint256)\n    {\n        require(\n            rbac.hasRole(_msgSender(), rbac.SUPPLY_CHAIN_MINTER_ROLE()),\n            \"Not the valid role to create tokens\"\n        );\n        require(\n            rbac.hasRole(_owner, rbac.SUPPLY_CHAIN_ENTITY_ROLE()),\n            \"Owner must be a supply chain entity\"\n        );\n\n        // increment counter for first tokenID\n        _tokenIds.increment();\n        uint256 tokenID = _tokenIds.current();\n\n        // mint token\n        _mint(_owner, tokenID);\n\n        // add _tokenData to internal mapping\n        metadata[tokenID] = _tokenData;\n        // set token as active\n        activeIndex[tokenID] = true;\n        // set all input tokens to inactive, so they cannot be transferred further\n        uint256[] memory inputTokens = _tokenData.sourceTokenIds;\n        for (uint256 i = 0; i < inputTokens.length; i++) {\n            activeIndex[inputTokens[i]] = false;\n        }\n\n        return tokenID;\n    }\n\n    /**\n     * @notice Transfer token from one entity to another\n     * @param _from sender entity\n     * @param _to receiver entity\n     * @param _tokenId id of the token to be transferred\n     */\n    function transferToken(\n        address _from,\n        address _to,\n        uint256 _tokenId\n    ) public {\n        require(\n            rbac.hasRole(_msgSender(), rbac.SUPPLY_CHAIN_ENTITY_ROLE()),\n            \"Only supply chain entities can transfer tokens\"\n        );\n        require(\n            rbac.hasRole(_to, rbac.SUPPLY_CHAIN_ENTITY_ROLE()),\n            \"Only supply chain entities can receive tokens\"\n        );\n        require(_exists(_tokenId), \"Token with given ID does not exist\");\n        require(\n            activeIndex[_tokenId],\n            \"Token must be active to be transferrable\"\n        );\n\n        _transfer(_from, _to, _tokenId);\n    }\n\n    /**\n     * @notice Returns the metadata belonging to a token\n     * @param _tokenId of the token\n     * @return metadata of the token\n     */\n    function getTokenMetadata(uint256 _tokenId)\n        public\n        view\n        returns (Structs.Metadata memory)\n    {\n        require(_exists(_tokenId), \"Token with give ID does not exist\");\n\n        return metadata[_tokenId];\n    }\n\n    /**\n     * @notice Function that gets called before every transfer of a token. Checks if the from and to addresses\n     * have conformed to the GSE\n     * @param _from address of the token owner\n     * @param _to address of the token receiver\n     * @param _tokenId of the token to be transferred\n     */\n    function _beforeTokenTransfer(\n        address _from,\n        address _to,\n        uint256 _tokenId\n    ) internal virtual override {\n        require(\n            rbac.hasRole(_to, rbac.SUPPLY_CHAIN_ENTITY_ROLE()),\n            \"Only supply chain entities can receive tokens\"\n        );\n\n        // only check for gse status if it's not a mint or burn operation\n        if (_from != address(0) && _to != address(0)) {\n            Structs.SupplyChainEntity memory toEntity =\n                registry.getSupplyChainEntity(_to);\n\n            Structs.SupplyChainEntity memory fromEntity =\n                registry.getSupplyChainEntity(_from);\n\n            if (!toEntity.gseStatus || !fromEntity.gseStatus) {\n                Structs.NonGSETransaction memory transaction =\n                    Structs.NonGSETransaction({\n                        time: block.timestamp,\n                        tokenId: _tokenId\n                    });\n\n                if (!toEntity.gseStatus) {\n                    registry.addNonGSETransaction(_to, transaction);\n                }\n                if (!fromEntity.gseStatus) {\n                    registry.addNonGSETransaction(_from, transaction);\n                }\n\n                emit NonGSETransaction(transaction);\n            }\n        }\n    }\n}\n",
  "sourcePath": "/Users/jabbathegut/repositories/ba_sources/textile-supply-chain/contracts/ChainOfCustodyToken.sol",
  "compiler": {
    "name": "solc",
    "version": "0.8.0+commit.c7dfd78e.Emscripten.clang"
  },
  "schemaVersion": "3.3.4",
  "updatedAt": "2021-05-13T19:10:36.804Z",
  "networkType": "ethereum",
  "devdoc": {
    "kind": "dev",
    "methods": {
      "approve(address,uint256)": {
        "details": "See {IERC721-approve}."
      },
      "balanceOf(address)": {
        "details": "See {IERC721-balanceOf}."
      },
      "getApproved(uint256)": {
        "details": "See {IERC721-getApproved}."
      },
      "getTokenMetadata(uint256)": {
        "params": {
          "_tokenId": "of the token"
        },
        "returns": {
          "_0": "metadata of the token"
        }
      },
      "isApprovedForAll(address,address)": {
        "details": "See {IERC721-isApprovedForAll}."
      },
      "mintToken(address,(uint256[]))": {
        "params": {
          "_owner": "owner of the newly created token",
          "_tokenData": "metadata for the token to be created"
        },
        "returns": {
          "_0": "id of the created token"
        }
      },
      "owner()": {
        "details": "Returns the address of the current owner."
      },
      "ownerOf(uint256)": {
        "details": "See {IERC721-ownerOf}."
      },
      "renounceOwnership()": {
        "details": "Leaves the contract without owner. It will not be possible to call `onlyOwner` functions anymore. Can only be called by the current owner. NOTE: Renouncing ownership will leave the contract without an owner, thereby removing any functionality that is only available to the owner."
      },
      "safeTransferFrom(address,address,uint256)": {
        "details": "See {IERC721-safeTransferFrom}."
      },
      "safeTransferFrom(address,address,uint256,bytes)": {
        "details": "See {IERC721-safeTransferFrom}."
      },
      "setApprovalForAll(address,bool)": {
        "details": "See {IERC721-setApprovalForAll}."
      },
      "supportsInterface(bytes4)": {
        "details": "See {IERC165-supportsInterface}."
      },
      "transferFrom(address,address,uint256)": {
        "details": "See {IERC721-transferFrom}."
      },
      "transferOwnership(address)": {
        "details": "Transfers ownership of the contract to a new account (`newOwner`). Can only be called by the current owner."
      },
      "transferToken(address,address,uint256)": {
        "params": {
          "_from": "sender entity",
          "_to": "receiver entity",
          "_tokenId": "id of the token to be transferred"
        }
      }
    },
    "version": 1
  },
  "userdoc": {
    "kind": "user",
    "methods": {
      "getTokenMetadata(uint256)": {
        "notice": "Returns the metadata belonging to a token"
      },
      "mintToken(address,(uint256[]))": {
        "notice": "Creates a token and set's the given address as new owner"
      },
      "transferToken(address,address,uint256)": {
        "notice": "Transfer token from one entity to another"
      }
    },
    "notice": "Contract that represents a NFT in the supply chain. Such a NFT is the digital twin of a real word good and is used to track it on the blockchain.",
    "version": 1
  }
}