{
  "contractName": "ControlStateMachine",
  "abi": [
    {
      "inputs": [
        {
          "internalType": "address",
          "name": "_controlled",
          "type": "address"
        },
        {
          "internalType": "address",
          "name": "_controller",
          "type": "address"
        },
        {
          "internalType": "uint256",
          "name": "_id",
          "type": "uint256"
        }
      ],
      "stateMutability": "nonpayable",
      "type": "constructor"
    },
    {
      "anonymous": false,
      "inputs": [
        {
          "indexed": false,
          "internalType": "uint256",
          "name": "controlId",
          "type": "uint256"
        },
        {
          "indexed": false,
          "internalType": "address",
          "name": "controlledEntity",
          "type": "address"
        },
        {
          "indexed": false,
          "internalType": "address",
          "name": "controlEntity",
          "type": "address"
        }
      ],
      "name": "ControlCreated",
      "type": "event"
    },
    {
      "anonymous": false,
      "inputs": [
        {
          "components": [
            {
              "internalType": "uint256",
              "name": "controlId",
              "type": "uint256"
            },
            {
              "internalType": "uint256",
              "name": "timeOfControl",
              "type": "uint256"
            },
            {
              "internalType": "enum Enums.ControlStatus",
              "name": "status",
              "type": "uint8"
            },
            {
              "internalType": "address",
              "name": "controlled",
              "type": "address"
            },
            {
              "internalType": "address",
              "name": "controller",
              "type": "address"
            }
          ],
          "indexed": false,
          "internalType": "struct Structs.GSEControl",
          "name": "control",
          "type": "tuple"
        }
      ],
      "name": "ControlFinished",
      "type": "event"
    },
    {
      "anonymous": false,
      "inputs": [
        {
          "indexed": false,
          "internalType": "uint256",
          "name": "controlId",
          "type": "uint256"
        },
        {
          "components": [
            {
              "internalType": "bool",
              "name": "gseOK",
              "type": "bool"
            },
            {
              "internalType": "bytes32[]",
              "name": "findings",
              "type": "bytes32[]"
            }
          ],
          "indexed": false,
          "internalType": "struct Structs.GSEControlDetails",
          "name": "findings",
          "type": "tuple"
        }
      ],
      "name": "FindingsForControlReported",
      "type": "event"
    },
    {
      "anonymous": false,
      "inputs": [
        {
          "indexed": true,
          "internalType": "address",
          "name": "previousOwner",
          "type": "address"
        },
        {
          "indexed": true,
          "internalType": "address",
          "name": "newOwner",
          "type": "address"
        }
      ],
      "name": "OwnershipTransferred",
      "type": "event"
    },
    {
      "inputs": [],
      "name": "owner",
      "outputs": [
        {
          "internalType": "address",
          "name": "",
          "type": "address"
        }
      ],
      "stateMutability": "view",
      "type": "function"
    },
    {
      "inputs": [],
      "name": "renounceOwnership",
      "outputs": [],
      "stateMutability": "nonpayable",
      "type": "function"
    },
    {
      "inputs": [
        {
          "internalType": "address",
          "name": "newOwner",
          "type": "address"
        }
      ],
      "name": "transferOwnership",
      "outputs": [],
      "stateMutability": "nonpayable",
      "type": "function"
    },
    {
      "inputs": [
        {
          "components": [
            {
              "internalType": "bool",
              "name": "gseOK",
              "type": "bool"
            },
            {
              "internalType": "bytes32[]",
              "name": "findings",
              "type": "bytes32[]"
            }
          ],
          "internalType": "struct Structs.GSEControlDetails",
          "name": "_findings",
          "type": "tuple"
        }
      ],
      "name": "addFindings",
      "outputs": [],
      "stateMutability": "nonpayable",
      "type": "function"
    },
    {
      "inputs": [
        {
          "internalType": "bool",
          "name": "_agree",
          "type": "bool"
        }
      ],
      "name": "commentControl",
      "outputs": [],
      "stateMutability": "payable",
      "type": "function"
    },
    {
      "inputs": [],
      "name": "getStage",
      "outputs": [
        {
          "internalType": "enum Enums.ControlStage",
          "name": "",
          "type": "uint8"
        }
      ],
      "stateMutability": "view",
      "type": "function"
    }
  ],
  "bytecode": "0x60806040523480156200001157600080fd5b50604051620015c0380380620015c083398181016040528101906200003791906200028b565b6000620000496200025560201b60201c565b9050806000806101000a81548173ffffffffffffffffffffffffffffffffffffffff021916908373ffffffffffffffffffffffffffffffffffffffff1602179055508073ffffffffffffffffffffffffffffffffffffffff16600073ffffffffffffffffffffffffffffffffffffffff167f8be0079c531659141344cd1fd0a4f28419497f9722a3daafe3b4186f6b6457e060405160405180910390a350426002819055506000600360006101000a81548160ff021916908360028111156200013b577f4e487b7100000000000000000000000000000000000000000000000000000000600052602160045260246000fd5b02179055508060018190555082600360016101000a81548173ffffffffffffffffffffffffffffffffffffffff021916908373ffffffffffffffffffffffffffffffffffffffff16021790555081600460006101000a81548173ffffffffffffffffffffffffffffffffffffffff021916908373ffffffffffffffffffffffffffffffffffffffff1602179055507fc93e6e6324bec34a688386cec07ef891a19f3c30bee2ae0e00724915b5692243600154600360019054906101000a900473ffffffffffffffffffffffffffffffffffffffff16600460009054906101000a900473ffffffffffffffffffffffffffffffffffffffff16604051620002449392919062000303565b60405180910390a1505050620003b2565b600033905090565b6000815190506200026e816200037e565b92915050565b600081519050620002858162000398565b92915050565b600080600060608486031215620002a157600080fd5b6000620002b1868287016200025d565b9350506020620002c4868287016200025d565b9250506040620002d78682870162000274565b9150509250925092565b620002ec8162000340565b82525050565b620002fd8162000374565b82525050565b60006060820190506200031a6000830186620002f2565b620003296020830185620002e1565b620003386040830184620002e1565b949350505050565b60006200034d8262000354565b9050919050565b600073ffffffffffffffffffffffffffffffffffffffff82169050919050565b6000819050919050565b620003898162000340565b81146200039557600080fd5b50565b620003a38162000374565b8114620003af57600080fd5b50565b6111fe80620003c26000396000f3fe6080604052600436106100555760003560e01c8063715018a61461005a5780638da5cb5b14610071578063b921db491461009c578063e9feb336146100b8578063f2fde38b146100e1578063fcaa76641461010a575b600080fd5b34801561006657600080fd5b5061006f610135565b005b34801561007d57600080fd5b5061008661026f565b6040516100939190610e04565b60405180910390f35b6100b660048036038101906100b19190610b4e565b610298565b005b3480156100c457600080fd5b506100df60048036038101906100da9190610b77565b6104cd565b005b3480156100ed57600080fd5b5061010860048036038101906101039190610b25565b610661565b005b34801561011657600080fd5b5061011f61080a565b60405161012c9190610e1f565b60405180910390f35b61013d61089d565b73ffffffffffffffffffffffffffffffffffffffff1661015b61026f565b73ffffffffffffffffffffffffffffffffffffffff16146101b1576040517f08c379a00000000000000000000000000000000000000000000000000000000081526004016101a890610e5a565b60405180910390fd5b600073ffffffffffffffffffffffffffffffffffffffff1660008054906101000a900473ffffffffffffffffffffffffffffffffffffffff1673ffffffffffffffffffffffffffffffffffffffff167f8be0079c531659141344cd1fd0a4f28419497f9722a3daafe3b4186f6b6457e060405160405180910390a360008060006101000a81548173ffffffffffffffffffffffffffffffffffffffff021916908373ffffffffffffffffffffffffffffffffffffffff160217905550565b60008060009054906101000a900473ffffffffffffffffffffffffffffffffffffffff16905090565b60018060028111156102d3577f4e487b7100000000000000000000000000000000000000000000000000000000600052602160045260246000fd5b600360009054906101000a900460ff16600281111561031b577f4e487b7100000000000000000000000000000000000000000000000000000000600052602160045260246000fd5b1461032557600080fd5b61032d61089d565b73ffffffffffffffffffffffffffffffffffffffff1661034b61026f565b73ffffffffffffffffffffffffffffffffffffffff16146103a1576040517f08c379a000000000000000000000000000000000000000000000000000000000815260040161039890610e5a565b60405180910390fd5b600082156103b257600090506103b7565b600190505b7f59c3c2dcac5cc5e1df4fea342be6116b13d03e887de915a1ca4fa58b80d32f566040518060a001604052806001548152602001600254815260200183600181111561042c577f4e487b7100000000000000000000000000000000000000000000000000000000600052602160045260246000fd5b8152602001600360019054906101000a900473ffffffffffffffffffffffffffffffffffffffff1673ffffffffffffffffffffffffffffffffffffffff168152602001600460009054906101000a900473ffffffffffffffffffffffffffffffffffffffff1673ffffffffffffffffffffffffffffffffffffffff168152506040516104b89190610e7a565b60405180910390a16104c86108a5565b505050565b6000806002811115610508577f4e487b7100000000000000000000000000000000000000000000000000000000600052602160045260246000fd5b600360009054906101000a900460ff166002811115610550577f4e487b7100000000000000000000000000000000000000000000000000000000600052602160045260246000fd5b1461055a57600080fd5b61056261089d565b73ffffffffffffffffffffffffffffffffffffffff1661058061026f565b73ffffffffffffffffffffffffffffffffffffffff16146105d6576040517f08c379a00000000000000000000000000000000000000000000000000000000081526004016105cd90610e5a565b60405180910390fd5b81600560008201518160000160006101000a81548160ff0219169083151502179055506020820151816001019080519060200190610615929190610982565b509050507f8715283c51fbbeaeb5c6683ab7b029260566f576ae627c2500d16670be0c288b600154600560405161064d929190610e95565b60405180910390a161065d6108a5565b5050565b61066961089d565b73ffffffffffffffffffffffffffffffffffffffff1661068761026f565b73ffffffffffffffffffffffffffffffffffffffff16146106dd576040517f08c379a00000000000000000000000000000000000000000000000000000000081526004016106d490610e5a565b60405180910390fd5b600073ffffffffffffffffffffffffffffffffffffffff168173ffffffffffffffffffffffffffffffffffffffff16141561074d576040517f08c379a000000000000000000000000000000000000000000000000000000000815260040161074490610e3a565b60405180910390fd5b8073ffffffffffffffffffffffffffffffffffffffff1660008054906101000a900473ffffffffffffffffffffffffffffffffffffffff1673ffffffffffffffffffffffffffffffffffffffff167f8be0079c531659141344cd1fd0a4f28419497f9722a3daafe3b4186f6b6457e060405160405180910390a3806000806101000a81548173ffffffffffffffffffffffffffffffffffffffff021916908373ffffffffffffffffffffffffffffffffffffffff16021790555050565b600061081461089d565b73ffffffffffffffffffffffffffffffffffffffff1661083261026f565b73ffffffffffffffffffffffffffffffffffffffff1614610888576040517f08c379a000000000000000000000000000000000000000000000000000000000815260040161087f90610e5a565b60405180910390fd5b600360009054906101000a900460ff16905090565b600033905090565b6001600360009054906101000a900460ff1660028111156108ef577f4e487b7100000000000000000000000000000000000000000000000000000000600052602160045260246000fd5b6108f99190610f71565b6002811115610931577f4e487b7100000000000000000000000000000000000000000000000000000000600052602160045260246000fd5b600360006101000a81548160ff0219169083600281111561097b577f4e487b7100000000000000000000000000000000000000000000000000000000600052602160045260246000fd5b0217905550565b8280548282559060005260206000209081019282156109be579160200282015b828111156109bd5782518255916020019190600101906109a2565b5b5090506109cb91906109cf565b5090565b5b808211156109e85760008160009055506001016109d0565b5090565b60006109ff6109fa84610ef6565b610ec5565b90508083825260208201905082856020860282011115610a1e57600080fd5b60005b85811015610a4e5781610a348882610aac565b845260208401935060208301925050600181019050610a21565b5050509392505050565b600081359050610a6781611183565b92915050565b600082601f830112610a7e57600080fd5b8135610a8e8482602086016109ec565b91505092915050565b600081359050610aa68161119a565b92915050565b600081359050610abb816111b1565b92915050565b600060408284031215610ad357600080fd5b610add6040610ec5565b90506000610aed84828501610a97565b600083015250602082013567ffffffffffffffff811115610b0d57600080fd5b610b1984828501610a6d565b60208301525092915050565b600060208284031215610b3757600080fd5b6000610b4584828501610a58565b91505092915050565b600060208284031215610b6057600080fd5b6000610b6e84828501610a97565b91505092915050565b600060208284031215610b8957600080fd5b600082013567ffffffffffffffff811115610ba357600080fd5b610baf84828501610ac1565b91505092915050565b6000610bc48383610c62565b60208301905092915050565b610bd981610fde565b82525050565b610be881610fde565b82525050565b6000610bf982610f37565b610c038185610f4f565b9350610c0e83610f22565b8060005b83811015610c4657610c238261113b565b610c2d8882610bb8565b9750610c3883610f42565b925050600181019050610c12565b5085935050505092915050565b610c5c81610ff0565b82525050565b610c6b81610ffc565b82525050565b610c7a81611056565b82525050565b610c8981611068565b82525050565b6000610c9c602683610f60565b91507f4f776e61626c653a206e6577206f776e657220697320746865207a65726f206160008301527f64647265737300000000000000000000000000000000000000000000000000006020830152604082019050919050565b6000610d02602083610f60565b91507f4f776e61626c653a2063616c6c6572206973206e6f7420746865206f776e65726000830152602082019050919050565b6000604083016000808401549050610d4c8161107a565b610d596000870182610c53565b50600184018583036020870152610d708382610bee565b925050819250505092915050565b60a082016000820151610d946000850182610de6565b506020820151610da76020850182610de6565b506040820151610dba6040850182610c80565b506060820151610dcd6060850182610bd0565b506080820151610de06080850182610bd0565b50505050565b610def8161104c565b82525050565b610dfe8161104c565b82525050565b6000602082019050610e196000830184610bdf565b92915050565b6000602082019050610e346000830184610c71565b92915050565b60006020820190508181036000830152610e5381610c8f565b9050919050565b60006020820190508181036000830152610e7381610cf5565b9050919050565b600060a082019050610e8f6000830184610d7e565b92915050565b6000604082019050610eaa6000830185610df5565b8181036020830152610ebc8184610d35565b90509392505050565b6000604051905081810181811067ffffffffffffffff82111715610eec57610eeb61110c565b5b8060405250919050565b600067ffffffffffffffff821115610f1157610f1061110c565b5b602082029050602081019050919050565b60008190508160005260206000209050919050565b600081549050919050565b6000600182019050919050565b600082825260208201905092915050565b600082825260208201905092915050565b6000610f7c8261104c565b9150610f878361104c565b9250827fffffffffffffffffffffffffffffffffffffffffffffffffffffffffffffffff03821115610fbc57610fbb6110ae565b5b828201905092915050565b600060ff82169050919050565b6000819050919050565b6000610fe98261102c565b9050919050565b60008115159050919050565b6000819050919050565b60008190506110148261115b565b919050565b60008190506110278261116f565b919050565b600073ffffffffffffffffffffffffffffffffffffffff82169050919050565b6000819050919050565b600061106182611006565b9050919050565b600061107382611019565b9050919050565b600061108d6110888361114e565b610fc7565b9050919050565b60006110a76110a28361114e565b610fd4565b9050919050565b7f4e487b7100000000000000000000000000000000000000000000000000000000600052601160045260246000fd5b7f4e487b7100000000000000000000000000000000000000000000000000000000600052602160045260246000fd5b7f4e487b7100000000000000000000000000000000000000000000000000000000600052604160045260246000fd5b60006111478254611094565b9050919050565b60008160001c9050919050565b6003811061116c5761116b6110dd565b5b50565b600281106111805761117f6110dd565b5b50565b61118c81610fde565b811461119757600080fd5b50565b6111a381610ff0565b81146111ae57600080fd5b50565b6111ba81610ffc565b81146111c557600080fd5b5056fea26469706673582212209b88b689817740f66092df683dd5f6451ee5c62a982c9116271bf597870ed6e664736f6c63430008000033",
  "immutableReferences": {},
  "source": "// SPDX-License-Identifier: MIT\npragma solidity >=0.4.22 <0.9.0;\n\nimport \"openzeppelin-solidity/contracts/access/Ownable.sol\";\nimport \"./Enums.sol\";\nimport \"./Structs.sol\";\n\n/**\n * Contract that handles the control process of an supply chain entity. Is implemented as a state machine.\n */\ncontract ControlStateMachine is Ownable {\n    uint256 private id;\n    uint256 private created;\n    Enums.ControlStage stage;\n    address private controlled;\n    address private controller;\n    Structs.GSEControlDetails findings;\n\n    event ControlCreated(\n        uint256 controlId,\n        address controlledEntity,\n        address controlEntity\n    );\n    event FindingsForControlReported(\n        uint256 controlId,\n        Structs.GSEControlDetails findings\n    );\n    event ControlFinished(Structs.GSEControl control);\n\n    constructor(\n        address _controlled,\n        address _controller,\n        uint256 _id\n    ) public Ownable() {\n        created = block.timestamp;\n        stage = Enums.ControlStage.Registered;\n        id = _id;\n        controlled = _controlled;\n        controller = _controller;\n\n        emit ControlCreated(id, controlled, controller);\n    }\n\n    /**\n     * @notice Modifier that checks that the transitions between stages are valid\n     @param _stage that is valid\n     */\n    modifier atStage(Enums.ControlStage _stage) {\n        require(stage == _stage);\n        _;\n    }\n\n    /**\n     * @notice Add findings to initiated control\n     * @param _findings that were made during the control\n     */\n    function addFindings(Structs.GSEControlDetails memory _findings)\n        public\n        atStage(Enums.ControlStage.Registered)\n        onlyOwner\n    {\n        findings = _findings;\n        emit FindingsForControlReported(id, findings);\n        nextStage();\n    }\n\n    /**\n     * @notice Signal that the controlled entity agrees or disagrees with the control fingings\n     * @param _agree true if the controlled entity agrees with the findings\n     */\n    function commentControl(bool _agree)\n        public\n        payable\n        atStage(Enums.ControlStage.Findings)\n        onlyOwner\n    {\n        Enums.ControlStatus status;\n        if (_agree) {\n            status = Enums.ControlStatus.Accepted;\n        } else {\n            status = Enums.ControlStatus.NotAccepted;\n        }\n\n        emit ControlFinished(\n            Structs.GSEControl({\n                controlId: id,\n                timeOfControl: created,\n                status: status,\n                controlled: controlled,\n                controller: controller\n            })\n        );\n\n        nextStage();\n    }\n\n    /**\n     * @notice Internal function to transition from one stage to another\n     */\n    function nextStage() internal {\n        stage = Enums.ControlStage(uint256(stage) + 1);\n    }\n\n    /**\n     * @notice Function to query stage\n     * @return stage\n     */\n    function getStage() public view onlyOwner returns (Enums.ControlStage) {\n        return stage;\n    }\n}\n",
  "sourcePath": "/Users/jabbathegut/repositories/textile-supply-chain-ethereum/contracts/ControlStateMachine.sol",
  "compiler": {
    "name": "solc",
    "version": "0.8.0+commit.c7dfd78e.Emscripten.clang"
  },
  "schemaVersion": "3.3.4",
  "updatedAt": "2021-05-03T15:51:46.055Z",
  "devdoc": {
    "kind": "dev",
    "methods": {
      "addFindings((bool,bytes32[]))": {
        "params": {
          "_findings": "that were made during the control"
        }
      },
      "commentControl(bool)": {
        "params": {
          "_agree": "true if the controlled entity agrees with the findings"
        }
      },
      "getStage()": {
        "returns": {
          "_0": "stage"
        }
      },
      "owner()": {
        "details": "Returns the address of the current owner."
      },
      "renounceOwnership()": {
        "details": "Leaves the contract without owner. It will not be possible to call `onlyOwner` functions anymore. Can only be called by the current owner. NOTE: Renouncing ownership will leave the contract without an owner, thereby removing any functionality that is only available to the owner."
      },
      "transferOwnership(address)": {
        "details": "Transfers ownership of the contract to a new account (`newOwner`). Can only be called by the current owner."
      }
    },
    "version": 1
  },
  "userdoc": {
    "kind": "user",
    "methods": {
      "addFindings((bool,bytes32[]))": {
        "notice": "Add findings to initiated control"
      },
      "commentControl(bool)": {
        "notice": "Signal that the controlled entity agrees or disagrees with the control fingings"
      },
      "getStage()": {
        "notice": "Function to query stage"
      }
    },
    "notice": "Contract that handles the control process of an supply chain entity. Is implemented as a state machine.",
    "version": 1
  }
}