{
  "contractName": "ControlStateMachine",
  "abi": [
    {
      "inputs": [
        {
          "internalType": "address",
          "name": "_controlled",
          "type": "address"
        },
        {
          "internalType": "address",
          "name": "_controller",
          "type": "address"
        },
        {
          "internalType": "uint256",
          "name": "_id",
          "type": "uint256"
        }
      ],
      "stateMutability": "nonpayable",
      "type": "constructor"
    },
    {
      "anonymous": false,
      "inputs": [
        {
          "indexed": true,
          "internalType": "address",
          "name": "previousOwner",
          "type": "address"
        },
        {
          "indexed": true,
          "internalType": "address",
          "name": "newOwner",
          "type": "address"
        }
      ],
      "name": "OwnershipTransferred",
      "type": "event"
    },
    {
      "inputs": [],
      "name": "controlled",
      "outputs": [
        {
          "internalType": "address",
          "name": "",
          "type": "address"
        }
      ],
      "stateMutability": "view",
      "type": "function"
    },
    {
      "inputs": [],
      "name": "controller",
      "outputs": [
        {
          "internalType": "address",
          "name": "",
          "type": "address"
        }
      ],
      "stateMutability": "view",
      "type": "function"
    },
    {
      "inputs": [],
      "name": "created",
      "outputs": [
        {
          "internalType": "uint256",
          "name": "",
          "type": "uint256"
        }
      ],
      "stateMutability": "view",
      "type": "function"
    },
    {
      "inputs": [],
      "name": "details",
      "outputs": [
        {
          "internalType": "bool",
          "name": "gseOK",
          "type": "bool"
        }
      ],
      "stateMutability": "view",
      "type": "function"
    },
    {
      "inputs": [],
      "name": "id",
      "outputs": [
        {
          "internalType": "uint256",
          "name": "",
          "type": "uint256"
        }
      ],
      "stateMutability": "view",
      "type": "function"
    },
    {
      "inputs": [],
      "name": "owner",
      "outputs": [
        {
          "internalType": "address",
          "name": "",
          "type": "address"
        }
      ],
      "stateMutability": "view",
      "type": "function"
    },
    {
      "inputs": [],
      "name": "renounceOwnership",
      "outputs": [],
      "stateMutability": "nonpayable",
      "type": "function"
    },
    {
      "inputs": [
        {
          "internalType": "address",
          "name": "newOwner",
          "type": "address"
        }
      ],
      "name": "transferOwnership",
      "outputs": [],
      "stateMutability": "nonpayable",
      "type": "function"
    },
    {
      "inputs": [
        {
          "components": [
            {
              "internalType": "bool",
              "name": "gseOK",
              "type": "bool"
            },
            {
              "internalType": "string[]",
              "name": "findings",
              "type": "string[]"
            }
          ],
          "internalType": "struct Structs.GSEControlDetails",
          "name": "_findings",
          "type": "tuple"
        }
      ],
      "name": "addFindings",
      "outputs": [],
      "stateMutability": "nonpayable",
      "type": "function"
    },
    {
      "inputs": [],
      "name": "commentControl",
      "outputs": [],
      "stateMutability": "payable",
      "type": "function"
    }
  ],
  "bytecode": "0x60806040523480156200001157600080fd5b50604051620013cb380380620013cb833981810160405281019062000037919062000208565b600062000049620001d260201b60201c565b9050806000806101000a81548173ffffffffffffffffffffffffffffffffffffffff021916908373ffffffffffffffffffffffffffffffffffffffff1602179055508073ffffffffffffffffffffffffffffffffffffffff16600073ffffffffffffffffffffffffffffffffffffffff167f8be0079c531659141344cd1fd0a4f28419497f9722a3daafe3b4186f6b6457e060405160405180910390a350426002819055506000600360006101000a81548160ff021916908360028111156200013b577f4e487b7100000000000000000000000000000000000000000000000000000000600052602160045260246000fd5b02179055508060018190555082600360016101000a81548173ffffffffffffffffffffffffffffffffffffffff021916908373ffffffffffffffffffffffffffffffffffffffff16021790555081600460006101000a81548173ffffffffffffffffffffffffffffffffffffffff021916908373ffffffffffffffffffffffffffffffffffffffff160217905550505050620002d0565b600033905090565b600081519050620001eb816200029c565b92915050565b6000815190506200020281620002b6565b92915050565b6000806000606084860312156200021e57600080fd5b60006200022e86828701620001da565b93505060206200024186828701620001da565b92505060406200025486828701620001f1565b9150509250925092565b60006200026b8262000272565b9050919050565b600073ffffffffffffffffffffffffffffffffffffffff82169050919050565b6000819050919050565b620002a7816200025e565b8114620002b357600080fd5b50565b620002c18162000292565b8114620002cd57600080fd5b50565b6110eb80620002e06000396000f3fe6080604052600436106100915760003560e01c80638da5cb5b116100595780638da5cb5b14610136578063af640d0f14610161578063de00a0941461018c578063f2fde38b146101b7578063f77c4791146101e057610091565b8063325a19f114610096578063565974d3146100c15780636ae2d248146100ec578063715018a6146100f657806380760b561461010d575b600080fd5b3480156100a257600080fd5b506100ab61020b565b6040516100b89190610e62565b60405180910390f35b3480156100cd57600080fd5b506100d6610211565b6040516100e39190610de7565b60405180910390f35b6100f461022a565b005b34801561010257600080fd5b5061010b610374565b005b34801561011957600080fd5b50610134600480360381019061012f9190610c52565b6104ae565b005b34801561014257600080fd5b5061014b61063c565b6040516101589190610dcc565b60405180910390f35b34801561016d57600080fd5b50610176610665565b6040516101839190610e62565b60405180910390f35b34801561019857600080fd5b506101a161066b565b6040516101ae9190610dcc565b60405180910390f35b3480156101c357600080fd5b506101de60048036038101906101d99190610c29565b610691565b005b3480156101ec57600080fd5b506101f561083a565b6040516102029190610dcc565b60405180910390f35b60025481565b60058060000160009054906101000a900460ff16905081565b6001806002811115610265577f4e487b7100000000000000000000000000000000000000000000000000000000600052602160045260246000fd5b600360009054906101000a900460ff1660028111156102ad577f4e487b7100000000000000000000000000000000000000000000000000000000600052602160045260246000fd5b146102ed576040517f08c379a00000000000000000000000000000000000000000000000000000000081526004016102e490610e22565b60405180910390fd5b6102f5610860565b73ffffffffffffffffffffffffffffffffffffffff1661031361063c565b73ffffffffffffffffffffffffffffffffffffffff1614610369576040517f08c379a000000000000000000000000000000000000000000000000000000000815260040161036090610e42565b60405180910390fd5b610371610868565b50565b61037c610860565b73ffffffffffffffffffffffffffffffffffffffff1661039a61063c565b73ffffffffffffffffffffffffffffffffffffffff16146103f0576040517f08c379a00000000000000000000000000000000000000000000000000000000081526004016103e790610e42565b60405180910390fd5b600073ffffffffffffffffffffffffffffffffffffffff1660008054906101000a900473ffffffffffffffffffffffffffffffffffffffff1673ffffffffffffffffffffffffffffffffffffffff167f8be0079c531659141344cd1fd0a4f28419497f9722a3daafe3b4186f6b6457e060405160405180910390a360008060006101000a81548173ffffffffffffffffffffffffffffffffffffffff021916908373ffffffffffffffffffffffffffffffffffffffff160217905550565b60008060028111156104e9577f4e487b7100000000000000000000000000000000000000000000000000000000600052602160045260246000fd5b600360009054906101000a900460ff166002811115610531577f4e487b7100000000000000000000000000000000000000000000000000000000600052602160045260246000fd5b14610571576040517f08c379a000000000000000000000000000000000000000000000000000000000815260040161056890610e22565b60405180910390fd5b610579610860565b73ffffffffffffffffffffffffffffffffffffffff1661059761063c565b73ffffffffffffffffffffffffffffffffffffffff16146105ed576040517f08c379a00000000000000000000000000000000000000000000000000000000081526004016105e490610e42565b60405180910390fd5b81600560008201518160000160006101000a81548160ff021916908315150217905550602082015181600101908051906020019061062c929190610945565b50905050610638610868565b5050565b60008060009054906101000a900473ffffffffffffffffffffffffffffffffffffffff16905090565b60015481565b600360019054906101000a900473ffffffffffffffffffffffffffffffffffffffff1681565b610699610860565b73ffffffffffffffffffffffffffffffffffffffff166106b761063c565b73ffffffffffffffffffffffffffffffffffffffff161461070d576040517f08c379a000000000000000000000000000000000000000000000000000000000815260040161070490610e42565b60405180910390fd5b600073ffffffffffffffffffffffffffffffffffffffff168173ffffffffffffffffffffffffffffffffffffffff16141561077d576040517f08c379a000000000000000000000000000000000000000000000000000000000815260040161077490610e02565b60405180910390fd5b8073ffffffffffffffffffffffffffffffffffffffff1660008054906101000a900473ffffffffffffffffffffffffffffffffffffffff1673ffffffffffffffffffffffffffffffffffffffff167f8be0079c531659141344cd1fd0a4f28419497f9722a3daafe3b4186f6b6457e060405160405180910390a3806000806101000a81548173ffffffffffffffffffffffffffffffffffffffff021916908373ffffffffffffffffffffffffffffffffffffffff16021790555050565b600460009054906101000a900473ffffffffffffffffffffffffffffffffffffffff1681565b600033905090565b6001600360009054906101000a900460ff1660028111156108b2577f4e487b7100000000000000000000000000000000000000000000000000000000600052602160045260246000fd5b6108bc9190610f1b565b60028111156108f4577f4e487b7100000000000000000000000000000000000000000000000000000000600052602160045260246000fd5b600360006101000a81548160ff0219169083600281111561093e577f4e487b7100000000000000000000000000000000000000000000000000000000600052602160045260246000fd5b0217905550565b828054828255906000526020600020908101928215610994579160200282015b828111156109935782518290805190602001906109839291906109a5565b5091602001919060010190610965565b5b5090506109a19190610a2b565b5090565b8280546109b190610fc8565b90600052602060002090601f0160209004810192826109d35760008555610a1a565b82601f106109ec57805160ff1916838001178555610a1a565b82800160010185558215610a1a579182015b82811115610a195782518255916020019190600101906109fe565b5b509050610a279190610a4f565b5090565b5b80821115610a4b5760008181610a429190610a6c565b50600101610a2c565b5090565b5b80821115610a68576000816000905550600101610a50565b5090565b508054610a7890610fc8565b6000825580601f10610a8a5750610aa9565b601f016020900490600052602060002090810190610aa89190610a4f565b5b50565b6000610abf610aba84610eae565b610e7d565b9050808382526020820190508260005b85811015610aff5781358501610ae58882610b9b565b845260208401935060208301925050600181019050610acf565b5050509392505050565b6000610b1c610b1784610eda565b610e7d565b905082815260208101848484011115610b3457600080fd5b610b3f848285610fb9565b509392505050565b600081359050610b5681611087565b92915050565b600082601f830112610b6d57600080fd5b8135610b7d848260208601610aac565b91505092915050565b600081359050610b958161109e565b92915050565b600082601f830112610bac57600080fd5b8135610bbc848260208601610b09565b91505092915050565b600060408284031215610bd757600080fd5b610be16040610e7d565b90506000610bf184828501610b86565b600083015250602082013567ffffffffffffffff811115610c1157600080fd5b610c1d84828501610b5c565b60208301525092915050565b600060208284031215610c3b57600080fd5b6000610c4984828501610b47565b91505092915050565b600060208284031215610c6457600080fd5b600082013567ffffffffffffffff811115610c7e57600080fd5b610c8a84828501610bc5565b91505092915050565b610c9c81610f71565b82525050565b610cab81610f83565b82525050565b6000610cbe602683610f0a565b91507f4f776e61626c653a206e6577206f776e657220697320746865207a65726f206160008301527f64647265737300000000000000000000000000000000000000000000000000006020830152604082019050919050565b6000610d24603a83610f0a565b91507f4d6574686f64206e6f742065786563757461626c65206174207468697320737460008301527f616765206f662074686520636f6e74726f6c2070726f636573730000000000006020830152604082019050919050565b6000610d8a602083610f0a565b91507f4f776e61626c653a2063616c6c6572206973206e6f7420746865206f776e65726000830152602082019050919050565b610dc681610faf565b82525050565b6000602082019050610de16000830184610c93565b92915050565b6000602082019050610dfc6000830184610ca2565b92915050565b60006020820190508181036000830152610e1b81610cb1565b9050919050565b60006020820190508181036000830152610e3b81610d17565b9050919050565b60006020820190508181036000830152610e5b81610d7d565b9050919050565b6000602082019050610e776000830184610dbd565b92915050565b6000604051905081810181811067ffffffffffffffff82111715610ea457610ea3611058565b5b8060405250919050565b600067ffffffffffffffff821115610ec957610ec8611058565b5b602082029050602081019050919050565b600067ffffffffffffffff821115610ef557610ef4611058565b5b601f19601f8301169050602081019050919050565b600082825260208201905092915050565b6000610f2682610faf565b9150610f3183610faf565b9250827fffffffffffffffffffffffffffffffffffffffffffffffffffffffffffffffff03821115610f6657610f65610ffa565b5b828201905092915050565b6000610f7c82610f8f565b9050919050565b60008115159050919050565b600073ffffffffffffffffffffffffffffffffffffffff82169050919050565b6000819050919050565b82818337600083830152505050565b60006002820490506001821680610fe057607f821691505b60208210811415610ff457610ff3611029565b5b50919050565b7f4e487b7100000000000000000000000000000000000000000000000000000000600052601160045260246000fd5b7f4e487b7100000000000000000000000000000000000000000000000000000000600052602260045260246000fd5b7f4e487b7100000000000000000000000000000000000000000000000000000000600052604160045260246000fd5b61109081610f71565b811461109b57600080fd5b50565b6110a781610f83565b81146110b257600080fd5b5056fea2646970667358221220d6e0ece4dcd466ea9311f5206bc8100846a59f123f466f7f15ed5003484bc3aa64736f6c63430008000033",
  "immutableReferences": {},
  "source": "// SPDX-License-Identifier: MIT\npragma solidity >=0.4.22 <0.9.0;\n\nimport \"openzeppelin-solidity/contracts/access/Ownable.sol\";\nimport \"./Enums.sol\";\nimport \"./Structs.sol\";\n\n/**\n * Contract that handles the control process of a supply chain entity. Is implemented as a state machine.\n */\ncontract ControlStateMachine is Ownable {\n    uint256 public id;\n    uint256 public created;\n    Enums.ControlStage stage;\n    address public controlled;\n    address public controller;\n    Structs.GSEControlDetails public details;\n\n    constructor(\n        address _controlled,\n        address _controller,\n        uint256 _id\n    ) public Ownable() {\n        created = block.timestamp;\n        stage = Enums.ControlStage.Registered;\n        id = _id;\n        controlled = _controlled;\n        controller = _controller;\n    }\n\n    /**\n     * @notice Modifier that checks that the transitions between stages are valid\n     @param _stage that is valid\n     */\n    modifier atStage(Enums.ControlStage _stage) {\n        require(\n            stage == _stage,\n            \"Method not executable at this stage of the control process\"\n        );\n        _;\n    }\n\n    /**\n     * @notice Add findings to initiated control\n     * @param _findings that were made during the control\n     */\n    function addFindings(Structs.GSEControlDetails memory _findings)\n        public\n        atStage(Enums.ControlStage.Registered)\n        onlyOwner\n    {\n        details = _findings;\n        nextStage();\n    }\n\n    /**\n     * @notice Signal that the controlled entity agrees or disagrees with the control fingings\n     */\n    function commentControl()\n        public\n        payable\n        atStage(Enums.ControlStage.Findings)\n        onlyOwner\n    {\n        nextStage();\n    }\n\n    /**\n     * @notice Internal function to transition from one stage to another\n     */\n    function nextStage() internal {\n        stage = Enums.ControlStage(uint256(stage) + 1);\n    }\n}\n",
  "sourcePath": "/Users/jabbathegut/repositories/ba_sources/textile-supply-chain/contracts/ControlStateMachine.sol",
  "compiler": {
    "name": "solc",
    "version": "0.8.0+commit.c7dfd78e.Emscripten.clang"
  },
  "schemaVersion": "3.3.4",
  "updatedAt": "2021-05-13T17:32:33.342Z",
  "devdoc": {
    "kind": "dev",
    "methods": {
      "addFindings((bool,string[]))": {
        "params": {
          "_findings": "that were made during the control"
        }
      },
      "owner()": {
        "details": "Returns the address of the current owner."
      },
      "renounceOwnership()": {
        "details": "Leaves the contract without owner. It will not be possible to call `onlyOwner` functions anymore. Can only be called by the current owner. NOTE: Renouncing ownership will leave the contract without an owner, thereby removing any functionality that is only available to the owner."
      },
      "transferOwnership(address)": {
        "details": "Transfers ownership of the contract to a new account (`newOwner`). Can only be called by the current owner."
      }
    },
    "version": 1
  },
  "userdoc": {
    "kind": "user",
    "methods": {
      "addFindings((bool,string[]))": {
        "notice": "Add findings to initiated control"
      },
      "commentControl()": {
        "notice": "Signal that the controlled entity agrees or disagrees with the control fingings"
      }
    },
    "notice": "Contract that handles the control process of a supply chain entity. Is implemented as a state machine.",
    "version": 1
  }
}