{
  "contractName": "ControlStateMachine",
  "abi": [
    {
      "inputs": [
        {
          "internalType": "address",
          "name": "_controlled",
          "type": "address"
        },
        {
          "internalType": "address",
          "name": "_controller",
          "type": "address"
        },
        {
          "internalType": "uint256",
          "name": "_id",
          "type": "uint256"
        }
      ],
      "stateMutability": "nonpayable",
      "type": "constructor"
    },
    {
      "anonymous": false,
      "inputs": [
        {
          "indexed": true,
          "internalType": "address",
          "name": "previousOwner",
          "type": "address"
        },
        {
          "indexed": true,
          "internalType": "address",
          "name": "newOwner",
          "type": "address"
        }
      ],
      "name": "OwnershipTransferred",
      "type": "event"
    },
    {
      "inputs": [],
      "name": "controlled",
      "outputs": [
        {
          "internalType": "address",
          "name": "",
          "type": "address"
        }
      ],
      "stateMutability": "view",
      "type": "function"
    },
    {
      "inputs": [],
      "name": "controller",
      "outputs": [
        {
          "internalType": "address",
          "name": "",
          "type": "address"
        }
      ],
      "stateMutability": "view",
      "type": "function"
    },
    {
      "inputs": [],
      "name": "created",
      "outputs": [
        {
          "internalType": "uint256",
          "name": "",
          "type": "uint256"
        }
      ],
      "stateMutability": "view",
      "type": "function"
    },
    {
      "inputs": [],
      "name": "details",
      "outputs": [
        {
          "internalType": "bool",
          "name": "gseOK",
          "type": "bool"
        }
      ],
      "stateMutability": "view",
      "type": "function"
    },
    {
      "inputs": [],
      "name": "id",
      "outputs": [
        {
          "internalType": "uint256",
          "name": "",
          "type": "uint256"
        }
      ],
      "stateMutability": "view",
      "type": "function"
    },
    {
      "inputs": [],
      "name": "owner",
      "outputs": [
        {
          "internalType": "address",
          "name": "",
          "type": "address"
        }
      ],
      "stateMutability": "view",
      "type": "function"
    },
    {
      "inputs": [],
      "name": "renounceOwnership",
      "outputs": [],
      "stateMutability": "nonpayable",
      "type": "function"
    },
    {
      "inputs": [
        {
          "internalType": "address",
          "name": "newOwner",
          "type": "address"
        }
      ],
      "name": "transferOwnership",
      "outputs": [],
      "stateMutability": "nonpayable",
      "type": "function"
    },
    {
      "inputs": [
        {
          "components": [
            {
              "internalType": "bool",
              "name": "gseOK",
              "type": "bool"
            },
            {
              "internalType": "string[]",
              "name": "findings",
              "type": "string[]"
            }
          ],
          "internalType": "struct Structs.GSEControlDetails",
          "name": "_findings",
          "type": "tuple"
        }
      ],
      "name": "addFindings",
      "outputs": [],
      "stateMutability": "nonpayable",
      "type": "function"
    },
    {
      "inputs": [],
      "name": "commentControl",
      "outputs": [],
      "stateMutability": "payable",
      "type": "function"
    },
    {
      "inputs": [],
      "name": "getStage",
      "outputs": [
        {
          "internalType": "enum Enums.ControlStage",
          "name": "",
          "type": "uint8"
        }
      ],
      "stateMutability": "view",
      "type": "function"
    }
  ],
  "bytecode": "0x60806040523480156200001157600080fd5b506040516200152638038062001526833981810160405281019062000037919062000208565b600062000049620001d260201b60201c565b9050806000806101000a81548173ffffffffffffffffffffffffffffffffffffffff021916908373ffffffffffffffffffffffffffffffffffffffff1602179055508073ffffffffffffffffffffffffffffffffffffffff16600073ffffffffffffffffffffffffffffffffffffffff167f8be0079c531659141344cd1fd0a4f28419497f9722a3daafe3b4186f6b6457e060405160405180910390a350426002819055506000600360006101000a81548160ff021916908360028111156200013b577f4e487b7100000000000000000000000000000000000000000000000000000000600052602160045260246000fd5b02179055508060018190555082600360016101000a81548173ffffffffffffffffffffffffffffffffffffffff021916908373ffffffffffffffffffffffffffffffffffffffff16021790555081600460006101000a81548173ffffffffffffffffffffffffffffffffffffffff021916908373ffffffffffffffffffffffffffffffffffffffff160217905550505050620002d0565b600033905090565b600081519050620001eb816200029c565b92915050565b6000815190506200020281620002b6565b92915050565b6000806000606084860312156200021e57600080fd5b60006200022e86828701620001da565b93505060206200024186828701620001da565b92505060406200025486828701620001f1565b9150509250925092565b60006200026b8262000272565b9050919050565b600073ffffffffffffffffffffffffffffffffffffffff82169050919050565b6000819050919050565b620002a7816200025e565b8114620002b357600080fd5b50565b620002c18162000292565b8114620002cd57600080fd5b50565b61124680620002e06000396000f3fe60806040526004361061009c5760003560e01c80638da5cb5b116100645780638da5cb5b14610141578063af640d0f1461016c578063de00a09414610197578063f2fde38b146101c2578063f77c4791146101eb578063fcaa7664146102165761009c565b8063325a19f1146100a1578063565974d3146100cc5780636ae2d248146100f7578063715018a61461010157806380760b5614610118575b600080fd5b3480156100ad57600080fd5b506100b6610241565b6040516100c39190610f55565b60405180910390f35b3480156100d857600080fd5b506100e1610247565b6040516100ee9190610ebf565b60405180910390f35b6100ff610260565b005b34801561010d57600080fd5b506101166103aa565b005b34801561012457600080fd5b5061013f600480360381019061013a9190610d1b565b6104e4565b005b34801561014d57600080fd5b50610156610672565b6040516101639190610ea4565b60405180910390f35b34801561017857600080fd5b5061018161069b565b60405161018e9190610f55565b60405180910390f35b3480156101a357600080fd5b506101ac6106a1565b6040516101b99190610ea4565b60405180910390f35b3480156101ce57600080fd5b506101e960048036038101906101e49190610cf2565b6106c7565b005b3480156101f757600080fd5b50610200610870565b60405161020d9190610ea4565b60405180910390f35b34801561022257600080fd5b5061022b610896565b6040516102389190610eda565b60405180910390f35b60025481565b60058060000160009054906101000a900460ff16905081565b600180600281111561029b577f4e487b7100000000000000000000000000000000000000000000000000000000600052602160045260246000fd5b600360009054906101000a900460ff1660028111156102e3577f4e487b7100000000000000000000000000000000000000000000000000000000600052602160045260246000fd5b14610323576040517f08c379a000000000000000000000000000000000000000000000000000000000815260040161031a90610f15565b60405180910390fd5b61032b610929565b73ffffffffffffffffffffffffffffffffffffffff16610349610672565b73ffffffffffffffffffffffffffffffffffffffff161461039f576040517f08c379a000000000000000000000000000000000000000000000000000000000815260040161039690610f35565b60405180910390fd5b6103a7610931565b50565b6103b2610929565b73ffffffffffffffffffffffffffffffffffffffff166103d0610672565b73ffffffffffffffffffffffffffffffffffffffff1614610426576040517f08c379a000000000000000000000000000000000000000000000000000000000815260040161041d90610f35565b60405180910390fd5b600073ffffffffffffffffffffffffffffffffffffffff1660008054906101000a900473ffffffffffffffffffffffffffffffffffffffff1673ffffffffffffffffffffffffffffffffffffffff167f8be0079c531659141344cd1fd0a4f28419497f9722a3daafe3b4186f6b6457e060405160405180910390a360008060006101000a81548173ffffffffffffffffffffffffffffffffffffffff021916908373ffffffffffffffffffffffffffffffffffffffff160217905550565b600080600281111561051f577f4e487b7100000000000000000000000000000000000000000000000000000000600052602160045260246000fd5b600360009054906101000a900460ff166002811115610567577f4e487b7100000000000000000000000000000000000000000000000000000000600052602160045260246000fd5b146105a7576040517f08c379a000000000000000000000000000000000000000000000000000000000815260040161059e90610f15565b60405180910390fd5b6105af610929565b73ffffffffffffffffffffffffffffffffffffffff166105cd610672565b73ffffffffffffffffffffffffffffffffffffffff1614610623576040517f08c379a000000000000000000000000000000000000000000000000000000000815260040161061a90610f35565b60405180910390fd5b81600560008201518160000160006101000a81548160ff0219169083151502179055506020820151816001019080519060200190610662929190610a0e565b5090505061066e610931565b5050565b60008060009054906101000a900473ffffffffffffffffffffffffffffffffffffffff16905090565b60015481565b600360019054906101000a900473ffffffffffffffffffffffffffffffffffffffff1681565b6106cf610929565b73ffffffffffffffffffffffffffffffffffffffff166106ed610672565b73ffffffffffffffffffffffffffffffffffffffff1614610743576040517f08c379a000000000000000000000000000000000000000000000000000000000815260040161073a90610f35565b60405180910390fd5b600073ffffffffffffffffffffffffffffffffffffffff168173ffffffffffffffffffffffffffffffffffffffff1614156107b3576040517f08c379a00000000000000000000000000000000000000000000000000000000081526004016107aa90610ef5565b60405180910390fd5b8073ffffffffffffffffffffffffffffffffffffffff1660008054906101000a900473ffffffffffffffffffffffffffffffffffffffff1673ffffffffffffffffffffffffffffffffffffffff167f8be0079c531659141344cd1fd0a4f28419497f9722a3daafe3b4186f6b6457e060405160405180910390a3806000806101000a81548173ffffffffffffffffffffffffffffffffffffffff021916908373ffffffffffffffffffffffffffffffffffffffff16021790555050565b600460009054906101000a900473ffffffffffffffffffffffffffffffffffffffff1681565b60006108a0610929565b73ffffffffffffffffffffffffffffffffffffffff166108be610672565b73ffffffffffffffffffffffffffffffffffffffff1614610914576040517f08c379a000000000000000000000000000000000000000000000000000000000815260040161090b90610f35565b60405180910390fd5b600360009054906101000a900460ff16905090565b600033905090565b6001600360009054906101000a900460ff16600281111561097b577f4e487b7100000000000000000000000000000000000000000000000000000000600052602160045260246000fd5b610985919061100e565b60028111156109bd577f4e487b7100000000000000000000000000000000000000000000000000000000600052602160045260246000fd5b600360006101000a81548160ff02191690836002811115610a07577f4e487b7100000000000000000000000000000000000000000000000000000000600052602160045260246000fd5b0217905550565b828054828255906000526020600020908101928215610a5d579160200282015b82811115610a5c578251829080519060200190610a4c929190610a6e565b5091602001919060010190610a2e565b5b509050610a6a9190610af4565b5090565b828054610a7a906110e0565b90600052602060002090601f016020900481019282610a9c5760008555610ae3565b82601f10610ab557805160ff1916838001178555610ae3565b82800160010185558215610ae3579182015b82811115610ae2578251825591602001919060010190610ac7565b5b509050610af09190610b18565b5090565b5b80821115610b145760008181610b0b9190610b35565b50600101610af5565b5090565b5b80821115610b31576000816000905550600101610b19565b5090565b508054610b41906110e0565b6000825580601f10610b535750610b72565b601f016020900490600052602060002090810190610b719190610b18565b5b50565b6000610b88610b8384610fa1565b610f70565b9050808382526020820190508260005b85811015610bc85781358501610bae8882610c64565b845260208401935060208301925050600181019050610b98565b5050509392505050565b6000610be5610be084610fcd565b610f70565b905082815260208101848484011115610bfd57600080fd5b610c088482856110d1565b509392505050565b600081359050610c1f816111e2565b92915050565b600082601f830112610c3657600080fd5b8135610c46848260208601610b75565b91505092915050565b600081359050610c5e816111f9565b92915050565b600082601f830112610c7557600080fd5b8135610c85848260208601610bd2565b91505092915050565b600060408284031215610ca057600080fd5b610caa6040610f70565b90506000610cba84828501610c4f565b600083015250602082013567ffffffffffffffff811115610cda57600080fd5b610ce684828501610c25565b60208301525092915050565b600060208284031215610d0457600080fd5b6000610d1284828501610c10565b91505092915050565b600060208284031215610d2d57600080fd5b600082013567ffffffffffffffff811115610d4757600080fd5b610d5384828501610c8e565b91505092915050565b610d6581611064565b82525050565b610d7481611076565b82525050565b610d83816110bf565b82525050565b6000610d96602683610ffd565b91507f4f776e61626c653a206e6577206f776e657220697320746865207a65726f206160008301527f64647265737300000000000000000000000000000000000000000000000000006020830152604082019050919050565b6000610dfc603a83610ffd565b91507f4d6574686f64206e6f742065786563757461626c65206174207468697320737460008301527f616765206f662074686520636f6e74726f6c2070726f636573730000000000006020830152604082019050919050565b6000610e62602083610ffd565b91507f4f776e61626c653a2063616c6c6572206973206e6f7420746865206f776e65726000830152602082019050919050565b610e9e816110b5565b82525050565b6000602082019050610eb96000830184610d5c565b92915050565b6000602082019050610ed46000830184610d6b565b92915050565b6000602082019050610eef6000830184610d7a565b92915050565b60006020820190508181036000830152610f0e81610d89565b9050919050565b60006020820190508181036000830152610f2e81610def565b9050919050565b60006020820190508181036000830152610f4e81610e55565b9050919050565b6000602082019050610f6a6000830184610e95565b92915050565b6000604051905081810181811067ffffffffffffffff82111715610f9757610f9661119f565b5b8060405250919050565b600067ffffffffffffffff821115610fbc57610fbb61119f565b5b602082029050602081019050919050565b600067ffffffffffffffff821115610fe857610fe761119f565b5b601f19601f8301169050602081019050919050565b600082825260208201905092915050565b6000611019826110b5565b9150611024836110b5565b9250827fffffffffffffffffffffffffffffffffffffffffffffffffffffffffffffffff0382111561105957611058611112565b5b828201905092915050565b600061106f82611095565b9050919050565b60008115159050919050565b6000819050611090826111ce565b919050565b600073ffffffffffffffffffffffffffffffffffffffff82169050919050565b6000819050919050565b60006110ca82611082565b9050919050565b82818337600083830152505050565b600060028204905060018216806110f857607f821691505b6020821081141561110c5761110b611170565b5b50919050565b7f4e487b7100000000000000000000000000000000000000000000000000000000600052601160045260246000fd5b7f4e487b7100000000000000000000000000000000000000000000000000000000600052602160045260246000fd5b7f4e487b7100000000000000000000000000000000000000000000000000000000600052602260045260246000fd5b7f4e487b7100000000000000000000000000000000000000000000000000000000600052604160045260246000fd5b600381106111df576111de611141565b5b50565b6111eb81611064565b81146111f657600080fd5b50565b61120281611076565b811461120d57600080fd5b5056fea2646970667358221220b752860344f1958902f9af97f1a7744c5c25ef6d00f92faeabacfd84fd39f23364736f6c63430008000033",
  "immutableReferences": {},
  "source": "// SPDX-License-Identifier: MIT\npragma solidity >=0.4.22 <0.9.0;\n\nimport \"openzeppelin-solidity/contracts/access/Ownable.sol\";\nimport \"./Enums.sol\";\nimport \"./Structs.sol\";\n\n/**\n * Contract that handles the control process of an supply chain entity. Is implemented as a state machine.\n */\ncontract ControlStateMachine is Ownable {\n    uint256 public id;\n    uint256 public created;\n    Enums.ControlStage stage;\n    address public controlled;\n    address public controller;\n    Structs.GSEControlDetails public details;\n\n    constructor(\n        address _controlled,\n        address _controller,\n        uint256 _id\n    ) public Ownable() {\n        created = block.timestamp;\n        stage = Enums.ControlStage.Registered;\n        id = _id;\n        controlled = _controlled;\n        controller = _controller;\n    }\n\n    /**\n     * @notice Modifier that checks that the transitions between stages are valid\n     @param _stage that is valid\n     */\n    modifier atStage(Enums.ControlStage _stage) {\n        require(stage == _stage, \"Method not executable at this stage of the control process\");\n        _;\n    }\n\n    /**\n     * @notice Add findings to initiated control\n     * @param _findings that were made during the control\n     */\n    function addFindings(Structs.GSEControlDetails memory _findings)\n        public\n        atStage(Enums.ControlStage.Registered)\n        onlyOwner\n    {\n        details = _findings;\n        nextStage();\n    }\n\n    /**\n     * @notice Signal that the controlled entity agrees or disagrees with the control fingings\n     */\n    function commentControl()\n        public\n        payable\n        atStage(Enums.ControlStage.Findings)\n        onlyOwner\n    {\n        nextStage();\n    }\n\n    /**\n     * @notice Internal function to transition from one stage to another\n     */\n    function nextStage() internal {\n        stage = Enums.ControlStage(uint256(stage) + 1);\n    }\n\n    /**\n     * @notice Function to query stage\n     * @return stage\n     */\n    function getStage() public view onlyOwner returns (Enums.ControlStage) {\n        return stage;\n    }\n}\n",
  "sourcePath": "/Users/jabbathegut/repositories/textile-supply-chain-ethereum/contracts/ControlStateMachine.sol",
  "compiler": {
    "name": "solc",
    "version": "0.8.0+commit.c7dfd78e.Emscripten.clang"
  },
  "schemaVersion": "3.3.4",
  "updatedAt": "2021-05-05T14:26:34.331Z",
  "devdoc": {
    "kind": "dev",
    "methods": {
      "addFindings((bool,string[]))": {
        "params": {
          "_findings": "that were made during the control"
        }
      },
      "getStage()": {
        "returns": {
          "_0": "stage"
        }
      },
      "owner()": {
        "details": "Returns the address of the current owner."
      },
      "renounceOwnership()": {
        "details": "Leaves the contract without owner. It will not be possible to call `onlyOwner` functions anymore. Can only be called by the current owner. NOTE: Renouncing ownership will leave the contract without an owner, thereby removing any functionality that is only available to the owner."
      },
      "transferOwnership(address)": {
        "details": "Transfers ownership of the contract to a new account (`newOwner`). Can only be called by the current owner."
      }
    },
    "version": 1
  },
  "userdoc": {
    "kind": "user",
    "methods": {
      "addFindings((bool,string[]))": {
        "notice": "Add findings to initiated control"
      },
      "commentControl()": {
        "notice": "Signal that the controlled entity agrees or disagrees with the control fingings"
      },
      "getStage()": {
        "notice": "Function to query stage"
      }
    },
    "notice": "Contract that handles the control process of an supply chain entity. Is implemented as a state machine.",
    "version": 1
  }
}