{
  "contractName": "Control",
  "abi": [
    {
      "inputs": [
        {
          "internalType": "address",
          "name": "_rbacAddress",
          "type": "address"
        }
      ],
      "stateMutability": "nonpayable",
      "type": "constructor"
    },
    {
      "inputs": [
        {
          "internalType": "address",
          "name": "_controlled",
          "type": "address"
        }
      ],
      "name": "startControl",
      "outputs": [],
      "stateMutability": "nonpayable",
      "type": "function"
    },
    {
      "inputs": [
        {
          "internalType": "uint256",
          "name": "_controlId",
          "type": "uint256"
        },
        {
          "components": [
            {
              "internalType": "bool",
              "name": "gseOK",
              "type": "bool"
            },
            {
              "internalType": "bytes32[]",
              "name": "findings",
              "type": "bytes32[]"
            }
          ],
          "internalType": "struct Structs.GSEControlDetails",
          "name": "_findings",
          "type": "tuple"
        }
      ],
      "name": "reportFindingsForControl",
      "outputs": [],
      "stateMutability": "nonpayable",
      "type": "function"
    },
    {
      "inputs": [
        {
          "internalType": "uint256",
          "name": "_controlId",
          "type": "uint256"
        },
        {
          "internalType": "bool",
          "name": "_opinion",
          "type": "bool"
        }
      ],
      "name": "acknowledgeControl",
      "outputs": [],
      "stateMutability": "nonpayable",
      "type": "function"
    }
  ],
  "bytecode": "0x608060405234801561001057600080fd5b50604051620027af380380620027af83398181016040528101906100349190610090565b80600360006101000a81548173ffffffffffffffffffffffffffffffffffffffff021916908373ffffffffffffffffffffffffffffffffffffffff16021790555050610102565b60008151905061008a816100eb565b92915050565b6000602082840312156100a257600080fd5b60006100b08482850161007b565b91505092915050565b60006100c4826100cb565b9050919050565b600073ffffffffffffffffffffffffffffffffffffffff82169050919050565b6100f4816100b9565b81146100ff57600080fd5b50565b61269d80620001126000396000f3fe60806040523480156200001157600080fd5b5060043610620000465760003560e01c80634db91c39146200004b5780636f5eb37a146200006b578063bde8adf7146200008b575b600080fd5b62000069600480360381019062000063919062000a3e565b620000ab565b005b62000089600480360381019062000083919062000ac2565b62000332565b005b620000a96004803603810190620000a3919062000b03565b620005d3565b005b600360009054906101000a900473ffffffffffffffffffffffffffffffffffffffff1673ffffffffffffffffffffffffffffffffffffffff1663ac4ab3fb33600360009054906101000a900473ffffffffffffffffffffffffffffffffffffffff1673ffffffffffffffffffffffffffffffffffffffff1663d7a1e6ab6040518163ffffffff1660e01b815260040160206040518083038186803b1580156200015357600080fd5b505afa15801562000168573d6000803e3d6000fd5b505050506040513d601f19601f820116820180604052508101906200018e919062000a96565b6040518363ffffffff1660e01b8152600401620001ad92919062000e19565b60206040518083038186803b158015620001c657600080fd5b505afa158015620001db573d6000803e3d6000fd5b505050506040513d601f19601f8201168201806040525081019062000201919062000a6a565b62000243576040517f08c379a00000000000000000000000000000000000000000000000000000000081526004016200023a9062000e63565b60405180910390fd5b6200024f600062000874565b600081336200025f60006200088a565b6040516200026d9062000898565b6200027b9392919062000ddc565b604051809103906000f08015801562000298573d6000803e3d6000fd5b5090506001806000620002ac60006200088a565b815260200190815260200160002060006101000a81548160ff0219169083151502179055508060026000620002e260006200088a565b815260200190815260200160002060006101000a81548173ffffffffffffffffffffffffffffffffffffffff021916908373ffffffffffffffffffffffffffffffffffffffff1602179055505050565b600360009054906101000a900473ffffffffffffffffffffffffffffffffffffffff1673ffffffffffffffffffffffffffffffffffffffff1663ac4ab3fb33600360009054906101000a900473ffffffffffffffffffffffffffffffffffffffff1673ffffffffffffffffffffffffffffffffffffffff16631cee4a9d6040518163ffffffff1660e01b815260040160206040518083038186803b158015620003da57600080fd5b505afa158015620003ef573d6000803e3d6000fd5b505050506040513d601f19601f8201168201806040525081019062000415919062000a96565b6040518363ffffffff1660e01b81526004016200043492919062000e19565b60206040518083038186803b1580156200044d57600080fd5b505afa15801562000462573d6000803e3d6000fd5b505050506040513d601f19601f8201168201806040525081019062000488919062000a6a565b620004ca576040517f08c379a0000000000000000000000000000000000000000000000000000000008152600401620004c19062000ec9565b60405180910390fd5b6001600083815260200190815260200160002060009054906101000a900460ff166200052d576040517f08c379a0000000000000000000000000000000000000000000000000000000008152600401620005249062000ea7565b60405180910390fd5b6002600083815260200190815260200160002060009054906101000a900473ffffffffffffffffffffffffffffffffffffffff1673ffffffffffffffffffffffffffffffffffffffff1663b921db49826040518263ffffffff1660e01b81526004016200059b919062000e46565b600060405180830381600087803b158015620005b657600080fd5b505af1158015620005cb573d6000803e3d6000fd5b505050505050565b600360009054906101000a900473ffffffffffffffffffffffffffffffffffffffff1673ffffffffffffffffffffffffffffffffffffffff1663ac4ab3fb33600360009054906101000a900473ffffffffffffffffffffffffffffffffffffffff1673ffffffffffffffffffffffffffffffffffffffff1663d7a1e6ab6040518163ffffffff1660e01b815260040160206040518083038186803b1580156200067b57600080fd5b505afa15801562000690573d6000803e3d6000fd5b505050506040513d601f19601f82011682018060405250810190620006b6919062000a96565b6040518363ffffffff1660e01b8152600401620006d592919062000e19565b60206040518083038186803b158015620006ee57600080fd5b505afa15801562000703573d6000803e3d6000fd5b505050506040513d601f19601f8201168201806040525081019062000729919062000a6a565b6200076b576040517f08c379a0000000000000000000000000000000000000000000000000000000008152600401620007629062000e63565b60405180910390fd5b6001600083815260200190815260200160002060009054906101000a900460ff16620007ce576040517f08c379a0000000000000000000000000000000000000000000000000000000008152600401620007c59062000e85565b60405180910390fd5b6002600083815260200190815260200160002060009054906101000a900473ffffffffffffffffffffffffffffffffffffffff1673ffffffffffffffffffffffffffffffffffffffff1663e9feb336826040518263ffffffff1660e01b81526004016200083c919062000eeb565b600060405180830381600087803b1580156200085757600080fd5b505af11580156200086c573d6000803e3d6000fd5b505050505050565b6001816000016000828254019250508190555050565b600081600001549050919050565b6115c080620010a883390190565b6000620008bd620008b78462000f43565b62000f0f565b90508083825260208201905082856020860282011115620008dd57600080fd5b60005b85811015620009115781620008f688826200098d565b845260208401935060208301925050600181019050620008e0565b5050509392505050565b6000813590506200092c816200103f565b92915050565b600082601f8301126200094457600080fd5b813562000956848260208601620008a6565b91505092915050565b600081359050620009708162001059565b92915050565b600081519050620009878162001059565b92915050565b6000813590506200099e8162001073565b92915050565b600081519050620009b58162001073565b92915050565b600060408284031215620009ce57600080fd5b620009da604062000f0f565b90506000620009ec848285016200095f565b600083015250602082013567ffffffffffffffff81111562000a0d57600080fd5b62000a1b8482850162000932565b60208301525092915050565b60008135905062000a38816200108d565b92915050565b60006020828403121562000a5157600080fd5b600062000a61848285016200091b565b91505092915050565b60006020828403121562000a7d57600080fd5b600062000a8d8482850162000976565b91505092915050565b60006020828403121562000aa957600080fd5b600062000ab984828501620009a4565b91505092915050565b6000806040838503121562000ad657600080fd5b600062000ae68582860162000a27565b925050602062000af9858286016200095f565b9150509250929050565b6000806040838503121562000b1757600080fd5b600062000b278582860162000a27565b925050602083013567ffffffffffffffff81111562000b4557600080fd5b62000b5385828601620009bb565b9150509250929050565b600062000b6b838362000c14565b60208301905092915050565b62000b828162000fbc565b82525050565b600062000b958262000f82565b62000ba1818562000f9a565b935062000bae8362000f72565b8060005b8381101562000be557815162000bc9888262000b5d565b975062000bd68362000f8d565b92505060018101905062000bb2565b5085935050505092915050565b62000bfd8162000fd0565b82525050565b62000c0e8162000fd0565b82525050565b62000c1f8162000fdc565b82525050565b62000c308162000fdc565b82525050565b600062000c4560228362000fab565b91507f4163636f756e74206973206e6f74206120636f6e74726f6c20696e7374616e6360008301527f652e0000000000000000000000000000000000000000000000000000000000006020830152604082019050919050565b600062000cad60198362000fab565b91507f4e6f20636f6e74726f6c207769746820676962656e2049442e000000000000006000830152602082019050919050565b600062000cef60198362000fab565b91507f4e6f20636f6e74726f6c207769746820676976656e2049442e000000000000006000830152602082019050919050565b600062000d31602f8362000fab565b91507f43616c6c65722061646472657373206973206e6f742070617274206f6620746860008301527f6520737570706c7920636861696e2e00000000000000000000000000000000006020830152604082019050919050565b600060408301600083015162000da4600086018262000bf2565b506020830151848203602086015262000dbe828262000b88565b9150508091505092915050565b62000dd68162001006565b82525050565b600060608201905062000df3600083018662000b77565b62000e02602083018562000b77565b62000e11604083018462000dcb565b949350505050565b600060408201905062000e30600083018562000b77565b62000e3f602083018462000c25565b9392505050565b600060208201905062000e5d600083018462000c03565b92915050565b6000602082019050818103600083015262000e7e8162000c36565b9050919050565b6000602082019050818103600083015262000ea08162000c9e565b9050919050565b6000602082019050818103600083015262000ec28162000ce0565b9050919050565b6000602082019050818103600083015262000ee48162000d22565b9050919050565b6000602082019050818103600083015262000f07818462000d8a565b905092915050565b6000604051905081810181811067ffffffffffffffff8211171562000f395762000f3862001010565b5b8060405250919050565b600067ffffffffffffffff82111562000f615762000f6062001010565b5b602082029050602081019050919050565b6000819050602082019050919050565b600081519050919050565b6000602082019050919050565b600082825260208201905092915050565b600082825260208201905092915050565b600062000fc98262000fe6565b9050919050565b60008115159050919050565b6000819050919050565b600073ffffffffffffffffffffffffffffffffffffffff82169050919050565b6000819050919050565b7f4e487b7100000000000000000000000000000000000000000000000000000000600052604160045260246000fd5b6200104a8162000fbc565b81146200105657600080fd5b50565b620010648162000fd0565b81146200107057600080fd5b50565b6200107e8162000fdc565b81146200108a57600080fd5b50565b620010988162001006565b8114620010a457600080fd5b5056fe60806040523480156200001157600080fd5b50604051620015c0380380620015c083398181016040528101906200003791906200028b565b6000620000496200025560201b60201c565b9050806000806101000a81548173ffffffffffffffffffffffffffffffffffffffff021916908373ffffffffffffffffffffffffffffffffffffffff1602179055508073ffffffffffffffffffffffffffffffffffffffff16600073ffffffffffffffffffffffffffffffffffffffff167f8be0079c531659141344cd1fd0a4f28419497f9722a3daafe3b4186f6b6457e060405160405180910390a350426002819055506000600360006101000a81548160ff021916908360028111156200013b577f4e487b7100000000000000000000000000000000000000000000000000000000600052602160045260246000fd5b02179055508060018190555082600360016101000a81548173ffffffffffffffffffffffffffffffffffffffff021916908373ffffffffffffffffffffffffffffffffffffffff16021790555081600460006101000a81548173ffffffffffffffffffffffffffffffffffffffff021916908373ffffffffffffffffffffffffffffffffffffffff1602179055507fc93e6e6324bec34a688386cec07ef891a19f3c30bee2ae0e00724915b5692243600154600360019054906101000a900473ffffffffffffffffffffffffffffffffffffffff16600460009054906101000a900473ffffffffffffffffffffffffffffffffffffffff16604051620002449392919062000303565b60405180910390a1505050620003b2565b600033905090565b6000815190506200026e816200037e565b92915050565b600081519050620002858162000398565b92915050565b600080600060608486031215620002a157600080fd5b6000620002b1868287016200025d565b9350506020620002c4868287016200025d565b9250506040620002d78682870162000274565b9150509250925092565b620002ec8162000340565b82525050565b620002fd8162000374565b82525050565b60006060820190506200031a6000830186620002f2565b620003296020830185620002e1565b620003386040830184620002e1565b949350505050565b60006200034d8262000354565b9050919050565b600073ffffffffffffffffffffffffffffffffffffffff82169050919050565b6000819050919050565b620003898162000340565b81146200039557600080fd5b50565b620003a38162000374565b8114620003af57600080fd5b50565b6111fe80620003c26000396000f3fe6080604052600436106100555760003560e01c8063715018a61461005a5780638da5cb5b14610071578063b921db491461009c578063e9feb336146100b8578063f2fde38b146100e1578063fcaa76641461010a575b600080fd5b34801561006657600080fd5b5061006f610135565b005b34801561007d57600080fd5b5061008661026f565b6040516100939190610e04565b60405180910390f35b6100b660048036038101906100b19190610b4e565b610298565b005b3480156100c457600080fd5b506100df60048036038101906100da9190610b77565b6104cd565b005b3480156100ed57600080fd5b5061010860048036038101906101039190610b25565b610661565b005b34801561011657600080fd5b5061011f61080a565b60405161012c9190610e1f565b60405180910390f35b61013d61089d565b73ffffffffffffffffffffffffffffffffffffffff1661015b61026f565b73ffffffffffffffffffffffffffffffffffffffff16146101b1576040517f08c379a00000000000000000000000000000000000000000000000000000000081526004016101a890610e5a565b60405180910390fd5b600073ffffffffffffffffffffffffffffffffffffffff1660008054906101000a900473ffffffffffffffffffffffffffffffffffffffff1673ffffffffffffffffffffffffffffffffffffffff167f8be0079c531659141344cd1fd0a4f28419497f9722a3daafe3b4186f6b6457e060405160405180910390a360008060006101000a81548173ffffffffffffffffffffffffffffffffffffffff021916908373ffffffffffffffffffffffffffffffffffffffff160217905550565b60008060009054906101000a900473ffffffffffffffffffffffffffffffffffffffff16905090565b60018060028111156102d3577f4e487b7100000000000000000000000000000000000000000000000000000000600052602160045260246000fd5b600360009054906101000a900460ff16600281111561031b577f4e487b7100000000000000000000000000000000000000000000000000000000600052602160045260246000fd5b1461032557600080fd5b61032d61089d565b73ffffffffffffffffffffffffffffffffffffffff1661034b61026f565b73ffffffffffffffffffffffffffffffffffffffff16146103a1576040517f08c379a000000000000000000000000000000000000000000000000000000000815260040161039890610e5a565b60405180910390fd5b600082156103b257600090506103b7565b600190505b7f59c3c2dcac5cc5e1df4fea342be6116b13d03e887de915a1ca4fa58b80d32f566040518060a001604052806001548152602001600254815260200183600181111561042c577f4e487b7100000000000000000000000000000000000000000000000000000000600052602160045260246000fd5b8152602001600360019054906101000a900473ffffffffffffffffffffffffffffffffffffffff1673ffffffffffffffffffffffffffffffffffffffff168152602001600460009054906101000a900473ffffffffffffffffffffffffffffffffffffffff1673ffffffffffffffffffffffffffffffffffffffff168152506040516104b89190610e7a565b60405180910390a16104c86108a5565b505050565b6000806002811115610508577f4e487b7100000000000000000000000000000000000000000000000000000000600052602160045260246000fd5b600360009054906101000a900460ff166002811115610550577f4e487b7100000000000000000000000000000000000000000000000000000000600052602160045260246000fd5b1461055a57600080fd5b61056261089d565b73ffffffffffffffffffffffffffffffffffffffff1661058061026f565b73ffffffffffffffffffffffffffffffffffffffff16146105d6576040517f08c379a00000000000000000000000000000000000000000000000000000000081526004016105cd90610e5a565b60405180910390fd5b81600560008201518160000160006101000a81548160ff0219169083151502179055506020820151816001019080519060200190610615929190610982565b509050507f8715283c51fbbeaeb5c6683ab7b029260566f576ae627c2500d16670be0c288b600154600560405161064d929190610e95565b60405180910390a161065d6108a5565b5050565b61066961089d565b73ffffffffffffffffffffffffffffffffffffffff1661068761026f565b73ffffffffffffffffffffffffffffffffffffffff16146106dd576040517f08c379a00000000000000000000000000000000000000000000000000000000081526004016106d490610e5a565b60405180910390fd5b600073ffffffffffffffffffffffffffffffffffffffff168173ffffffffffffffffffffffffffffffffffffffff16141561074d576040517f08c379a000000000000000000000000000000000000000000000000000000000815260040161074490610e3a565b60405180910390fd5b8073ffffffffffffffffffffffffffffffffffffffff1660008054906101000a900473ffffffffffffffffffffffffffffffffffffffff1673ffffffffffffffffffffffffffffffffffffffff167f8be0079c531659141344cd1fd0a4f28419497f9722a3daafe3b4186f6b6457e060405160405180910390a3806000806101000a81548173ffffffffffffffffffffffffffffffffffffffff021916908373ffffffffffffffffffffffffffffffffffffffff16021790555050565b600061081461089d565b73ffffffffffffffffffffffffffffffffffffffff1661083261026f565b73ffffffffffffffffffffffffffffffffffffffff1614610888576040517f08c379a000000000000000000000000000000000000000000000000000000000815260040161087f90610e5a565b60405180910390fd5b600360009054906101000a900460ff16905090565b600033905090565b6001600360009054906101000a900460ff1660028111156108ef577f4e487b7100000000000000000000000000000000000000000000000000000000600052602160045260246000fd5b6108f99190610f71565b6002811115610931577f4e487b7100000000000000000000000000000000000000000000000000000000600052602160045260246000fd5b600360006101000a81548160ff0219169083600281111561097b577f4e487b7100000000000000000000000000000000000000000000000000000000600052602160045260246000fd5b0217905550565b8280548282559060005260206000209081019282156109be579160200282015b828111156109bd5782518255916020019190600101906109a2565b5b5090506109cb91906109cf565b5090565b5b808211156109e85760008160009055506001016109d0565b5090565b60006109ff6109fa84610ef6565b610ec5565b90508083825260208201905082856020860282011115610a1e57600080fd5b60005b85811015610a4e5781610a348882610aac565b845260208401935060208301925050600181019050610a21565b5050509392505050565b600081359050610a6781611183565b92915050565b600082601f830112610a7e57600080fd5b8135610a8e8482602086016109ec565b91505092915050565b600081359050610aa68161119a565b92915050565b600081359050610abb816111b1565b92915050565b600060408284031215610ad357600080fd5b610add6040610ec5565b90506000610aed84828501610a97565b600083015250602082013567ffffffffffffffff811115610b0d57600080fd5b610b1984828501610a6d565b60208301525092915050565b600060208284031215610b3757600080fd5b6000610b4584828501610a58565b91505092915050565b600060208284031215610b6057600080fd5b6000610b6e84828501610a97565b91505092915050565b600060208284031215610b8957600080fd5b600082013567ffffffffffffffff811115610ba357600080fd5b610baf84828501610ac1565b91505092915050565b6000610bc48383610c62565b60208301905092915050565b610bd981610fde565b82525050565b610be881610fde565b82525050565b6000610bf982610f37565b610c038185610f4f565b9350610c0e83610f22565b8060005b83811015610c4657610c238261113b565b610c2d8882610bb8565b9750610c3883610f42565b925050600181019050610c12565b5085935050505092915050565b610c5c81610ff0565b82525050565b610c6b81610ffc565b82525050565b610c7a81611056565b82525050565b610c8981611068565b82525050565b6000610c9c602683610f60565b91507f4f776e61626c653a206e6577206f776e657220697320746865207a65726f206160008301527f64647265737300000000000000000000000000000000000000000000000000006020830152604082019050919050565b6000610d02602083610f60565b91507f4f776e61626c653a2063616c6c6572206973206e6f7420746865206f776e65726000830152602082019050919050565b6000604083016000808401549050610d4c8161107a565b610d596000870182610c53565b50600184018583036020870152610d708382610bee565b925050819250505092915050565b60a082016000820151610d946000850182610de6565b506020820151610da76020850182610de6565b506040820151610dba6040850182610c80565b506060820151610dcd6060850182610bd0565b506080820151610de06080850182610bd0565b50505050565b610def8161104c565b82525050565b610dfe8161104c565b82525050565b6000602082019050610e196000830184610bdf565b92915050565b6000602082019050610e346000830184610c71565b92915050565b60006020820190508181036000830152610e5381610c8f565b9050919050565b60006020820190508181036000830152610e7381610cf5565b9050919050565b600060a082019050610e8f6000830184610d7e565b92915050565b6000604082019050610eaa6000830185610df5565b8181036020830152610ebc8184610d35565b90509392505050565b6000604051905081810181811067ffffffffffffffff82111715610eec57610eeb61110c565b5b8060405250919050565b600067ffffffffffffffff821115610f1157610f1061110c565b5b602082029050602081019050919050565b60008190508160005260206000209050919050565b600081549050919050565b6000600182019050919050565b600082825260208201905092915050565b600082825260208201905092915050565b6000610f7c8261104c565b9150610f878361104c565b9250827fffffffffffffffffffffffffffffffffffffffffffffffffffffffffffffffff03821115610fbc57610fbb6110ae565b5b828201905092915050565b600060ff82169050919050565b6000819050919050565b6000610fe98261102c565b9050919050565b60008115159050919050565b6000819050919050565b60008190506110148261115b565b919050565b60008190506110278261116f565b919050565b600073ffffffffffffffffffffffffffffffffffffffff82169050919050565b6000819050919050565b600061106182611006565b9050919050565b600061107382611019565b9050919050565b600061108d6110888361114e565b610fc7565b9050919050565b60006110a76110a28361114e565b610fd4565b9050919050565b7f4e487b7100000000000000000000000000000000000000000000000000000000600052601160045260246000fd5b7f4e487b7100000000000000000000000000000000000000000000000000000000600052602160045260246000fd5b7f4e487b7100000000000000000000000000000000000000000000000000000000600052604160045260246000fd5b60006111478254611094565b9050919050565b60008160001c9050919050565b6003811061116c5761116b6110dd565b5b50565b600281106111805761117f6110dd565b5b50565b61118c81610fde565b811461119757600080fd5b50565b6111a381610ff0565b81146111ae57600080fd5b50565b6111ba81610ffc565b81146111c557600080fd5b5056fea26469706673582212209b88b689817740f66092df683dd5f6451ee5c62a982c9116271bf597870ed6e664736f6c63430008000033a2646970667358221220c618d1592b4bad9f4288ded9c255b7352c59605b64584bf4936d37be723a144f64736f6c63430008000033",
  "immutableReferences": {},
  "source": "// SPDX-License-Identifier: MIT\npragma solidity >=0.4.22 <0.9.0;\n\nimport \"openzeppelin-solidity/contracts/utils/Counters.sol\";\nimport \"./RBAC.sol\";\nimport \"./ControlStateMachine.sol\";\n\n/**\n * Contract that acts as a gateway to the control state machine\n */\ncontract Control {\n    using Counters for Counters.Counter;\n    Counters.Counter private controlId;\n    mapping(uint256 => bool) private controlIndex;\n    mapping(uint256 => ControlStateMachine) private controls;\n    RBAC private access;\n\n    constructor(address _rbacAddress) public {\n        access = RBAC(_rbacAddress);\n    }\n\n    /**\n     * @notice Start control process for given address\n     * @param _controlled address of controlled instance\n     */\n    function startControl(address _controlled) public {\n        require(\n            access.hasRole(msg.sender, access.CONTROL_ROLE()),\n            \"Account is not a control instance.\"\n        );\n\n        // generate id of control process\n        controlId.increment();\n        // create instance of control process\n        ControlStateMachine proc =\n            new ControlStateMachine(\n                _controlled,\n                msg.sender,\n                controlId.current()\n            );\n        // store mapping of control process\n        controlIndex[controlId.current()] = true;\n        controls[controlId.current()] = proc;\n    }\n\n    /**\n     * @notice Report findings during control\n     * @param _findings made during control\n     */\n    function reportFindingsForControl(\n        uint256 _controlId,\n        Structs.GSEControlDetails memory _findings\n    ) public {\n        require(\n            access.hasRole(msg.sender, access.CONTROL_ROLE()),\n            \"Account is not a control instance.\"\n        );\n        require(controlIndex[_controlId], \"No control with giben ID.\");\n        controls[_controlId].addFindings(_findings);\n    }\n\n    /**\n     * @notice Acknowledge control\n     * @param _controlId identifier of the control\n     * @param _opinion true if the controlled entity knows about the control and\n     * agrees with the results, false if the entitiy knows about the control but does not agree with the results\n     */\n    function acknowledgeControl(uint256 _controlId, bool _opinion) public {\n        require(\n            access.hasRole(msg.sender, access.SUPPLY_CHAIN_ENTITY_ROLE()),\n            \"Caller address is not part of the supply chain.\"\n        );\n        require(controlIndex[_controlId], \"No control with given ID.\");\n\n        // get the given control process instance\n        controls[_controlId].commentControl(_opinion);\n    }\n}\n",
  "sourcePath": "/Users/jabbathegut/repositories/textile-supply-chain-ethereum/contracts/Control.sol",
  "compiler": {
    "name": "solc",
    "version": "0.8.0+commit.c7dfd78e.Emscripten.clang"
  },
  "schemaVersion": "3.3.4",
  "updatedAt": "2021-05-03T20:10:38.488Z",
  "devdoc": {
    "kind": "dev",
    "methods": {
      "acknowledgeControl(uint256,bool)": {
        "params": {
          "_controlId": "identifier of the control",
          "_opinion": "true if the controlled entity knows about the control and agrees with the results, false if the entitiy knows about the control but does not agree with the results"
        }
      },
      "reportFindingsForControl(uint256,(bool,bytes32[]))": {
        "params": {
          "_findings": "made during control"
        }
      },
      "startControl(address)": {
        "params": {
          "_controlled": "address of controlled instance"
        }
      }
    },
    "version": 1
  },
  "userdoc": {
    "kind": "user",
    "methods": {
      "acknowledgeControl(uint256,bool)": {
        "notice": "Acknowledge control"
      },
      "reportFindingsForControl(uint256,(bool,bytes32[]))": {
        "notice": "Report findings during control"
      },
      "startControl(address)": {
        "notice": "Start control process for given address"
      }
    },
    "notice": "Contract that acts as a gateway to the control state machine",
    "version": 1
  }
}