{
  "contractName": "Control",
  "abi": [
    {
      "inputs": [
        {
          "internalType": "address",
          "name": "_rbacAddress",
          "type": "address"
        }
      ],
      "stateMutability": "nonpayable",
      "type": "constructor"
    },
    {
      "inputs": [
        {
          "internalType": "address",
          "name": "_controlled",
          "type": "address"
        }
      ],
      "name": "startControl",
      "outputs": [],
      "stateMutability": "nonpayable",
      "type": "function"
    },
    {
      "inputs": [
        {
          "internalType": "uint256",
          "name": "_controlId",
          "type": "uint256"
        },
        {
          "components": [
            {
              "internalType": "bool",
              "name": "gseOK",
              "type": "bool"
            },
            {
              "internalType": "bytes32[]",
              "name": "findings",
              "type": "bytes32[]"
            }
          ],
          "internalType": "struct Structs.GSEControlDetails",
          "name": "_findings",
          "type": "tuple"
        }
      ],
      "name": "reportFindingsForControl",
      "outputs": [],
      "stateMutability": "nonpayable",
      "type": "function"
    },
    {
      "inputs": [
        {
          "internalType": "uint256",
          "name": "_controlId",
          "type": "uint256"
        },
        {
          "internalType": "bool",
          "name": "_opinion",
          "type": "bool"
        }
      ],
      "name": "acknowledgeControl",
      "outputs": [],
      "stateMutability": "nonpayable",
      "type": "function"
    }
  ],
  "bytecode": "0x60806040523480156200001157600080fd5b50604051620028fc380380620028fc833981810160405281019062000037919062000096565b80600360006101000a81548173ffffffffffffffffffffffffffffffffffffffff021916908373ffffffffffffffffffffffffffffffffffffffff1602179055505062000110565b6000815190506200009081620000f6565b92915050565b600060208284031215620000a957600080fd5b6000620000b9848285016200007f565b91505092915050565b6000620000cf82620000d6565b9050919050565b600073ffffffffffffffffffffffffffffffffffffffff82169050919050565b6200010181620000c2565b81146200010d57600080fd5b50565b6127dc80620001206000396000f3fe60806040523480156200001157600080fd5b5060043610620000465760003560e01c80634db91c39146200004b5780636f5eb37a146200006b578063bde8adf7146200008b575b600080fd5b62000069600480360381019062000063919062000aa8565b620000ab565b005b62000089600480360381019062000083919062000b45565b62000337565b005b620000a96004803603810190620000a3919062000b86565b620005dd565b005b600360009054906101000a900473ffffffffffffffffffffffffffffffffffffffff1673ffffffffffffffffffffffffffffffffffffffff1663217fe6c633600360009054906101000a900473ffffffffffffffffffffffffffffffffffffffff1673ffffffffffffffffffffffffffffffffffffffff1663d7a1e6ab6040518163ffffffff1660e01b815260040160006040518083038186803b1580156200015357600080fd5b505afa15801562000168573d6000803e3d6000fd5b505050506040513d6000823e3d601f19601f8201168201806040525081019062000193919062000b00565b6040518363ffffffff1660e01b8152600401620001b292919062000ecc565b60206040518083038186803b158015620001cb57600080fd5b505afa158015620001e0573d6000803e3d6000fd5b505050506040513d601f19601f8201168201806040525081019062000206919062000ad4565b62000248576040517f08c379a00000000000000000000000000000000000000000000000000000000081526004016200023f9062000f1d565b60405180910390fd5b62000254600062000883565b6000813362000264600062000899565b6040516200027290620008a7565b620002809392919062000e8f565b604051809103906000f0801580156200029d573d6000803e3d6000fd5b5090506001806000620002b1600062000899565b815260200190815260200160002060006101000a81548160ff0219169083151502179055508060026000620002e7600062000899565b815260200190815260200160002060006101000a81548173ffffffffffffffffffffffffffffffffffffffff021916908373ffffffffffffffffffffffffffffffffffffffff1602179055505050565b600360009054906101000a900473ffffffffffffffffffffffffffffffffffffffff1673ffffffffffffffffffffffffffffffffffffffff1663217fe6c633600360009054906101000a900473ffffffffffffffffffffffffffffffffffffffff1673ffffffffffffffffffffffffffffffffffffffff16631cee4a9d6040518163ffffffff1660e01b815260040160006040518083038186803b158015620003df57600080fd5b505afa158015620003f4573d6000803e3d6000fd5b505050506040513d6000823e3d601f19601f820116820180604052508101906200041f919062000b00565b6040518363ffffffff1660e01b81526004016200043e92919062000ecc565b60206040518083038186803b1580156200045757600080fd5b505afa1580156200046c573d6000803e3d6000fd5b505050506040513d601f19601f8201168201806040525081019062000492919062000ad4565b620004d4576040517f08c379a0000000000000000000000000000000000000000000000000000000008152600401620004cb9062000f83565b60405180910390fd5b6001600083815260200190815260200160002060009054906101000a900460ff1662000537576040517f08c379a00000000000000000000000000000000000000000000000000000000081526004016200052e9062000f61565b60405180910390fd5b6002600083815260200190815260200160002060009054906101000a900473ffffffffffffffffffffffffffffffffffffffff1673ffffffffffffffffffffffffffffffffffffffff1663b921db49826040518263ffffffff1660e01b8152600401620005a5919062000f00565b600060405180830381600087803b158015620005c057600080fd5b505af1158015620005d5573d6000803e3d6000fd5b505050505050565b600360009054906101000a900473ffffffffffffffffffffffffffffffffffffffff1673ffffffffffffffffffffffffffffffffffffffff1663217fe6c633600360009054906101000a900473ffffffffffffffffffffffffffffffffffffffff1673ffffffffffffffffffffffffffffffffffffffff1663d7a1e6ab6040518163ffffffff1660e01b815260040160006040518083038186803b1580156200068557600080fd5b505afa1580156200069a573d6000803e3d6000fd5b505050506040513d6000823e3d601f19601f82011682018060405250810190620006c5919062000b00565b6040518363ffffffff1660e01b8152600401620006e492919062000ecc565b60206040518083038186803b158015620006fd57600080fd5b505afa15801562000712573d6000803e3d6000fd5b505050506040513d601f19601f8201168201806040525081019062000738919062000ad4565b6200077a576040517f08c379a0000000000000000000000000000000000000000000000000000000008152600401620007719062000f1d565b60405180910390fd5b6001600083815260200190815260200160002060009054906101000a900460ff16620007dd576040517f08c379a0000000000000000000000000000000000000000000000000000000008152600401620007d49062000f3f565b60405180910390fd5b6002600083815260200190815260200160002060009054906101000a900473ffffffffffffffffffffffffffffffffffffffff1673ffffffffffffffffffffffffffffffffffffffff1663e9feb336826040518263ffffffff1660e01b81526004016200084b919062000fa5565b600060405180830381600087803b1580156200086657600080fd5b505af11580156200087b573d6000803e3d6000fd5b505050505050565b6001816000016000828254019250508190555050565b600081600001549050919050565b6115c080620011e783390190565b6000620008cc620008c68462000ffd565b62000fc9565b90508083825260208201905082856020860282011115620008ec57600080fd5b60005b85811015620009205781620009058882620009e1565b845260208401935060208301925050600181019050620008ef565b5050509392505050565b6000620009416200093b846200102c565b62000fc9565b9050828152602081018484840111156200095a57600080fd5b6200096784828562001108565b509392505050565b60008135905062000980816200117e565b92915050565b600082601f8301126200099857600080fd5b8135620009aa848260208601620008b5565b91505092915050565b600081359050620009c48162001198565b92915050565b600081519050620009db8162001198565b92915050565b600081359050620009f281620011b2565b92915050565b600082601f83011262000a0a57600080fd5b815162000a1c8482602086016200092a565b91505092915050565b60006040828403121562000a3857600080fd5b62000a44604062000fc9565b9050600062000a5684828501620009b3565b600083015250602082013567ffffffffffffffff81111562000a7757600080fd5b62000a858482850162000986565b60208301525092915050565b60008135905062000aa281620011cc565b92915050565b60006020828403121562000abb57600080fd5b600062000acb848285016200096f565b91505092915050565b60006020828403121562000ae757600080fd5b600062000af784828501620009ca565b91505092915050565b60006020828403121562000b1357600080fd5b600082015167ffffffffffffffff81111562000b2e57600080fd5b62000b3c84828501620009f8565b91505092915050565b6000806040838503121562000b5957600080fd5b600062000b698582860162000a91565b925050602062000b7c85828601620009b3565b9150509250929050565b6000806040838503121562000b9a57600080fd5b600062000baa8582860162000a91565b925050602083013567ffffffffffffffff81111562000bc857600080fd5b62000bd68582860162000a25565b9150509250929050565b600062000bee838362000c97565b60208301905092915050565b62000c0581620010b4565b82525050565b600062000c18826200106f565b62000c24818562001092565b935062000c31836200105f565b8060005b8381101562000c6857815162000c4c888262000be0565b975062000c598362001085565b92505060018101905062000c35565b5085935050505092915050565b62000c8081620010c8565b82525050565b62000c9181620010c8565b82525050565b62000ca281620010d4565b82525050565b600062000cb5826200107a565b62000cc18185620010a3565b935062000cd381856020860162001108565b62000cde816200116d565b840191505092915050565b600062000cf8602283620010a3565b91507f4163636f756e74206973206e6f74206120636f6e74726f6c20696e7374616e6360008301527f652e0000000000000000000000000000000000000000000000000000000000006020830152604082019050919050565b600062000d60601983620010a3565b91507f4e6f20636f6e74726f6c207769746820676962656e2049442e000000000000006000830152602082019050919050565b600062000da2601983620010a3565b91507f4e6f20636f6e74726f6c207769746820676976656e2049442e000000000000006000830152602082019050919050565b600062000de4602f83620010a3565b91507f43616c6c65722061646472657373206973206e6f742070617274206f6620746860008301527f6520737570706c7920636861696e2e00000000000000000000000000000000006020830152604082019050919050565b600060408301600083015162000e57600086018262000c75565b506020830151848203602086015262000e71828262000c0b565b9150508091505092915050565b62000e8981620010fe565b82525050565b600060608201905062000ea6600083018662000bfa565b62000eb5602083018562000bfa565b62000ec4604083018462000e7e565b949350505050565b600060408201905062000ee3600083018562000bfa565b818103602083015262000ef7818462000ca8565b90509392505050565b600060208201905062000f17600083018462000c86565b92915050565b6000602082019050818103600083015262000f388162000ce9565b9050919050565b6000602082019050818103600083015262000f5a8162000d51565b9050919050565b6000602082019050818103600083015262000f7c8162000d93565b9050919050565b6000602082019050818103600083015262000f9e8162000dd5565b9050919050565b6000602082019050818103600083015262000fc1818462000e3d565b905092915050565b6000604051905081810181811067ffffffffffffffff8211171562000ff35762000ff26200113e565b5b8060405250919050565b600067ffffffffffffffff8211156200101b576200101a6200113e565b5b602082029050602081019050919050565b600067ffffffffffffffff8211156200104a57620010496200113e565b5b601f19601f8301169050602081019050919050565b6000819050602082019050919050565b600081519050919050565b600081519050919050565b6000602082019050919050565b600082825260208201905092915050565b600082825260208201905092915050565b6000620010c182620010de565b9050919050565b60008115159050919050565b6000819050919050565b600073ffffffffffffffffffffffffffffffffffffffff82169050919050565b6000819050919050565b60005b83811015620011285780820151818401526020810190506200110b565b8381111562001138576000848401525b50505050565b7f4e487b7100000000000000000000000000000000000000000000000000000000600052604160045260246000fd5b6000601f19601f8301169050919050565b6200118981620010b4565b81146200119557600080fd5b50565b620011a381620010c8565b8114620011af57600080fd5b50565b620011bd81620010d4565b8114620011c957600080fd5b50565b620011d781620010fe565b8114620011e357600080fd5b5056fe60806040523480156200001157600080fd5b50604051620015c0380380620015c083398181016040528101906200003791906200028b565b6000620000496200025560201b60201c565b9050806000806101000a81548173ffffffffffffffffffffffffffffffffffffffff021916908373ffffffffffffffffffffffffffffffffffffffff1602179055508073ffffffffffffffffffffffffffffffffffffffff16600073ffffffffffffffffffffffffffffffffffffffff167f8be0079c531659141344cd1fd0a4f28419497f9722a3daafe3b4186f6b6457e060405160405180910390a350426002819055506000600360006101000a81548160ff021916908360028111156200013b577f4e487b7100000000000000000000000000000000000000000000000000000000600052602160045260246000fd5b02179055508060018190555082600360016101000a81548173ffffffffffffffffffffffffffffffffffffffff021916908373ffffffffffffffffffffffffffffffffffffffff16021790555081600460006101000a81548173ffffffffffffffffffffffffffffffffffffffff021916908373ffffffffffffffffffffffffffffffffffffffff1602179055507fc93e6e6324bec34a688386cec07ef891a19f3c30bee2ae0e00724915b5692243600154600360019054906101000a900473ffffffffffffffffffffffffffffffffffffffff16600460009054906101000a900473ffffffffffffffffffffffffffffffffffffffff16604051620002449392919062000303565b60405180910390a1505050620003b2565b600033905090565b6000815190506200026e816200037e565b92915050565b600081519050620002858162000398565b92915050565b600080600060608486031215620002a157600080fd5b6000620002b1868287016200025d565b9350506020620002c4868287016200025d565b9250506040620002d78682870162000274565b9150509250925092565b620002ec8162000340565b82525050565b620002fd8162000374565b82525050565b60006060820190506200031a6000830186620002f2565b620003296020830185620002e1565b620003386040830184620002e1565b949350505050565b60006200034d8262000354565b9050919050565b600073ffffffffffffffffffffffffffffffffffffffff82169050919050565b6000819050919050565b620003898162000340565b81146200039557600080fd5b50565b620003a38162000374565b8114620003af57600080fd5b50565b6111fe80620003c26000396000f3fe6080604052600436106100555760003560e01c8063715018a61461005a5780638da5cb5b14610071578063b921db491461009c578063e9feb336146100b8578063f2fde38b146100e1578063fcaa76641461010a575b600080fd5b34801561006657600080fd5b5061006f610135565b005b34801561007d57600080fd5b5061008661026f565b6040516100939190610e04565b60405180910390f35b6100b660048036038101906100b19190610b4e565b610298565b005b3480156100c457600080fd5b506100df60048036038101906100da9190610b77565b6104cd565b005b3480156100ed57600080fd5b5061010860048036038101906101039190610b25565b610661565b005b34801561011657600080fd5b5061011f61080a565b60405161012c9190610e1f565b60405180910390f35b61013d61089d565b73ffffffffffffffffffffffffffffffffffffffff1661015b61026f565b73ffffffffffffffffffffffffffffffffffffffff16146101b1576040517f08c379a00000000000000000000000000000000000000000000000000000000081526004016101a890610e5a565b60405180910390fd5b600073ffffffffffffffffffffffffffffffffffffffff1660008054906101000a900473ffffffffffffffffffffffffffffffffffffffff1673ffffffffffffffffffffffffffffffffffffffff167f8be0079c531659141344cd1fd0a4f28419497f9722a3daafe3b4186f6b6457e060405160405180910390a360008060006101000a81548173ffffffffffffffffffffffffffffffffffffffff021916908373ffffffffffffffffffffffffffffffffffffffff160217905550565b60008060009054906101000a900473ffffffffffffffffffffffffffffffffffffffff16905090565b60018060028111156102d3577f4e487b7100000000000000000000000000000000000000000000000000000000600052602160045260246000fd5b600360009054906101000a900460ff16600281111561031b577f4e487b7100000000000000000000000000000000000000000000000000000000600052602160045260246000fd5b1461032557600080fd5b61032d61089d565b73ffffffffffffffffffffffffffffffffffffffff1661034b61026f565b73ffffffffffffffffffffffffffffffffffffffff16146103a1576040517f08c379a000000000000000000000000000000000000000000000000000000000815260040161039890610e5a565b60405180910390fd5b600082156103b257600090506103b7565b600190505b7f59c3c2dcac5cc5e1df4fea342be6116b13d03e887de915a1ca4fa58b80d32f566040518060a001604052806001548152602001600254815260200183600181111561042c577f4e487b7100000000000000000000000000000000000000000000000000000000600052602160045260246000fd5b8152602001600360019054906101000a900473ffffffffffffffffffffffffffffffffffffffff1673ffffffffffffffffffffffffffffffffffffffff168152602001600460009054906101000a900473ffffffffffffffffffffffffffffffffffffffff1673ffffffffffffffffffffffffffffffffffffffff168152506040516104b89190610e7a565b60405180910390a16104c86108a5565b505050565b6000806002811115610508577f4e487b7100000000000000000000000000000000000000000000000000000000600052602160045260246000fd5b600360009054906101000a900460ff166002811115610550577f4e487b7100000000000000000000000000000000000000000000000000000000600052602160045260246000fd5b1461055a57600080fd5b61056261089d565b73ffffffffffffffffffffffffffffffffffffffff1661058061026f565b73ffffffffffffffffffffffffffffffffffffffff16146105d6576040517f08c379a00000000000000000000000000000000000000000000000000000000081526004016105cd90610e5a565b60405180910390fd5b81600560008201518160000160006101000a81548160ff0219169083151502179055506020820151816001019080519060200190610615929190610982565b509050507f8715283c51fbbeaeb5c6683ab7b029260566f576ae627c2500d16670be0c288b600154600560405161064d929190610e95565b60405180910390a161065d6108a5565b5050565b61066961089d565b73ffffffffffffffffffffffffffffffffffffffff1661068761026f565b73ffffffffffffffffffffffffffffffffffffffff16146106dd576040517f08c379a00000000000000000000000000000000000000000000000000000000081526004016106d490610e5a565b60405180910390fd5b600073ffffffffffffffffffffffffffffffffffffffff168173ffffffffffffffffffffffffffffffffffffffff16141561074d576040517f08c379a000000000000000000000000000000000000000000000000000000000815260040161074490610e3a565b60405180910390fd5b8073ffffffffffffffffffffffffffffffffffffffff1660008054906101000a900473ffffffffffffffffffffffffffffffffffffffff1673ffffffffffffffffffffffffffffffffffffffff167f8be0079c531659141344cd1fd0a4f28419497f9722a3daafe3b4186f6b6457e060405160405180910390a3806000806101000a81548173ffffffffffffffffffffffffffffffffffffffff021916908373ffffffffffffffffffffffffffffffffffffffff16021790555050565b600061081461089d565b73ffffffffffffffffffffffffffffffffffffffff1661083261026f565b73ffffffffffffffffffffffffffffffffffffffff1614610888576040517f08c379a000000000000000000000000000000000000000000000000000000000815260040161087f90610e5a565b60405180910390fd5b600360009054906101000a900460ff16905090565b600033905090565b6001600360009054906101000a900460ff1660028111156108ef577f4e487b7100000000000000000000000000000000000000000000000000000000600052602160045260246000fd5b6108f99190610f71565b6002811115610931577f4e487b7100000000000000000000000000000000000000000000000000000000600052602160045260246000fd5b600360006101000a81548160ff0219169083600281111561097b577f4e487b7100000000000000000000000000000000000000000000000000000000600052602160045260246000fd5b0217905550565b8280548282559060005260206000209081019282156109be579160200282015b828111156109bd5782518255916020019190600101906109a2565b5b5090506109cb91906109cf565b5090565b5b808211156109e85760008160009055506001016109d0565b5090565b60006109ff6109fa84610ef6565b610ec5565b90508083825260208201905082856020860282011115610a1e57600080fd5b60005b85811015610a4e5781610a348882610aac565b845260208401935060208301925050600181019050610a21565b5050509392505050565b600081359050610a6781611183565b92915050565b600082601f830112610a7e57600080fd5b8135610a8e8482602086016109ec565b91505092915050565b600081359050610aa68161119a565b92915050565b600081359050610abb816111b1565b92915050565b600060408284031215610ad357600080fd5b610add6040610ec5565b90506000610aed84828501610a97565b600083015250602082013567ffffffffffffffff811115610b0d57600080fd5b610b1984828501610a6d565b60208301525092915050565b600060208284031215610b3757600080fd5b6000610b4584828501610a58565b91505092915050565b600060208284031215610b6057600080fd5b6000610b6e84828501610a97565b91505092915050565b600060208284031215610b8957600080fd5b600082013567ffffffffffffffff811115610ba357600080fd5b610baf84828501610ac1565b91505092915050565b6000610bc48383610c62565b60208301905092915050565b610bd981610fde565b82525050565b610be881610fde565b82525050565b6000610bf982610f37565b610c038185610f4f565b9350610c0e83610f22565b8060005b83811015610c4657610c238261113b565b610c2d8882610bb8565b9750610c3883610f42565b925050600181019050610c12565b5085935050505092915050565b610c5c81610ff0565b82525050565b610c6b81610ffc565b82525050565b610c7a81611056565b82525050565b610c8981611068565b82525050565b6000610c9c602683610f60565b91507f4f776e61626c653a206e6577206f776e657220697320746865207a65726f206160008301527f64647265737300000000000000000000000000000000000000000000000000006020830152604082019050919050565b6000610d02602083610f60565b91507f4f776e61626c653a2063616c6c6572206973206e6f7420746865206f776e65726000830152602082019050919050565b6000604083016000808401549050610d4c8161107a565b610d596000870182610c53565b50600184018583036020870152610d708382610bee565b925050819250505092915050565b60a082016000820151610d946000850182610de6565b506020820151610da76020850182610de6565b506040820151610dba6040850182610c80565b506060820151610dcd6060850182610bd0565b506080820151610de06080850182610bd0565b50505050565b610def8161104c565b82525050565b610dfe8161104c565b82525050565b6000602082019050610e196000830184610bdf565b92915050565b6000602082019050610e346000830184610c71565b92915050565b60006020820190508181036000830152610e5381610c8f565b9050919050565b60006020820190508181036000830152610e7381610cf5565b9050919050565b600060a082019050610e8f6000830184610d7e565b92915050565b6000604082019050610eaa6000830185610df5565b8181036020830152610ebc8184610d35565b90509392505050565b6000604051905081810181811067ffffffffffffffff82111715610eec57610eeb61110c565b5b8060405250919050565b600067ffffffffffffffff821115610f1157610f1061110c565b5b602082029050602081019050919050565b60008190508160005260206000209050919050565b600081549050919050565b6000600182019050919050565b600082825260208201905092915050565b600082825260208201905092915050565b6000610f7c8261104c565b9150610f878361104c565b9250827fffffffffffffffffffffffffffffffffffffffffffffffffffffffffffffffff03821115610fbc57610fbb6110ae565b5b828201905092915050565b600060ff82169050919050565b6000819050919050565b6000610fe98261102c565b9050919050565b60008115159050919050565b6000819050919050565b60008190506110148261115b565b919050565b60008190506110278261116f565b919050565b600073ffffffffffffffffffffffffffffffffffffffff82169050919050565b6000819050919050565b600061106182611006565b9050919050565b600061107382611019565b9050919050565b600061108d6110888361114e565b610fc7565b9050919050565b60006110a76110a28361114e565b610fd4565b9050919050565b7f4e487b7100000000000000000000000000000000000000000000000000000000600052601160045260246000fd5b7f4e487b7100000000000000000000000000000000000000000000000000000000600052602160045260246000fd5b7f4e487b7100000000000000000000000000000000000000000000000000000000600052604160045260246000fd5b60006111478254611094565b9050919050565b60008160001c9050919050565b6003811061116c5761116b6110dd565b5b50565b600281106111805761117f6110dd565b5b50565b61118c81610fde565b811461119757600080fd5b50565b6111a381610ff0565b81146111ae57600080fd5b50565b6111ba81610ffc565b81146111c557600080fd5b5056fea26469706673582212209b88b689817740f66092df683dd5f6451ee5c62a982c9116271bf597870ed6e664736f6c63430008000033a26469706673582212209b6faaf7bc084d5e69fa6f1997d42b3ac8a690db6460eef9c426caf678246ff064736f6c63430008000033",
  "immutableReferences": {},
  "source": "// SPDX-License-Identifier: MIT\npragma solidity >=0.4.22 <0.9.0;\n\nimport \"openzeppelin-solidity/contracts/utils/Counters.sol\";\nimport \"./RBAC.sol\";\nimport \"./ControlStateMachine.sol\";\n\n/**\n * Contract that acts as a gateway to the control state machine\n */\ncontract Control {\n    using Counters for Counters.Counter;\n    Counters.Counter private controlId;\n    mapping(uint256 => bool) private controlIndex;\n    mapping(uint256 => ControlStateMachine) private controls;\n    RBAC private access;\n\n    constructor(address _rbacAddress) public {\n        access = RBAC(_rbacAddress);\n    }\n\n    /**\n     * @notice Start control process for given address\n     * @param _controlled address of controlled instance\n     */\n    function startControl(address _controlled) public {\n        require(\n            access.hasRole(msg.sender, access.CONTROL_ROLE()),\n            \"Account is not a control instance.\"\n        );\n\n        // generate id of control process\n        controlId.increment();\n        // create instance of control process\n        ControlStateMachine proc =\n            new ControlStateMachine(\n                _controlled,\n                msg.sender,\n                controlId.current()\n            );\n        // store mapping of control process\n        controlIndex[controlId.current()] = true;\n        controls[controlId.current()] = proc;\n    }\n\n    /**\n     * @notice Report findings during control\n     * @param _findings made during control\n     */\n    function reportFindingsForControl(\n        uint256 _controlId,\n        Structs.GSEControlDetails memory _findings\n    ) public {\n        require(\n            access.hasRole(msg.sender, access.CONTROL_ROLE()),\n            \"Account is not a control instance.\"\n        );\n        require(controlIndex[_controlId], \"No control with giben ID.\");\n        controls[_controlId].addFindings(_findings);\n    }\n\n    /**\n     * @notice Acknowledge control\n     * @param _controlId identifier of the control\n     * @param _opinion true if the controlled entity knows about the control and\n     * agrees with the results, false if the entitiy knows about the control but does not agree with the results\n     */\n    function acknowledgeControl(uint256 _controlId, bool _opinion) public {\n        require(\n            access.hasRole(msg.sender, access.SUPPLY_CHAIN_ENTITY_ROLE()),\n            \"Caller address is not part of the supply chain.\"\n        );\n        require(controlIndex[_controlId], \"No control with given ID.\");\n\n        // get the given control process instance\n        controls[_controlId].commentControl(_opinion);\n    }\n}\n",
  "sourcePath": "/Users/jabbathegut/repositories/textile-supply-chain-ethereum/contracts/Control.sol",
  "compiler": {
    "name": "solc",
    "version": "0.8.0+commit.c7dfd78e.Emscripten.clang"
  },
  "schemaVersion": "3.3.4",
  "updatedAt": "2021-05-04T13:08:06.662Z",
  "networkType": "ethereum",
  "devdoc": {
    "kind": "dev",
    "methods": {
      "acknowledgeControl(uint256,bool)": {
        "params": {
          "_controlId": "identifier of the control",
          "_opinion": "true if the controlled entity knows about the control and agrees with the results, false if the entitiy knows about the control but does not agree with the results"
        }
      },
      "reportFindingsForControl(uint256,(bool,bytes32[]))": {
        "params": {
          "_findings": "made during control"
        }
      },
      "startControl(address)": {
        "params": {
          "_controlled": "address of controlled instance"
        }
      }
    },
    "version": 1
  },
  "userdoc": {
    "kind": "user",
    "methods": {
      "acknowledgeControl(uint256,bool)": {
        "notice": "Acknowledge control"
      },
      "reportFindingsForControl(uint256,(bool,bytes32[]))": {
        "notice": "Report findings during control"
      },
      "startControl(address)": {
        "notice": "Start control process for given address"
      }
    },
    "notice": "Contract that acts as a gateway to the control state machine",
    "version": 1
  }
}