{
  "contractName": "LKGRegistry",
  "abi": [
    {
      "inputs": [
        {
          "internalType": "address",
          "name": "_rbac",
          "type": "address"
        }
      ],
      "stateMutability": "nonpayable",
      "type": "constructor"
    },
    {
      "inputs": [
        {
          "internalType": "address",
          "name": "_address",
          "type": "address"
        },
        {
          "components": [
            {
              "internalType": "enum Enums.SupplyChainRole",
              "name": "role",
              "type": "uint8"
            },
            {
              "internalType": "string",
              "name": "tier",
              "type": "string"
            },
            {
              "internalType": "bool",
              "name": "gseStatus",
              "type": "bool"
            },
            {
              "internalType": "uint256[]",
              "name": "controls",
              "type": "uint256[]"
            },
            {
              "internalType": "uint256[]",
              "name": "transactions",
              "type": "uint256[]"
            }
          ],
          "internalType": "struct Structs.SupplyChainEntity",
          "name": "_entity",
          "type": "tuple"
        }
      ],
      "name": "addSupplyChainEntity",
      "outputs": [],
      "stateMutability": "nonpayable",
      "type": "function"
    },
    {
      "inputs": [
        {
          "internalType": "address",
          "name": "_entity",
          "type": "address"
        }
      ],
      "name": "getSupplyChainEntity",
      "outputs": [
        {
          "components": [
            {
              "internalType": "enum Enums.SupplyChainRole",
              "name": "role",
              "type": "uint8"
            },
            {
              "internalType": "string",
              "name": "tier",
              "type": "string"
            },
            {
              "internalType": "bool",
              "name": "gseStatus",
              "type": "bool"
            },
            {
              "internalType": "uint256[]",
              "name": "controls",
              "type": "uint256[]"
            },
            {
              "internalType": "uint256[]",
              "name": "transactions",
              "type": "uint256[]"
            }
          ],
          "internalType": "struct Structs.SupplyChainEntity",
          "name": "",
          "type": "tuple"
        }
      ],
      "stateMutability": "view",
      "type": "function"
    },
    {
      "inputs": [
        {
          "internalType": "address",
          "name": "_entity",
          "type": "address"
        }
      ],
      "name": "removeSupplyChainEntity",
      "outputs": [],
      "stateMutability": "nonpayable",
      "type": "function"
    },
    {
      "inputs": [
        {
          "internalType": "address",
          "name": "_address",
          "type": "address"
        },
        {
          "components": [
            {
              "internalType": "enum Enums.ControlRole",
              "name": "role",
              "type": "uint8"
            },
            {
              "internalType": "string",
              "name": "description",
              "type": "string"
            },
            {
              "internalType": "bool",
              "name": "gseStatus",
              "type": "bool"
            },
            {
              "internalType": "uint256",
              "name": "numberOfControls",
              "type": "uint256"
            }
          ],
          "internalType": "struct Structs.ControlEntity",
          "name": "_entity",
          "type": "tuple"
        }
      ],
      "name": "addControlEntity",
      "outputs": [],
      "stateMutability": "nonpayable",
      "type": "function"
    },
    {
      "inputs": [
        {
          "internalType": "address",
          "name": "_entity",
          "type": "address"
        }
      ],
      "name": "getControlentity",
      "outputs": [
        {
          "components": [
            {
              "internalType": "enum Enums.ControlRole",
              "name": "role",
              "type": "uint8"
            },
            {
              "internalType": "string",
              "name": "description",
              "type": "string"
            },
            {
              "internalType": "bool",
              "name": "gseStatus",
              "type": "bool"
            },
            {
              "internalType": "uint256",
              "name": "numberOfControls",
              "type": "uint256"
            }
          ],
          "internalType": "struct Structs.ControlEntity",
          "name": "",
          "type": "tuple"
        }
      ],
      "stateMutability": "view",
      "type": "function"
    },
    {
      "inputs": [
        {
          "internalType": "address",
          "name": "_entity",
          "type": "address"
        }
      ],
      "name": "removeControlEntity",
      "outputs": [],
      "stateMutability": "nonpayable",
      "type": "function"
    },
    {
      "inputs": [
        {
          "internalType": "address",
          "name": "_entity",
          "type": "address"
        },
        {
          "components": [
            {
              "internalType": "uint256",
              "name": "controlId",
              "type": "uint256"
            },
            {
              "internalType": "uint256",
              "name": "timeOfControl",
              "type": "uint256"
            },
            {
              "internalType": "enum Enums.ControlStatus",
              "name": "status",
              "type": "uint8"
            },
            {
              "internalType": "address",
              "name": "controlled",
              "type": "address"
            },
            {
              "internalType": "address",
              "name": "controller",
              "type": "address"
            }
          ],
          "internalType": "struct Structs.GSEControl",
          "name": "_control",
          "type": "tuple"
        }
      ],
      "name": "addControl",
      "outputs": [],
      "stateMutability": "nonpayable",
      "type": "function"
    },
    {
      "inputs": [
        {
          "internalType": "uint256",
          "name": "_controlId",
          "type": "uint256"
        }
      ],
      "name": "getControl",
      "outputs": [
        {
          "components": [
            {
              "internalType": "uint256",
              "name": "controlId",
              "type": "uint256"
            },
            {
              "internalType": "uint256",
              "name": "timeOfControl",
              "type": "uint256"
            },
            {
              "internalType": "enum Enums.ControlStatus",
              "name": "status",
              "type": "uint8"
            },
            {
              "internalType": "address",
              "name": "controlled",
              "type": "address"
            },
            {
              "internalType": "address",
              "name": "controller",
              "type": "address"
            }
          ],
          "internalType": "struct Structs.GSEControl",
          "name": "",
          "type": "tuple"
        }
      ],
      "stateMutability": "view",
      "type": "function"
    },
    {
      "inputs": [
        {
          "internalType": "address",
          "name": "_entity",
          "type": "address"
        }
      ],
      "name": "getControls",
      "outputs": [
        {
          "internalType": "uint256[]",
          "name": "",
          "type": "uint256[]"
        }
      ],
      "stateMutability": "view",
      "type": "function"
    },
    {
      "inputs": [
        {
          "internalType": "address",
          "name": "_entity",
          "type": "address"
        },
        {
          "components": [
            {
              "internalType": "uint256",
              "name": "time",
              "type": "uint256"
            },
            {
              "internalType": "uint256",
              "name": "tokenId",
              "type": "uint256"
            }
          ],
          "internalType": "struct Structs.NonGSETransaction",
          "name": "_transaction",
          "type": "tuple"
        }
      ],
      "name": "addNonGSETransaction",
      "outputs": [],
      "stateMutability": "nonpayable",
      "type": "function"
    },
    {
      "inputs": [
        {
          "internalType": "uint256",
          "name": "_transactionIndex",
          "type": "uint256"
        }
      ],
      "name": "getNonGSETransaction",
      "outputs": [
        {
          "components": [
            {
              "internalType": "uint256",
              "name": "time",
              "type": "uint256"
            },
            {
              "internalType": "uint256",
              "name": "tokenId",
              "type": "uint256"
            }
          ],
          "internalType": "struct Structs.NonGSETransaction",
          "name": "",
          "type": "tuple"
        }
      ],
      "stateMutability": "view",
      "type": "function"
    },
    {
      "inputs": [
        {
          "internalType": "address",
          "name": "_entity",
          "type": "address"
        }
      ],
      "name": "getNonGSETransactions",
      "outputs": [
        {
          "internalType": "uint256[]",
          "name": "",
          "type": "uint256[]"
        }
      ],
      "stateMutability": "view",
      "type": "function"
    },
    {
      "inputs": [],
      "name": "acknowledgeGSE",
      "outputs": [],
      "stateMutability": "nonpayable",
      "type": "function"
    }
  ],
  "bytecode": "0x60806040523480156200001157600080fd5b50604051620050f8380380620050f8833981810160405281019062000037919062000096565b80600260006101000a81548173ffffffffffffffffffffffffffffffffffffffff021916908373ffffffffffffffffffffffffffffffffffffffff1602179055505062000110565b6000815190506200009081620000f6565b92915050565b600060208284031215620000a957600080fd5b6000620000b9848285016200007f565b91505092915050565b6000620000cf82620000d6565b9050919050565b600073ffffffffffffffffffffffffffffffffffffffff82169050919050565b6200010181620000c2565b81146200010d57600080fd5b50565b614fd880620001206000396000f3fe608060405234801561001057600080fd5b50600436106100cf5760003560e01c806355b1910a1161008c57806382165daa1161006657806382165daa1461020e578063d1b7f2be1461023e578063e15f0b481461025a578063e5be323214610276576100cf565b806355b1910a1461019257806366823b2a146101ae5780637c18e975146101de576100cf565b806319833b2d146100d4578063274b311b146100de57806333424a35146100fa5780633f7129c81461012a5780634240a6f0146101465780634504e70314610176575b600080fd5b6100dc6102a6565b005b6100f860048036038101906100f391906142a4565b610a44565b005b610114600480360381019061010f91906142a4565b610d5c565b6040516101219190614b7d565b60405180910390f35b610144600480360381019061013f9190614399565b611353565b005b610160600480360381019061015b9190614457565b6116e3565b60405161016d9190614b47565b60405180910390f35b610190600480360381019061018b9190614321565b611be5565b005b6101ac60048036038101906101a7919061435d565b61205c565b005b6101c860048036038101906101c39190614457565b612391565b6040516101d59190614b62565b60405180910390f35b6101f860048036038101906101f391906142a4565b612760565b6040516102059190614b25565b60405180910390f35b610228600480360381019061022391906142a4565b612cb1565b6040516102359190614a03565b60405180910390f35b610258600480360381019061025391906142a4565b613105565b005b610274600480360381019061026f91906142cd565b6133d2565b005b610290600480360381019061028b91906142a4565b613732565b60405161029d9190614a03565b60405180910390f35b600260009054906101000a900473ffffffffffffffffffffffffffffffffffffffff1673ffffffffffffffffffffffffffffffffffffffff1663217fe6c66102ec613b86565b600260009054906101000a900473ffffffffffffffffffffffffffffffffffffffff1673ffffffffffffffffffffffffffffffffffffffff166339e7c5f56040518163ffffffff1660e01b815260040160006040518083038186803b15801561035457600080fd5b505afa158015610368573d6000803e3d6000fd5b505050506040513d6000823e3d601f19601f820116820180604052508101906103919190614416565b6040518363ffffffff1660e01b81526004016103ae9291906149d3565b60206040518083038186803b1580156103c657600080fd5b505afa1580156103da573d6000803e3d6000fd5b505050506040513d601f19601f820116820180604052508101906103fe91906143ed565b61043d576040517f08c379a000000000000000000000000000000000000000000000000000000000815260040161043490614a45565b60405180910390fd5b600260009054906101000a900473ffffffffffffffffffffffffffffffffffffffff1673ffffffffffffffffffffffffffffffffffffffff1663217fe6c6610483613b86565b600260009054906101000a900473ffffffffffffffffffffffffffffffffffffffff1673ffffffffffffffffffffffffffffffffffffffff16631cee4a9d6040518163ffffffff1660e01b815260040160006040518083038186803b1580156104eb57600080fd5b505afa1580156104ff573d6000803e3d6000fd5b505050506040513d6000823e3d601f19601f820116820180604052508101906105289190614416565b6040518363ffffffff1660e01b81526004016105459291906149d3565b60206040518083038186803b15801561055d57600080fd5b505afa158015610571573d6000803e3d6000fd5b505050506040513d601f19601f8201168201806040525081019061059591906143ed565b6105d4576040517f08c379a00000000000000000000000000000000000000000000000000000000081526004016105cb90614a45565b60405180910390fd5b600360006105e0613b86565b73ffffffffffffffffffffffffffffffffffffffff1673ffffffffffffffffffffffffffffffffffffffff16815260200190815260200160002060009054906101000a900460ff168061068357506005600061063a613b86565b73ffffffffffffffffffffffffffffffffffffffff1673ffffffffffffffffffffffffffffffffffffffff16815260200190815260200160002060009054906101000a900460ff165b6106c2576040517f08c379a00000000000000000000000000000000000000000000000000000000081526004016106b990614b05565b60405180910390fd5b600260009054906101000a900473ffffffffffffffffffffffffffffffffffffffff1673ffffffffffffffffffffffffffffffffffffffff1663217fe6c6610708613b86565b600260009054906101000a900473ffffffffffffffffffffffffffffffffffffffff1673ffffffffffffffffffffffffffffffffffffffff166339e7c5f56040518163ffffffff1660e01b815260040160006040518083038186803b15801561077057600080fd5b505afa158015610784573d6000803e3d6000fd5b505050506040513d6000823e3d601f19601f820116820180604052508101906107ad9190614416565b6040518363ffffffff1660e01b81526004016107ca9291906149d3565b60206040518083038186803b1580156107e257600080fd5b505afa1580156107f6573d6000803e3d6000fd5b505050506040513d601f19601f8201168201806040525081019061081a91906143ed565b156108825760016006600061082d613b86565b73ffffffffffffffffffffffffffffffffffffffff1673ffffffffffffffffffffffffffffffffffffffff16815260200190815260200160002060020160006101000a81548160ff0219169083151502179055505b600260009054906101000a900473ffffffffffffffffffffffffffffffffffffffff1673ffffffffffffffffffffffffffffffffffffffff1663217fe6c66108c8613b86565b600260009054906101000a900473ffffffffffffffffffffffffffffffffffffffff1673ffffffffffffffffffffffffffffffffffffffff16631cee4a9d6040518163ffffffff1660e01b815260040160006040518083038186803b15801561093057600080fd5b505afa158015610944573d6000803e3d6000fd5b505050506040513d6000823e3d601f19601f8201168201806040525081019061096d9190614416565b6040518363ffffffff1660e01b815260040161098a9291906149d3565b60206040518083038186803b1580156109a257600080fd5b505afa1580156109b6573d6000803e3d6000fd5b505050506040513d601f19601f820116820180604052508101906109da91906143ed565b15610a42576001600460006109ed613b86565b73ffffffffffffffffffffffffffffffffffffffff1673ffffffffffffffffffffffffffffffffffffffff16815260200190815260200160002060020160006101000a81548160ff0219169083151502179055505b565b600260009054906101000a900473ffffffffffffffffffffffffffffffffffffffff1673ffffffffffffffffffffffffffffffffffffffff1663217fe6c6610a8a613b86565b600260009054906101000a900473ffffffffffffffffffffffffffffffffffffffff1673ffffffffffffffffffffffffffffffffffffffff16638c84d39c6040518163ffffffff1660e01b815260040160006040518083038186803b158015610af257600080fd5b505afa158015610b06573d6000803e3d6000fd5b505050506040513d6000823e3d601f19601f82011682018060405250810190610b2f9190614416565b6040518363ffffffff1660e01b8152600401610b4c9291906149d3565b60206040518083038186803b158015610b6457600080fd5b505afa158015610b78573d6000803e3d6000fd5b505050506040513d601f19601f82011682018060405250810190610b9c91906143ed565b610bdb576040517f08c379a0000000000000000000000000000000000000000000000000000000008152600401610bd290614a85565b60405180910390fd5b600360008273ffffffffffffffffffffffffffffffffffffffff1673ffffffffffffffffffffffffffffffffffffffff16815260200190815260200160002060009054906101000a900460ff16610c67576040517f08c379a0000000000000000000000000000000000000000000000000000000008152600401610c5e90614b05565b60405180910390fd5b6000600360008373ffffffffffffffffffffffffffffffffffffffff1673ffffffffffffffffffffffffffffffffffffffff16815260200190815260200160002060006101000a81548160ff021916908315150217905550600460008273ffffffffffffffffffffffffffffffffffffffff1673ffffffffffffffffffffffffffffffffffffffff168152602001908152602001600020600080820160006101000a81549060ff0219169055600182016000610d239190613bb2565b6002820160006101000a81549060ff0219169055600382016000610d479190613bf2565b600482016000610d579190613bf2565b505050565b610d64613c13565b600260009054906101000a900473ffffffffffffffffffffffffffffffffffffffff1673ffffffffffffffffffffffffffffffffffffffff1663217fe6c6610daa613b86565b600260009054906101000a900473ffffffffffffffffffffffffffffffffffffffff1673ffffffffffffffffffffffffffffffffffffffff166339e7c5f56040518163ffffffff1660e01b815260040160006040518083038186803b158015610e1257600080fd5b505afa158015610e26573d6000803e3d6000fd5b505050506040513d6000823e3d601f19601f82011682018060405250810190610e4f9190614416565b6040518363ffffffff1660e01b8152600401610e6c9291906149d3565b60206040518083038186803b158015610e8457600080fd5b505afa158015610e98573d6000803e3d6000fd5b505050506040513d601f19601f82011682018060405250810190610ebc91906143ed565b610efb576040517f08c379a0000000000000000000000000000000000000000000000000000000008152600401610ef290614a45565b60405180910390fd5b600260009054906101000a900473ffffffffffffffffffffffffffffffffffffffff1673ffffffffffffffffffffffffffffffffffffffff1663217fe6c6610f41613b86565b600260009054906101000a900473ffffffffffffffffffffffffffffffffffffffff1673ffffffffffffffffffffffffffffffffffffffff16631cee4a9d6040518163ffffffff1660e01b815260040160006040518083038186803b158015610fa957600080fd5b505afa158015610fbd573d6000803e3d6000fd5b505050506040513d6000823e3d601f19601f82011682018060405250810190610fe69190614416565b6040518363ffffffff1660e01b81526004016110039291906149d3565b60206040518083038186803b15801561101b57600080fd5b505afa15801561102f573d6000803e3d6000fd5b505050506040513d601f19601f8201168201806040525081019061105391906143ed565b611092576040517f08c379a000000000000000000000000000000000000000000000000000000000815260040161108990614a45565b60405180910390fd5b600360008373ffffffffffffffffffffffffffffffffffffffff1673ffffffffffffffffffffffffffffffffffffffff16815260200190815260200160002060009054906101000a900460ff1661111e576040517f08c379a000000000000000000000000000000000000000000000000000000000815260040161111590614b05565b60405180910390fd5b600460008373ffffffffffffffffffffffffffffffffffffffff1673ffffffffffffffffffffffffffffffffffffffff1681526020019081526020016000206040518060a00160405290816000820160009054906101000a900460ff1660028111156111b3577f4e487b7100000000000000000000000000000000000000000000000000000000600052602160045260246000fd5b60028111156111eb577f4e487b7100000000000000000000000000000000000000000000000000000000600052602160045260246000fd5b81526020016001820180546111ff90614df2565b80601f016020809104026020016040519081016040528092919081815260200182805461122b90614df2565b80156112785780601f1061124d57610100808354040283529160200191611278565b820191906000526020600020905b81548152906001019060200180831161125b57829003601f168201915b505050505081526020016002820160009054906101000a900460ff16151515158152602001600382018054806020026020016040519081016040528092919081815260200182805480156112eb57602002820191906000526020600020905b8154815260200190600101908083116112d7575b505050505081526020016004820180548060200260200160405190810160405280929190818152602001828054801561134357602002820191906000526020600020905b81548152602001906001019080831161132f575b5050505050815250509050919050565b600260009054906101000a900473ffffffffffffffffffffffffffffffffffffffff1673ffffffffffffffffffffffffffffffffffffffff1663217fe6c6611399613b86565b600260009054906101000a900473ffffffffffffffffffffffffffffffffffffffff1673ffffffffffffffffffffffffffffffffffffffff16638c84d39c6040518163ffffffff1660e01b815260040160006040518083038186803b15801561140157600080fd5b505afa158015611415573d6000803e3d6000fd5b505050506040513d6000823e3d601f19601f8201168201806040525081019061143e9190614416565b6040518363ffffffff1660e01b815260040161145b9291906149d3565b60206040518083038186803b15801561147357600080fd5b505afa158015611487573d6000803e3d6000fd5b505050506040513d601f19601f820116820180604052508101906114ab91906143ed565b6114ea576040517f08c379a00000000000000000000000000000000000000000000000000000000081526004016114e190614a85565b60405180910390fd5b600360008373ffffffffffffffffffffffffffffffffffffffff1673ffffffffffffffffffffffffffffffffffffffff16815260200190815260200160002060009054906101000a900460ff1615611577576040517f08c379a000000000000000000000000000000000000000000000000000000000815260040161156e90614ac5565b60405180910390fd5b6001600360008473ffffffffffffffffffffffffffffffffffffffff1673ffffffffffffffffffffffffffffffffffffffff16815260200190815260200160002060006101000a81548160ff02191690831515021790555080600460008473ffffffffffffffffffffffffffffffffffffffff1673ffffffffffffffffffffffffffffffffffffffff16815260200190815260200160002060008201518160000160006101000a81548160ff02191690836002811115611660577f4e487b7100000000000000000000000000000000000000000000000000000000600052602160045260246000fd5b02179055506020820151816001019080519060200190611681929190613c7c565b5060408201518160020160006101000a81548160ff02191690831515021790555060608201518160030190805190602001906116be929190613d02565b5060808201518160040190805190602001906116db929190613d02565b509050505050565b6116eb613d4f565b600260009054906101000a900473ffffffffffffffffffffffffffffffffffffffff1673ffffffffffffffffffffffffffffffffffffffff1663217fe6c6611731613b86565b600260009054906101000a900473ffffffffffffffffffffffffffffffffffffffff1673ffffffffffffffffffffffffffffffffffffffff166339e7c5f56040518163ffffffff1660e01b815260040160006040518083038186803b15801561179957600080fd5b505afa1580156117ad573d6000803e3d6000fd5b505050506040513d6000823e3d601f19601f820116820180604052508101906117d69190614416565b6040518363ffffffff1660e01b81526004016117f39291906149d3565b60206040518083038186803b15801561180b57600080fd5b505afa15801561181f573d6000803e3d6000fd5b505050506040513d601f19601f8201168201806040525081019061184391906143ed565b611882576040517f08c379a000000000000000000000000000000000000000000000000000000000815260040161187990614a45565b60405180910390fd5b600260009054906101000a900473ffffffffffffffffffffffffffffffffffffffff1673ffffffffffffffffffffffffffffffffffffffff1663217fe6c66118c8613b86565b600260009054906101000a900473ffffffffffffffffffffffffffffffffffffffff1673ffffffffffffffffffffffffffffffffffffffff16631cee4a9d6040518163ffffffff1660e01b815260040160006040518083038186803b15801561193057600080fd5b505afa158015611944573d6000803e3d6000fd5b505050506040513d6000823e3d601f19601f8201168201806040525081019061196d9190614416565b6040518363ffffffff1660e01b815260040161198a9291906149d3565b60206040518083038186803b1580156119a257600080fd5b505afa1580156119b6573d6000803e3d6000fd5b505050506040513d601f19601f820116820180604052508101906119da91906143ed565b611a19576040517f08c379a0000000000000000000000000000000000000000000000000000000008152600401611a1090614a45565b60405180910390fd5b6009600083815260200190815260200160002060009054906101000a900460ff16611a79576040517f08c379a0000000000000000000000000000000000000000000000000000000008152600401611a7090614a25565b60405180910390fd5b600760008381526020019081526020016000206040518060a001604052908160008201548152602001600182015481526020016002820160009054906101000a900460ff166001811115611af6577f4e487b7100000000000000000000000000000000000000000000000000000000600052602160045260246000fd5b6001811115611b2e577f4e487b7100000000000000000000000000000000000000000000000000000000600052602160045260246000fd5b81526020016002820160019054906101000a900473ffffffffffffffffffffffffffffffffffffffff1673ffffffffffffffffffffffffffffffffffffffff1673ffffffffffffffffffffffffffffffffffffffff1681526020016003820160009054906101000a900473ffffffffffffffffffffffffffffffffffffffff1673ffffffffffffffffffffffffffffffffffffffff1673ffffffffffffffffffffffffffffffffffffffff16815250509050919050565b600260009054906101000a900473ffffffffffffffffffffffffffffffffffffffff1673ffffffffffffffffffffffffffffffffffffffff1663217fe6c6611c2b613b86565b600260009054906101000a900473ffffffffffffffffffffffffffffffffffffffff1673ffffffffffffffffffffffffffffffffffffffff16638c84d39c6040518163ffffffff1660e01b815260040160006040518083038186803b158015611c9357600080fd5b505afa158015611ca7573d6000803e3d6000fd5b505050506040513d6000823e3d601f19601f82011682018060405250810190611cd09190614416565b6040518363ffffffff1660e01b8152600401611ced9291906149d3565b60206040518083038186803b158015611d0557600080fd5b505afa158015611d19573d6000803e3d6000fd5b505050506040513d601f19601f82011682018060405250810190611d3d91906143ed565b611d7c576040517f08c379a0000000000000000000000000000000000000000000000000000000008152600401611d7390614a85565b60405180910390fd5b600360008373ffffffffffffffffffffffffffffffffffffffff1673ffffffffffffffffffffffffffffffffffffffff16815260200190815260200160002060009054906101000a900460ff16611e08576040517f08c379a0000000000000000000000000000000000000000000000000000000008152600401611dff90614b05565b60405180910390fd5b611e126000613b8e565b600160096000611e226000613ba4565b815260200190815260200160002060006101000a81548160ff0219169083151502179055508060076000611e566000613ba4565b8152602001908152602001600020600082015181600001556020820151816001015560408201518160020160006101000a81548160ff02191690836001811115611ec9577f4e487b7100000000000000000000000000000000000000000000000000000000600052602160045260246000fd5b021790555060608201518160020160016101000a81548173ffffffffffffffffffffffffffffffffffffffff021916908373ffffffffffffffffffffffffffffffffffffffff16021790555060808201518160030160006101000a81548173ffffffffffffffffffffffffffffffffffffffff021916908373ffffffffffffffffffffffffffffffffffffffff160217905550905050611f696000613ba4565b600460008473ffffffffffffffffffffffffffffffffffffffff1673ffffffffffffffffffffffffffffffffffffffff168152602001908152602001600020600301611fb56000613ba4565b81548110611fec577f4e487b7100000000000000000000000000000000000000000000000000000000600052603260045260246000fd5b9060005260206000200181905550600160066000836080015173ffffffffffffffffffffffffffffffffffffffff1673ffffffffffffffffffffffffffffffffffffffff16815260200190815260200160002060030160008282546120519190614ca3565b925050819055505050565b600260009054906101000a900473ffffffffffffffffffffffffffffffffffffffff1673ffffffffffffffffffffffffffffffffffffffff1663217fe6c66120a2613b86565b600260009054906101000a900473ffffffffffffffffffffffffffffffffffffffff1673ffffffffffffffffffffffffffffffffffffffff16638c84d39c6040518163ffffffff1660e01b815260040160006040518083038186803b15801561210a57600080fd5b505afa15801561211e573d6000803e3d6000fd5b505050506040513d6000823e3d601f19601f820116820180604052508101906121479190614416565b6040518363ffffffff1660e01b81526004016121649291906149d3565b60206040518083038186803b15801561217c57600080fd5b505afa158015612190573d6000803e3d6000fd5b505050506040513d601f19601f820116820180604052508101906121b491906143ed565b6121f3576040517f08c379a00000000000000000000000000000000000000000000000000000000081526004016121ea90614a85565b60405180910390fd5b600360008373ffffffffffffffffffffffffffffffffffffffff1673ffffffffffffffffffffffffffffffffffffffff16815260200190815260200160002060009054906101000a900460ff1661227f576040517f08c379a000000000000000000000000000000000000000000000000000000000815260040161227690614ae5565b60405180910390fd5b6122896001613b8e565b6001600a60006122996001613ba4565b815260200190815260200160002060006101000a81548160ff02191690831515021790555080600860006122cd6001613ba4565b815260200190815260200160002060008201518160000155602082015181600101559050506122fc6001613ba4565b600460008473ffffffffffffffffffffffffffffffffffffffff1673ffffffffffffffffffffffffffffffffffffffff1681526020019081526020016000206004016123486001613ba4565b8154811061237f577f4e487b7100000000000000000000000000000000000000000000000000000000600052603260045260246000fd5b90600052602060002001819055505050565b612399613de2565b600260009054906101000a900473ffffffffffffffffffffffffffffffffffffffff1673ffffffffffffffffffffffffffffffffffffffff1663217fe6c66123df613b86565b600260009054906101000a900473ffffffffffffffffffffffffffffffffffffffff1673ffffffffffffffffffffffffffffffffffffffff166339e7c5f56040518163ffffffff1660e01b815260040160006040518083038186803b15801561244757600080fd5b505afa15801561245b573d6000803e3d6000fd5b505050506040513d6000823e3d601f19601f820116820180604052508101906124849190614416565b6040518363ffffffff1660e01b81526004016124a19291906149d3565b60206040518083038186803b1580156124b957600080fd5b505afa1580156124cd573d6000803e3d6000fd5b505050506040513d601f19601f820116820180604052508101906124f191906143ed565b612530576040517f08c379a000000000000000000000000000000000000000000000000000000000815260040161252790614a45565b60405180910390fd5b600260009054906101000a900473ffffffffffffffffffffffffffffffffffffffff1673ffffffffffffffffffffffffffffffffffffffff1663217fe6c6612576613b86565b600260009054906101000a900473ffffffffffffffffffffffffffffffffffffffff1673ffffffffffffffffffffffffffffffffffffffff16631cee4a9d6040518163ffffffff1660e01b815260040160006040518083038186803b1580156125de57600080fd5b505afa1580156125f2573d6000803e3d6000fd5b505050506040513d6000823e3d601f19601f8201168201806040525081019061261b9190614416565b6040518363ffffffff1660e01b81526004016126389291906149d3565b60206040518083038186803b15801561265057600080fd5b505afa158015612664573d6000803e3d6000fd5b505050506040513d601f19601f8201168201806040525081019061268891906143ed565b6126c7576040517f08c379a00000000000000000000000000000000000000000000000000000000081526004016126be90614a45565b60405180910390fd5b600a600083815260200190815260200160002060009054906101000a900460ff16612727576040517f08c379a000000000000000000000000000000000000000000000000000000000815260040161271e90614a65565b60405180910390fd5b60086000838152602001908152602001600020604051806040016040529081600082015481526020016001820154815250509050919050565b612768613dfc565b600260009054906101000a900473ffffffffffffffffffffffffffffffffffffffff1673ffffffffffffffffffffffffffffffffffffffff1663217fe6c66127ae613b86565b600260009054906101000a900473ffffffffffffffffffffffffffffffffffffffff1673ffffffffffffffffffffffffffffffffffffffff166339e7c5f56040518163ffffffff1660e01b815260040160006040518083038186803b15801561281657600080fd5b505afa15801561282a573d6000803e3d6000fd5b505050506040513d6000823e3d601f19601f820116820180604052508101906128539190614416565b6040518363ffffffff1660e01b81526004016128709291906149d3565b60206040518083038186803b15801561288857600080fd5b505afa15801561289c573d6000803e3d6000fd5b505050506040513d601f19601f820116820180604052508101906128c091906143ed565b6128ff576040517f08c379a00000000000000000000000000000000000000000000000000000000081526004016128f690614a45565b60405180910390fd5b600260009054906101000a900473ffffffffffffffffffffffffffffffffffffffff1673ffffffffffffffffffffffffffffffffffffffff1663217fe6c6612945613b86565b600260009054906101000a900473ffffffffffffffffffffffffffffffffffffffff1673ffffffffffffffffffffffffffffffffffffffff16631cee4a9d6040518163ffffffff1660e01b815260040160006040518083038186803b1580156129ad57600080fd5b505afa1580156129c1573d6000803e3d6000fd5b505050506040513d6000823e3d601f19601f820116820180604052508101906129ea9190614416565b6040518363ffffffff1660e01b8152600401612a079291906149d3565b60206040518083038186803b158015612a1f57600080fd5b505afa158015612a33573d6000803e3d6000fd5b505050506040513d601f19601f82011682018060405250810190612a5791906143ed565b612a96576040517f08c379a0000000000000000000000000000000000000000000000000000000008152600401612a8d90614a45565b60405180910390fd5b600560008373ffffffffffffffffffffffffffffffffffffffff1673ffffffffffffffffffffffffffffffffffffffff16815260200190815260200160002060009054906101000a900460ff16612b22576040517f08c379a0000000000000000000000000000000000000000000000000000000008152600401612b1990614b05565b60405180910390fd5b600660008373ffffffffffffffffffffffffffffffffffffffff1673ffffffffffffffffffffffffffffffffffffffff1681526020019081526020016000206040518060800160405290816000820160009054906101000a900460ff166002811115612bb7577f4e487b7100000000000000000000000000000000000000000000000000000000600052602160045260246000fd5b6002811115612bef577f4e487b7100000000000000000000000000000000000000000000000000000000600052602160045260246000fd5b8152602001600182018054612c0390614df2565b80601f0160208091040260200160405190810160405280929190818152602001828054612c2f90614df2565b8015612c7c5780601f10612c5157610100808354040283529160200191612c7c565b820191906000526020600020905b815481529060010190602001808311612c5f57829003601f168201915b505050505081526020016002820160009054906101000a900460ff161515151581526020016003820154815250509050919050565b6060600260009054906101000a900473ffffffffffffffffffffffffffffffffffffffff1673ffffffffffffffffffffffffffffffffffffffff1663217fe6c6612cf9613b86565b600260009054906101000a900473ffffffffffffffffffffffffffffffffffffffff1673ffffffffffffffffffffffffffffffffffffffff166339e7c5f56040518163ffffffff1660e01b815260040160006040518083038186803b158015612d6157600080fd5b505afa158015612d75573d6000803e3d6000fd5b505050506040513d6000823e3d601f19601f82011682018060405250810190612d9e9190614416565b6040518363ffffffff1660e01b8152600401612dbb9291906149d3565b60206040518083038186803b158015612dd357600080fd5b505afa158015612de7573d6000803e3d6000fd5b505050506040513d601f19601f82011682018060405250810190612e0b91906143ed565b612e4a576040517f08c379a0000000000000000000000000000000000000000000000000000000008152600401612e4190614a45565b60405180910390fd5b600260009054906101000a900473ffffffffffffffffffffffffffffffffffffffff1673ffffffffffffffffffffffffffffffffffffffff1663217fe6c6612e90613b86565b600260009054906101000a900473ffffffffffffffffffffffffffffffffffffffff1673ffffffffffffffffffffffffffffffffffffffff16631cee4a9d6040518163ffffffff1660e01b815260040160006040518083038186803b158015612ef857600080fd5b505afa158015612f0c573d6000803e3d6000fd5b505050506040513d6000823e3d601f19601f82011682018060405250810190612f359190614416565b6040518363ffffffff1660e01b8152600401612f529291906149d3565b60206040518083038186803b158015612f6a57600080fd5b505afa158015612f7e573d6000803e3d6000fd5b505050506040513d601f19601f82011682018060405250810190612fa291906143ed565b612fe1576040517f08c379a0000000000000000000000000000000000000000000000000000000008152600401612fd890614a45565b60405180910390fd5b600360008373ffffffffffffffffffffffffffffffffffffffff1673ffffffffffffffffffffffffffffffffffffffff16815260200190815260200160002060009054906101000a900460ff1661306d576040517f08c379a000000000000000000000000000000000000000000000000000000000815260040161306490614b05565b60405180910390fd5b600460008373ffffffffffffffffffffffffffffffffffffffff1673ffffffffffffffffffffffffffffffffffffffff1681526020019081526020016000206004018054806020026020016040519081016040528092919081815260200182805480156130f957602002820191906000526020600020905b8154815260200190600101908083116130e5575b50505050509050919050565b600260009054906101000a900473ffffffffffffffffffffffffffffffffffffffff1673ffffffffffffffffffffffffffffffffffffffff1663217fe6c661314b613b86565b600260009054906101000a900473ffffffffffffffffffffffffffffffffffffffff1673ffffffffffffffffffffffffffffffffffffffff16638c84d39c6040518163ffffffff1660e01b815260040160006040518083038186803b1580156131b357600080fd5b505afa1580156131c7573d6000803e3d6000fd5b505050506040513d6000823e3d601f19601f820116820180604052508101906131f09190614416565b6040518363ffffffff1660e01b815260040161320d9291906149d3565b60206040518083038186803b15801561322557600080fd5b505afa158015613239573d6000803e3d6000fd5b505050506040513d601f19601f8201168201806040525081019061325d91906143ed565b61329c576040517f08c379a000000000000000000000000000000000000000000000000000000000815260040161329390614a85565b60405180910390fd5b600560008273ffffffffffffffffffffffffffffffffffffffff1673ffffffffffffffffffffffffffffffffffffffff16815260200190815260200160002060009054906101000a900460ff16613328576040517f08c379a000000000000000000000000000000000000000000000000000000000815260040161331f90614b05565b60405180910390fd5b6000600560008373ffffffffffffffffffffffffffffffffffffffff1673ffffffffffffffffffffffffffffffffffffffff16815260200190815260200160002060006101000a81548160ff021916908315150217905550600560008273ffffffffffffffffffffffffffffffffffffffff1673ffffffffffffffffffffffffffffffffffffffff16815260200190815260200160002060006101000a81549060ff021916905550565b600260009054906101000a900473ffffffffffffffffffffffffffffffffffffffff1673ffffffffffffffffffffffffffffffffffffffff1663217fe6c6613418613b86565b600260009054906101000a900473ffffffffffffffffffffffffffffffffffffffff1673ffffffffffffffffffffffffffffffffffffffff16638c84d39c6040518163ffffffff1660e01b815260040160006040518083038186803b15801561348057600080fd5b505afa158015613494573d6000803e3d6000fd5b505050506040513d6000823e3d601f19601f820116820180604052508101906134bd9190614416565b6040518363ffffffff1660e01b81526004016134da9291906149d3565b60206040518083038186803b1580156134f257600080fd5b505afa158015613506573d6000803e3d6000fd5b505050506040513d601f19601f8201168201806040525081019061352a91906143ed565b613569576040517f08c379a000000000000000000000000000000000000000000000000000000000815260040161356090614a85565b60405180910390fd5b600560008373ffffffffffffffffffffffffffffffffffffffff1673ffffffffffffffffffffffffffffffffffffffff16815260200190815260200160002060009054906101000a900460ff16156135f6576040517f08c379a00000000000000000000000000000000000000000000000000000000081526004016135ed90614aa5565b60405180910390fd5b6001600560008473ffffffffffffffffffffffffffffffffffffffff1673ffffffffffffffffffffffffffffffffffffffff16815260200190815260200160002060006101000a81548160ff02191690831515021790555080600660008473ffffffffffffffffffffffffffffffffffffffff1673ffffffffffffffffffffffffffffffffffffffff16815260200190815260200160002060008201518160000160006101000a81548160ff021916908360028111156136df577f4e487b7100000000000000000000000000000000000000000000000000000000600052602160045260246000fd5b02179055506020820151816001019080519060200190613700929190613c7c565b5060408201518160020160006101000a81548160ff021916908315150217905550606082015181600301559050505050565b6060600260009054906101000a900473ffffffffffffffffffffffffffffffffffffffff1673ffffffffffffffffffffffffffffffffffffffff1663217fe6c661377a613b86565b600260009054906101000a900473ffffffffffffffffffffffffffffffffffffffff1673ffffffffffffffffffffffffffffffffffffffff166339e7c5f56040518163ffffffff1660e01b815260040160006040518083038186803b1580156137e257600080fd5b505afa1580156137f6573d6000803e3d6000fd5b505050506040513d6000823e3d601f19601f8201168201806040525081019061381f9190614416565b6040518363ffffffff1660e01b815260040161383c9291906149d3565b60206040518083038186803b15801561385457600080fd5b505afa158015613868573d6000803e3d6000fd5b505050506040513d601f19601f8201168201806040525081019061388c91906143ed565b6138cb576040517f08c379a00000000000000000000000000000000000000000000000000000000081526004016138c290614a45565b60405180910390fd5b600260009054906101000a900473ffffffffffffffffffffffffffffffffffffffff1673ffffffffffffffffffffffffffffffffffffffff1663217fe6c6613911613b86565b600260009054906101000a900473ffffffffffffffffffffffffffffffffffffffff1673ffffffffffffffffffffffffffffffffffffffff16631cee4a9d6040518163ffffffff1660e01b815260040160006040518083038186803b15801561397957600080fd5b505afa15801561398d573d6000803e3d6000fd5b505050506040513d6000823e3d601f19601f820116820180604052508101906139b69190614416565b6040518363ffffffff1660e01b81526004016139d39291906149d3565b60206040518083038186803b1580156139eb57600080fd5b505afa1580156139ff573d6000803e3d6000fd5b505050506040513d601f19601f82011682018060405250810190613a2391906143ed565b613a62576040517f08c379a0000000000000000000000000000000000000000000000000000000008152600401613a5990614a45565b60405180910390fd5b600360008373ffffffffffffffffffffffffffffffffffffffff1673ffffffffffffffffffffffffffffffffffffffff16815260200190815260200160002060009054906101000a900460ff16613aee576040517f08c379a0000000000000000000000000000000000000000000000000000000008152600401613ae590614b05565b60405180910390fd5b600460008373ffffffffffffffffffffffffffffffffffffffff1673ffffffffffffffffffffffffffffffffffffffff168152602001908152602001600020600301805480602002602001604051908101604052809291908181526020018280548015613b7a57602002820191906000526020600020905b815481526020019060010190808311613b66575b50505050509050919050565b600033905090565b6001816000016000828254019250508190555050565b600081600001549050919050565b508054613bbe90614df2565b6000825580601f10613bd05750613bef565b601f016020900490600052602060002090810190613bee9190613e5e565b5b50565b5080546000825590600052602060002090810190613c109190613e5e565b50565b6040518060a0016040528060006002811115613c58577f4e487b7100000000000000000000000000000000000000000000000000000000600052602160045260246000fd5b81526020016060815260200160001515815260200160608152602001606081525090565b828054613c8890614df2565b90600052602060002090601f016020900481019282613caa5760008555613cf1565b82601f10613cc357805160ff1916838001178555613cf1565b82800160010185558215613cf1579182015b82811115613cf0578251825591602001919060010190613cd5565b5b509050613cfe9190613e5e565b5090565b828054828255906000526020600020908101928215613d3e579160200282015b82811115613d3d578251825591602001919060010190613d22565b5b509050613d4b9190613e5e565b5090565b6040518060a00160405280600081526020016000815260200160006001811115613da2577f4e487b7100000000000000000000000000000000000000000000000000000000600052602160045260246000fd5b8152602001600073ffffffffffffffffffffffffffffffffffffffff168152602001600073ffffffffffffffffffffffffffffffffffffffff1681525090565b604051806040016040528060008152602001600081525090565b604051806080016040528060006002811115613e41577f4e487b7100000000000000000000000000000000000000000000000000000000600052602160045260246000fd5b815260200160608152602001600015158152602001600081525090565b5b80821115613e77576000816000905550600101613e5f565b5090565b6000613e8e613e8984614bd0565b614b9f565b90508083825260208201905082856020860282011115613ead57600080fd5b60005b85811015613edd5781613ec3888261428f565b845260208401935060208301925050600181019050613eb0565b5050509392505050565b6000613efa613ef584614bfc565b614b9f565b905082815260208101848484011115613f1257600080fd5b613f1d848285614db0565b509392505050565b6000613f38613f3384614bfc565b614b9f565b905082815260208101848484011115613f5057600080fd5b613f5b848285614dbf565b509392505050565b600081359050613f7281614f2d565b92915050565b600082601f830112613f8957600080fd5b8135613f99848260208601613e7b565b91505092915050565b600081359050613fb181614f44565b92915050565b600081519050613fc681614f44565b92915050565b600081359050613fdb81614f5b565b92915050565b600081359050613ff081614f6b565b92915050565b60008135905061400581614f7b565b92915050565b600082601f83011261401c57600080fd5b813561402c848260208601613ee7565b91505092915050565b600082601f83011261404657600080fd5b8151614056848260208601613f25565b91505092915050565b60006080828403121561407157600080fd5b61407b6080614b9f565b9050600061408b84828501613fcc565b600083015250602082013567ffffffffffffffff8111156140ab57600080fd5b6140b78482850161400b565b60208301525060406140cb84828501613fa2565b60408301525060606140df8482850161428f565b60608301525092915050565b600060a082840312156140fd57600080fd5b61410760a0614b9f565b905060006141178482850161428f565b600083015250602061412b8482850161428f565b602083015250604061413f84828501613fe1565b604083015250606061415384828501613f63565b606083015250608061416784828501613f63565b60808301525092915050565b60006040828403121561418557600080fd5b61418f6040614b9f565b9050600061419f8482850161428f565b60008301525060206141b38482850161428f565b60208301525092915050565b600060a082840312156141d157600080fd5b6141db60a0614b9f565b905060006141eb84828501613ff6565b600083015250602082013567ffffffffffffffff81111561420b57600080fd5b6142178482850161400b565b602083015250604061422b84828501613fa2565b604083015250606082013567ffffffffffffffff81111561424b57600080fd5b61425784828501613f78565b606083015250608082013567ffffffffffffffff81111561427757600080fd5b61428384828501613f78565b60808301525092915050565b60008135905061429e81614f8b565b92915050565b6000602082840312156142b657600080fd5b60006142c484828501613f63565b91505092915050565b600080604083850312156142e057600080fd5b60006142ee85828601613f63565b925050602083013567ffffffffffffffff81111561430b57600080fd5b6143178582860161405f565b9150509250929050565b60008060c0838503121561433457600080fd5b600061434285828601613f63565b9250506020614353858286016140eb565b9150509250929050565b6000806060838503121561437057600080fd5b600061437e85828601613f63565b925050602061438f85828601614173565b9150509250929050565b600080604083850312156143ac57600080fd5b60006143ba85828601613f63565b925050602083013567ffffffffffffffff8111156143d757600080fd5b6143e3858286016141bf565b9150509250929050565b6000602082840312156143ff57600080fd5b600061440d84828501613fb7565b91505092915050565b60006020828403121561442857600080fd5b600082015167ffffffffffffffff81111561444257600080fd5b61444e84828501614035565b91505092915050565b60006020828403121561446957600080fd5b60006144778482850161428f565b91505092915050565b600061448c83836149c4565b60208301905092915050565b6144a181614cf9565b82525050565b6144b081614cf9565b82525050565b60006144c182614c3c565b6144cb8185614c5f565b93506144d683614c2c565b8060005b838110156145075781516144ee8882614480565b97506144f983614c52565b9250506001810190506144da565b5085935050505092915050565b600061451f82614c3c565b6145298185614c70565b935061453483614c2c565b8060005b8381101561456557815161454c8882614480565b975061455783614c52565b925050600181019050614538565b5085935050505092915050565b61457b81614d0b565b82525050565b61458a81614d7a565b82525050565b61459981614d8c565b82525050565b6145a881614d9e565b82525050565b60006145b982614c47565b6145c38185614c81565b93506145d3818560208601614dbf565b6145dc81614ee0565b840191505092915050565b60006145f282614c47565b6145fc8185614c92565b935061460c818560208601614dbf565b61461581614ee0565b840191505092915050565b600061462d601683614c92565b91507f436f6e74726f6c20646f6573206e6f74206578697374000000000000000000006000830152602082019050919050565b600061466d601283614c92565b91507f4e6f74206120636861696e206d656d62657200000000000000000000000000006000830152602082019050919050565b60006146ad601a83614c92565b91507f5472616e73616374696f6e20646f6573206e6f742065786973740000000000006000830152602082019050919050565b60006146ed602e83614c92565b91507f4f6e6c7920737570706c7920636861696e2061646d696e2063616e2063616c6c60008301527f20746869732066756e6374696f6e0000000000000000000000000000000000006020830152604082019050919050565b6000614753601583614c92565b91507f456e7469747920616c72656164792065786973747300000000000000000000006000830152602082019050919050565b6000614793601783614c92565b91507f456e7469747920616c7265616479206578697374696e670000000000000000006000830152602082019050919050565b60006147d3601583614c92565b91507f456e7469747920646f6573206e6f7420657869747300000000000000000000006000830152602082019050919050565b6000614813601583614c92565b91507f456e7469747920646f6573206e6f7420657869737400000000000000000000006000830152602082019050919050565b600060808301600083015161485e6000860182614581565b506020830151848203602086015261487682826145ae565b915050604083015161488b6040860182614572565b50606083015161489e60608601826149c4565b508091505092915050565b60a0820160008201516148bf60008501826149c4565b5060208201516148d260208501826149c4565b5060408201516148e56040850182614590565b5060608201516148f86060850182614498565b50608082015161490b6080850182614498565b50505050565b60408201600082015161492760008501826149c4565b50602082015161493a60208501826149c4565b50505050565b600060a083016000830151614958600086018261459f565b506020830151848203602086015261497082826145ae565b91505060408301516149856040860182614572565b506060830151848203606086015261499d82826144b6565b915050608083015184820360808601526149b782826144b6565b9150508091505092915050565b6149cd81614d70565b82525050565b60006040820190506149e860008301856144a7565b81810360208301526149fa81846145e7565b90509392505050565b60006020820190508181036000830152614a1d8184614514565b905092915050565b60006020820190508181036000830152614a3e81614620565b9050919050565b60006020820190508181036000830152614a5e81614660565b9050919050565b60006020820190508181036000830152614a7e816146a0565b9050919050565b60006020820190508181036000830152614a9e816146e0565b9050919050565b60006020820190508181036000830152614abe81614746565b9050919050565b60006020820190508181036000830152614ade81614786565b9050919050565b60006020820190508181036000830152614afe816147c6565b9050919050565b60006020820190508181036000830152614b1e81614806565b9050919050565b60006020820190508181036000830152614b3f8184614846565b905092915050565b600060a082019050614b5c60008301846148a9565b92915050565b6000604082019050614b776000830184614911565b92915050565b60006020820190508181036000830152614b978184614940565b905092915050565b6000604051905081810181811067ffffffffffffffff82111715614bc657614bc5614eb1565b5b8060405250919050565b600067ffffffffffffffff821115614beb57614bea614eb1565b5b602082029050602081019050919050565b600067ffffffffffffffff821115614c1757614c16614eb1565b5b601f19601f8301169050602081019050919050565b6000819050602082019050919050565b600081519050919050565b600081519050919050565b6000602082019050919050565b600082825260208201905092915050565b600082825260208201905092915050565b600082825260208201905092915050565b600082825260208201905092915050565b6000614cae82614d70565b9150614cb983614d70565b9250827fffffffffffffffffffffffffffffffffffffffffffffffffffffffffffffffff03821115614cee57614ced614e24565b5b828201905092915050565b6000614d0482614d50565b9050919050565b60008115159050919050565b6000819050614d2582614ef1565b919050565b6000819050614d3882614f05565b919050565b6000819050614d4b82614f19565b919050565b600073ffffffffffffffffffffffffffffffffffffffff82169050919050565b6000819050919050565b6000614d8582614d17565b9050919050565b6000614d9782614d2a565b9050919050565b6000614da982614d3d565b9050919050565b82818337600083830152505050565b60005b83811015614ddd578082015181840152602081019050614dc2565b83811115614dec576000848401525b50505050565b60006002820490506001821680614e0a57607f821691505b60208210811415614e1e57614e1d614e82565b5b50919050565b7f4e487b7100000000000000000000000000000000000000000000000000000000600052601160045260246000fd5b7f4e487b7100000000000000000000000000000000000000000000000000000000600052602160045260246000fd5b7f4e487b7100000000000000000000000000000000000000000000000000000000600052602260045260246000fd5b7f4e487b7100000000000000000000000000000000000000000000000000000000600052604160045260246000fd5b6000601f19601f8301169050919050565b60038110614f0257614f01614e53565b5b50565b60028110614f1657614f15614e53565b5b50565b60038110614f2a57614f29614e53565b5b50565b614f3681614cf9565b8114614f4157600080fd5b50565b614f4d81614d0b565b8114614f5857600080fd5b50565b60038110614f6857600080fd5b50565b60028110614f7857600080fd5b50565b60038110614f8857600080fd5b50565b614f9481614d70565b8114614f9f57600080fd5b5056fea26469706673582212207292b726f6738376ef9cf083fd0684bc2f619176762679a3f574e54e95485c7764736f6c63430008000033",
  "immutableReferences": {},
  "source": "// SPDX-License-Identifier: MIT\npragma solidity >=0.4.22 <0.9.0;\n\nimport \"./Structs.sol\";\nimport \"./RBAC.sol\";\nimport \"openzeppelin-solidity/contracts/utils/Context.sol\";\nimport \"openzeppelin-solidity/contracts/utils/Counters.sol\";\n\n/**\n * Contract that works as registry for all details regarding the supply chain\n */\ncontract LKGRegistry is Context {\n    using Counters for Counters.Counter;\n    Counters.Counter private controlCounter;\n    Counters.Counter private nonGseCounter;\n    RBAC private rbac;\n    mapping(address => bool) private entitiesIndex;\n    mapping(address => Structs.SupplyChainEntity) private supplyChainEntities;\n    mapping(address => bool) private controlEntitiesIndex;\n    mapping(address => Structs.ControlEntity) private controlEntities;\n    mapping(uint256 => Structs.GSEControl) controls;\n    mapping(uint256 => Structs.NonGSETransaction) transactions;\n    mapping(uint256 => bool) controlIndex;\n    mapping(uint256 => bool) nonGseIndex;\n\n    constructor(address _rbac) public {\n        rbac = RBAC(_rbac);\n    }\n\n    /**\n     * @notice Checks that caller has the role of a supply chain  admin\n     */\n    modifier onlyChainAdmin() {\n        require(\n            rbac.hasRole(_msgSender(), rbac.SUPPLY_CHAIN_ADMIN_ROLE()),\n            \"Only supply chain admin can call this function\"\n        );\n        _;\n    }\n\n    /**\n     *@notice Check that the caller is part of the supply chain\n     */\n    modifier onlyChainMember() {\n        require(\n            rbac.hasRole(_msgSender(), rbac.SUPPLY_CHAIN_CONTROL_ENTITY_ROLE()),\n            \"Not a chain member\"\n        );\n        require(\n            rbac.hasRole(_msgSender(), rbac.SUPPLY_CHAIN_ENTITY_ROLE()),\n            \"Not a chain member\"\n        );\n        _;\n    }\n\n    /**\n     * @notice Add a supply chain entity to the registry\n     * @param _address Address of the account belonging to the entity\n     * @param _entity The entity to be added\n     */\n    function addSupplyChainEntity(\n        address _address,\n        Structs.SupplyChainEntity memory _entity\n    ) public onlyChainAdmin {\n        require(!entitiesIndex[_address], \"Entity already existing\");\n\n        entitiesIndex[_address] = true;\n        supplyChainEntities[_address] = _entity;\n    }\n\n    /**\n     * @notice Get the supply chain entity belonging to the address\n     * @param _entity Address of the entity\n     * @return Supply chain entity\n     */\n    function getSupplyChainEntity(address _entity)\n        public\n        view\n        onlyChainMember\n        returns (Structs.SupplyChainEntity memory)\n    {\n        require(entitiesIndex[_entity], \"Entity does not exist\");\n        return supplyChainEntities[_entity];\n    }\n\n    /**\n     * @notice Remove a supply chain entity from the registry\n     * @param _entity Address of the entity\n     */\n    function removeSupplyChainEntity(address _entity) public onlyChainAdmin {\n        require(entitiesIndex[_entity], \"Entity does not exist\");\n        entitiesIndex[_entity] = false;\n        delete (supplyChainEntities[_entity]);\n    }\n\n    /**\n     * @notice Add control entity to registry\n     * @param _address of the entity\n     *@param _entity to add\n     */\n    function addControlEntity(\n        address _address,\n        Structs.ControlEntity memory _entity\n    ) public onlyChainAdmin {\n        require(!controlEntitiesIndex[_address], \"Entity already exists\");\n        controlEntitiesIndex[_address] = true;\n        controlEntities[_address] = _entity;\n    }\n\n    /**\n     * @notice Get the control entity from the registry\n     * @param _entity The address of the entity\n     * @return Control entity\n     */\n    function getControlentity(address _entity)\n        public\n        view\n        onlyChainMember\n        returns (Structs.ControlEntity memory)\n    {\n        require(controlEntitiesIndex[_entity], \"Entity does not exist\");\n        return controlEntities[_entity];\n    }\n\n    /**\n     * @notice Remove a control entity from the registry\n     * @param _entity The address of the entity to be removed\n     */\n    function removeControlEntity(address _entity) public onlyChainAdmin {\n        require(controlEntitiesIndex[_entity], \"Entity does not exist\");\n        controlEntitiesIndex[_entity] = false;\n        delete (controlEntitiesIndex[_entity]);\n    }\n\n    /**\n     * @notice Add control to supply chain entity\n     * @param _entity The supply chain entity to add the control to\n     * @param _control The control to add\n     */\n    function addControl(address _entity, Structs.GSEControl memory _control)\n        public\n        onlyChainAdmin\n    {\n        require(entitiesIndex[_entity], \"Entity does not exist\");\n\n        controlCounter.increment();\n        controlIndex[controlCounter.current()] = true;\n        controls[controlCounter.current()] = _control;\n        supplyChainEntities[_entity].controls[\n            controlCounter.current()\n        ] = controlCounter.current();\n\n        controlEntities[_control.controller].numberOfControls += 1;\n    }\n\n    /**\n     * @notice Get a control that was made\n     * @param _controlId id of the control\n     * * @return control with the given id\n     */\n    function getControl(uint256 _controlId)\n        public\n        view\n        onlyChainMember\n        returns (Structs.GSEControl memory)\n    {\n        require(controlIndex[_controlId], \"Control does not exist\");\n        return controls[_controlId];\n    }\n\n    /**\n     * @notice Get a list of control ids that were made for a supply chain entity\n     * @param _entity The entity to get the control ids for\n     *@return Array of control ids\n     */\n    function getControls(address _entity)\n        public\n        view\n        onlyChainMember\n        returns (uint256[] memory)\n    {\n        require(entitiesIndex[_entity], \"Entity does not exist\");\n        return supplyChainEntities[_entity].controls;\n    }\n\n    /**\n     * @notice Add nonGSETransaction to supply chain entity\n     * @param _entity The supply chain entity to add the transaction to\n     * @param _transaction The transaction to add\n     */\n    function addNonGSETransaction(\n        address _entity,\n        Structs.NonGSETransaction memory _transaction\n    ) public onlyChainAdmin {\n        require(entitiesIndex[_entity], \"Entity does not exits\");\n\n        nonGseCounter.increment();\n        nonGseIndex[nonGseCounter.current()] = true;\n        transactions[nonGseCounter.current()] = _transaction;\n        supplyChainEntities[_entity].transactions[\n            nonGseCounter.current()\n        ] = nonGseCounter.current();\n    }\n\n    /**\n     * @notice Get a non gse transaction that was made\n     * @param _transactionIndex id of the transaction\n     * * @return transaction with the given id\n     */\n    function getNonGSETransaction(uint256 _transactionIndex)\n        public\n        view\n        onlyChainMember\n        returns (Structs.NonGSETransaction memory)\n    {\n        require(nonGseIndex[_transactionIndex], \"Transaction does not exist\");\n        return transactions[_transactionIndex];\n    }\n\n    /**\n     * @notice Get a list of transaction ids that were recorded for a supply chain entity\n     * @param _entity The entity to get the transaction ids for\n     * @return Array of transaction ids\n     */\n    function getNonGSETransactions(address _entity)\n        public\n        view\n        onlyChainMember\n        returns (uint256[] memory)\n    {\n        require(entitiesIndex[_entity], \"Entity does not exist\");\n        return supplyChainEntities[_entity].transactions;\n    }\n\n    /**\n     * @notice A control or supply chain entity can acknowledge that they have red and accepted the \"GSE\"\n     */\n    function acknowledgeGSE() public onlyChainMember {\n        require(\n            entitiesIndex[_msgSender()] || controlEntitiesIndex[_msgSender()],\n            \"Entity does not exist\"\n        );\n        if (\n            rbac.hasRole(_msgSender(), rbac.SUPPLY_CHAIN_CONTROL_ENTITY_ROLE())\n        ) {\n            controlEntities[_msgSender()].gseStatus = true;\n        }\n\n        if (rbac.hasRole(_msgSender(), rbac.SUPPLY_CHAIN_ENTITY_ROLE())) {\n            supplyChainEntities[_msgSender()].gseStatus = true;\n        }\n    }\n}\n",
  "sourcePath": "/Users/jabbathegut/repositories/ba_sources/textile-supply-chain/contracts/LKGRegistry.sol",
  "compiler": {
    "name": "solc",
    "version": "0.8.0+commit.c7dfd78e.Emscripten.clang"
  },
  "schemaVersion": "3.3.4",
  "updatedAt": "2021-05-07T08:13:19.200Z",
  "devdoc": {
    "kind": "dev",
    "methods": {
      "addControl(address,(uint256,uint256,uint8,address,address))": {
        "params": {
          "_control": "The control to add",
          "_entity": "The supply chain entity to add the control to"
        }
      },
      "addControlEntity(address,(uint8,string,bool,uint256))": {
        "params": {
          "_address": "of the entity",
          "_entity": "to add"
        }
      },
      "addNonGSETransaction(address,(uint256,uint256))": {
        "params": {
          "_entity": "The supply chain entity to add the transaction to",
          "_transaction": "The transaction to add"
        }
      },
      "addSupplyChainEntity(address,(uint8,string,bool,uint256[],uint256[]))": {
        "params": {
          "_address": "Address of the account belonging to the entity",
          "_entity": "The entity to be added"
        }
      },
      "getControl(uint256)": {
        "params": {
          "_controlId": "id of the control"
        },
        "returns": {
          "_0": "control with the given id"
        }
      },
      "getControlentity(address)": {
        "params": {
          "_entity": "The address of the entity"
        },
        "returns": {
          "_0": "Control entity"
        }
      },
      "getControls(address)": {
        "params": {
          "_entity": "The entity to get the control ids for"
        },
        "returns": {
          "_0": "Array of control ids"
        }
      },
      "getNonGSETransaction(uint256)": {
        "params": {
          "_transactionIndex": "id of the transaction"
        },
        "returns": {
          "_0": "transaction with the given id"
        }
      },
      "getNonGSETransactions(address)": {
        "params": {
          "_entity": "The entity to get the transaction ids for"
        },
        "returns": {
          "_0": "Array of transaction ids"
        }
      },
      "getSupplyChainEntity(address)": {
        "params": {
          "_entity": "Address of the entity"
        },
        "returns": {
          "_0": "Supply chain entity"
        }
      },
      "removeControlEntity(address)": {
        "params": {
          "_entity": "The address of the entity to be removed"
        }
      },
      "removeSupplyChainEntity(address)": {
        "params": {
          "_entity": "Address of the entity"
        }
      }
    },
    "version": 1
  },
  "userdoc": {
    "kind": "user",
    "methods": {
      "acknowledgeGSE()": {
        "notice": "A control or supply chain entity can acknowledge that they have red and accepted the \"GSE\""
      },
      "addControl(address,(uint256,uint256,uint8,address,address))": {
        "notice": "Add control to supply chain entity"
      },
      "addControlEntity(address,(uint8,string,bool,uint256))": {
        "notice": "Add control entity to registry"
      },
      "addNonGSETransaction(address,(uint256,uint256))": {
        "notice": "Add nonGSETransaction to supply chain entity"
      },
      "addSupplyChainEntity(address,(uint8,string,bool,uint256[],uint256[]))": {
        "notice": "Add a supply chain entity to the registry"
      },
      "getControl(uint256)": {
        "notice": "Get a control that was made"
      },
      "getControlentity(address)": {
        "notice": "Get the control entity from the registry"
      },
      "getControls(address)": {
        "notice": "Get a list of control ids that were made for a supply chain entity"
      },
      "getNonGSETransaction(uint256)": {
        "notice": "Get a non gse transaction that was made"
      },
      "getNonGSETransactions(address)": {
        "notice": "Get a list of transaction ids that were recorded for a supply chain entity"
      },
      "getSupplyChainEntity(address)": {
        "notice": "Get the supply chain entity belonging to the address"
      },
      "removeControlEntity(address)": {
        "notice": "Remove a control entity from the registry"
      },
      "removeSupplyChainEntity(address)": {
        "notice": "Remove a supply chain entity from the registry"
      }
    },
    "notice": "Contract that works as registry for all details regarding the supply chain",
    "version": 1
  }
}