{
  "contractName": "LKGRegistry",
  "abi": [
    {
      "inputs": [
        {
          "internalType": "address",
          "name": "_rbac",
          "type": "address"
        }
      ],
      "stateMutability": "nonpayable",
      "type": "constructor"
    },
    {
      "inputs": [
        {
          "internalType": "address",
          "name": "_address",
          "type": "address"
        },
        {
          "components": [
            {
              "internalType": "enum Enums.SupplyChainRole",
              "name": "role",
              "type": "uint8"
            },
            {
              "internalType": "string",
              "name": "tier",
              "type": "string"
            },
            {
              "internalType": "bool",
              "name": "gseStatus",
              "type": "bool"
            },
            {
              "internalType": "uint256[]",
              "name": "controls",
              "type": "uint256[]"
            },
            {
              "internalType": "uint256[]",
              "name": "transactions",
              "type": "uint256[]"
            }
          ],
          "internalType": "struct Structs.SupplyChainEntity",
          "name": "_entity",
          "type": "tuple"
        }
      ],
      "name": "addSupplyChainEntity",
      "outputs": [],
      "stateMutability": "nonpayable",
      "type": "function"
    },
    {
      "inputs": [
        {
          "internalType": "address",
          "name": "_entity",
          "type": "address"
        }
      ],
      "name": "getSupplyChainEntity",
      "outputs": [
        {
          "components": [
            {
              "internalType": "enum Enums.SupplyChainRole",
              "name": "role",
              "type": "uint8"
            },
            {
              "internalType": "string",
              "name": "tier",
              "type": "string"
            },
            {
              "internalType": "bool",
              "name": "gseStatus",
              "type": "bool"
            },
            {
              "internalType": "uint256[]",
              "name": "controls",
              "type": "uint256[]"
            },
            {
              "internalType": "uint256[]",
              "name": "transactions",
              "type": "uint256[]"
            }
          ],
          "internalType": "struct Structs.SupplyChainEntity",
          "name": "",
          "type": "tuple"
        }
      ],
      "stateMutability": "view",
      "type": "function"
    },
    {
      "inputs": [
        {
          "internalType": "address",
          "name": "_entity",
          "type": "address"
        }
      ],
      "name": "removeSupplyChainEntity",
      "outputs": [],
      "stateMutability": "nonpayable",
      "type": "function"
    },
    {
      "inputs": [
        {
          "internalType": "address",
          "name": "_address",
          "type": "address"
        },
        {
          "components": [
            {
              "internalType": "enum Enums.ControlRole",
              "name": "role",
              "type": "uint8"
            },
            {
              "internalType": "string",
              "name": "description",
              "type": "string"
            },
            {
              "internalType": "uint256",
              "name": "numberOfControls",
              "type": "uint256"
            }
          ],
          "internalType": "struct Structs.ControlEntity",
          "name": "_entity",
          "type": "tuple"
        }
      ],
      "name": "addControlEntity",
      "outputs": [],
      "stateMutability": "nonpayable",
      "type": "function"
    },
    {
      "inputs": [
        {
          "internalType": "address",
          "name": "_entity",
          "type": "address"
        }
      ],
      "name": "getControlentity",
      "outputs": [
        {
          "components": [
            {
              "internalType": "enum Enums.ControlRole",
              "name": "role",
              "type": "uint8"
            },
            {
              "internalType": "string",
              "name": "description",
              "type": "string"
            },
            {
              "internalType": "uint256",
              "name": "numberOfControls",
              "type": "uint256"
            }
          ],
          "internalType": "struct Structs.ControlEntity",
          "name": "",
          "type": "tuple"
        }
      ],
      "stateMutability": "view",
      "type": "function"
    },
    {
      "inputs": [
        {
          "internalType": "address",
          "name": "_entity",
          "type": "address"
        }
      ],
      "name": "removeControlEntity",
      "outputs": [],
      "stateMutability": "nonpayable",
      "type": "function"
    },
    {
      "inputs": [
        {
          "internalType": "address",
          "name": "_entity",
          "type": "address"
        },
        {
          "components": [
            {
              "internalType": "uint256",
              "name": "controlId",
              "type": "uint256"
            },
            {
              "internalType": "uint256",
              "name": "timeOfControl",
              "type": "uint256"
            },
            {
              "internalType": "enum Enums.ControlStatus",
              "name": "status",
              "type": "uint8"
            },
            {
              "internalType": "address",
              "name": "controlled",
              "type": "address"
            },
            {
              "internalType": "address",
              "name": "controller",
              "type": "address"
            }
          ],
          "internalType": "struct Structs.GSEControl",
          "name": "_control",
          "type": "tuple"
        }
      ],
      "name": "addControl",
      "outputs": [],
      "stateMutability": "nonpayable",
      "type": "function"
    },
    {
      "inputs": [
        {
          "internalType": "uint256",
          "name": "_controlId",
          "type": "uint256"
        }
      ],
      "name": "getControl",
      "outputs": [
        {
          "components": [
            {
              "internalType": "uint256",
              "name": "controlId",
              "type": "uint256"
            },
            {
              "internalType": "uint256",
              "name": "timeOfControl",
              "type": "uint256"
            },
            {
              "internalType": "enum Enums.ControlStatus",
              "name": "status",
              "type": "uint8"
            },
            {
              "internalType": "address",
              "name": "controlled",
              "type": "address"
            },
            {
              "internalType": "address",
              "name": "controller",
              "type": "address"
            }
          ],
          "internalType": "struct Structs.GSEControl",
          "name": "",
          "type": "tuple"
        }
      ],
      "stateMutability": "view",
      "type": "function"
    },
    {
      "inputs": [
        {
          "internalType": "address",
          "name": "_entity",
          "type": "address"
        }
      ],
      "name": "getControls",
      "outputs": [
        {
          "internalType": "uint256[]",
          "name": "",
          "type": "uint256[]"
        }
      ],
      "stateMutability": "view",
      "type": "function"
    },
    {
      "inputs": [
        {
          "internalType": "address",
          "name": "_entity",
          "type": "address"
        },
        {
          "components": [
            {
              "internalType": "uint256",
              "name": "time",
              "type": "uint256"
            },
            {
              "internalType": "uint256",
              "name": "tokenId",
              "type": "uint256"
            }
          ],
          "internalType": "struct Structs.NonGSETransaction",
          "name": "_transaction",
          "type": "tuple"
        }
      ],
      "name": "addNonGSETransaction",
      "outputs": [],
      "stateMutability": "nonpayable",
      "type": "function"
    },
    {
      "inputs": [
        {
          "internalType": "uint256",
          "name": "_transactionIndex",
          "type": "uint256"
        }
      ],
      "name": "getNonGSETransaction",
      "outputs": [
        {
          "components": [
            {
              "internalType": "uint256",
              "name": "time",
              "type": "uint256"
            },
            {
              "internalType": "uint256",
              "name": "tokenId",
              "type": "uint256"
            }
          ],
          "internalType": "struct Structs.NonGSETransaction",
          "name": "",
          "type": "tuple"
        }
      ],
      "stateMutability": "view",
      "type": "function"
    },
    {
      "inputs": [
        {
          "internalType": "address",
          "name": "_entity",
          "type": "address"
        }
      ],
      "name": "getNonGSETransactions",
      "outputs": [
        {
          "internalType": "uint256[]",
          "name": "",
          "type": "uint256[]"
        }
      ],
      "stateMutability": "view",
      "type": "function"
    }
  ],
  "bytecode": "0x60806040523480156200001157600080fd5b506040516200517138038062005171833981810160405281019062000037919062000096565b80600260006101000a81548173ffffffffffffffffffffffffffffffffffffffff021916908373ffffffffffffffffffffffffffffffffffffffff1602179055505062000110565b6000815190506200009081620000f6565b92915050565b600060208284031215620000a957600080fd5b6000620000b9848285016200007f565b91505092915050565b6000620000cf82620000d6565b9050919050565b600073ffffffffffffffffffffffffffffffffffffffff82169050919050565b6200010181620000c2565b81146200010d57600080fd5b50565b61505180620001206000396000f3fe608060405234801561001057600080fd5b50600436106100b45760003560e01c8063630d5bc111610071578063630d5bc11461018957806366823b2a146101a55780637c18e975146101d557806382165daa14610205578063d1b7f2be14610235578063e5be323214610251576100b4565b8063274b311b146100b957806333424a35146100d55780633f7129c8146101055780634240a6f0146101215780634504e7031461015157806355b1910a1461016d575b600080fd5b6100d360048036038101906100ce91906143b5565b610281565b005b6100ef60048036038101906100ea91906143b5565b610599565b6040516100fc9190614c7b565b60405180910390f35b61011f600480360381019061011a91906144aa565b610d27565b005b61013b60048036038101906101369190614568565b6110b7565b6040516101489190614c45565b60405180910390f35b61016b60048036038101906101669190614432565b611750565b005b6101876004803603810190610182919061446e565b611b69565b005b6101a3600480360381019061019e91906143de565b611e9e565b005b6101bf60048036038101906101ba9190614568565b6121de565b6040516101cc9190614c60565b60405180910390f35b6101ef60048036038101906101ea91906143b5565b612744565b6040516101fc9190614c23565b60405180910390f35b61021f600480360381019061021a91906143b5565b612e11565b60405161022c9190614b01565b60405180910390f35b61024f600480360381019061024a91906143b5565b6133fc565b005b61026b600480360381019061026691906143b5565b6136c9565b6040516102789190614b01565b60405180910390f35b600260009054906101000a900473ffffffffffffffffffffffffffffffffffffffff1673ffffffffffffffffffffffffffffffffffffffff1663217fe6c66102c7613cb4565b600260009054906101000a900473ffffffffffffffffffffffffffffffffffffffff1673ffffffffffffffffffffffffffffffffffffffff16638c84d39c6040518163ffffffff1660e01b815260040160006040518083038186803b15801561032f57600080fd5b505afa158015610343573d6000803e3d6000fd5b505050506040513d6000823e3d601f19601f8201168201806040525081019061036c9190614527565b6040518363ffffffff1660e01b8152600401610389929190614ad1565b60206040518083038186803b1580156103a157600080fd5b505afa1580156103b5573d6000803e3d6000fd5b505050506040513d601f19601f820116820180604052508101906103d991906144fe565b610418576040517f08c379a000000000000000000000000000000000000000000000000000000000815260040161040f90614b83565b60405180910390fd5b600360008273ffffffffffffffffffffffffffffffffffffffff1673ffffffffffffffffffffffffffffffffffffffff16815260200190815260200160002060009054906101000a900460ff166104a4576040517f08c379a000000000000000000000000000000000000000000000000000000000815260040161049b90614c03565b60405180910390fd5b6000600360008373ffffffffffffffffffffffffffffffffffffffff1673ffffffffffffffffffffffffffffffffffffffff16815260200190815260200160002060006101000a81548160ff021916908315150217905550600460008273ffffffffffffffffffffffffffffffffffffffff1673ffffffffffffffffffffffffffffffffffffffff168152602001908152602001600020600080820160006101000a81549060ff02191690556001820160006105609190613ce0565b6002820160006101000a81549060ff02191690556003820160006105849190613d20565b6004820160006105949190613d20565b505050565b6105a1613d41565b600260009054906101000a900473ffffffffffffffffffffffffffffffffffffffff1673ffffffffffffffffffffffffffffffffffffffff1663217fe6c66105e7613cb4565b600260009054906101000a900473ffffffffffffffffffffffffffffffffffffffff1673ffffffffffffffffffffffffffffffffffffffff166339e7c5f56040518163ffffffff1660e01b815260040160006040518083038186803b15801561064f57600080fd5b505afa158015610663573d6000803e3d6000fd5b505050506040513d6000823e3d601f19601f8201168201806040525081019061068c9190614527565b6040518363ffffffff1660e01b81526004016106a9929190614ad1565b60206040518083038186803b1580156106c157600080fd5b505afa1580156106d5573d6000803e3d6000fd5b505050506040513d601f19601f820116820180604052508101906106f991906144fe565b610738576040517f08c379a000000000000000000000000000000000000000000000000000000000815260040161072f90614b43565b60405180910390fd5b600260009054906101000a900473ffffffffffffffffffffffffffffffffffffffff1673ffffffffffffffffffffffffffffffffffffffff1663217fe6c661077e613cb4565b600260009054906101000a900473ffffffffffffffffffffffffffffffffffffffff1673ffffffffffffffffffffffffffffffffffffffff16631cee4a9d6040518163ffffffff1660e01b815260040160006040518083038186803b1580156107e657600080fd5b505afa1580156107fa573d6000803e3d6000fd5b505050506040513d6000823e3d601f19601f820116820180604052508101906108239190614527565b6040518363ffffffff1660e01b8152600401610840929190614ad1565b60206040518083038186803b15801561085857600080fd5b505afa15801561086c573d6000803e3d6000fd5b505050506040513d601f19601f8201168201806040525081019061089091906144fe565b6108cf576040517f08c379a00000000000000000000000000000000000000000000000000000000081526004016108c690614b43565b60405180910390fd5b600260009054906101000a900473ffffffffffffffffffffffffffffffffffffffff1673ffffffffffffffffffffffffffffffffffffffff1663217fe6c6610915613cb4565b600260009054906101000a900473ffffffffffffffffffffffffffffffffffffffff1673ffffffffffffffffffffffffffffffffffffffff16638c84d39c6040518163ffffffff1660e01b815260040160006040518083038186803b15801561097d57600080fd5b505afa158015610991573d6000803e3d6000fd5b505050506040513d6000823e3d601f19601f820116820180604052508101906109ba9190614527565b6040518363ffffffff1660e01b81526004016109d7929190614ad1565b60206040518083038186803b1580156109ef57600080fd5b505afa158015610a03573d6000803e3d6000fd5b505050506040513d601f19601f82011682018060405250810190610a2791906144fe565b610a66576040517f08c379a0000000000000000000000000000000000000000000000000000000008152600401610a5d90614b43565b60405180910390fd5b600360008373ffffffffffffffffffffffffffffffffffffffff1673ffffffffffffffffffffffffffffffffffffffff16815260200190815260200160002060009054906101000a900460ff16610af2576040517f08c379a0000000000000000000000000000000000000000000000000000000008152600401610ae990614c03565b60405180910390fd5b600460008373ffffffffffffffffffffffffffffffffffffffff1673ffffffffffffffffffffffffffffffffffffffff1681526020019081526020016000206040518060a00160405290816000820160009054906101000a900460ff166002811115610b87577f4e487b7100000000000000000000000000000000000000000000000000000000600052602160045260246000fd5b6002811115610bbf577f4e487b7100000000000000000000000000000000000000000000000000000000600052602160045260246000fd5b8152602001600182018054610bd390614e9a565b80601f0160208091040260200160405190810160405280929190818152602001828054610bff90614e9a565b8015610c4c5780601f10610c2157610100808354040283529160200191610c4c565b820191906000526020600020905b815481529060010190602001808311610c2f57829003601f168201915b505050505081526020016002820160009054906101000a900460ff1615151515815260200160038201805480602002602001604051908101604052809291908181526020018280548015610cbf57602002820191906000526020600020905b815481526020019060010190808311610cab575b5050505050815260200160048201805480602002602001604051908101604052809291908181526020018280548015610d1757602002820191906000526020600020905b815481526020019060010190808311610d03575b5050505050815250509050919050565b600260009054906101000a900473ffffffffffffffffffffffffffffffffffffffff1673ffffffffffffffffffffffffffffffffffffffff1663217fe6c6610d6d613cb4565b600260009054906101000a900473ffffffffffffffffffffffffffffffffffffffff1673ffffffffffffffffffffffffffffffffffffffff16638c84d39c6040518163ffffffff1660e01b815260040160006040518083038186803b158015610dd557600080fd5b505afa158015610de9573d6000803e3d6000fd5b505050506040513d6000823e3d601f19601f82011682018060405250810190610e129190614527565b6040518363ffffffff1660e01b8152600401610e2f929190614ad1565b60206040518083038186803b158015610e4757600080fd5b505afa158015610e5b573d6000803e3d6000fd5b505050506040513d601f19601f82011682018060405250810190610e7f91906144fe565b610ebe576040517f08c379a0000000000000000000000000000000000000000000000000000000008152600401610eb590614b83565b60405180910390fd5b600360008373ffffffffffffffffffffffffffffffffffffffff1673ffffffffffffffffffffffffffffffffffffffff16815260200190815260200160002060009054906101000a900460ff1615610f4b576040517f08c379a0000000000000000000000000000000000000000000000000000000008152600401610f4290614bc3565b60405180910390fd5b6001600360008473ffffffffffffffffffffffffffffffffffffffff1673ffffffffffffffffffffffffffffffffffffffff16815260200190815260200160002060006101000a81548160ff02191690831515021790555080600460008473ffffffffffffffffffffffffffffffffffffffff1673ffffffffffffffffffffffffffffffffffffffff16815260200190815260200160002060008201518160000160006101000a81548160ff02191690836002811115611034577f4e487b7100000000000000000000000000000000000000000000000000000000600052602160045260246000fd5b02179055506020820151816001019080519060200190611055929190613daa565b5060408201518160020160006101000a81548160ff0219169083151502179055506060820151816003019080519060200190611092929190613e30565b5060808201518160040190805190602001906110af929190613e30565b509050505050565b6110bf613e7d565b600260009054906101000a900473ffffffffffffffffffffffffffffffffffffffff1673ffffffffffffffffffffffffffffffffffffffff1663217fe6c6611105613cb4565b600260009054906101000a900473ffffffffffffffffffffffffffffffffffffffff1673ffffffffffffffffffffffffffffffffffffffff166339e7c5f56040518163ffffffff1660e01b815260040160006040518083038186803b15801561116d57600080fd5b505afa158015611181573d6000803e3d6000fd5b505050506040513d6000823e3d601f19601f820116820180604052508101906111aa9190614527565b6040518363ffffffff1660e01b81526004016111c7929190614ad1565b60206040518083038186803b1580156111df57600080fd5b505afa1580156111f3573d6000803e3d6000fd5b505050506040513d601f19601f8201168201806040525081019061121791906144fe565b611256576040517f08c379a000000000000000000000000000000000000000000000000000000000815260040161124d90614b43565b60405180910390fd5b600260009054906101000a900473ffffffffffffffffffffffffffffffffffffffff1673ffffffffffffffffffffffffffffffffffffffff1663217fe6c661129c613cb4565b600260009054906101000a900473ffffffffffffffffffffffffffffffffffffffff1673ffffffffffffffffffffffffffffffffffffffff16631cee4a9d6040518163ffffffff1660e01b815260040160006040518083038186803b15801561130457600080fd5b505afa158015611318573d6000803e3d6000fd5b505050506040513d6000823e3d601f19601f820116820180604052508101906113419190614527565b6040518363ffffffff1660e01b815260040161135e929190614ad1565b60206040518083038186803b15801561137657600080fd5b505afa15801561138a573d6000803e3d6000fd5b505050506040513d601f19601f820116820180604052508101906113ae91906144fe565b6113ed576040517f08c379a00000000000000000000000000000000000000000000000000000000081526004016113e490614b43565b60405180910390fd5b600260009054906101000a900473ffffffffffffffffffffffffffffffffffffffff1673ffffffffffffffffffffffffffffffffffffffff1663217fe6c6611433613cb4565b600260009054906101000a900473ffffffffffffffffffffffffffffffffffffffff1673ffffffffffffffffffffffffffffffffffffffff16638c84d39c6040518163ffffffff1660e01b815260040160006040518083038186803b15801561149b57600080fd5b505afa1580156114af573d6000803e3d6000fd5b505050506040513d6000823e3d601f19601f820116820180604052508101906114d89190614527565b6040518363ffffffff1660e01b81526004016114f5929190614ad1565b60206040518083038186803b15801561150d57600080fd5b505afa158015611521573d6000803e3d6000fd5b505050506040513d601f19601f8201168201806040525081019061154591906144fe565b611584576040517f08c379a000000000000000000000000000000000000000000000000000000000815260040161157b90614b43565b60405180910390fd5b6009600083815260200190815260200160002060009054906101000a900460ff166115e4576040517f08c379a00000000000000000000000000000000000000000000000000000000081526004016115db90614b23565b60405180910390fd5b600760008381526020019081526020016000206040518060a001604052908160008201548152602001600182015481526020016002820160009054906101000a900460ff166001811115611661577f4e487b7100000000000000000000000000000000000000000000000000000000600052602160045260246000fd5b6001811115611699577f4e487b7100000000000000000000000000000000000000000000000000000000600052602160045260246000fd5b81526020016002820160019054906101000a900473ffffffffffffffffffffffffffffffffffffffff1673ffffffffffffffffffffffffffffffffffffffff1673ffffffffffffffffffffffffffffffffffffffff1681526020016003820160009054906101000a900473ffffffffffffffffffffffffffffffffffffffff1673ffffffffffffffffffffffffffffffffffffffff1673ffffffffffffffffffffffffffffffffffffffff16815250509050919050565b600260009054906101000a900473ffffffffffffffffffffffffffffffffffffffff1673ffffffffffffffffffffffffffffffffffffffff1663217fe6c6611796613cb4565b600260009054906101000a900473ffffffffffffffffffffffffffffffffffffffff1673ffffffffffffffffffffffffffffffffffffffff16638c84d39c6040518163ffffffff1660e01b815260040160006040518083038186803b1580156117fe57600080fd5b505afa158015611812573d6000803e3d6000fd5b505050506040513d6000823e3d601f19601f8201168201806040525081019061183b9190614527565b6040518363ffffffff1660e01b8152600401611858929190614ad1565b60206040518083038186803b15801561187057600080fd5b505afa158015611884573d6000803e3d6000fd5b505050506040513d601f19601f820116820180604052508101906118a891906144fe565b6118e7576040517f08c379a00000000000000000000000000000000000000000000000000000000081526004016118de90614b83565b60405180910390fd5b600360008373ffffffffffffffffffffffffffffffffffffffff1673ffffffffffffffffffffffffffffffffffffffff16815260200190815260200160002060009054906101000a900460ff16611973576040517f08c379a000000000000000000000000000000000000000000000000000000000815260040161196a90614c03565b60405180910390fd5b61197d6000613cbc565b60016009600061198d6000613cd2565b815260200190815260200160002060006101000a81548160ff02191690831515021790555080600760006119c16000613cd2565b8152602001908152602001600020600082015181600001556020820151816001015560408201518160020160006101000a81548160ff02191690836001811115611a34577f4e487b7100000000000000000000000000000000000000000000000000000000600052602160045260246000fd5b021790555060608201518160020160016101000a81548173ffffffffffffffffffffffffffffffffffffffff021916908373ffffffffffffffffffffffffffffffffffffffff16021790555060808201518160030160006101000a81548173ffffffffffffffffffffffffffffffffffffffff021916908373ffffffffffffffffffffffffffffffffffffffff160217905550905050611ad46000613cd2565b600460008473ffffffffffffffffffffffffffffffffffffffff1673ffffffffffffffffffffffffffffffffffffffff168152602001908152602001600020600301611b206000613cd2565b81548110611b57577f4e487b7100000000000000000000000000000000000000000000000000000000600052603260045260246000fd5b90600052602060002001819055505050565b600260009054906101000a900473ffffffffffffffffffffffffffffffffffffffff1673ffffffffffffffffffffffffffffffffffffffff1663217fe6c6611baf613cb4565b600260009054906101000a900473ffffffffffffffffffffffffffffffffffffffff1673ffffffffffffffffffffffffffffffffffffffff16638c84d39c6040518163ffffffff1660e01b815260040160006040518083038186803b158015611c1757600080fd5b505afa158015611c2b573d6000803e3d6000fd5b505050506040513d6000823e3d601f19601f82011682018060405250810190611c549190614527565b6040518363ffffffff1660e01b8152600401611c71929190614ad1565b60206040518083038186803b158015611c8957600080fd5b505afa158015611c9d573d6000803e3d6000fd5b505050506040513d601f19601f82011682018060405250810190611cc191906144fe565b611d00576040517f08c379a0000000000000000000000000000000000000000000000000000000008152600401611cf790614b83565b60405180910390fd5b600360008373ffffffffffffffffffffffffffffffffffffffff1673ffffffffffffffffffffffffffffffffffffffff16815260200190815260200160002060009054906101000a900460ff16611d8c576040517f08c379a0000000000000000000000000000000000000000000000000000000008152600401611d8390614be3565b60405180910390fd5b611d966001613cbc565b6001600a6000611da66001613cd2565b815260200190815260200160002060006101000a81548160ff0219169083151502179055508060086000611dda6001613cd2565b81526020019081526020016000206000820151816000015560208201518160010155905050611e096001613cd2565b600460008473ffffffffffffffffffffffffffffffffffffffff1673ffffffffffffffffffffffffffffffffffffffff168152602001908152602001600020600401611e556001613cd2565b81548110611e8c577f4e487b7100000000000000000000000000000000000000000000000000000000600052603260045260246000fd5b90600052602060002001819055505050565b600260009054906101000a900473ffffffffffffffffffffffffffffffffffffffff1673ffffffffffffffffffffffffffffffffffffffff1663217fe6c6611ee4613cb4565b600260009054906101000a900473ffffffffffffffffffffffffffffffffffffffff1673ffffffffffffffffffffffffffffffffffffffff16638c84d39c6040518163ffffffff1660e01b815260040160006040518083038186803b158015611f4c57600080fd5b505afa158015611f60573d6000803e3d6000fd5b505050506040513d6000823e3d601f19601f82011682018060405250810190611f899190614527565b6040518363ffffffff1660e01b8152600401611fa6929190614ad1565b60206040518083038186803b158015611fbe57600080fd5b505afa158015611fd2573d6000803e3d6000fd5b505050506040513d601f19601f82011682018060405250810190611ff691906144fe565b612035576040517f08c379a000000000000000000000000000000000000000000000000000000000815260040161202c90614b83565b60405180910390fd5b600560008373ffffffffffffffffffffffffffffffffffffffff1673ffffffffffffffffffffffffffffffffffffffff16815260200190815260200160002060009054906101000a900460ff16156120c2576040517f08c379a00000000000000000000000000000000000000000000000000000000081526004016120b990614ba3565b60405180910390fd5b6001600560008473ffffffffffffffffffffffffffffffffffffffff1673ffffffffffffffffffffffffffffffffffffffff16815260200190815260200160002060006101000a81548160ff02191690831515021790555080600660008473ffffffffffffffffffffffffffffffffffffffff1673ffffffffffffffffffffffffffffffffffffffff16815260200190815260200160002060008201518160000160006101000a81548160ff021916908360028111156121ab577f4e487b7100000000000000000000000000000000000000000000000000000000600052602160045260246000fd5b021790555060208201518160010190805190602001906121cc929190613daa565b50604082015181600201559050505050565b6121e6613f10565b600260009054906101000a900473ffffffffffffffffffffffffffffffffffffffff1673ffffffffffffffffffffffffffffffffffffffff1663217fe6c661222c613cb4565b600260009054906101000a900473ffffffffffffffffffffffffffffffffffffffff1673ffffffffffffffffffffffffffffffffffffffff166339e7c5f56040518163ffffffff1660e01b815260040160006040518083038186803b15801561229457600080fd5b505afa1580156122a8573d6000803e3d6000fd5b505050506040513d6000823e3d601f19601f820116820180604052508101906122d19190614527565b6040518363ffffffff1660e01b81526004016122ee929190614ad1565b60206040518083038186803b15801561230657600080fd5b505afa15801561231a573d6000803e3d6000fd5b505050506040513d601f19601f8201168201806040525081019061233e91906144fe565b61237d576040517f08c379a000000000000000000000000000000000000000000000000000000000815260040161237490614b43565b60405180910390fd5b600260009054906101000a900473ffffffffffffffffffffffffffffffffffffffff1673ffffffffffffffffffffffffffffffffffffffff1663217fe6c66123c3613cb4565b600260009054906101000a900473ffffffffffffffffffffffffffffffffffffffff1673ffffffffffffffffffffffffffffffffffffffff16631cee4a9d6040518163ffffffff1660e01b815260040160006040518083038186803b15801561242b57600080fd5b505afa15801561243f573d6000803e3d6000fd5b505050506040513d6000823e3d601f19601f820116820180604052508101906124689190614527565b6040518363ffffffff1660e01b8152600401612485929190614ad1565b60206040518083038186803b15801561249d57600080fd5b505afa1580156124b1573d6000803e3d6000fd5b505050506040513d601f19601f820116820180604052508101906124d591906144fe565b612514576040517f08c379a000000000000000000000000000000000000000000000000000000000815260040161250b90614b43565b60405180910390fd5b600260009054906101000a900473ffffffffffffffffffffffffffffffffffffffff1673ffffffffffffffffffffffffffffffffffffffff1663217fe6c661255a613cb4565b600260009054906101000a900473ffffffffffffffffffffffffffffffffffffffff1673ffffffffffffffffffffffffffffffffffffffff16638c84d39c6040518163ffffffff1660e01b815260040160006040518083038186803b1580156125c257600080fd5b505afa1580156125d6573d6000803e3d6000fd5b505050506040513d6000823e3d601f19601f820116820180604052508101906125ff9190614527565b6040518363ffffffff1660e01b815260040161261c929190614ad1565b60206040518083038186803b15801561263457600080fd5b505afa158015612648573d6000803e3d6000fd5b505050506040513d601f19601f8201168201806040525081019061266c91906144fe565b6126ab576040517f08c379a00000000000000000000000000000000000000000000000000000000081526004016126a290614b43565b60405180910390fd5b600a600083815260200190815260200160002060009054906101000a900460ff1661270b576040517f08c379a000000000000000000000000000000000000000000000000000000000815260040161270290614b63565b60405180910390fd5b60086000838152602001908152602001600020604051806040016040529081600082015481526020016001820154815250509050919050565b61274c613f2a565b600260009054906101000a900473ffffffffffffffffffffffffffffffffffffffff1673ffffffffffffffffffffffffffffffffffffffff1663217fe6c6612792613cb4565b600260009054906101000a900473ffffffffffffffffffffffffffffffffffffffff1673ffffffffffffffffffffffffffffffffffffffff166339e7c5f56040518163ffffffff1660e01b815260040160006040518083038186803b1580156127fa57600080fd5b505afa15801561280e573d6000803e3d6000fd5b505050506040513d6000823e3d601f19601f820116820180604052508101906128379190614527565b6040518363ffffffff1660e01b8152600401612854929190614ad1565b60206040518083038186803b15801561286c57600080fd5b505afa158015612880573d6000803e3d6000fd5b505050506040513d601f19601f820116820180604052508101906128a491906144fe565b6128e3576040517f08c379a00000000000000000000000000000000000000000000000000000000081526004016128da90614b43565b60405180910390fd5b600260009054906101000a900473ffffffffffffffffffffffffffffffffffffffff1673ffffffffffffffffffffffffffffffffffffffff1663217fe6c6612929613cb4565b600260009054906101000a900473ffffffffffffffffffffffffffffffffffffffff1673ffffffffffffffffffffffffffffffffffffffff16631cee4a9d6040518163ffffffff1660e01b815260040160006040518083038186803b15801561299157600080fd5b505afa1580156129a5573d6000803e3d6000fd5b505050506040513d6000823e3d601f19601f820116820180604052508101906129ce9190614527565b6040518363ffffffff1660e01b81526004016129eb929190614ad1565b60206040518083038186803b158015612a0357600080fd5b505afa158015612a17573d6000803e3d6000fd5b505050506040513d601f19601f82011682018060405250810190612a3b91906144fe565b612a7a576040517f08c379a0000000000000000000000000000000000000000000000000000000008152600401612a7190614b43565b60405180910390fd5b600260009054906101000a900473ffffffffffffffffffffffffffffffffffffffff1673ffffffffffffffffffffffffffffffffffffffff1663217fe6c6612ac0613cb4565b600260009054906101000a900473ffffffffffffffffffffffffffffffffffffffff1673ffffffffffffffffffffffffffffffffffffffff16638c84d39c6040518163ffffffff1660e01b815260040160006040518083038186803b158015612b2857600080fd5b505afa158015612b3c573d6000803e3d6000fd5b505050506040513d6000823e3d601f19601f82011682018060405250810190612b659190614527565b6040518363ffffffff1660e01b8152600401612b82929190614ad1565b60206040518083038186803b158015612b9a57600080fd5b505afa158015612bae573d6000803e3d6000fd5b505050506040513d601f19601f82011682018060405250810190612bd291906144fe565b612c11576040517f08c379a0000000000000000000000000000000000000000000000000000000008152600401612c0890614b43565b60405180910390fd5b600560008373ffffffffffffffffffffffffffffffffffffffff1673ffffffffffffffffffffffffffffffffffffffff16815260200190815260200160002060009054906101000a900460ff16612c9d576040517f08c379a0000000000000000000000000000000000000000000000000000000008152600401612c9490614c03565b60405180910390fd5b600660008373ffffffffffffffffffffffffffffffffffffffff1673ffffffffffffffffffffffffffffffffffffffff1681526020019081526020016000206040518060600160405290816000820160009054906101000a900460ff166002811115612d32577f4e487b7100000000000000000000000000000000000000000000000000000000600052602160045260246000fd5b6002811115612d6a577f4e487b7100000000000000000000000000000000000000000000000000000000600052602160045260246000fd5b8152602001600182018054612d7e90614e9a565b80601f0160208091040260200160405190810160405280929190818152602001828054612daa90614e9a565b8015612df75780601f10612dcc57610100808354040283529160200191612df7565b820191906000526020600020905b815481529060010190602001808311612dda57829003601f168201915b505050505081526020016002820154815250509050919050565b6060600260009054906101000a900473ffffffffffffffffffffffffffffffffffffffff1673ffffffffffffffffffffffffffffffffffffffff1663217fe6c6612e59613cb4565b600260009054906101000a900473ffffffffffffffffffffffffffffffffffffffff1673ffffffffffffffffffffffffffffffffffffffff166339e7c5f56040518163ffffffff1660e01b815260040160006040518083038186803b158015612ec157600080fd5b505afa158015612ed5573d6000803e3d6000fd5b505050506040513d6000823e3d601f19601f82011682018060405250810190612efe9190614527565b6040518363ffffffff1660e01b8152600401612f1b929190614ad1565b60206040518083038186803b158015612f3357600080fd5b505afa158015612f47573d6000803e3d6000fd5b505050506040513d601f19601f82011682018060405250810190612f6b91906144fe565b612faa576040517f08c379a0000000000000000000000000000000000000000000000000000000008152600401612fa190614b43565b60405180910390fd5b600260009054906101000a900473ffffffffffffffffffffffffffffffffffffffff1673ffffffffffffffffffffffffffffffffffffffff1663217fe6c6612ff0613cb4565b600260009054906101000a900473ffffffffffffffffffffffffffffffffffffffff1673ffffffffffffffffffffffffffffffffffffffff16631cee4a9d6040518163ffffffff1660e01b815260040160006040518083038186803b15801561305857600080fd5b505afa15801561306c573d6000803e3d6000fd5b505050506040513d6000823e3d601f19601f820116820180604052508101906130959190614527565b6040518363ffffffff1660e01b81526004016130b2929190614ad1565b60206040518083038186803b1580156130ca57600080fd5b505afa1580156130de573d6000803e3d6000fd5b505050506040513d601f19601f8201168201806040525081019061310291906144fe565b613141576040517f08c379a000000000000000000000000000000000000000000000000000000000815260040161313890614b43565b60405180910390fd5b600260009054906101000a900473ffffffffffffffffffffffffffffffffffffffff1673ffffffffffffffffffffffffffffffffffffffff1663217fe6c6613187613cb4565b600260009054906101000a900473ffffffffffffffffffffffffffffffffffffffff1673ffffffffffffffffffffffffffffffffffffffff16638c84d39c6040518163ffffffff1660e01b815260040160006040518083038186803b1580156131ef57600080fd5b505afa158015613203573d6000803e3d6000fd5b505050506040513d6000823e3d601f19601f8201168201806040525081019061322c9190614527565b6040518363ffffffff1660e01b8152600401613249929190614ad1565b60206040518083038186803b15801561326157600080fd5b505afa158015613275573d6000803e3d6000fd5b505050506040513d601f19601f8201168201806040525081019061329991906144fe565b6132d8576040517f08c379a00000000000000000000000000000000000000000000000000000000081526004016132cf90614b43565b60405180910390fd5b600360008373ffffffffffffffffffffffffffffffffffffffff1673ffffffffffffffffffffffffffffffffffffffff16815260200190815260200160002060009054906101000a900460ff16613364576040517f08c379a000000000000000000000000000000000000000000000000000000000815260040161335b90614c03565b60405180910390fd5b600460008373ffffffffffffffffffffffffffffffffffffffff1673ffffffffffffffffffffffffffffffffffffffff1681526020019081526020016000206004018054806020026020016040519081016040528092919081815260200182805480156133f057602002820191906000526020600020905b8154815260200190600101908083116133dc575b50505050509050919050565b600260009054906101000a900473ffffffffffffffffffffffffffffffffffffffff1673ffffffffffffffffffffffffffffffffffffffff1663217fe6c6613442613cb4565b600260009054906101000a900473ffffffffffffffffffffffffffffffffffffffff1673ffffffffffffffffffffffffffffffffffffffff16638c84d39c6040518163ffffffff1660e01b815260040160006040518083038186803b1580156134aa57600080fd5b505afa1580156134be573d6000803e3d6000fd5b505050506040513d6000823e3d601f19601f820116820180604052508101906134e79190614527565b6040518363ffffffff1660e01b8152600401613504929190614ad1565b60206040518083038186803b15801561351c57600080fd5b505afa158015613530573d6000803e3d6000fd5b505050506040513d601f19601f8201168201806040525081019061355491906144fe565b613593576040517f08c379a000000000000000000000000000000000000000000000000000000000815260040161358a90614b83565b60405180910390fd5b600560008273ffffffffffffffffffffffffffffffffffffffff1673ffffffffffffffffffffffffffffffffffffffff16815260200190815260200160002060009054906101000a900460ff1661361f576040517f08c379a000000000000000000000000000000000000000000000000000000000815260040161361690614c03565b60405180910390fd5b6000600560008373ffffffffffffffffffffffffffffffffffffffff1673ffffffffffffffffffffffffffffffffffffffff16815260200190815260200160002060006101000a81548160ff021916908315150217905550600560008273ffffffffffffffffffffffffffffffffffffffff1673ffffffffffffffffffffffffffffffffffffffff16815260200190815260200160002060006101000a81549060ff021916905550565b6060600260009054906101000a900473ffffffffffffffffffffffffffffffffffffffff1673ffffffffffffffffffffffffffffffffffffffff1663217fe6c6613711613cb4565b600260009054906101000a900473ffffffffffffffffffffffffffffffffffffffff1673ffffffffffffffffffffffffffffffffffffffff166339e7c5f56040518163ffffffff1660e01b815260040160006040518083038186803b15801561377957600080fd5b505afa15801561378d573d6000803e3d6000fd5b505050506040513d6000823e3d601f19601f820116820180604052508101906137b69190614527565b6040518363ffffffff1660e01b81526004016137d3929190614ad1565b60206040518083038186803b1580156137eb57600080fd5b505afa1580156137ff573d6000803e3d6000fd5b505050506040513d601f19601f8201168201806040525081019061382391906144fe565b613862576040517f08c379a000000000000000000000000000000000000000000000000000000000815260040161385990614b43565b60405180910390fd5b600260009054906101000a900473ffffffffffffffffffffffffffffffffffffffff1673ffffffffffffffffffffffffffffffffffffffff1663217fe6c66138a8613cb4565b600260009054906101000a900473ffffffffffffffffffffffffffffffffffffffff1673ffffffffffffffffffffffffffffffffffffffff16631cee4a9d6040518163ffffffff1660e01b815260040160006040518083038186803b15801561391057600080fd5b505afa158015613924573d6000803e3d6000fd5b505050506040513d6000823e3d601f19601f8201168201806040525081019061394d9190614527565b6040518363ffffffff1660e01b815260040161396a929190614ad1565b60206040518083038186803b15801561398257600080fd5b505afa158015613996573d6000803e3d6000fd5b505050506040513d601f19601f820116820180604052508101906139ba91906144fe565b6139f9576040517f08c379a00000000000000000000000000000000000000000000000000000000081526004016139f090614b43565b60405180910390fd5b600260009054906101000a900473ffffffffffffffffffffffffffffffffffffffff1673ffffffffffffffffffffffffffffffffffffffff1663217fe6c6613a3f613cb4565b600260009054906101000a900473ffffffffffffffffffffffffffffffffffffffff1673ffffffffffffffffffffffffffffffffffffffff16638c84d39c6040518163ffffffff1660e01b815260040160006040518083038186803b158015613aa757600080fd5b505afa158015613abb573d6000803e3d6000fd5b505050506040513d6000823e3d601f19601f82011682018060405250810190613ae49190614527565b6040518363ffffffff1660e01b8152600401613b01929190614ad1565b60206040518083038186803b158015613b1957600080fd5b505afa158015613b2d573d6000803e3d6000fd5b505050506040513d601f19601f82011682018060405250810190613b5191906144fe565b613b90576040517f08c379a0000000000000000000000000000000000000000000000000000000008152600401613b8790614b43565b60405180910390fd5b600360008373ffffffffffffffffffffffffffffffffffffffff1673ffffffffffffffffffffffffffffffffffffffff16815260200190815260200160002060009054906101000a900460ff16613c1c576040517f08c379a0000000000000000000000000000000000000000000000000000000008152600401613c1390614c03565b60405180910390fd5b600460008373ffffffffffffffffffffffffffffffffffffffff1673ffffffffffffffffffffffffffffffffffffffff168152602001908152602001600020600301805480602002602001604051908101604052809291908181526020018280548015613ca857602002820191906000526020600020905b815481526020019060010190808311613c94575b50505050509050919050565b600033905090565b6001816000016000828254019250508190555050565b600081600001549050919050565b508054613cec90614e9a565b6000825580601f10613cfe5750613d1d565b601f016020900490600052602060002090810190613d1c9190613f83565b5b50565b5080546000825590600052602060002090810190613d3e9190613f83565b50565b6040518060a0016040528060006002811115613d86577f4e487b7100000000000000000000000000000000000000000000000000000000600052602160045260246000fd5b81526020016060815260200160001515815260200160608152602001606081525090565b828054613db690614e9a565b90600052602060002090601f016020900481019282613dd85760008555613e1f565b82601f10613df157805160ff1916838001178555613e1f565b82800160010185558215613e1f579182015b82811115613e1e578251825591602001919060010190613e03565b5b509050613e2c9190613f83565b5090565b828054828255906000526020600020908101928215613e6c579160200282015b82811115613e6b578251825591602001919060010190613e50565b5b509050613e799190613f83565b5090565b6040518060a00160405280600081526020016000815260200160006001811115613ed0577f4e487b7100000000000000000000000000000000000000000000000000000000600052602160045260246000fd5b8152602001600073ffffffffffffffffffffffffffffffffffffffff168152602001600073ffffffffffffffffffffffffffffffffffffffff1681525090565b604051806040016040528060008152602001600081525090565b604051806060016040528060006002811115613f6f577f4e487b7100000000000000000000000000000000000000000000000000000000600052602160045260246000fd5b815260200160608152602001600081525090565b5b80821115613f9c576000816000905550600101613f84565b5090565b6000613fb3613fae84614cce565b614c9d565b90508083825260208201905082856020860282011115613fd257600080fd5b60005b858110156140025781613fe888826143a0565b845260208401935060208301925050600181019050613fd5565b5050509392505050565b600061401f61401a84614cfa565b614c9d565b90508281526020810184848401111561403757600080fd5b614042848285614e58565b509392505050565b600061405d61405884614cfa565b614c9d565b90508281526020810184848401111561407557600080fd5b614080848285614e67565b509392505050565b60008135905061409781614fa6565b92915050565b600082601f8301126140ae57600080fd5b81356140be848260208601613fa0565b91505092915050565b6000813590506140d681614fbd565b92915050565b6000815190506140eb81614fbd565b92915050565b60008135905061410081614fd4565b92915050565b60008135905061411581614fe4565b92915050565b60008135905061412a81614ff4565b92915050565b600082601f83011261414157600080fd5b813561415184826020860161400c565b91505092915050565b600082601f83011261416b57600080fd5b815161417b84826020860161404a565b91505092915050565b60006060828403121561419657600080fd5b6141a06060614c9d565b905060006141b0848285016140f1565b600083015250602082013567ffffffffffffffff8111156141d057600080fd5b6141dc84828501614130565b60208301525060406141f0848285016143a0565b60408301525092915050565b600060a0828403121561420e57600080fd5b61421860a0614c9d565b90506000614228848285016143a0565b600083015250602061423c848285016143a0565b602083015250604061425084828501614106565b604083015250606061426484828501614088565b606083015250608061427884828501614088565b60808301525092915050565b60006040828403121561429657600080fd5b6142a06040614c9d565b905060006142b0848285016143a0565b60008301525060206142c4848285016143a0565b60208301525092915050565b600060a082840312156142e257600080fd5b6142ec60a0614c9d565b905060006142fc8482850161411b565b600083015250602082013567ffffffffffffffff81111561431c57600080fd5b61432884828501614130565b602083015250604061433c848285016140c7565b604083015250606082013567ffffffffffffffff81111561435c57600080fd5b6143688482850161409d565b606083015250608082013567ffffffffffffffff81111561438857600080fd5b6143948482850161409d565b60808301525092915050565b6000813590506143af81615004565b92915050565b6000602082840312156143c757600080fd5b60006143d584828501614088565b91505092915050565b600080604083850312156143f157600080fd5b60006143ff85828601614088565b925050602083013567ffffffffffffffff81111561441c57600080fd5b61442885828601614184565b9150509250929050565b60008060c0838503121561444557600080fd5b600061445385828601614088565b9250506020614464858286016141fc565b9150509250929050565b6000806060838503121561448157600080fd5b600061448f85828601614088565b92505060206144a085828601614284565b9150509250929050565b600080604083850312156144bd57600080fd5b60006144cb85828601614088565b925050602083013567ffffffffffffffff8111156144e857600080fd5b6144f4858286016142d0565b9150509250929050565b60006020828403121561451057600080fd5b600061451e848285016140dc565b91505092915050565b60006020828403121561453957600080fd5b600082015167ffffffffffffffff81111561455357600080fd5b61455f8482850161415a565b91505092915050565b60006020828403121561457a57600080fd5b6000614588848285016143a0565b91505092915050565b600061459d8383614ac2565b60208301905092915050565b6145b281614da1565b82525050565b6145c181614da1565b82525050565b60006145d282614d3a565b6145dc8185614d5d565b93506145e783614d2a565b8060005b838110156146185781516145ff8882614591565b975061460a83614d50565b9250506001810190506145eb565b5085935050505092915050565b600061463082614d3a565b61463a8185614d6e565b935061464583614d2a565b8060005b8381101561467657815161465d8882614591565b975061466883614d50565b925050600181019050614649565b5085935050505092915050565b61468c81614db3565b82525050565b61469b81614e22565b82525050565b6146aa81614e34565b82525050565b6146b981614e46565b82525050565b60006146ca82614d45565b6146d48185614d7f565b93506146e4818560208601614e67565b6146ed81614f59565b840191505092915050565b600061470382614d45565b61470d8185614d90565b935061471d818560208601614e67565b61472681614f59565b840191505092915050565b600061473e601683614d90565b91507f436f6e74726f6c20646f6573206e6f74206578697374000000000000000000006000830152602082019050919050565b600061477e601283614d90565b91507f4e6f74206120636861696e206d656d62657200000000000000000000000000006000830152602082019050919050565b60006147be601a83614d90565b91507f5472616e73616374696f6e20646f6573206e6f742065786973740000000000006000830152602082019050919050565b60006147fe602e83614d90565b91507f4f6e6c7920737570706c7920636861696e2061646d696e2063616e2063616c6c60008301527f20746869732066756e6374696f6e0000000000000000000000000000000000006020830152604082019050919050565b6000614864601583614d90565b91507f456e7469747920616c72656164792065786973747300000000000000000000006000830152602082019050919050565b60006148a4601783614d90565b91507f456e7469747920616c7265616479206578697374696e670000000000000000006000830152602082019050919050565b60006148e4601583614d90565b91507f456e7469747920646f6573206e6f7420657869747300000000000000000000006000830152602082019050919050565b6000614924601583614d90565b91507f456e7469747920646f6573206e6f7420657869737400000000000000000000006000830152602082019050919050565b600060608301600083015161496f6000860182614692565b506020830151848203602086015261498782826146bf565b915050604083015161499c6040860182614ac2565b508091505092915050565b60a0820160008201516149bd6000850182614ac2565b5060208201516149d06020850182614ac2565b5060408201516149e360408501826146a1565b5060608201516149f660608501826145a9565b506080820151614a0960808501826145a9565b50505050565b604082016000820151614a256000850182614ac2565b506020820151614a386020850182614ac2565b50505050565b600060a083016000830151614a5660008601826146b0565b5060208301518482036020860152614a6e82826146bf565b9150506040830151614a836040860182614683565b5060608301518482036060860152614a9b82826145c7565b91505060808301518482036080860152614ab582826145c7565b9150508091505092915050565b614acb81614e18565b82525050565b6000604082019050614ae660008301856145b8565b8181036020830152614af881846146f8565b90509392505050565b60006020820190508181036000830152614b1b8184614625565b905092915050565b60006020820190508181036000830152614b3c81614731565b9050919050565b60006020820190508181036000830152614b5c81614771565b9050919050565b60006020820190508181036000830152614b7c816147b1565b9050919050565b60006020820190508181036000830152614b9c816147f1565b9050919050565b60006020820190508181036000830152614bbc81614857565b9050919050565b60006020820190508181036000830152614bdc81614897565b9050919050565b60006020820190508181036000830152614bfc816148d7565b9050919050565b60006020820190508181036000830152614c1c81614917565b9050919050565b60006020820190508181036000830152614c3d8184614957565b905092915050565b600060a082019050614c5a60008301846149a7565b92915050565b6000604082019050614c756000830184614a0f565b92915050565b60006020820190508181036000830152614c958184614a3e565b905092915050565b6000604051905081810181811067ffffffffffffffff82111715614cc457614cc3614f2a565b5b8060405250919050565b600067ffffffffffffffff821115614ce957614ce8614f2a565b5b602082029050602081019050919050565b600067ffffffffffffffff821115614d1557614d14614f2a565b5b601f19601f8301169050602081019050919050565b6000819050602082019050919050565b600081519050919050565b600081519050919050565b6000602082019050919050565b600082825260208201905092915050565b600082825260208201905092915050565b600082825260208201905092915050565b600082825260208201905092915050565b6000614dac82614df8565b9050919050565b60008115159050919050565b6000819050614dcd82614f6a565b919050565b6000819050614de082614f7e565b919050565b6000819050614df382614f92565b919050565b600073ffffffffffffffffffffffffffffffffffffffff82169050919050565b6000819050919050565b6000614e2d82614dbf565b9050919050565b6000614e3f82614dd2565b9050919050565b6000614e5182614de5565b9050919050565b82818337600083830152505050565b60005b83811015614e85578082015181840152602081019050614e6a565b83811115614e94576000848401525b50505050565b60006002820490506001821680614eb257607f821691505b60208210811415614ec657614ec5614efb565b5b50919050565b7f4e487b7100000000000000000000000000000000000000000000000000000000600052602160045260246000fd5b7f4e487b7100000000000000000000000000000000000000000000000000000000600052602260045260246000fd5b7f4e487b7100000000000000000000000000000000000000000000000000000000600052604160045260246000fd5b6000601f19601f8301169050919050565b60038110614f7b57614f7a614ecc565b5b50565b60028110614f8f57614f8e614ecc565b5b50565b60038110614fa357614fa2614ecc565b5b50565b614faf81614da1565b8114614fba57600080fd5b50565b614fc681614db3565b8114614fd157600080fd5b50565b60038110614fe157600080fd5b50565b60028110614ff157600080fd5b50565b6003811061500157600080fd5b50565b61500d81614e18565b811461501857600080fd5b5056fea264697066735822122018c3cd4b62af893a60d182a9da2808044791fa1a1b6c2f6ae34d9aeae53521d664736f6c63430008000033",
  "immutableReferences": {},
  "source": "// SPDX-License-Identifier: MIT\npragma solidity >=0.4.22 <0.9.0;\n\nimport \"./Structs.sol\";\nimport \"./RBAC.sol\";\nimport \"openzeppelin-solidity/contracts/utils/Context.sol\";\nimport \"openzeppelin-solidity/contracts/utils/Counters.sol\";\n\n/**\n * Contract that works as registry for all details regarding the supply chain\n */\ncontract LKGRegistry is Context {\n    using Counters for Counters.Counter;\n    Counters.Counter private controlCounter;\n    Counters.Counter private nonGseCounter;\n    RBAC private rbac;\n    mapping(address => bool) private entitiesIndex;\n    mapping(address => Structs.SupplyChainEntity) private supplyChainEntities;\n    mapping(address => bool) private controlEntitiesIndex;\n    mapping(address => Structs.ControlEntity) private controlEntities;\n    mapping(uint256 => Structs.GSEControl) controls;\n    mapping(uint256 => Structs.NonGSETransaction) transactions;\n    mapping(uint256 => bool) controlIndex;\n    mapping(uint256 => bool) nonGseIndex;\n\n    constructor(address _rbac) public {\n        rbac = RBAC(_rbac);\n    }\n\n    /**\n     * @notice Checks that caller has the role of a supply chain  admin\n     */\n    modifier onlyChainAdmin() {\n        require(\n            rbac.hasRole(_msgSender(), rbac.SUPPLY_CHAIN_ADMIN_ROLE()),\n            \"Only supply chain admin can call this function\"\n        );\n        _;\n    }\n\n    /**\n     *@notice Check that the caller is part of the supply chain\n     */\n    modifier onlyChainMember() {\n        require(\n            rbac.hasRole(_msgSender(), rbac.SUPPLY_CHAIN_CONTROL_ENTITY_ROLE()),\n            \"Not a chain member\"\n        );\n        require(\n            rbac.hasRole(_msgSender(), rbac.SUPPLY_CHAIN_ENTITY_ROLE()),\n            \"Not a chain member\"\n        );\n        require(\n            rbac.hasRole(_msgSender(), rbac.SUPPLY_CHAIN_ADMIN_ROLE()),\n            \"Not a chain member\"\n        );\n        _;\n    }\n\n    /**\n     * @notice Add a supply chain entity to the registry\n     * @param _address Address of the account belonging to the entity\n     * @param _entity The entity to be added\n     */\n    function addSupplyChainEntity(\n        address _address,\n        Structs.SupplyChainEntity memory _entity\n    ) public onlyChainAdmin {\n        require(!entitiesIndex[_address], \"Entity already existing\");\n\n        entitiesIndex[_address] = true;\n        supplyChainEntities[_address] = _entity;\n    }\n\n    /**\n     * @notice Get the supply chain entity belonging to the address\n     * @param _entity Address of the entity\n     * @return Supply chain entity\n     */\n    function getSupplyChainEntity(address _entity)\n        public\n        view\n        onlyChainMember\n        returns (Structs.SupplyChainEntity memory)\n    {\n        require(entitiesIndex[_entity], \"Entity does not exist\");\n        return supplyChainEntities[_entity];\n    }\n\n    /**\n     * @notice Remove a supply chain entity from the registry\n     * @param _entity Address of the entity\n     */\n    function removeSupplyChainEntity(address _entity) public onlyChainAdmin {\n        require(entitiesIndex[_entity], \"Entity does not exist\");\n        entitiesIndex[_entity] = false;\n        delete (supplyChainEntities[_entity]);\n    }\n\n    /**\n     * @notice Add control entity to registry\n     * @param _address of the entity\n     *@param _entity to add\n     */\n    function addControlEntity(\n        address _address,\n        Structs.ControlEntity memory _entity\n    ) public onlyChainAdmin {\n        require(!controlEntitiesIndex[_address], \"Entity already exists\");\n        controlEntitiesIndex[_address] = true;\n        controlEntities[_address] = _entity;\n    }\n\n    /**\n     * @notice Get the control entity from the registry\n     * @param _entity The address of the entity\n     * @return Control entity\n     */\n    function getControlentity(address _entity)\n        public\n        view\n        onlyChainMember\n        returns (Structs.ControlEntity memory)\n    {\n        require(controlEntitiesIndex[_entity], \"Entity does not exist\");\n        return controlEntities[_entity];\n    }\n\n    /**\n     * @notice Remove a control entity from the registry\n     * @param _entity The address of the entity to be removed\n     */\n    function removeControlEntity(address _entity) public onlyChainAdmin {\n        require(controlEntitiesIndex[_entity], \"Entity does not exist\");\n        controlEntitiesIndex[_entity] = false;\n        delete (controlEntitiesIndex[_entity]);\n    }\n\n    /**\n     * @notice Add control to supply chain entity\n     * @param _entity The supply chain entity to add the control to\n     * @param _control The control to add\n     */\n    function addControl(address _entity, Structs.GSEControl memory _control)\n        public\n        onlyChainAdmin\n    {\n        require(entitiesIndex[_entity], \"Entity does not exist\");\n\n        controlCounter.increment();\n        controlIndex[controlCounter.current()] = true;\n        controls[controlCounter.current()] = _control;\n        supplyChainEntities[_entity].controls[\n            controlCounter.current()\n        ] = controlCounter.current();\n    }\n\n    /**\n     * @notice Get a control that was made\n     * @param _controlId id of the control\n     * * @return control with the given id\n     */\n    function getControl(uint256 _controlId)\n        public\n        view\n        onlyChainMember\n        returns (Structs.GSEControl memory)\n    {\n        require(controlIndex[_controlId], \"Control does not exist\");\n        return controls[_controlId];\n    }\n\n    /**\n     * @notice Get a list of control ids that were made for a supply chain entity\n     * @param _entity The entity to get the control ids for\n     *@return Array of control ids\n     */\n    function getControls(address _entity)\n        public\n        view\n        onlyChainMember\n        returns (uint256[] memory)\n    {\n        require(entitiesIndex[_entity], \"Entity does not exist\");\n        return supplyChainEntities[_entity].controls;\n    }\n\n    /**\n     * @notice Add nonGSETransaction to supply chain entity\n     * @param _entity The supply chain entity to add the transaction to\n     * @param _transaction The transaction to add\n     */\n    function addNonGSETransaction(\n        address _entity,\n        Structs.NonGSETransaction memory _transaction\n    ) public onlyChainAdmin {\n        require(entitiesIndex[_entity], \"Entity does not exits\");\n\n        nonGseCounter.increment();\n        nonGseIndex[nonGseCounter.current()] = true;\n        transactions[nonGseCounter.current()] = _transaction;\n        supplyChainEntities[_entity].transactions[\n            nonGseCounter.current()\n        ] = nonGseCounter.current();\n    }\n\n    /**\n     * @notice Get a non gse transaction that was made\n     * @param _transactionIndex id of the transaction\n     * * @return transaction with the given id\n     */\n    function getNonGSETransaction(uint256 _transactionIndex)\n        public\n        view\n        onlyChainMember\n        returns (Structs.NonGSETransaction memory)\n    {\n        require(nonGseIndex[_transactionIndex], \"Transaction does not exist\");\n        return transactions[_transactionIndex];\n    }\n\n    /**\n     * @notice Get a list of transaction ids that were recorded for a supply chain entity\n     * @param _entity The entity to get the transaction ids for\n     * @return Array of transaction ids\n     */\n    function getNonGSETransactions(address _entity)\n        public\n        view\n        onlyChainMember\n        returns (uint256[] memory)\n    {\n        require(entitiesIndex[_entity], \"Entity does not exist\");\n        return supplyChainEntities[_entity].transactions;\n    }\n}\n",
  "sourcePath": "/Users/jabbathegut/repositories/ba_sources/textile-supply-chain/contracts/LKGRegistry.sol",
  "compiler": {
    "name": "solc",
    "version": "0.8.0+commit.c7dfd78e.Emscripten.clang"
  },
  "schemaVersion": "3.3.4",
  "updatedAt": "2021-05-06T19:12:06.276Z",
  "devdoc": {
    "kind": "dev",
    "methods": {
      "addControl(address,(uint256,uint256,uint8,address,address))": {
        "params": {
          "_control": "The control to add",
          "_entity": "The supply chain entity to add the control to"
        }
      },
      "addControlEntity(address,(uint8,string,uint256))": {
        "params": {
          "_address": "of the entity",
          "_entity": "to add"
        }
      },
      "addNonGSETransaction(address,(uint256,uint256))": {
        "params": {
          "_entity": "The supply chain entity to add the transaction to",
          "_transaction": "The transaction to add"
        }
      },
      "addSupplyChainEntity(address,(uint8,string,bool,uint256[],uint256[]))": {
        "params": {
          "_address": "Address of the account belonging to the entity",
          "_entity": "The entity to be added"
        }
      },
      "getControl(uint256)": {
        "params": {
          "_controlId": "id of the control"
        },
        "returns": {
          "_0": "control with the given id"
        }
      },
      "getControlentity(address)": {
        "params": {
          "_entity": "The address of the entity"
        },
        "returns": {
          "_0": "Control entity"
        }
      },
      "getControls(address)": {
        "params": {
          "_entity": "The entity to get the control ids for"
        },
        "returns": {
          "_0": "Array of control ids"
        }
      },
      "getNonGSETransaction(uint256)": {
        "params": {
          "_transactionIndex": "id of the transaction"
        },
        "returns": {
          "_0": "transaction with the given id"
        }
      },
      "getNonGSETransactions(address)": {
        "params": {
          "_entity": "The entity to get the transaction ids for"
        },
        "returns": {
          "_0": "Array of transaction ids"
        }
      },
      "getSupplyChainEntity(address)": {
        "params": {
          "_entity": "Address of the entity"
        },
        "returns": {
          "_0": "Supply chain entity"
        }
      },
      "removeControlEntity(address)": {
        "params": {
          "_entity": "The address of the entity to be removed"
        }
      },
      "removeSupplyChainEntity(address)": {
        "params": {
          "_entity": "Address of the entity"
        }
      }
    },
    "version": 1
  },
  "userdoc": {
    "kind": "user",
    "methods": {
      "addControl(address,(uint256,uint256,uint8,address,address))": {
        "notice": "Add control to supply chain entity"
      },
      "addControlEntity(address,(uint8,string,uint256))": {
        "notice": "Add control entity to registry"
      },
      "addNonGSETransaction(address,(uint256,uint256))": {
        "notice": "Add nonGSETransaction to supply chain entity"
      },
      "addSupplyChainEntity(address,(uint8,string,bool,uint256[],uint256[]))": {
        "notice": "Add a supply chain entity to the registry"
      },
      "getControl(uint256)": {
        "notice": "Get a control that was made"
      },
      "getControlentity(address)": {
        "notice": "Get the control entity from the registry"
      },
      "getControls(address)": {
        "notice": "Get a list of control ids that were made for a supply chain entity"
      },
      "getNonGSETransaction(uint256)": {
        "notice": "Get a non gse transaction that was made"
      },
      "getNonGSETransactions(address)": {
        "notice": "Get a list of transaction ids that were recorded for a supply chain entity"
      },
      "getSupplyChainEntity(address)": {
        "notice": "Get the supply chain entity belonging to the address"
      },
      "removeControlEntity(address)": {
        "notice": "Remove a control entity from the registry"
      },
      "removeSupplyChainEntity(address)": {
        "notice": "Remove a supply chain entity from the registry"
      }
    },
    "notice": "Contract that works as registry for all details regarding the supply chain",
    "version": 1
  }
}