{
  "contractName": "LKGRegistry",
  "abi": [
    {
      "inputs": [
        {
          "internalType": "address",
          "name": "_rbac",
          "type": "address"
        }
      ],
      "stateMutability": "nonpayable",
      "type": "constructor"
    },
    {
      "inputs": [
        {
          "internalType": "address",
          "name": "_address",
          "type": "address"
        },
        {
          "components": [
            {
              "internalType": "enum Enums.SupplyChainRole",
              "name": "role",
              "type": "uint8"
            },
            {
              "internalType": "string",
              "name": "tier",
              "type": "string"
            },
            {
              "internalType": "bool",
              "name": "gseStatus",
              "type": "bool"
            },
            {
              "internalType": "uint256[]",
              "name": "controls",
              "type": "uint256[]"
            },
            {
              "internalType": "uint256[]",
              "name": "transactions",
              "type": "uint256[]"
            }
          ],
          "internalType": "struct Structs.SupplyChainEntity",
          "name": "_entity",
          "type": "tuple"
        }
      ],
      "name": "addSupplyChainEntity",
      "outputs": [],
      "stateMutability": "nonpayable",
      "type": "function"
    },
    {
      "inputs": [
        {
          "internalType": "address",
          "name": "_entity",
          "type": "address"
        }
      ],
      "name": "getSupplyChainEntity",
      "outputs": [
        {
          "components": [
            {
              "internalType": "enum Enums.SupplyChainRole",
              "name": "role",
              "type": "uint8"
            },
            {
              "internalType": "string",
              "name": "tier",
              "type": "string"
            },
            {
              "internalType": "bool",
              "name": "gseStatus",
              "type": "bool"
            },
            {
              "internalType": "uint256[]",
              "name": "controls",
              "type": "uint256[]"
            },
            {
              "internalType": "uint256[]",
              "name": "transactions",
              "type": "uint256[]"
            }
          ],
          "internalType": "struct Structs.SupplyChainEntity",
          "name": "",
          "type": "tuple"
        }
      ],
      "stateMutability": "view",
      "type": "function",
      "constant": true
    },
    {
      "inputs": [
        {
          "internalType": "address",
          "name": "_entity",
          "type": "address"
        }
      ],
      "name": "removeSupplyChainEntity",
      "outputs": [],
      "stateMutability": "nonpayable",
      "type": "function"
    },
    {
      "inputs": [
        {
          "internalType": "address",
          "name": "_address",
          "type": "address"
        },
        {
          "components": [
            {
              "internalType": "enum Enums.ControlRole",
              "name": "role",
              "type": "uint8"
            },
            {
              "internalType": "string",
              "name": "description",
              "type": "string"
            },
            {
              "internalType": "bool",
              "name": "gseStatus",
              "type": "bool"
            },
            {
              "internalType": "uint256",
              "name": "numberOfControls",
              "type": "uint256"
            }
          ],
          "internalType": "struct Structs.ControlEntity",
          "name": "_entity",
          "type": "tuple"
        }
      ],
      "name": "addControlEntity",
      "outputs": [],
      "stateMutability": "nonpayable",
      "type": "function"
    },
    {
      "inputs": [
        {
          "internalType": "address",
          "name": "_entity",
          "type": "address"
        }
      ],
      "name": "getControlentity",
      "outputs": [
        {
          "components": [
            {
              "internalType": "enum Enums.ControlRole",
              "name": "role",
              "type": "uint8"
            },
            {
              "internalType": "string",
              "name": "description",
              "type": "string"
            },
            {
              "internalType": "bool",
              "name": "gseStatus",
              "type": "bool"
            },
            {
              "internalType": "uint256",
              "name": "numberOfControls",
              "type": "uint256"
            }
          ],
          "internalType": "struct Structs.ControlEntity",
          "name": "",
          "type": "tuple"
        }
      ],
      "stateMutability": "view",
      "type": "function",
      "constant": true
    },
    {
      "inputs": [
        {
          "internalType": "address",
          "name": "_entity",
          "type": "address"
        }
      ],
      "name": "removeControlEntity",
      "outputs": [],
      "stateMutability": "nonpayable",
      "type": "function"
    },
    {
      "inputs": [
        {
          "internalType": "address",
          "name": "_entity",
          "type": "address"
        },
        {
          "components": [
            {
              "internalType": "uint256",
              "name": "controlId",
              "type": "uint256"
            },
            {
              "internalType": "uint256",
              "name": "timeOfControl",
              "type": "uint256"
            },
            {
              "internalType": "enum Enums.ControlStatus",
              "name": "status",
              "type": "uint8"
            },
            {
              "internalType": "address",
              "name": "controlled",
              "type": "address"
            },
            {
              "internalType": "address",
              "name": "controller",
              "type": "address"
            }
          ],
          "internalType": "struct Structs.GSEControl",
          "name": "_control",
          "type": "tuple"
        }
      ],
      "name": "addControl",
      "outputs": [],
      "stateMutability": "nonpayable",
      "type": "function"
    },
    {
      "inputs": [
        {
          "internalType": "uint256",
          "name": "_controlId",
          "type": "uint256"
        }
      ],
      "name": "getControl",
      "outputs": [
        {
          "components": [
            {
              "internalType": "uint256",
              "name": "controlId",
              "type": "uint256"
            },
            {
              "internalType": "uint256",
              "name": "timeOfControl",
              "type": "uint256"
            },
            {
              "internalType": "enum Enums.ControlStatus",
              "name": "status",
              "type": "uint8"
            },
            {
              "internalType": "address",
              "name": "controlled",
              "type": "address"
            },
            {
              "internalType": "address",
              "name": "controller",
              "type": "address"
            }
          ],
          "internalType": "struct Structs.GSEControl",
          "name": "",
          "type": "tuple"
        }
      ],
      "stateMutability": "view",
      "type": "function",
      "constant": true
    },
    {
      "inputs": [
        {
          "internalType": "address",
          "name": "_entity",
          "type": "address"
        }
      ],
      "name": "getControls",
      "outputs": [
        {
          "internalType": "uint256[]",
          "name": "",
          "type": "uint256[]"
        }
      ],
      "stateMutability": "view",
      "type": "function",
      "constant": true
    },
    {
      "inputs": [
        {
          "internalType": "address",
          "name": "_entity",
          "type": "address"
        },
        {
          "components": [
            {
              "internalType": "uint256",
              "name": "time",
              "type": "uint256"
            },
            {
              "internalType": "uint256",
              "name": "tokenId",
              "type": "uint256"
            }
          ],
          "internalType": "struct Structs.NonGSETransaction",
          "name": "_transaction",
          "type": "tuple"
        }
      ],
      "name": "addNonGSETransaction",
      "outputs": [],
      "stateMutability": "nonpayable",
      "type": "function"
    },
    {
      "inputs": [
        {
          "internalType": "uint256",
          "name": "_transactionIndex",
          "type": "uint256"
        }
      ],
      "name": "getNonGSETransaction",
      "outputs": [
        {
          "components": [
            {
              "internalType": "uint256",
              "name": "time",
              "type": "uint256"
            },
            {
              "internalType": "uint256",
              "name": "tokenId",
              "type": "uint256"
            }
          ],
          "internalType": "struct Structs.NonGSETransaction",
          "name": "",
          "type": "tuple"
        }
      ],
      "stateMutability": "view",
      "type": "function",
      "constant": true
    },
    {
      "inputs": [
        {
          "internalType": "address",
          "name": "_entity",
          "type": "address"
        }
      ],
      "name": "getNonGSETransactions",
      "outputs": [
        {
          "internalType": "uint256[]",
          "name": "",
          "type": "uint256[]"
        }
      ],
      "stateMutability": "view",
      "type": "function",
      "constant": true
    },
    {
      "inputs": [],
      "name": "acknowledgeGSE",
      "outputs": [],
      "stateMutability": "nonpayable",
      "type": "function"
    }
  ],
  "bytecode": "0x60806040523480156200001157600080fd5b5060405162005ca238038062005ca2833981810160405281019062000037919062000096565b80600160006101000a81548173ffffffffffffffffffffffffffffffffffffffff021916908373ffffffffffffffffffffffffffffffffffffffff1602179055505062000110565b6000815190506200009081620000f6565b92915050565b600060208284031215620000a957600080fd5b6000620000b9848285016200007f565b91505092915050565b6000620000cf82620000d6565b9050919050565b600073ffffffffffffffffffffffffffffffffffffffff82169050919050565b6200010181620000c2565b81146200010d57600080fd5b50565b615b8280620001206000396000f3fe608060405234801561001057600080fd5b50600436106100cf5760003560e01c806355b1910a1161008c57806382165daa1161006657806382165daa1461020e578063d1b7f2be1461023e578063e15f0b481461025a578063e5be323214610276576100cf565b806355b1910a1461019257806366823b2a146101ae5780637c18e975146101de576100cf565b806319833b2d146100d4578063274b311b146100de57806333424a35146100fa5780633f7129c81461012a5780634240a6f0146101465780634504e70314610176575b600080fd5b6100dc6102a6565b005b6100f860048036038101906100f39190614d68565b610b6b565b005b610114600480360381019061010f9190614d68565b610e83565b6040516101219190615727565b60405180910390f35b610144600480360381019061013f9190614e5d565b6115a1565b005b610160600480360381019061015b9190614f1b565b611ac1565b60405161016d91906156f1565b60405180910390f35b610190600480360381019061018b9190614de5565b6120ea565b005b6101ac60048036038101906101a79190614e21565b61251d565b005b6101c860048036038101906101c39190614f1b565b612829565b6040516101d5919061570c565b60405180910390f35b6101f860048036038101906101f39190614d68565b612d1f565b60405161020591906156cf565b60405180910390f35b61022860048036038101906102239190614d68565b613397565b604051610235919061556d565b60405180910390f35b61025860048036038101906102539190614d68565b613912565b005b610274600480360381019061026f9190614d91565b613bdf565b005b610290600480360381019061028b9190614d68565b6140cf565b60405161029d919061556d565b60405180910390f35b600160009054906101000a900473ffffffffffffffffffffffffffffffffffffffff1673ffffffffffffffffffffffffffffffffffffffff1663217fe6c66102ec61464a565b600160009054906101000a900473ffffffffffffffffffffffffffffffffffffffff1673ffffffffffffffffffffffffffffffffffffffff166339e7c5f56040518163ffffffff1660e01b815260040160006040518083038186803b15801561035457600080fd5b505afa158015610368573d6000803e3d6000fd5b505050506040513d6000823e3d601f19601f820116820180604052508101906103919190614eda565b6040518363ffffffff1660e01b81526004016103ae92919061553d565b60206040518083038186803b1580156103c657600080fd5b505afa1580156103da573d6000803e3d6000fd5b505050506040513d601f19601f820116820180604052508101906103fe9190614eb1565b8061055d5750600160009054906101000a900473ffffffffffffffffffffffffffffffffffffffff1673ffffffffffffffffffffffffffffffffffffffff1663217fe6c661044a61464a565b600160009054906101000a900473ffffffffffffffffffffffffffffffffffffffff1673ffffffffffffffffffffffffffffffffffffffff16631cee4a9d6040518163ffffffff1660e01b815260040160006040518083038186803b1580156104b257600080fd5b505afa1580156104c6573d6000803e3d6000fd5b505050506040513d6000823e3d601f19601f820116820180604052508101906104ef9190614eda565b6040518363ffffffff1660e01b815260040161050c92919061553d565b60206040518083038186803b15801561052457600080fd5b505afa158015610538573d6000803e3d6000fd5b505050506040513d601f19601f8201168201806040525081019061055c9190614eb1565b5b806106bc5750600160009054906101000a900473ffffffffffffffffffffffffffffffffffffffff1673ffffffffffffffffffffffffffffffffffffffff1663217fe6c66105a961464a565b600160009054906101000a900473ffffffffffffffffffffffffffffffffffffffff1673ffffffffffffffffffffffffffffffffffffffff16638c84d39c6040518163ffffffff1660e01b815260040160006040518083038186803b15801561061157600080fd5b505afa158015610625573d6000803e3d6000fd5b505050506040513d6000823e3d601f19601f8201168201806040525081019061064e9190614eda565b6040518363ffffffff1660e01b815260040161066b92919061553d565b60206040518083038186803b15801561068357600080fd5b505afa158015610697573d6000803e3d6000fd5b505050506040513d601f19601f820116820180604052508101906106bb9190614eb1565b5b6106fb576040517f08c379a00000000000000000000000000000000000000000000000000000000081526004016106f2906155cf565b60405180910390fd5b6002600061070761464a565b73ffffffffffffffffffffffffffffffffffffffff1673ffffffffffffffffffffffffffffffffffffffff16815260200190815260200160002060009054906101000a900460ff16806107aa57506004600061076161464a565b73ffffffffffffffffffffffffffffffffffffffff1673ffffffffffffffffffffffffffffffffffffffff16815260200190815260200160002060009054906101000a900460ff165b6107e9576040517f08c379a00000000000000000000000000000000000000000000000000000000081526004016107e0906156af565b60405180910390fd5b600160009054906101000a900473ffffffffffffffffffffffffffffffffffffffff1673ffffffffffffffffffffffffffffffffffffffff1663217fe6c661082f61464a565b600160009054906101000a900473ffffffffffffffffffffffffffffffffffffffff1673ffffffffffffffffffffffffffffffffffffffff166339e7c5f56040518163ffffffff1660e01b815260040160006040518083038186803b15801561089757600080fd5b505afa1580156108ab573d6000803e3d6000fd5b505050506040513d6000823e3d601f19601f820116820180604052508101906108d49190614eda565b6040518363ffffffff1660e01b81526004016108f192919061553d565b60206040518083038186803b15801561090957600080fd5b505afa15801561091d573d6000803e3d6000fd5b505050506040513d601f19601f820116820180604052508101906109419190614eb1565b156109a95760016005600061095461464a565b73ffffffffffffffffffffffffffffffffffffffff1673ffffffffffffffffffffffffffffffffffffffff16815260200190815260200160002060020160006101000a81548160ff0219169083151502179055505b600160009054906101000a900473ffffffffffffffffffffffffffffffffffffffff1673ffffffffffffffffffffffffffffffffffffffff1663217fe6c66109ef61464a565b600160009054906101000a900473ffffffffffffffffffffffffffffffffffffffff1673ffffffffffffffffffffffffffffffffffffffff16631cee4a9d6040518163ffffffff1660e01b815260040160006040518083038186803b158015610a5757600080fd5b505afa158015610a6b573d6000803e3d6000fd5b505050506040513d6000823e3d601f19601f82011682018060405250810190610a949190614eda565b6040518363ffffffff1660e01b8152600401610ab192919061553d565b60206040518083038186803b158015610ac957600080fd5b505afa158015610add573d6000803e3d6000fd5b505050506040513d601f19601f82011682018060405250810190610b019190614eb1565b15610b6957600160036000610b1461464a565b73ffffffffffffffffffffffffffffffffffffffff1673ffffffffffffffffffffffffffffffffffffffff16815260200190815260200160002060020160006101000a81548160ff0219169083151502179055505b565b600160009054906101000a900473ffffffffffffffffffffffffffffffffffffffff1673ffffffffffffffffffffffffffffffffffffffff1663217fe6c6610bb161464a565b600160009054906101000a900473ffffffffffffffffffffffffffffffffffffffff1673ffffffffffffffffffffffffffffffffffffffff16638c84d39c6040518163ffffffff1660e01b815260040160006040518083038186803b158015610c1957600080fd5b505afa158015610c2d573d6000803e3d6000fd5b505050506040513d6000823e3d601f19601f82011682018060405250810190610c569190614eda565b6040518363ffffffff1660e01b8152600401610c7392919061553d565b60206040518083038186803b158015610c8b57600080fd5b505afa158015610c9f573d6000803e3d6000fd5b505050506040513d601f19601f82011682018060405250810190610cc39190614eb1565b610d02576040517f08c379a0000000000000000000000000000000000000000000000000000000008152600401610cf99061560f565b60405180910390fd5b600260008273ffffffffffffffffffffffffffffffffffffffff1673ffffffffffffffffffffffffffffffffffffffff16815260200190815260200160002060009054906101000a900460ff16610d8e576040517f08c379a0000000000000000000000000000000000000000000000000000000008152600401610d85906156af565b60405180910390fd5b6000600260008373ffffffffffffffffffffffffffffffffffffffff1673ffffffffffffffffffffffffffffffffffffffff16815260200190815260200160002060006101000a81548160ff021916908315150217905550600360008273ffffffffffffffffffffffffffffffffffffffff1673ffffffffffffffffffffffffffffffffffffffff168152602001908152602001600020600080820160006101000a81549060ff0219169055600182016000610e4a9190614676565b6002820160006101000a81549060ff0219169055600382016000610e6e91906146b6565b600482016000610e7e91906146b6565b505050565b610e8b6146d7565b600160009054906101000a900473ffffffffffffffffffffffffffffffffffffffff1673ffffffffffffffffffffffffffffffffffffffff1663217fe6c6610ed161464a565b600160009054906101000a900473ffffffffffffffffffffffffffffffffffffffff1673ffffffffffffffffffffffffffffffffffffffff166339e7c5f56040518163ffffffff1660e01b815260040160006040518083038186803b158015610f3957600080fd5b505afa158015610f4d573d6000803e3d6000fd5b505050506040513d6000823e3d601f19601f82011682018060405250810190610f769190614eda565b6040518363ffffffff1660e01b8152600401610f9392919061553d565b60206040518083038186803b158015610fab57600080fd5b505afa158015610fbf573d6000803e3d6000fd5b505050506040513d601f19601f82011682018060405250810190610fe39190614eb1565b806111425750600160009054906101000a900473ffffffffffffffffffffffffffffffffffffffff1673ffffffffffffffffffffffffffffffffffffffff1663217fe6c661102f61464a565b600160009054906101000a900473ffffffffffffffffffffffffffffffffffffffff1673ffffffffffffffffffffffffffffffffffffffff16631cee4a9d6040518163ffffffff1660e01b815260040160006040518083038186803b15801561109757600080fd5b505afa1580156110ab573d6000803e3d6000fd5b505050506040513d6000823e3d601f19601f820116820180604052508101906110d49190614eda565b6040518363ffffffff1660e01b81526004016110f192919061553d565b60206040518083038186803b15801561110957600080fd5b505afa15801561111d573d6000803e3d6000fd5b505050506040513d601f19601f820116820180604052508101906111419190614eb1565b5b806112a15750600160009054906101000a900473ffffffffffffffffffffffffffffffffffffffff1673ffffffffffffffffffffffffffffffffffffffff1663217fe6c661118e61464a565b600160009054906101000a900473ffffffffffffffffffffffffffffffffffffffff1673ffffffffffffffffffffffffffffffffffffffff16638c84d39c6040518163ffffffff1660e01b815260040160006040518083038186803b1580156111f657600080fd5b505afa15801561120a573d6000803e3d6000fd5b505050506040513d6000823e3d601f19601f820116820180604052508101906112339190614eda565b6040518363ffffffff1660e01b815260040161125092919061553d565b60206040518083038186803b15801561126857600080fd5b505afa15801561127c573d6000803e3d6000fd5b505050506040513d601f19601f820116820180604052508101906112a09190614eb1565b5b6112e0576040517f08c379a00000000000000000000000000000000000000000000000000000000081526004016112d7906155cf565b60405180910390fd5b600260008373ffffffffffffffffffffffffffffffffffffffff1673ffffffffffffffffffffffffffffffffffffffff16815260200190815260200160002060009054906101000a900460ff1661136c576040517f08c379a0000000000000000000000000000000000000000000000000000000008152600401611363906156af565b60405180910390fd5b600360008373ffffffffffffffffffffffffffffffffffffffff1673ffffffffffffffffffffffffffffffffffffffff1681526020019081526020016000206040518060a00160405290816000820160009054906101000a900460ff166002811115611401577f4e487b7100000000000000000000000000000000000000000000000000000000600052602160045260246000fd5b6002811115611439577f4e487b7100000000000000000000000000000000000000000000000000000000600052602160045260246000fd5b815260200160018201805461144d9061599c565b80601f01602080910402602001604051908101604052809291908181526020018280546114799061599c565b80156114c65780601f1061149b576101008083540402835291602001916114c6565b820191906000526020600020905b8154815290600101906020018083116114a957829003601f168201915b505050505081526020016002820160009054906101000a900460ff161515151581526020016003820180548060200260200160405190810160405280929190818152602001828054801561153957602002820191906000526020600020905b815481526020019060010190808311611525575b505050505081526020016004820180548060200260200160405190810160405280929190818152602001828054801561159157602002820191906000526020600020905b81548152602001906001019080831161157d575b5050505050815250509050919050565b600160009054906101000a900473ffffffffffffffffffffffffffffffffffffffff1673ffffffffffffffffffffffffffffffffffffffff1663217fe6c66115e761464a565b600160009054906101000a900473ffffffffffffffffffffffffffffffffffffffff1673ffffffffffffffffffffffffffffffffffffffff16638c84d39c6040518163ffffffff1660e01b815260040160006040518083038186803b15801561164f57600080fd5b505afa158015611663573d6000803e3d6000fd5b505050506040513d6000823e3d601f19601f8201168201806040525081019061168c9190614eda565b6040518363ffffffff1660e01b81526004016116a992919061553d565b60206040518083038186803b1580156116c157600080fd5b505afa1580156116d5573d6000803e3d6000fd5b505050506040513d601f19601f820116820180604052508101906116f99190614eb1565b611738576040517f08c379a000000000000000000000000000000000000000000000000000000000815260040161172f9061560f565b60405180910390fd5b600260008373ffffffffffffffffffffffffffffffffffffffff1673ffffffffffffffffffffffffffffffffffffffff16815260200190815260200160002060009054906101000a900460ff16156117c5576040517f08c379a00000000000000000000000000000000000000000000000000000000081526004016117bc9061566f565b60405180910390fd5b600160009054906101000a900473ffffffffffffffffffffffffffffffffffffffff1673ffffffffffffffffffffffffffffffffffffffff1663217fe6c683600160009054906101000a900473ffffffffffffffffffffffffffffffffffffffff1673ffffffffffffffffffffffffffffffffffffffff16631cee4a9d6040518163ffffffff1660e01b815260040160006040518083038186803b15801561186c57600080fd5b505afa158015611880573d6000803e3d6000fd5b505050506040513d6000823e3d601f19601f820116820180604052508101906118a99190614eda565b6040518363ffffffff1660e01b81526004016118c692919061553d565b60206040518083038186803b1580156118de57600080fd5b505afa1580156118f2573d6000803e3d6000fd5b505050506040513d601f19601f820116820180604052508101906119169190614eb1565b611955576040517f08c379a000000000000000000000000000000000000000000000000000000000815260040161194c9061562f565b60405180910390fd5b6001600260008473ffffffffffffffffffffffffffffffffffffffff1673ffffffffffffffffffffffffffffffffffffffff16815260200190815260200160002060006101000a81548160ff02191690831515021790555080600360008473ffffffffffffffffffffffffffffffffffffffff1673ffffffffffffffffffffffffffffffffffffffff16815260200190815260200160002060008201518160000160006101000a81548160ff02191690836002811115611a3e577f4e487b7100000000000000000000000000000000000000000000000000000000600052602160045260246000fd5b02179055506020820151816001019080519060200190611a5f929190614740565b5060408201518160020160006101000a81548160ff0219169083151502179055506060820151816003019080519060200190611a9c9291906147c6565b506080820151816004019080519060200190611ab99291906147c6565b509050505050565b611ac9614813565b600160009054906101000a900473ffffffffffffffffffffffffffffffffffffffff1673ffffffffffffffffffffffffffffffffffffffff1663217fe6c6611b0f61464a565b600160009054906101000a900473ffffffffffffffffffffffffffffffffffffffff1673ffffffffffffffffffffffffffffffffffffffff166339e7c5f56040518163ffffffff1660e01b815260040160006040518083038186803b158015611b7757600080fd5b505afa158015611b8b573d6000803e3d6000fd5b505050506040513d6000823e3d601f19601f82011682018060405250810190611bb49190614eda565b6040518363ffffffff1660e01b8152600401611bd192919061553d565b60206040518083038186803b158015611be957600080fd5b505afa158015611bfd573d6000803e3d6000fd5b505050506040513d601f19601f82011682018060405250810190611c219190614eb1565b80611d805750600160009054906101000a900473ffffffffffffffffffffffffffffffffffffffff1673ffffffffffffffffffffffffffffffffffffffff1663217fe6c6611c6d61464a565b600160009054906101000a900473ffffffffffffffffffffffffffffffffffffffff1673ffffffffffffffffffffffffffffffffffffffff16631cee4a9d6040518163ffffffff1660e01b815260040160006040518083038186803b158015611cd557600080fd5b505afa158015611ce9573d6000803e3d6000fd5b505050506040513d6000823e3d601f19601f82011682018060405250810190611d129190614eda565b6040518363ffffffff1660e01b8152600401611d2f92919061553d565b60206040518083038186803b158015611d4757600080fd5b505afa158015611d5b573d6000803e3d6000fd5b505050506040513d601f19601f82011682018060405250810190611d7f9190614eb1565b5b80611edf5750600160009054906101000a900473ffffffffffffffffffffffffffffffffffffffff1673ffffffffffffffffffffffffffffffffffffffff1663217fe6c6611dcc61464a565b600160009054906101000a900473ffffffffffffffffffffffffffffffffffffffff1673ffffffffffffffffffffffffffffffffffffffff16638c84d39c6040518163ffffffff1660e01b815260040160006040518083038186803b158015611e3457600080fd5b505afa158015611e48573d6000803e3d6000fd5b505050506040513d6000823e3d601f19601f82011682018060405250810190611e719190614eda565b6040518363ffffffff1660e01b8152600401611e8e92919061553d565b60206040518083038186803b158015611ea657600080fd5b505afa158015611eba573d6000803e3d6000fd5b505050506040513d601f19601f82011682018060405250810190611ede9190614eb1565b5b611f1e576040517f08c379a0000000000000000000000000000000000000000000000000000000008152600401611f15906155cf565b60405180910390fd5b6008600083815260200190815260200160002060009054906101000a900460ff16611f7e576040517f08c379a0000000000000000000000000000000000000000000000000000000008152600401611f75906155af565b60405180910390fd5b600660008381526020019081526020016000206040518060a001604052908160008201548152602001600182015481526020016002820160009054906101000a900460ff166001811115611ffb577f4e487b7100000000000000000000000000000000000000000000000000000000600052602160045260246000fd5b6001811115612033577f4e487b7100000000000000000000000000000000000000000000000000000000600052602160045260246000fd5b81526020016002820160019054906101000a900473ffffffffffffffffffffffffffffffffffffffff1673ffffffffffffffffffffffffffffffffffffffff1673ffffffffffffffffffffffffffffffffffffffff1681526020016003820160009054906101000a900473ffffffffffffffffffffffffffffffffffffffff1673ffffffffffffffffffffffffffffffffffffffff1673ffffffffffffffffffffffffffffffffffffffff16815250509050919050565b600160009054906101000a900473ffffffffffffffffffffffffffffffffffffffff1673ffffffffffffffffffffffffffffffffffffffff1663217fe6c661213061464a565b600160009054906101000a900473ffffffffffffffffffffffffffffffffffffffff1673ffffffffffffffffffffffffffffffffffffffff16638c84d39c6040518163ffffffff1660e01b815260040160006040518083038186803b15801561219857600080fd5b505afa1580156121ac573d6000803e3d6000fd5b505050506040513d6000823e3d601f19601f820116820180604052508101906121d59190614eda565b6040518363ffffffff1660e01b81526004016121f292919061553d565b60206040518083038186803b15801561220a57600080fd5b505afa15801561221e573d6000803e3d6000fd5b505050506040513d601f19601f820116820180604052508101906122429190614eb1565b612281576040517f08c379a00000000000000000000000000000000000000000000000000000000081526004016122789061560f565b60405180910390fd5b600260008373ffffffffffffffffffffffffffffffffffffffff1673ffffffffffffffffffffffffffffffffffffffff16815260200190815260200160002060009054906101000a900460ff1661230d576040517f08c379a0000000000000000000000000000000000000000000000000000000008152600401612304906156af565b60405180910390fd5b60008160000151905060016008600083815260200190815260200160002060006101000a81548160ff0219169083151502179055508160066000838152602001908152602001600020600082015181600001556020820151816001015560408201518160020160006101000a81548160ff021916908360018111156123bb577f4e487b7100000000000000000000000000000000000000000000000000000000600052602160045260246000fd5b021790555060608201518160020160016101000a81548173ffffffffffffffffffffffffffffffffffffffff021916908373ffffffffffffffffffffffffffffffffffffffff16021790555060808201518160030160006101000a81548173ffffffffffffffffffffffffffffffffffffffff021916908373ffffffffffffffffffffffffffffffffffffffff160217905550905050600360008473ffffffffffffffffffffffffffffffffffffffff1673ffffffffffffffffffffffffffffffffffffffff168152602001908152602001600020600301819080600181540180825580915050600190039060005260206000200160009091909190915055600160056000846080015173ffffffffffffffffffffffffffffffffffffffff1673ffffffffffffffffffffffffffffffffffffffff1681526020019081526020016000206003016000828254612511919061584d565b92505081905550505050565b600160009054906101000a900473ffffffffffffffffffffffffffffffffffffffff1673ffffffffffffffffffffffffffffffffffffffff1663217fe6c661256361464a565b600160009054906101000a900473ffffffffffffffffffffffffffffffffffffffff1673ffffffffffffffffffffffffffffffffffffffff16638c84d39c6040518163ffffffff1660e01b815260040160006040518083038186803b1580156125cb57600080fd5b505afa1580156125df573d6000803e3d6000fd5b505050506040513d6000823e3d601f19601f820116820180604052508101906126089190614eda565b6040518363ffffffff1660e01b815260040161262592919061553d565b60206040518083038186803b15801561263d57600080fd5b505afa158015612651573d6000803e3d6000fd5b505050506040513d601f19601f820116820180604052508101906126759190614eb1565b6126b4576040517f08c379a00000000000000000000000000000000000000000000000000000000081526004016126ab9061560f565b60405180910390fd5b600260008373ffffffffffffffffffffffffffffffffffffffff1673ffffffffffffffffffffffffffffffffffffffff16815260200190815260200160002060009054906101000a900460ff16612740576040517f08c379a00000000000000000000000000000000000000000000000000000000081526004016127379061568f565b60405180910390fd5b61274a6000614652565b60016009600061275a6000614668565b815260200190815260200160002060006101000a81548160ff021916908315150217905550806007600061278e6000614668565b81526020019081526020016000206000820151816000015560208201518160010155905050600360008373ffffffffffffffffffffffffffffffffffffffff1673ffffffffffffffffffffffffffffffffffffffff1681526020019081526020016000206004016127ff6000614668565b90806001815401808255809150506001900390600052602060002001600090919091909150555050565b6128316148a6565b600160009054906101000a900473ffffffffffffffffffffffffffffffffffffffff1673ffffffffffffffffffffffffffffffffffffffff1663217fe6c661287761464a565b600160009054906101000a900473ffffffffffffffffffffffffffffffffffffffff1673ffffffffffffffffffffffffffffffffffffffff166339e7c5f56040518163ffffffff1660e01b815260040160006040518083038186803b1580156128df57600080fd5b505afa1580156128f3573d6000803e3d6000fd5b505050506040513d6000823e3d601f19601f8201168201806040525081019061291c9190614eda565b6040518363ffffffff1660e01b815260040161293992919061553d565b60206040518083038186803b15801561295157600080fd5b505afa158015612965573d6000803e3d6000fd5b505050506040513d601f19601f820116820180604052508101906129899190614eb1565b80612ae85750600160009054906101000a900473ffffffffffffffffffffffffffffffffffffffff1673ffffffffffffffffffffffffffffffffffffffff1663217fe6c66129d561464a565b600160009054906101000a900473ffffffffffffffffffffffffffffffffffffffff1673ffffffffffffffffffffffffffffffffffffffff16631cee4a9d6040518163ffffffff1660e01b815260040160006040518083038186803b158015612a3d57600080fd5b505afa158015612a51573d6000803e3d6000fd5b505050506040513d6000823e3d601f19601f82011682018060405250810190612a7a9190614eda565b6040518363ffffffff1660e01b8152600401612a9792919061553d565b60206040518083038186803b158015612aaf57600080fd5b505afa158015612ac3573d6000803e3d6000fd5b505050506040513d601f19601f82011682018060405250810190612ae79190614eb1565b5b80612c475750600160009054906101000a900473ffffffffffffffffffffffffffffffffffffffff1673ffffffffffffffffffffffffffffffffffffffff1663217fe6c6612b3461464a565b600160009054906101000a900473ffffffffffffffffffffffffffffffffffffffff1673ffffffffffffffffffffffffffffffffffffffff16638c84d39c6040518163ffffffff1660e01b815260040160006040518083038186803b158015612b9c57600080fd5b505afa158015612bb0573d6000803e3d6000fd5b505050506040513d6000823e3d601f19601f82011682018060405250810190612bd99190614eda565b6040518363ffffffff1660e01b8152600401612bf692919061553d565b60206040518083038186803b158015612c0e57600080fd5b505afa158015612c22573d6000803e3d6000fd5b505050506040513d601f19601f82011682018060405250810190612c469190614eb1565b5b612c86576040517f08c379a0000000000000000000000000000000000000000000000000000000008152600401612c7d906155cf565b60405180910390fd5b6009600083815260200190815260200160002060009054906101000a900460ff16612ce6576040517f08c379a0000000000000000000000000000000000000000000000000000000008152600401612cdd906155ef565b60405180910390fd5b60076000838152602001908152602001600020604051806040016040529081600082015481526020016001820154815250509050919050565b612d276148c0565b600160009054906101000a900473ffffffffffffffffffffffffffffffffffffffff1673ffffffffffffffffffffffffffffffffffffffff1663217fe6c6612d6d61464a565b600160009054906101000a900473ffffffffffffffffffffffffffffffffffffffff1673ffffffffffffffffffffffffffffffffffffffff166339e7c5f56040518163ffffffff1660e01b815260040160006040518083038186803b158015612dd557600080fd5b505afa158015612de9573d6000803e3d6000fd5b505050506040513d6000823e3d601f19601f82011682018060405250810190612e129190614eda565b6040518363ffffffff1660e01b8152600401612e2f92919061553d565b60206040518083038186803b158015612e4757600080fd5b505afa158015612e5b573d6000803e3d6000fd5b505050506040513d601f19601f82011682018060405250810190612e7f9190614eb1565b80612fde5750600160009054906101000a900473ffffffffffffffffffffffffffffffffffffffff1673ffffffffffffffffffffffffffffffffffffffff1663217fe6c6612ecb61464a565b600160009054906101000a900473ffffffffffffffffffffffffffffffffffffffff1673ffffffffffffffffffffffffffffffffffffffff16631cee4a9d6040518163ffffffff1660e01b815260040160006040518083038186803b158015612f3357600080fd5b505afa158015612f47573d6000803e3d6000fd5b505050506040513d6000823e3d601f19601f82011682018060405250810190612f709190614eda565b6040518363ffffffff1660e01b8152600401612f8d92919061553d565b60206040518083038186803b158015612fa557600080fd5b505afa158015612fb9573d6000803e3d6000fd5b505050506040513d601f19601f82011682018060405250810190612fdd9190614eb1565b5b8061313d5750600160009054906101000a900473ffffffffffffffffffffffffffffffffffffffff1673ffffffffffffffffffffffffffffffffffffffff1663217fe6c661302a61464a565b600160009054906101000a900473ffffffffffffffffffffffffffffffffffffffff1673ffffffffffffffffffffffffffffffffffffffff16638c84d39c6040518163ffffffff1660e01b815260040160006040518083038186803b15801561309257600080fd5b505afa1580156130a6573d6000803e3d6000fd5b505050506040513d6000823e3d601f19601f820116820180604052508101906130cf9190614eda565b6040518363ffffffff1660e01b81526004016130ec92919061553d565b60206040518083038186803b15801561310457600080fd5b505afa158015613118573d6000803e3d6000fd5b505050506040513d601f19601f8201168201806040525081019061313c9190614eb1565b5b61317c576040517f08c379a0000000000000000000000000000000000000000000000000000000008152600401613173906155cf565b60405180910390fd5b600460008373ffffffffffffffffffffffffffffffffffffffff1673ffffffffffffffffffffffffffffffffffffffff16815260200190815260200160002060009054906101000a900460ff16613208576040517f08c379a00000000000000000000000000000000000000000000000000000000081526004016131ff906156af565b60405180910390fd5b600560008373ffffffffffffffffffffffffffffffffffffffff1673ffffffffffffffffffffffffffffffffffffffff1681526020019081526020016000206040518060800160405290816000820160009054906101000a900460ff16600281111561329d577f4e487b7100000000000000000000000000000000000000000000000000000000600052602160045260246000fd5b60028111156132d5577f4e487b7100000000000000000000000000000000000000000000000000000000600052602160045260246000fd5b81526020016001820180546132e99061599c565b80601f01602080910402602001604051908101604052809291908181526020018280546133159061599c565b80156133625780601f1061333757610100808354040283529160200191613362565b820191906000526020600020905b81548152906001019060200180831161334557829003601f168201915b505050505081526020016002820160009054906101000a900460ff161515151581526020016003820154815250509050919050565b6060600160009054906101000a900473ffffffffffffffffffffffffffffffffffffffff1673ffffffffffffffffffffffffffffffffffffffff1663217fe6c66133df61464a565b600160009054906101000a900473ffffffffffffffffffffffffffffffffffffffff1673ffffffffffffffffffffffffffffffffffffffff166339e7c5f56040518163ffffffff1660e01b815260040160006040518083038186803b15801561344757600080fd5b505afa15801561345b573d6000803e3d6000fd5b505050506040513d6000823e3d601f19601f820116820180604052508101906134849190614eda565b6040518363ffffffff1660e01b81526004016134a192919061553d565b60206040518083038186803b1580156134b957600080fd5b505afa1580156134cd573d6000803e3d6000fd5b505050506040513d601f19601f820116820180604052508101906134f19190614eb1565b806136505750600160009054906101000a900473ffffffffffffffffffffffffffffffffffffffff1673ffffffffffffffffffffffffffffffffffffffff1663217fe6c661353d61464a565b600160009054906101000a900473ffffffffffffffffffffffffffffffffffffffff1673ffffffffffffffffffffffffffffffffffffffff16631cee4a9d6040518163ffffffff1660e01b815260040160006040518083038186803b1580156135a557600080fd5b505afa1580156135b9573d6000803e3d6000fd5b505050506040513d6000823e3d601f19601f820116820180604052508101906135e29190614eda565b6040518363ffffffff1660e01b81526004016135ff92919061553d565b60206040518083038186803b15801561361757600080fd5b505afa15801561362b573d6000803e3d6000fd5b505050506040513d601f19601f8201168201806040525081019061364f9190614eb1565b5b806137af5750600160009054906101000a900473ffffffffffffffffffffffffffffffffffffffff1673ffffffffffffffffffffffffffffffffffffffff1663217fe6c661369c61464a565b600160009054906101000a900473ffffffffffffffffffffffffffffffffffffffff1673ffffffffffffffffffffffffffffffffffffffff16638c84d39c6040518163ffffffff1660e01b815260040160006040518083038186803b15801561370457600080fd5b505afa158015613718573d6000803e3d6000fd5b505050506040513d6000823e3d601f19601f820116820180604052508101906137419190614eda565b6040518363ffffffff1660e01b815260040161375e92919061553d565b60206040518083038186803b15801561377657600080fd5b505afa15801561378a573d6000803e3d6000fd5b505050506040513d601f19601f820116820180604052508101906137ae9190614eb1565b5b6137ee576040517f08c379a00000000000000000000000000000000000000000000000000000000081526004016137e5906155cf565b60405180910390fd5b600260008373ffffffffffffffffffffffffffffffffffffffff1673ffffffffffffffffffffffffffffffffffffffff16815260200190815260200160002060009054906101000a900460ff1661387a576040517f08c379a0000000000000000000000000000000000000000000000000000000008152600401613871906156af565b60405180910390fd5b600360008373ffffffffffffffffffffffffffffffffffffffff1673ffffffffffffffffffffffffffffffffffffffff16815260200190815260200160002060040180548060200260200160405190810160405280929190818152602001828054801561390657602002820191906000526020600020905b8154815260200190600101908083116138f2575b50505050509050919050565b600160009054906101000a900473ffffffffffffffffffffffffffffffffffffffff1673ffffffffffffffffffffffffffffffffffffffff1663217fe6c661395861464a565b600160009054906101000a900473ffffffffffffffffffffffffffffffffffffffff1673ffffffffffffffffffffffffffffffffffffffff16638c84d39c6040518163ffffffff1660e01b815260040160006040518083038186803b1580156139c057600080fd5b505afa1580156139d4573d6000803e3d6000fd5b505050506040513d6000823e3d601f19601f820116820180604052508101906139fd9190614eda565b6040518363ffffffff1660e01b8152600401613a1a92919061553d565b60206040518083038186803b158015613a3257600080fd5b505afa158015613a46573d6000803e3d6000fd5b505050506040513d601f19601f82011682018060405250810190613a6a9190614eb1565b613aa9576040517f08c379a0000000000000000000000000000000000000000000000000000000008152600401613aa09061560f565b60405180910390fd5b600460008273ffffffffffffffffffffffffffffffffffffffff1673ffffffffffffffffffffffffffffffffffffffff16815260200190815260200160002060009054906101000a900460ff16613b35576040517f08c379a0000000000000000000000000000000000000000000000000000000008152600401613b2c906156af565b60405180910390fd5b6000600460008373ffffffffffffffffffffffffffffffffffffffff1673ffffffffffffffffffffffffffffffffffffffff16815260200190815260200160002060006101000a81548160ff021916908315150217905550600460008273ffffffffffffffffffffffffffffffffffffffff1673ffffffffffffffffffffffffffffffffffffffff16815260200190815260200160002060006101000a81549060ff021916905550565b600160009054906101000a900473ffffffffffffffffffffffffffffffffffffffff1673ffffffffffffffffffffffffffffffffffffffff1663217fe6c6613c2561464a565b600160009054906101000a900473ffffffffffffffffffffffffffffffffffffffff1673ffffffffffffffffffffffffffffffffffffffff16638c84d39c6040518163ffffffff1660e01b815260040160006040518083038186803b158015613c8d57600080fd5b505afa158015613ca1573d6000803e3d6000fd5b505050506040513d6000823e3d601f19601f82011682018060405250810190613cca9190614eda565b6040518363ffffffff1660e01b8152600401613ce792919061553d565b60206040518083038186803b158015613cff57600080fd5b505afa158015613d13573d6000803e3d6000fd5b505050506040513d601f19601f82011682018060405250810190613d379190614eb1565b613d76576040517f08c379a0000000000000000000000000000000000000000000000000000000008152600401613d6d9061560f565b60405180910390fd5b600460008373ffffffffffffffffffffffffffffffffffffffff1673ffffffffffffffffffffffffffffffffffffffff16815260200190815260200160002060009054906101000a900460ff1615613e03576040517f08c379a0000000000000000000000000000000000000000000000000000000008152600401613dfa9061564f565b60405180910390fd5b600160009054906101000a900473ffffffffffffffffffffffffffffffffffffffff1673ffffffffffffffffffffffffffffffffffffffff1663217fe6c683600160009054906101000a900473ffffffffffffffffffffffffffffffffffffffff1673ffffffffffffffffffffffffffffffffffffffff166339e7c5f56040518163ffffffff1660e01b815260040160006040518083038186803b158015613eaa57600080fd5b505afa158015613ebe573d6000803e3d6000fd5b505050506040513d6000823e3d601f19601f82011682018060405250810190613ee79190614eda565b6040518363ffffffff1660e01b8152600401613f0492919061553d565b60206040518083038186803b158015613f1c57600080fd5b505afa158015613f30573d6000803e3d6000fd5b505050506040513d601f19601f82011682018060405250810190613f549190614eb1565b613f93576040517f08c379a0000000000000000000000000000000000000000000000000000000008152600401613f8a9061558f565b60405180910390fd5b6001600460008473ffffffffffffffffffffffffffffffffffffffff1673ffffffffffffffffffffffffffffffffffffffff16815260200190815260200160002060006101000a81548160ff02191690831515021790555080600560008473ffffffffffffffffffffffffffffffffffffffff1673ffffffffffffffffffffffffffffffffffffffff16815260200190815260200160002060008201518160000160006101000a81548160ff0219169083600281111561407c577f4e487b7100000000000000000000000000000000000000000000000000000000600052602160045260246000fd5b0217905550602082015181600101908051906020019061409d929190614740565b5060408201518160020160006101000a81548160ff021916908315150217905550606082015181600301559050505050565b6060600160009054906101000a900473ffffffffffffffffffffffffffffffffffffffff1673ffffffffffffffffffffffffffffffffffffffff1663217fe6c661411761464a565b600160009054906101000a900473ffffffffffffffffffffffffffffffffffffffff1673ffffffffffffffffffffffffffffffffffffffff166339e7c5f56040518163ffffffff1660e01b815260040160006040518083038186803b15801561417f57600080fd5b505afa158015614193573d6000803e3d6000fd5b505050506040513d6000823e3d601f19601f820116820180604052508101906141bc9190614eda565b6040518363ffffffff1660e01b81526004016141d992919061553d565b60206040518083038186803b1580156141f157600080fd5b505afa158015614205573d6000803e3d6000fd5b505050506040513d601f19601f820116820180604052508101906142299190614eb1565b806143885750600160009054906101000a900473ffffffffffffffffffffffffffffffffffffffff1673ffffffffffffffffffffffffffffffffffffffff1663217fe6c661427561464a565b600160009054906101000a900473ffffffffffffffffffffffffffffffffffffffff1673ffffffffffffffffffffffffffffffffffffffff16631cee4a9d6040518163ffffffff1660e01b815260040160006040518083038186803b1580156142dd57600080fd5b505afa1580156142f1573d6000803e3d6000fd5b505050506040513d6000823e3d601f19601f8201168201806040525081019061431a9190614eda565b6040518363ffffffff1660e01b815260040161433792919061553d565b60206040518083038186803b15801561434f57600080fd5b505afa158015614363573d6000803e3d6000fd5b505050506040513d601f19601f820116820180604052508101906143879190614eb1565b5b806144e75750600160009054906101000a900473ffffffffffffffffffffffffffffffffffffffff1673ffffffffffffffffffffffffffffffffffffffff1663217fe6c66143d461464a565b600160009054906101000a900473ffffffffffffffffffffffffffffffffffffffff1673ffffffffffffffffffffffffffffffffffffffff16638c84d39c6040518163ffffffff1660e01b815260040160006040518083038186803b15801561443c57600080fd5b505afa158015614450573d6000803e3d6000fd5b505050506040513d6000823e3d601f19601f820116820180604052508101906144799190614eda565b6040518363ffffffff1660e01b815260040161449692919061553d565b60206040518083038186803b1580156144ae57600080fd5b505afa1580156144c2573d6000803e3d6000fd5b505050506040513d601f19601f820116820180604052508101906144e69190614eb1565b5b614526576040517f08c379a000000000000000000000000000000000000000000000000000000000815260040161451d906155cf565b60405180910390fd5b600260008373ffffffffffffffffffffffffffffffffffffffff1673ffffffffffffffffffffffffffffffffffffffff16815260200190815260200160002060009054906101000a900460ff166145b2576040517f08c379a00000000000000000000000000000000000000000000000000000000081526004016145a9906156af565b60405180910390fd5b600360008373ffffffffffffffffffffffffffffffffffffffff1673ffffffffffffffffffffffffffffffffffffffff16815260200190815260200160002060030180548060200260200160405190810160405280929190818152602001828054801561463e57602002820191906000526020600020905b81548152602001906001019080831161462a575b50505050509050919050565b600033905090565b6001816000016000828254019250508190555050565b600081600001549050919050565b5080546146829061599c565b6000825580601f1061469457506146b3565b601f0160209004906000526020600020908101906146b29190614922565b5b50565b50805460008255906000526020600020908101906146d49190614922565b50565b6040518060a001604052806000600281111561471c577f4e487b7100000000000000000000000000000000000000000000000000000000600052602160045260246000fd5b81526020016060815260200160001515815260200160608152602001606081525090565b82805461474c9061599c565b90600052602060002090601f01602090048101928261476e57600085556147b5565b82601f1061478757805160ff19168380011785556147b5565b828001600101855582156147b5579182015b828111156147b4578251825591602001919060010190614799565b5b5090506147c29190614922565b5090565b828054828255906000526020600020908101928215614802579160200282015b828111156148015782518255916020019190600101906147e6565b5b50905061480f9190614922565b5090565b6040518060a00160405280600081526020016000815260200160006001811115614866577f4e487b7100000000000000000000000000000000000000000000000000000000600052602160045260246000fd5b8152602001600073ffffffffffffffffffffffffffffffffffffffff168152602001600073ffffffffffffffffffffffffffffffffffffffff1681525090565b604051806040016040528060008152602001600081525090565b604051806080016040528060006002811115614905577f4e487b7100000000000000000000000000000000000000000000000000000000600052602160045260246000fd5b815260200160608152602001600015158152602001600081525090565b5b8082111561493b576000816000905550600101614923565b5090565b600061495261494d8461577a565b615749565b9050808382526020820190508285602086028201111561497157600080fd5b60005b858110156149a157816149878882614d53565b845260208401935060208301925050600181019050614974565b5050509392505050565b60006149be6149b9846157a6565b615749565b9050828152602081018484840111156149d657600080fd5b6149e184828561595a565b509392505050565b60006149fc6149f7846157a6565b615749565b905082815260208101848484011115614a1457600080fd5b614a1f848285615969565b509392505050565b600081359050614a3681615ad7565b92915050565b600082601f830112614a4d57600080fd5b8135614a5d84826020860161493f565b91505092915050565b600081359050614a7581615aee565b92915050565b600081519050614a8a81615aee565b92915050565b600081359050614a9f81615b05565b92915050565b600081359050614ab481615b15565b92915050565b600081359050614ac981615b25565b92915050565b600082601f830112614ae057600080fd5b8135614af08482602086016149ab565b91505092915050565b600082601f830112614b0a57600080fd5b8151614b1a8482602086016149e9565b91505092915050565b600060808284031215614b3557600080fd5b614b3f6080615749565b90506000614b4f84828501614a90565b600083015250602082013567ffffffffffffffff811115614b6f57600080fd5b614b7b84828501614acf565b6020830152506040614b8f84828501614a66565b6040830152506060614ba384828501614d53565b60608301525092915050565b600060a08284031215614bc157600080fd5b614bcb60a0615749565b90506000614bdb84828501614d53565b6000830152506020614bef84828501614d53565b6020830152506040614c0384828501614aa5565b6040830152506060614c1784828501614a27565b6060830152506080614c2b84828501614a27565b60808301525092915050565b600060408284031215614c4957600080fd5b614c536040615749565b90506000614c6384828501614d53565b6000830152506020614c7784828501614d53565b60208301525092915050565b600060a08284031215614c9557600080fd5b614c9f60a0615749565b90506000614caf84828501614aba565b600083015250602082013567ffffffffffffffff811115614ccf57600080fd5b614cdb84828501614acf565b6020830152506040614cef84828501614a66565b604083015250606082013567ffffffffffffffff811115614d0f57600080fd5b614d1b84828501614a3c565b606083015250608082013567ffffffffffffffff811115614d3b57600080fd5b614d4784828501614a3c565b60808301525092915050565b600081359050614d6281615b35565b92915050565b600060208284031215614d7a57600080fd5b6000614d8884828501614a27565b91505092915050565b60008060408385031215614da457600080fd5b6000614db285828601614a27565b925050602083013567ffffffffffffffff811115614dcf57600080fd5b614ddb85828601614b23565b9150509250929050565b60008060c08385031215614df857600080fd5b6000614e0685828601614a27565b9250506020614e1785828601614baf565b9150509250929050565b60008060608385031215614e3457600080fd5b6000614e4285828601614a27565b9250506020614e5385828601614c37565b9150509250929050565b60008060408385031215614e7057600080fd5b6000614e7e85828601614a27565b925050602083013567ffffffffffffffff811115614e9b57600080fd5b614ea785828601614c83565b9150509250929050565b600060208284031215614ec357600080fd5b6000614ed184828501614a7b565b91505092915050565b600060208284031215614eec57600080fd5b600082015167ffffffffffffffff811115614f0657600080fd5b614f1284828501614af9565b91505092915050565b600060208284031215614f2d57600080fd5b6000614f3b84828501614d53565b91505092915050565b6000614f50838361552e565b60208301905092915050565b614f65816158a3565b82525050565b614f74816158a3565b82525050565b6000614f85826157e6565b614f8f8185615809565b9350614f9a836157d6565b8060005b83811015614fcb578151614fb28882614f44565b9750614fbd836157fc565b925050600181019050614f9e565b5085935050505092915050565b6000614fe3826157e6565b614fed818561581a565b9350614ff8836157d6565b8060005b838110156150295781516150108882614f44565b975061501b836157fc565b925050600181019050614ffc565b5085935050505092915050565b61503f816158b5565b82525050565b61504e81615924565b82525050565b61505d81615936565b82525050565b61506c81615948565b82525050565b600061507d826157f1565b615087818561582b565b9350615097818560208601615969565b6150a081615a8a565b840191505092915050565b60006150b6826157f1565b6150c0818561583c565b93506150d0818560208601615969565b6150d981615a8a565b840191505092915050565b60006150f1601f8361583c565b91507f41646472657373206973206e6f74206120636f6e74726f6c20656e74697479006000830152602082019050919050565b600061513160168361583c565b91507f436f6e74726f6c20646f6573206e6f74206578697374000000000000000000006000830152602082019050919050565b600061517160128361583c565b91507f4e6f74206120636861696e206d656d62657200000000000000000000000000006000830152602082019050919050565b60006151b1601a8361583c565b91507f5472616e73616374696f6e20646f6573206e6f742065786973740000000000006000830152602082019050919050565b60006151f1602e8361583c565b91507f4f6e6c7920737570706c7920636861696e2061646d696e2063616e2063616c6c60008301527f20746869732066756e6374696f6e0000000000000000000000000000000000006020830152604082019050919050565b600061525760248361583c565b91507f41646472657373206973206e6f74206120737570706c7920636861696e20656e60008301527f74697479000000000000000000000000000000000000000000000000000000006020830152604082019050919050565b60006152bd60158361583c565b91507f456e7469747920616c72656164792065786973747300000000000000000000006000830152602082019050919050565b60006152fd60178361583c565b91507f456e7469747920616c7265616479206578697374696e670000000000000000006000830152602082019050919050565b600061533d60158361583c565b91507f456e7469747920646f6573206e6f7420657869747300000000000000000000006000830152602082019050919050565b600061537d60158361583c565b91507f456e7469747920646f6573206e6f7420657869737400000000000000000000006000830152602082019050919050565b60006080830160008301516153c86000860182615045565b50602083015184820360208601526153e08282615072565b91505060408301516153f56040860182615036565b506060830151615408606086018261552e565b508091505092915050565b60a082016000820151615429600085018261552e565b50602082015161543c602085018261552e565b50604082015161544f6040850182615054565b5060608201516154626060850182614f5c565b5060808201516154756080850182614f5c565b50505050565b604082016000820151615491600085018261552e565b5060208201516154a4602085018261552e565b50505050565b600060a0830160008301516154c26000860182615063565b50602083015184820360208601526154da8282615072565b91505060408301516154ef6040860182615036565b50606083015184820360608601526155078282614f7a565b915050608083015184820360808601526155218282614f7a565b9150508091505092915050565b6155378161591a565b82525050565b60006040820190506155526000830185614f6b565b818103602083015261556481846150ab565b90509392505050565b600060208201905081810360008301526155878184614fd8565b905092915050565b600060208201905081810360008301526155a8816150e4565b9050919050565b600060208201905081810360008301526155c881615124565b9050919050565b600060208201905081810360008301526155e881615164565b9050919050565b60006020820190508181036000830152615608816151a4565b9050919050565b60006020820190508181036000830152615628816151e4565b9050919050565b600060208201905081810360008301526156488161524a565b9050919050565b60006020820190508181036000830152615668816152b0565b9050919050565b60006020820190508181036000830152615688816152f0565b9050919050565b600060208201905081810360008301526156a881615330565b9050919050565b600060208201905081810360008301526156c881615370565b9050919050565b600060208201905081810360008301526156e981846153b0565b905092915050565b600060a0820190506157066000830184615413565b92915050565b6000604082019050615721600083018461547b565b92915050565b6000602082019050818103600083015261574181846154aa565b905092915050565b6000604051905081810181811067ffffffffffffffff821117156157705761576f615a5b565b5b8060405250919050565b600067ffffffffffffffff82111561579557615794615a5b565b5b602082029050602081019050919050565b600067ffffffffffffffff8211156157c1576157c0615a5b565b5b601f19601f8301169050602081019050919050565b6000819050602082019050919050565b600081519050919050565b600081519050919050565b6000602082019050919050565b600082825260208201905092915050565b600082825260208201905092915050565b600082825260208201905092915050565b600082825260208201905092915050565b60006158588261591a565b91506158638361591a565b9250827fffffffffffffffffffffffffffffffffffffffffffffffffffffffffffffffff03821115615898576158976159ce565b5b828201905092915050565b60006158ae826158fa565b9050919050565b60008115159050919050565b60008190506158cf82615a9b565b919050565b60008190506158e282615aaf565b919050565b60008190506158f582615ac3565b919050565b600073ffffffffffffffffffffffffffffffffffffffff82169050919050565b6000819050919050565b600061592f826158c1565b9050919050565b6000615941826158d4565b9050919050565b6000615953826158e7565b9050919050565b82818337600083830152505050565b60005b8381101561598757808201518184015260208101905061596c565b83811115615996576000848401525b50505050565b600060028204905060018216806159b457607f821691505b602082108114156159c8576159c7615a2c565b5b50919050565b7f4e487b7100000000000000000000000000000000000000000000000000000000600052601160045260246000fd5b7f4e487b7100000000000000000000000000000000000000000000000000000000600052602160045260246000fd5b7f4e487b7100000000000000000000000000000000000000000000000000000000600052602260045260246000fd5b7f4e487b7100000000000000000000000000000000000000000000000000000000600052604160045260246000fd5b6000601f19601f8301169050919050565b60038110615aac57615aab6159fd565b5b50565b60028110615ac057615abf6159fd565b5b50565b60038110615ad457615ad36159fd565b5b50565b615ae0816158a3565b8114615aeb57600080fd5b50565b615af7816158b5565b8114615b0257600080fd5b50565b60038110615b1257600080fd5b50565b60028110615b2257600080fd5b50565b60038110615b3257600080fd5b50565b615b3e8161591a565b8114615b4957600080fd5b5056fea2646970667358221220a213102b06a3fcc12214430392ad4d0e606c5de97be5540f68f8b9bd85f647b264736f6c63430008000033",
  "immutableReferences": {},
  "source": "// SPDX-License-Identifier: MIT\npragma solidity >=0.4.22 <0.9.0;\n\nimport \"./Structs.sol\";\nimport \"./RBAC.sol\";\nimport \"openzeppelin-solidity/contracts/utils/Context.sol\";\nimport \"openzeppelin-solidity/contracts/utils/Counters.sol\";\n\n/**\n * Contract that works as registry for all details regarding the supply chain\n */\ncontract LKGRegistry is Context {\n    using Counters for Counters.Counter;\n    Counters.Counter private nonGseCounter;\n    RBAC private rbac;\n    mapping(address => bool) private entitiesIndex;\n    mapping(address => Structs.SupplyChainEntity) private supplyChainEntities;\n    mapping(address => bool) private controlEntitiesIndex;\n    mapping(address => Structs.ControlEntity) private controlEntities;\n    mapping(uint256 => Structs.GSEControl) controls;\n    mapping(uint256 => Structs.NonGSETransaction) transactions;\n    mapping(uint256 => bool) controlIndex;\n    mapping(uint256 => bool) nonGseIndex;\n\n    constructor(address _rbac) public {\n        rbac = RBAC(_rbac);\n    }\n\n    /**\n     * @notice Checks that caller has the role of a supply chain  admin\n     */\n    modifier onlyChainAdmin() {\n        require(\n            rbac.hasRole(_msgSender(), rbac.SUPPLY_CHAIN_ADMIN_ROLE()),\n            \"Only supply chain admin can call this function\"\n        );\n        _;\n    }\n\n    /**\n     *@notice Check that the caller is part of the supply chain\n     */\n    modifier onlyChainMember() {\n        require(\n            rbac.hasRole(\n                _msgSender(),\n                rbac.SUPPLY_CHAIN_CONTROL_ENTITY_ROLE()\n            ) || rbac.hasRole(_msgSender(), rbac.SUPPLY_CHAIN_ENTITY_ROLE()) ||\n                rbac.hasRole(_msgSender(), rbac.SUPPLY_CHAIN_ADMIN_ROLE()),\n            \"Not a chain member\"\n        );\n        _;\n    }\n\n    /**\n     * @notice Add a supply chain entity to the registry\n     * @param _address Address of the account belonging to the entity\n     * @param _entity The entity to be added\n     */\n    function addSupplyChainEntity(\n        address _address,\n        Structs.SupplyChainEntity memory _entity\n    ) public onlyChainAdmin {\n        require(!entitiesIndex[_address], \"Entity already existing\");\n        require(rbac.hasRole(_address, rbac.SUPPLY_CHAIN_ENTITY_ROLE()), \"Address is not a supply chain entity\");\n        entitiesIndex[_address] = true;\n        supplyChainEntities[_address] = _entity;\n    }\n\n    /**\n     * @notice Get the supply chain entity belonging to the address\n     * @param _entity Address of the entity\n     * @return Supply chain entity\n     */\n    function getSupplyChainEntity(address _entity)\n        public\n        view\n        onlyChainMember\n        returns (Structs.SupplyChainEntity memory)\n    {\n        require(entitiesIndex[_entity], \"Entity does not exist\");\n        return supplyChainEntities[_entity];\n    }\n\n    /**\n     * @notice Remove a supply chain entity from the registry\n     * @param _entity Address of the entity\n     */\n    function removeSupplyChainEntity(address _entity) public onlyChainAdmin {\n        require(entitiesIndex[_entity], \"Entity does not exist\");\n        entitiesIndex[_entity] = false;\n        delete (supplyChainEntities[_entity]);\n    }\n\n    /**\n     * @notice Add control entity to registry\n     * @param _address of the control entity\n     *@param _entity to add\n     */\n    function addControlEntity(\n        address _address,\n        Structs.ControlEntity memory _entity\n    ) public onlyChainAdmin {\n        require(!controlEntitiesIndex[_address], \"Entity already exists\");\n        require(rbac.hasRole(_address, rbac.SUPPLY_CHAIN_CONTROL_ENTITY_ROLE()), \"Address is not a control entity\");\n        controlEntitiesIndex[_address] = true;\n        controlEntities[_address] = _entity;\n    }\n\n    /**\n     * @notice Get a control entity from the registry\n     * @param _entity The address of the entity\n     * @return Control entity\n     */\n    function getControlentity(address _entity)\n        public\n        view\n        onlyChainMember\n        returns (Structs.ControlEntity memory)\n    {\n        require(controlEntitiesIndex[_entity], \"Entity does not exist\");\n        return controlEntities[_entity];\n    }\n\n    /**\n     * @notice Remove a control entity from the registry\n     * @param _entity The address of the entity to be removed\n     */\n    function removeControlEntity(address _entity) public onlyChainAdmin {\n        require(controlEntitiesIndex[_entity], \"Entity does not exist\");\n        controlEntitiesIndex[_entity] = false;\n        delete (controlEntitiesIndex[_entity]);\n    }\n\n    /**\n     * @notice Add control to supply chain entity\n     * @param _entity The supply chain entity to add the control to\n     * @param _control The control to add\n     */\n    function addControl(address _entity, Structs.GSEControl memory _control)\n        public\n        onlyChainAdmin\n    {\n        require(entitiesIndex[_entity], \"Entity does not exist\");\n\n        uint256 controlId = _control.controlId;\n        // update control index\n        controlIndex[controlId] = true;\n        // add control struct to the mapping\n        controls[controlId] = _control;\n        // add control id to the supply chain entity\n        supplyChainEntities[_entity].controls.push(controlId);\n        // increment number of controls for controller\n        controlEntities[_control.controller].numberOfControls += 1;\n    }\n\n    /**\n     * @notice Get a control that was made\n     * @param _controlId id of the control\n     * @return control with the given id\n     */\n    function getControl(uint256 _controlId)\n        public\n        view\n        onlyChainMember\n        returns (Structs.GSEControl memory)\n    {\n        require(controlIndex[_controlId], \"Control does not exist\");\n        return controls[_controlId];\n    }\n\n    /**\n     * @notice Get a list of control ids that were made for a supply chain entity\n     * @param _entity The entity to get the control ids for\n     *@return Array of control ids\n     */\n    function getControls(address _entity)\n        public\n        view\n        onlyChainMember\n        returns (uint256[] memory)\n    {\n        require(entitiesIndex[_entity], \"Entity does not exist\");\n        return supplyChainEntities[_entity].controls;\n    }\n\n    /**\n     * @notice Add nonGSETransaction to supply chain entity\n     * @param _entity The supply chain entity to add the transaction to\n     * @param _transaction The transaction to add\n     */\n    function addNonGSETransaction(\n        address _entity,\n        Structs.NonGSETransaction memory _transaction\n    ) public onlyChainAdmin {\n        require(entitiesIndex[_entity], \"Entity does not exits\");\n\n        nonGseCounter.increment();\n        // update transaction index\n        nonGseIndex[nonGseCounter.current()] = true;\n        // add transaction struct to the mapping\n        transactions[nonGseCounter.current()] = _transaction;\n        // add transaction id to the supply chain entity\n        supplyChainEntities[_entity].transactions.push(nonGseCounter.current());\n    }\n\n    /**\n     * @notice Get a non gse transaction that was made\n     * @param _transactionIndex id of the transaction\n     * @return transaction with the given id\n     */\n    function getNonGSETransaction(uint256 _transactionIndex)\n        public\n        view\n        onlyChainMember\n        returns (Structs.NonGSETransaction memory)\n    {\n        require(nonGseIndex[_transactionIndex], \"Transaction does not exist\");\n        return transactions[_transactionIndex];\n    }\n\n    /**\n     * @notice Get a list of transaction ids that were recorded for a supply chain entity\n     * @param _entity The entity to get the transaction ids for\n     * @return Array of transaction ids\n     */\n    function getNonGSETransactions(address _entity)\n        public\n        view\n        onlyChainMember\n        returns (uint256[] memory)\n    {\n        require(entitiesIndex[_entity], \"Entity does not exist\");\n        return supplyChainEntities[_entity].transactions;\n    }\n\n    /**\n     * @notice A control or supply chain entity can acknowledge that they have red and accepted the \"GSE\"\n     */\n    function acknowledgeGSE() public onlyChainMember {\n        require(\n            entitiesIndex[_msgSender()] || controlEntitiesIndex[_msgSender()],\n            \"Entity does not exist\"\n        );\n        if (\n            rbac.hasRole(_msgSender(), rbac.SUPPLY_CHAIN_CONTROL_ENTITY_ROLE())\n        ) {\n            controlEntities[_msgSender()].gseStatus = true;\n        }\n\n        if (rbac.hasRole(_msgSender(), rbac.SUPPLY_CHAIN_ENTITY_ROLE())) {\n            supplyChainEntities[_msgSender()].gseStatus = true;\n        }\n    }\n}\n",
  "sourcePath": "/Users/jabbathegut/repositories/ba_sources/textile-supply-chain/contracts/LKGRegistry.sol",
  "compiler": {
    "name": "solc",
    "version": "0.8.0+commit.c7dfd78e.Emscripten.clang"
  },
  "schemaVersion": "3.3.4",
  "updatedAt": "2021-05-14T11:27:18.118Z",
  "networkType": "ethereum",
  "devdoc": {
    "kind": "dev",
    "methods": {
      "addControl(address,(uint256,uint256,uint8,address,address))": {
        "params": {
          "_control": "The control to add",
          "_entity": "The supply chain entity to add the control to"
        }
      },
      "addControlEntity(address,(uint8,string,bool,uint256))": {
        "params": {
          "_address": "of the control entity",
          "_entity": "to add"
        }
      },
      "addNonGSETransaction(address,(uint256,uint256))": {
        "params": {
          "_entity": "The supply chain entity to add the transaction to",
          "_transaction": "The transaction to add"
        }
      },
      "addSupplyChainEntity(address,(uint8,string,bool,uint256[],uint256[]))": {
        "params": {
          "_address": "Address of the account belonging to the entity",
          "_entity": "The entity to be added"
        }
      },
      "getControl(uint256)": {
        "params": {
          "_controlId": "id of the control"
        },
        "returns": {
          "_0": "control with the given id"
        }
      },
      "getControlentity(address)": {
        "params": {
          "_entity": "The address of the entity"
        },
        "returns": {
          "_0": "Control entity"
        }
      },
      "getControls(address)": {
        "params": {
          "_entity": "The entity to get the control ids for"
        },
        "returns": {
          "_0": "Array of control ids"
        }
      },
      "getNonGSETransaction(uint256)": {
        "params": {
          "_transactionIndex": "id of the transaction"
        },
        "returns": {
          "_0": "transaction with the given id"
        }
      },
      "getNonGSETransactions(address)": {
        "params": {
          "_entity": "The entity to get the transaction ids for"
        },
        "returns": {
          "_0": "Array of transaction ids"
        }
      },
      "getSupplyChainEntity(address)": {
        "params": {
          "_entity": "Address of the entity"
        },
        "returns": {
          "_0": "Supply chain entity"
        }
      },
      "removeControlEntity(address)": {
        "params": {
          "_entity": "The address of the entity to be removed"
        }
      },
      "removeSupplyChainEntity(address)": {
        "params": {
          "_entity": "Address of the entity"
        }
      }
    },
    "version": 1
  },
  "userdoc": {
    "kind": "user",
    "methods": {
      "acknowledgeGSE()": {
        "notice": "A control or supply chain entity can acknowledge that they have red and accepted the \"GSE\""
      },
      "addControl(address,(uint256,uint256,uint8,address,address))": {
        "notice": "Add control to supply chain entity"
      },
      "addControlEntity(address,(uint8,string,bool,uint256))": {
        "notice": "Add control entity to registry"
      },
      "addNonGSETransaction(address,(uint256,uint256))": {
        "notice": "Add nonGSETransaction to supply chain entity"
      },
      "addSupplyChainEntity(address,(uint8,string,bool,uint256[],uint256[]))": {
        "notice": "Add a supply chain entity to the registry"
      },
      "getControl(uint256)": {
        "notice": "Get a control that was made"
      },
      "getControlentity(address)": {
        "notice": "Get a control entity from the registry"
      },
      "getControls(address)": {
        "notice": "Get a list of control ids that were made for a supply chain entity"
      },
      "getNonGSETransaction(uint256)": {
        "notice": "Get a non gse transaction that was made"
      },
      "getNonGSETransactions(address)": {
        "notice": "Get a list of transaction ids that were recorded for a supply chain entity"
      },
      "getSupplyChainEntity(address)": {
        "notice": "Get the supply chain entity belonging to the address"
      },
      "removeControlEntity(address)": {
        "notice": "Remove a control entity from the registry"
      },
      "removeSupplyChainEntity(address)": {
        "notice": "Remove a supply chain entity from the registry"
      }
    },
    "notice": "Contract that works as registry for all details regarding the supply chain",
    "version": 1
  }
}