{
  "contractName": "RBAC",
  "abi": [
    {
      "inputs": [],
      "stateMutability": "nonpayable",
      "type": "constructor"
    },
    {
      "anonymous": false,
      "inputs": [
        {
          "indexed": false,
          "internalType": "address",
          "name": "member",
          "type": "address"
        },
        {
          "indexed": false,
          "internalType": "string",
          "name": "roleId",
          "type": "string"
        }
      ],
      "name": "MemberAdded",
      "type": "event"
    },
    {
      "anonymous": false,
      "inputs": [
        {
          "indexed": false,
          "internalType": "address",
          "name": "member",
          "type": "address"
        },
        {
          "indexed": false,
          "internalType": "string",
          "name": "roleId",
          "type": "string"
        }
      ],
      "name": "MemberRemoved",
      "type": "event"
    },
    {
      "anonymous": false,
      "inputs": [
        {
          "indexed": false,
          "internalType": "string",
          "name": "roleId",
          "type": "string"
        }
      ],
      "name": "RoleCreated",
      "type": "event"
    },
    {
      "inputs": [],
      "name": "ROOT_ROLE",
      "outputs": [
        {
          "internalType": "string",
          "name": "",
          "type": "string"
        }
      ],
      "stateMutability": "view",
      "type": "function",
      "constant": true
    },
    {
      "inputs": [],
      "name": "SUPPLY_CHAIN_ADMIN_ROLE",
      "outputs": [
        {
          "internalType": "string",
          "name": "",
          "type": "string"
        }
      ],
      "stateMutability": "view",
      "type": "function",
      "constant": true
    },
    {
      "inputs": [],
      "name": "SUPPLY_CHAIN_CONTROL_ENTITY_ROLE",
      "outputs": [
        {
          "internalType": "string",
          "name": "",
          "type": "string"
        }
      ],
      "stateMutability": "view",
      "type": "function",
      "constant": true
    },
    {
      "inputs": [],
      "name": "SUPPLY_CHAIN_ENTITY_ROLE",
      "outputs": [
        {
          "internalType": "string",
          "name": "",
          "type": "string"
        }
      ],
      "stateMutability": "view",
      "type": "function",
      "constant": true
    },
    {
      "inputs": [],
      "name": "SUPPLY_CHAIN_MINTER_ROLE",
      "outputs": [
        {
          "internalType": "string",
          "name": "",
          "type": "string"
        }
      ],
      "stateMutability": "view",
      "type": "function",
      "constant": true
    },
    {
      "inputs": [
        {
          "internalType": "string",
          "name": "_roleId",
          "type": "string"
        }
      ],
      "name": "roleExists",
      "outputs": [
        {
          "internalType": "bool",
          "name": "",
          "type": "bool"
        }
      ],
      "stateMutability": "view",
      "type": "function",
      "constant": true
    },
    {
      "inputs": [
        {
          "internalType": "address",
          "name": "_member",
          "type": "address"
        },
        {
          "internalType": "string",
          "name": "_roleId",
          "type": "string"
        }
      ],
      "name": "hasRole",
      "outputs": [
        {
          "internalType": "bool",
          "name": "",
          "type": "bool"
        }
      ],
      "stateMutability": "view",
      "type": "function",
      "constant": true
    },
    {
      "inputs": [
        {
          "internalType": "address",
          "name": "_member",
          "type": "address"
        },
        {
          "internalType": "string",
          "name": "_roleId",
          "type": "string"
        }
      ],
      "name": "addMember",
      "outputs": [],
      "stateMutability": "nonpayable",
      "type": "function"
    },
    {
      "inputs": [
        {
          "internalType": "address",
          "name": "_member",
          "type": "address"
        },
        {
          "internalType": "string",
          "name": "_roleId",
          "type": "string"
        }
      ],
      "name": "removeMember",
      "outputs": [],
      "stateMutability": "nonpayable",
      "type": "function"
    }
  ],
  "bytecode": "0x60806040523480156200001157600080fd5b506200008f62000026620004c060201b60201c565b60006040518060400160405280600481526020017f524f4f54000000000000000000000000000000000000000000000000000000008152506040516200006d919062000972565b9081526020016040518091039020620004c860201b620006ef1790919060201c565b506001806040518060400160405280600481526020017f524f4f5400000000000000000000000000000000000000000000000000000000815250604051620000d8919062000972565b908152602001604051809103902060006101000a81548160ff021916908315150217905550620001436040518060400160405280600781526020017f434f4e54524f4c000000000000000000000000000000000000000000000000008152506200050060201b60201c565b620001896040518060400160405280601381526020017f535550504c595f434841494e5f454e54495459000000000000000000000000008152506200050060201b60201c565b620001cf6040518060400160405280600581526020017f41444d494e0000000000000000000000000000000000000000000000000000008152506200050060201b60201c565b620002156040518060400160405280600681526020017f4d494e54455200000000000000000000000000000000000000000000000000008152506200050060201b60201c565b7fb166be894521206d0ac51e4d2cee3a7fe26260bbef03f04377cfc34ed93d04a66040518060400160405280600481526020017f524f4f54000000000000000000000000000000000000000000000000000000008152506040516200027b9190620009bf565b60405180910390a17fb166be894521206d0ac51e4d2cee3a7fe26260bbef03f04377cfc34ed93d04a66040518060400160405280600781526020017f434f4e54524f4c00000000000000000000000000000000000000000000000000815250604051620002e99190620009bf565b60405180910390a17fb166be894521206d0ac51e4d2cee3a7fe26260bbef03f04377cfc34ed93d04a66040518060400160405280601381526020017f535550504c595f434841494e5f454e5449545900000000000000000000000000815250604051620003579190620009bf565b60405180910390a17fb166be894521206d0ac51e4d2cee3a7fe26260bbef03f04377cfc34ed93d04a66040518060400160405280600581526020017f41444d494e000000000000000000000000000000000000000000000000000000815250604051620003c59190620009bf565b60405180910390a17fb166be894521206d0ac51e4d2cee3a7fe26260bbef03f04377cfc34ed93d04a66040518060400160405280600681526020017f4d494e5445520000000000000000000000000000000000000000000000000000815250604051620004339190620009bf565b60405180910390a17f5660dfedd5f2d238aa153a2c488e927eb29ea0e780d70089f0e90c7409a2079c6200046c620004c060201b60201c565b6040518060400160405280600481526020017f524f4f5400000000000000000000000000000000000000000000000000000000815250604051620004b29291906200098b565b60405180910390a162000aeb565b600033905090565b6000620004f8836000018373ffffffffffffffffffffffffffffffffffffffff1660001b6200068160201b60201c565b905092915050565b6200051181620006fb60201b60201c565b1562000554576040517f08c379a00000000000000000000000000000000000000000000000000000000081526004016200054b9062000a05565b60405180910390fd5b620005aa62000568620004c060201b60201c565b6040518060400160405280600481526020017f524f4f54000000000000000000000000000000000000000000000000000000008152506200073260201b60201c565b620005ec576040517f08c379a0000000000000000000000000000000000000000000000000000000008152600401620005e390620009e3565b60405180910390fd5b600081604051620005fe919062000972565b9081526020016040518091039020506001808260405162000620919062000972565b908152602001604051809103902060006101000a81548160ff0219169083151502179055507fb166be894521206d0ac51e4d2cee3a7fe26260bbef03f04377cfc34ed93d04a681604051620006769190620009bf565b60405180910390a150565b6000620006958383620007c860201b60201c565b620006f0578260000182908060018154018082558091505060019003906000526020600020016000909190919091505582600001805490508360010160008481526020019081526020016000208190555060019050620006f5565b600090505b92915050565b60006001826040516200070f919062000972565b908152602001604051809103902060009054906101000a900460ff169050919050565b60006200074582620006fb60201b60201c565b62000787576040517f08c379a00000000000000000000000000000000000000000000000000000000081526004016200077e9062000a27565b60405180910390fd5b620007c0836000846040516200079e919062000972565b9081526020016040518091039020620007eb60201b6200071f1790919060201c565b905092915050565b600080836001016000848152602001908152602001600020541415905092915050565b60006200081b836000018373ffffffffffffffffffffffffffffffffffffffff1660001b620007c860201b60201c565b905092915050565b6200082e8162000a70565b82525050565b6000620008418262000a49565b6200084d818562000a54565b93506200085f81856020860162000aa4565b6200086a8162000ada565b840191505092915050565b6000620008828262000a49565b6200088e818562000a65565b9350620008a081856020860162000aa4565b80840191505092915050565b6000620008bb601f8362000a54565b91507f43616c6c65722061646472657373206973206e6f7420616e2061646d696e2e006000830152602082019050919050565b6000620008fd60148362000a54565b91507f526f6c6520616c7265616479206578697374732e0000000000000000000000006000830152602082019050919050565b60006200093f60138362000a54565b91507f526f6c6520646f65736e27742065786973742e000000000000000000000000006000830152602082019050919050565b600062000980828462000875565b915081905092915050565b6000604082019050620009a2600083018562000823565b8181036020830152620009b6818462000834565b90509392505050565b60006020820190508181036000830152620009db818462000834565b905092915050565b60006020820190508181036000830152620009fe81620008ac565b9050919050565b6000602082019050818103600083015262000a2081620008ee565b9050919050565b6000602082019050818103600083015262000a428162000930565b9050919050565b600081519050919050565b600082825260208201905092915050565b600081905092915050565b600062000a7d8262000a84565b9050919050565b600073ffffffffffffffffffffffffffffffffffffffff82169050919050565b60005b8381101562000ac457808201518184015260208101905062000aa7565b8381111562000ad4576000848401525b50505050565b6000601f19601f8301169050919050565b61100a8062000afb6000396000f3fe608060405234801561001057600080fd5b50600436106100935760003560e01c80634426fb0b116100665780634426fb0b146101205780637e8c7f081461013e5780638c84d39c1461015c578063c127c2471461017a578063d00cce411461019657610093565b806313552bf8146100985780631cee4a9d146100b4578063217fe6c6146100d257806339e7c5f514610102575b600080fd5b6100b260048036038101906100ad9190610a15565b6101c6565b005b6100bc610370565b6040516100c99190610d46565b60405180910390f35b6100ec60048036038101906100e79190610a15565b6103a9565b6040516100f99190610d2b565b60405180910390f35b61010a61042b565b6040516101179190610d46565b60405180910390f35b610128610464565b6040516101359190610d46565b60405180910390f35b61014661049d565b6040516101539190610d46565b60405180910390f35b6101646104d6565b6040516101719190610d46565b60405180910390f35b610194600480360381019061018f9190610a15565b61050f565b005b6101b060048036038101906101ab9190610a69565b6106ba565b6040516101bd9190610d2b565b60405180910390f35b6101cf816106ba565b61020e576040517f08c379a000000000000000000000000000000000000000000000000000000000815260040161020590610dc8565b60405180910390fd5b61027a61021961074f565b60006040518060400160405280600481526020017f524f4f540000000000000000000000000000000000000000000000000000000081525060405161025e9190610ce4565b908152602001604051809103902061071f90919063ffffffff16565b6102b9576040517f08c379a00000000000000000000000000000000000000000000000000000000081526004016102b090610da8565b60405180910390fd5b6102c382826103a9565b610302576040517f08c379a00000000000000000000000000000000000000000000000000000000081526004016102f990610d68565b60405180910390fd5b610332826000836040516103169190610ce4565b908152602001604051809103902061075790919063ffffffff16565b507f969f49cd69e4049f144b7dd012d53b6ef9064eca8bca1f4b30162ab52e04f5c18282604051610364929190610cfb565b60405180910390a15050565b6040518060400160405280601381526020017f535550504c595f434841494e5f454e544954590000000000000000000000000081525081565b60006103b4826106ba565b6103f3576040517f08c379a00000000000000000000000000000000000000000000000000000000081526004016103ea90610dc8565b60405180910390fd5b610423836000846040516104079190610ce4565b908152602001604051809103902061071f90919063ffffffff16565b905092915050565b6040518060400160405280600781526020017f434f4e54524f4c0000000000000000000000000000000000000000000000000081525081565b6040518060400160405280600681526020017f4d494e544552000000000000000000000000000000000000000000000000000081525081565b6040518060400160405280600481526020017f524f4f540000000000000000000000000000000000000000000000000000000081525081565b6040518060400160405280600581526020017f41444d494e00000000000000000000000000000000000000000000000000000081525081565b610518816106ba565b610557576040517f08c379a000000000000000000000000000000000000000000000000000000000815260040161054e90610dc8565b60405180910390fd5b6105c361056261074f565b60006040518060400160405280600481526020017f524f4f54000000000000000000000000000000000000000000000000000000008152506040516105a79190610ce4565b908152602001604051809103902061071f90919063ffffffff16565b610602576040517f08c379a00000000000000000000000000000000000000000000000000000000081526004016105f990610d88565b60405180910390fd5b61060c82826103a9565b1561064c576040517f08c379a000000000000000000000000000000000000000000000000000000000815260040161064390610de8565b60405180910390fd5b61067c826000836040516106609190610ce4565b90815260200160405180910390206106ef90919063ffffffff16565b507f5660dfedd5f2d238aa153a2c488e927eb29ea0e780d70089f0e90c7409a2079c82826040516106ae929190610cfb565b60405180910390a15050565b60006001826040516106cc9190610ce4565b908152602001604051809103902060009054906101000a900460ff169050919050565b6000610717836000018373ffffffffffffffffffffffffffffffffffffffff1660001b610787565b905092915050565b6000610747836000018373ffffffffffffffffffffffffffffffffffffffff1660001b6107f7565b905092915050565b600033905090565b600061077f836000018373ffffffffffffffffffffffffffffffffffffffff1660001b61081a565b905092915050565b600061079383836107f7565b6107ec5782600001829080600181540180825580915050600190039060005260206000200160009091909190915055826000018054905083600101600084815260200190815260200160002081905550600190506107f1565b600090505b92915050565b600080836001016000848152602001908152602001600020541415905092915050565b6000808360010160008481526020019081526020016000205490506000811461098c57600060018261084c9190610e90565b90506000600186600001805490506108649190610e90565b905060008660000182815481106108a4577f4e487b7100000000000000000000000000000000000000000000000000000000600052603260045260246000fd5b90600052602060002001549050808760000184815481106108ee577f4e487b7100000000000000000000000000000000000000000000000000000000600052603260045260246000fd5b9060005260206000200181905550838760010160008381526020019081526020016000208190555086600001805480610950577f4e487b7100000000000000000000000000000000000000000000000000000000600052603160045260246000fd5b60019003818190600052602060002001600090559055866001016000878152602001908152602001600020600090556001945050505050610992565b60009150505b92915050565b60006109ab6109a684610e39565b610e08565b9050828152602081018484840111156109c357600080fd5b6109ce848285610f0c565b509392505050565b6000813590506109e581610fbd565b92915050565b600082601f8301126109fc57600080fd5b8135610a0c848260208601610998565b91505092915050565b60008060408385031215610a2857600080fd5b6000610a36858286016109d6565b925050602083013567ffffffffffffffff811115610a5357600080fd5b610a5f858286016109eb565b9150509250929050565b600060208284031215610a7b57600080fd5b600082013567ffffffffffffffff811115610a9557600080fd5b610aa1848285016109eb565b91505092915050565b610ab381610ec4565b82525050565b610ac281610ed6565b82525050565b6000610ad382610e69565b610add8185610e74565b9350610aed818560208601610f1b565b610af681610fac565b840191505092915050565b6000610b0c82610e69565b610b168185610e85565b9350610b26818560208601610f1b565b80840191505092915050565b6000610b3f601e83610e74565b91507f41646472657373206973206e6f74206d656d626572206f6620726f6c652e00006000830152602082019050919050565b6000610b7f602183610e74565b91507f43616c6c657220616464726573732063616e277420616464206d656d6265727360008301527f2e000000000000000000000000000000000000000000000000000000000000006020830152604082019050919050565b6000610be5602483610e74565b91507f43616c6c657220616464726573732063616e27742072656d6f7665206d656d6260008301527f6572732e000000000000000000000000000000000000000000000000000000006020830152604082019050919050565b6000610c4b601383610e74565b91507f526f6c6520646f65736e27742065786973742e000000000000000000000000006000830152602082019050919050565b6000610c8b602283610e74565b91507f4164647265737320697320616c7265616479206d656d626572206f6620726f6c60008301527f652e0000000000000000000000000000000000000000000000000000000000006020830152604082019050919050565b6000610cf08284610b01565b915081905092915050565b6000604082019050610d106000830185610aaa565b8181036020830152610d228184610ac8565b90509392505050565b6000602082019050610d406000830184610ab9565b92915050565b60006020820190508181036000830152610d608184610ac8565b905092915050565b60006020820190508181036000830152610d8181610b32565b9050919050565b60006020820190508181036000830152610da181610b72565b9050919050565b60006020820190508181036000830152610dc181610bd8565b9050919050565b60006020820190508181036000830152610de181610c3e565b9050919050565b60006020820190508181036000830152610e0181610c7e565b9050919050565b6000604051905081810181811067ffffffffffffffff82111715610e2f57610e2e610f7d565b5b8060405250919050565b600067ffffffffffffffff821115610e5457610e53610f7d565b5b601f19601f8301169050602081019050919050565b600081519050919050565b600082825260208201905092915050565b600081905092915050565b6000610e9b82610f02565b9150610ea683610f02565b925082821015610eb957610eb8610f4e565b5b828203905092915050565b6000610ecf82610ee2565b9050919050565b60008115159050919050565b600073ffffffffffffffffffffffffffffffffffffffff82169050919050565b6000819050919050565b82818337600083830152505050565b60005b83811015610f39578082015181840152602081019050610f1e565b83811115610f48576000848401525b50505050565b7f4e487b7100000000000000000000000000000000000000000000000000000000600052601160045260246000fd5b7f4e487b7100000000000000000000000000000000000000000000000000000000600052604160045260246000fd5b6000601f19601f8301169050919050565b610fc681610ec4565b8114610fd157600080fd5b5056fea2646970667358221220fac400e237f7fc88f9987e8a7a78ba13f16c01a529247ec90f25ce4306f5ca2f64736f6c63430008000033",
  "immutableReferences": {},
  "source": "// SPDX-License-Identifier: MIT\npragma solidity >=0.4.22 <0.9.0;\n\nimport \"openzeppelin-solidity/contracts/utils/structs/EnumerableSet.sol\";\nimport \"openzeppelin-solidity/contracts/utils/Address.sol\";\nimport \"openzeppelin-solidity/contracts/utils/Context.sol\";\n\n\n/**\n * Implements Role Based Acces Control using a smart contract. (Originally from\n * https://github.com/HQ20/contracts/blob/v0.0.2/contracts/access/RBAC.sol and then\n * adapted to fit newer compiler version)\n */\ncontract RBAC is Context{\n    using EnumerableSet for EnumerableSet.AddressSet;\n    using Address for address;\n\n    mapping(string => EnumerableSet.AddressSet) private _roles;\n    mapping(string => bool) private _roleIds;\n\n    event RoleCreated(string roleId);\n    event MemberAdded(address member, string roleId);\n    event MemberRemoved(address member, string roleId);\n\n    // different roles that exist\n    string public constant ROOT_ROLE = \"ROOT\";\n    string public constant SUPPLY_CHAIN_ADMIN_ROLE = \"ADMIN\";\n    string public constant SUPPLY_CHAIN_CONTROL_ENTITY_ROLE = \"CONTROL\";\n    string public constant SUPPLY_CHAIN_ENTITY_ROLE = \"SUPPLY_CHAIN_ENTITY\";\n    string public constant SUPPLY_CHAIN_MINTER_ROLE = \"MINTER\";\n\n\n    /**\n     * @notice The contract initializer\n     */\n    constructor() public {\n        _roles[ROOT_ROLE].add(_msgSender());\n        _roleIds[ROOT_ROLE] = true;\n\n        addRole(SUPPLY_CHAIN_CONTROL_ENTITY_ROLE);\n        addRole(SUPPLY_CHAIN_ENTITY_ROLE);\n        addRole(SUPPLY_CHAIN_ADMIN_ROLE);\n        addRole(SUPPLY_CHAIN_MINTER_ROLE);\n\n        emit RoleCreated(ROOT_ROLE);\n        emit RoleCreated(SUPPLY_CHAIN_CONTROL_ENTITY_ROLE);\n        emit RoleCreated(SUPPLY_CHAIN_ENTITY_ROLE);\n        emit RoleCreated(SUPPLY_CHAIN_ADMIN_ROLE);\n        emit RoleCreated(SUPPLY_CHAIN_MINTER_ROLE);\n        emit MemberAdded(_msgSender(), ROOT_ROLE);\n    }\n\n    /**\n     * @notice A method to verify if a role exists.\n     * @param _roleId The id of the role being verified.\n     * @return True or false.\n     */\n    function roleExists(string memory _roleId) public view returns (bool) {\n        return (_roleIds[_roleId]);\n    }\n\n    /**\n     * @notice A method to verify whether an member is a member of a role\n     * @param _member The member to verify.\n     * @param _roleId The role to look into.\n     * @return Whether the member is a member of the role.\n     */\n    function hasRole(address _member, string memory _roleId)\n        public\n        view\n        returns (bool)\n    {\n        require(roleExists(_roleId), \"Role doesn't exist.\");\n        return _roles[_roleId].contains(_member);\n    }\n\n    /**\n     * @notice A method to create a new role.\n     * @param _roleId The id for role that is being created\n     */\n    function addRole(string memory _roleId) private {\n        // require(_roleId != NO_ROLE, \"Reserved role id.\");\n        require(!roleExists(_roleId), \"Role already exists.\");\n        require(hasRole(_msgSender(), ROOT_ROLE), \"Caller address is not an admin.\");\n\n        _roles[_roleId];\n        _roleIds[_roleId] = true;\n        emit RoleCreated(_roleId);\n    }\n    \n    /**\n     * @notice A method to add a member to a role\n     * @param _member The member to add as a member.\n     * @param _roleId The role to add the member to.\n     */\n    function addMember(address _member, string memory _roleId) public {\n        require(roleExists(_roleId), \"Role doesn't exist.\");\n        require(\n            _roles[ROOT_ROLE].contains(_msgSender()),\n            \"Caller address can't add members.\"\n        );\n        require(\n            !hasRole(_member, _roleId),\n            \"Address is already member of role.\"\n        );\n\n        _roles[_roleId].add(_member);\n        emit MemberAdded(_member, _roleId);\n    }\n\n    /**\n     * @notice A method to remove a member from a role\n     * @param _member The member to remove as a member.\n     * @param _roleId The role to remove the member from.\n     */\n    function removeMember(address _member, string memory _roleId) public {\n        require(roleExists(_roleId), \"Role doesn't exist.\");\n        require(\n            _roles[ROOT_ROLE].contains(_msgSender()),\n            \"Caller address can't remove members.\"\n        );\n        require(hasRole(_member, _roleId), \"Address is not member of role.\");\n\n        _roles[_roleId].remove(_member);\n        emit MemberRemoved(_member, _roleId);\n    }\n}\n",
  "sourcePath": "/Users/jabbathegut/repositories/ba_sources/textile-supply-chain/contracts/RBAC.sol",
  "compiler": {
    "name": "solc",
    "version": "0.8.0+commit.c7dfd78e.Emscripten.clang"
  },
  "schemaVersion": "3.3.4",
  "updatedAt": "2021-05-13T13:46:28.947Z",
  "networkType": "ethereum",
  "devdoc": {
    "kind": "dev",
    "methods": {
      "addMember(address,string)": {
        "params": {
          "_member": "The member to add as a member.",
          "_roleId": "The role to add the member to."
        }
      },
      "hasRole(address,string)": {
        "params": {
          "_member": "The member to verify.",
          "_roleId": "The role to look into."
        },
        "returns": {
          "_0": "Whether the member is a member of the role."
        }
      },
      "removeMember(address,string)": {
        "params": {
          "_member": "The member to remove as a member.",
          "_roleId": "The role to remove the member from."
        }
      },
      "roleExists(string)": {
        "params": {
          "_roleId": "The id of the role being verified."
        },
        "returns": {
          "_0": "True or false."
        }
      }
    },
    "version": 1
  },
  "userdoc": {
    "kind": "user",
    "methods": {
      "addMember(address,string)": {
        "notice": "A method to add a member to a role"
      },
      "constructor": {
        "notice": "The contract initializer"
      },
      "hasRole(address,string)": {
        "notice": "A method to verify whether an member is a member of a role"
      },
      "removeMember(address,string)": {
        "notice": "A method to remove a member from a role"
      },
      "roleExists(string)": {
        "notice": "A method to verify if a role exists."
      }
    },
    "notice": "Implements Role Based Acces Control using a smart contract. (Originally from https://github.com/HQ20/contracts/blob/v0.0.2/contracts/access/RBAC.sol and then adapted to fit newer compiler version)",
    "version": 1
  }
}