{
  "contractName": "RBAC",
  "abi": [
    {
      "inputs": [],
      "stateMutability": "nonpayable",
      "type": "constructor"
    },
    {
      "anonymous": false,
      "inputs": [
        {
          "indexed": false,
          "internalType": "address",
          "name": "member",
          "type": "address"
        },
        {
          "indexed": false,
          "internalType": "string",
          "name": "roleId",
          "type": "string"
        }
      ],
      "name": "MemberAdded",
      "type": "event"
    },
    {
      "anonymous": false,
      "inputs": [
        {
          "indexed": false,
          "internalType": "address",
          "name": "member",
          "type": "address"
        },
        {
          "indexed": false,
          "internalType": "string",
          "name": "roleId",
          "type": "string"
        }
      ],
      "name": "MemberRemoved",
      "type": "event"
    },
    {
      "anonymous": false,
      "inputs": [
        {
          "indexed": false,
          "internalType": "string",
          "name": "roleId",
          "type": "string"
        }
      ],
      "name": "RoleCreated",
      "type": "event"
    },
    {
      "inputs": [],
      "name": "CONTROL_ROLE",
      "outputs": [
        {
          "internalType": "string",
          "name": "",
          "type": "string"
        }
      ],
      "stateMutability": "view",
      "type": "function",
      "constant": true
    },
    {
      "inputs": [],
      "name": "ROOT_ROLE",
      "outputs": [
        {
          "internalType": "string",
          "name": "",
          "type": "string"
        }
      ],
      "stateMutability": "view",
      "type": "function",
      "constant": true
    },
    {
      "inputs": [],
      "name": "SUPPLY_CHAIN_ENTITY_ROLE",
      "outputs": [
        {
          "internalType": "string",
          "name": "",
          "type": "string"
        }
      ],
      "stateMutability": "view",
      "type": "function",
      "constant": true
    },
    {
      "inputs": [
        {
          "internalType": "string",
          "name": "_roleId",
          "type": "string"
        }
      ],
      "name": "roleExists",
      "outputs": [
        {
          "internalType": "bool",
          "name": "",
          "type": "bool"
        }
      ],
      "stateMutability": "view",
      "type": "function",
      "constant": true
    },
    {
      "inputs": [
        {
          "internalType": "address",
          "name": "_member",
          "type": "address"
        },
        {
          "internalType": "string",
          "name": "_roleId",
          "type": "string"
        }
      ],
      "name": "hasRole",
      "outputs": [
        {
          "internalType": "bool",
          "name": "",
          "type": "bool"
        }
      ],
      "stateMutability": "view",
      "type": "function",
      "constant": true
    },
    {
      "inputs": [
        {
          "internalType": "address",
          "name": "_member",
          "type": "address"
        },
        {
          "internalType": "string",
          "name": "_roleId",
          "type": "string"
        }
      ],
      "name": "addMember",
      "outputs": [],
      "stateMutability": "nonpayable",
      "type": "function"
    },
    {
      "inputs": [
        {
          "internalType": "address",
          "name": "_member",
          "type": "address"
        },
        {
          "internalType": "string",
          "name": "_roleId",
          "type": "string"
        }
      ],
      "name": "removeMember",
      "outputs": [],
      "stateMutability": "nonpayable",
      "type": "function"
    }
  ],
  "bytecode": "0x60806040523480156200001157600080fd5b50620000803360006040518060400160405280600481526020017f524f4f54000000000000000000000000000000000000000000000000000000008152506040516200005e9190620007d5565b90815260200160405180910390206200033a60201b6200061d1790919060201c565b506001806040518060400160405280600481526020017f524f4f5400000000000000000000000000000000000000000000000000000000815250604051620000c99190620007d5565b908152602001604051809103902060006101000a81548160ff021916908315150217905550620001346040518060400160405280600781526020017f434f4e54524f4c000000000000000000000000000000000000000000000000008152506200037260201b60201c565b6200017a6040518060400160405280601381526020017f535550504c595f434841494e5f454e54495459000000000000000000000000008152506200037260201b60201c565b7fb166be894521206d0ac51e4d2cee3a7fe26260bbef03f04377cfc34ed93d04a66040518060400160405280600481526020017f524f4f5400000000000000000000000000000000000000000000000000000000815250604051620001e0919062000822565b60405180910390a17fb166be894521206d0ac51e4d2cee3a7fe26260bbef03f04377cfc34ed93d04a66040518060400160405280600781526020017f434f4e54524f4c000000000000000000000000000000000000000000000000008152506040516200024e919062000822565b60405180910390a17fb166be894521206d0ac51e4d2cee3a7fe26260bbef03f04377cfc34ed93d04a66040518060400160405280601381526020017f535550504c595f434841494e5f454e5449545900000000000000000000000000815250604051620002bc919062000822565b60405180910390a17f5660dfedd5f2d238aa153a2c488e927eb29ea0e780d70089f0e90c7409a2079c336040518060400160405280600481526020017f524f4f54000000000000000000000000000000000000000000000000000000008152506040516200032c929190620007ee565b60405180910390a16200094e565b60006200036a836000018373ffffffffffffffffffffffffffffffffffffffff1660001b620004e460201b60201c565b905092915050565b62000383816200055e60201b60201c565b15620003c6576040517f08c379a0000000000000000000000000000000000000000000000000000000008152600401620003bd9062000868565b60405180910390fd5b6200040d336040518060400160405280600481526020017f524f4f54000000000000000000000000000000000000000000000000000000008152506200059560201b60201c565b6200044f576040517f08c379a0000000000000000000000000000000000000000000000000000000008152600401620004469062000846565b60405180910390fd5b600081604051620004619190620007d5565b90815260200160405180910390205060018082604051620004839190620007d5565b908152602001604051809103902060006101000a81548160ff0219169083151502179055507fb166be894521206d0ac51e4d2cee3a7fe26260bbef03f04377cfc34ed93d04a681604051620004d9919062000822565b60405180910390a150565b6000620004f883836200062b60201b60201c565b6200055357826000018290806001815401808255809150506001900390600052602060002001600090919091909150558260000180549050836001016000848152602001908152602001600020819055506001905062000558565b600090505b92915050565b6000600182604051620005729190620007d5565b908152602001604051809103902060009054906101000a900460ff169050919050565b6000620005a8826200055e60201b60201c565b620005ea576040517f08c379a0000000000000000000000000000000000000000000000000000000008152600401620005e1906200088a565b60405180910390fd5b6200062383600084604051620006019190620007d5565b90815260200160405180910390206200064e60201b6200064d1790919060201c565b905092915050565b600080836001016000848152602001908152602001600020541415905092915050565b60006200067e836000018373ffffffffffffffffffffffffffffffffffffffff1660001b6200062b60201b60201c565b905092915050565b6200069181620008d3565b82525050565b6000620006a482620008ac565b620006b08185620008b7565b9350620006c281856020860162000907565b620006cd816200093d565b840191505092915050565b6000620006e582620008ac565b620006f18185620008c8565b93506200070381856020860162000907565b80840191505092915050565b60006200071e601f83620008b7565b91507f43616c6c65722061646472657373206973206e6f7420616e2061646d696e2e006000830152602082019050919050565b600062000760601483620008b7565b91507f526f6c6520616c7265616479206578697374732e0000000000000000000000006000830152602082019050919050565b6000620007a2601383620008b7565b91507f526f6c6520646f65736e27742065786973742e000000000000000000000000006000830152602082019050919050565b6000620007e38284620006d8565b915081905092915050565b600060408201905062000805600083018562000686565b818103602083015262000819818462000697565b90509392505050565b600060208201905081810360008301526200083e818462000697565b905092915050565b6000602082019050818103600083015262000861816200070f565b9050919050565b60006020820190508181036000830152620008838162000751565b9050919050565b60006020820190508181036000830152620008a58162000793565b9050919050565b600081519050919050565b600082825260208201905092915050565b600081905092915050565b6000620008e082620008e7565b9050919050565b600073ffffffffffffffffffffffffffffffffffffffff82169050919050565b60005b83811015620009275780820151818401526020810190506200090a565b8381111562000937576000848401525b50505050565b6000601f19601f8301169050919050565b610f30806200095e6000396000f3fe608060405234801561001057600080fd5b506004361061007d5760003560e01c80637e8c7f081161005b5780637e8c7f08146100ec578063c127c2471461010a578063d00cce4114610126578063d7a1e6ab146101565761007d565b806313552bf8146100825780631cee4a9d1461009e578063217fe6c6146100bc575b600080fd5b61009c6004803603810190610097919061093b565b610174565b005b6100a6610317565b6040516100b39190610c6c565b60405180910390f35b6100d660048036038101906100d1919061093b565b610350565b6040516100e39190610c51565b60405180910390f35b6100f46103d2565b6040516101019190610c6c565b60405180910390f35b610124600480360381019061011f919061093b565b61040b565b005b610140600480360381019061013b919061098f565b6105af565b60405161014d9190610c51565b60405180910390f35b61015e6105e4565b60405161016b9190610c6c565b60405180910390f35b61017d816105af565b6101bc576040517f08c379a00000000000000000000000000000000000000000000000000000000081526004016101b390610cee565b60405180910390fd5b6102213360006040518060400160405280600481526020017f524f4f54000000000000000000000000000000000000000000000000000000008152506040516102059190610c0a565b908152602001604051809103902061064d90919063ffffffff16565b610260576040517f08c379a000000000000000000000000000000000000000000000000000000000815260040161025790610cce565b60405180910390fd5b61026a8282610350565b6102a9576040517f08c379a00000000000000000000000000000000000000000000000000000000081526004016102a090610c8e565b60405180910390fd5b6102d9826000836040516102bd9190610c0a565b908152602001604051809103902061067d90919063ffffffff16565b507f969f49cd69e4049f144b7dd012d53b6ef9064eca8bca1f4b30162ab52e04f5c1828260405161030b929190610c21565b60405180910390a15050565b6040518060400160405280601381526020017f535550504c595f434841494e5f454e544954590000000000000000000000000081525081565b600061035b826105af565b61039a576040517f08c379a000000000000000000000000000000000000000000000000000000000815260040161039190610cee565b60405180910390fd5b6103ca836000846040516103ae9190610c0a565b908152602001604051809103902061064d90919063ffffffff16565b905092915050565b6040518060400160405280600481526020017f524f4f540000000000000000000000000000000000000000000000000000000081525081565b610414816105af565b610453576040517f08c379a000000000000000000000000000000000000000000000000000000000815260040161044a90610cee565b60405180910390fd5b6104b83360006040518060400160405280600481526020017f524f4f540000000000000000000000000000000000000000000000000000000081525060405161049c9190610c0a565b908152602001604051809103902061064d90919063ffffffff16565b6104f7576040517f08c379a00000000000000000000000000000000000000000000000000000000081526004016104ee90610cae565b60405180910390fd5b6105018282610350565b15610541576040517f08c379a000000000000000000000000000000000000000000000000000000000815260040161053890610d0e565b60405180910390fd5b610571826000836040516105559190610c0a565b908152602001604051809103902061061d90919063ffffffff16565b507f5660dfedd5f2d238aa153a2c488e927eb29ea0e780d70089f0e90c7409a2079c82826040516105a3929190610c21565b60405180910390a15050565b60006001826040516105c19190610c0a565b908152602001604051809103902060009054906101000a900460ff169050919050565b6040518060400160405280600781526020017f434f4e54524f4c0000000000000000000000000000000000000000000000000081525081565b6000610645836000018373ffffffffffffffffffffffffffffffffffffffff1660001b6106ad565b905092915050565b6000610675836000018373ffffffffffffffffffffffffffffffffffffffff1660001b61071d565b905092915050565b60006106a5836000018373ffffffffffffffffffffffffffffffffffffffff1660001b610740565b905092915050565b60006106b9838361071d565b610712578260000182908060018154018082558091505060019003906000526020600020016000909190919091505582600001805490508360010160008481526020019081526020016000208190555060019050610717565b600090505b92915050565b600080836001016000848152602001908152602001600020541415905092915050565b600080836001016000848152602001908152602001600020549050600081146108b25760006001826107729190610db6565b905060006001866000018054905061078a9190610db6565b905060008660000182815481106107ca577f4e487b7100000000000000000000000000000000000000000000000000000000600052603260045260246000fd5b9060005260206000200154905080876000018481548110610814577f4e487b7100000000000000000000000000000000000000000000000000000000600052603260045260246000fd5b9060005260206000200181905550838760010160008381526020019081526020016000208190555086600001805480610876577f4e487b7100000000000000000000000000000000000000000000000000000000600052603160045260246000fd5b600190038181906000526020600020016000905590558660010160008781526020019081526020016000206000905560019450505050506108b8565b60009150505b92915050565b60006108d16108cc84610d5f565b610d2e565b9050828152602081018484840111156108e957600080fd5b6108f4848285610e32565b509392505050565b60008135905061090b81610ee3565b92915050565b600082601f83011261092257600080fd5b81356109328482602086016108be565b91505092915050565b6000806040838503121561094e57600080fd5b600061095c858286016108fc565b925050602083013567ffffffffffffffff81111561097957600080fd5b61098585828601610911565b9150509250929050565b6000602082840312156109a157600080fd5b600082013567ffffffffffffffff8111156109bb57600080fd5b6109c784828501610911565b91505092915050565b6109d981610dea565b82525050565b6109e881610dfc565b82525050565b60006109f982610d8f565b610a038185610d9a565b9350610a13818560208601610e41565b610a1c81610ed2565b840191505092915050565b6000610a3282610d8f565b610a3c8185610dab565b9350610a4c818560208601610e41565b80840191505092915050565b6000610a65601e83610d9a565b91507f41646472657373206973206e6f74206d656d626572206f6620726f6c652e00006000830152602082019050919050565b6000610aa5602183610d9a565b91507f43616c6c657220616464726573732063616e277420616464206d656d6265727360008301527f2e000000000000000000000000000000000000000000000000000000000000006020830152604082019050919050565b6000610b0b602483610d9a565b91507f43616c6c657220616464726573732063616e27742072656d6f7665206d656d6260008301527f6572732e000000000000000000000000000000000000000000000000000000006020830152604082019050919050565b6000610b71601383610d9a565b91507f526f6c6520646f65736e27742065786973742e000000000000000000000000006000830152602082019050919050565b6000610bb1602283610d9a565b91507f4164647265737320697320616c7265616479206d656d626572206f6620726f6c60008301527f652e0000000000000000000000000000000000000000000000000000000000006020830152604082019050919050565b6000610c168284610a27565b915081905092915050565b6000604082019050610c3660008301856109d0565b8181036020830152610c4881846109ee565b90509392505050565b6000602082019050610c6660008301846109df565b92915050565b60006020820190508181036000830152610c8681846109ee565b905092915050565b60006020820190508181036000830152610ca781610a58565b9050919050565b60006020820190508181036000830152610cc781610a98565b9050919050565b60006020820190508181036000830152610ce781610afe565b9050919050565b60006020820190508181036000830152610d0781610b64565b9050919050565b60006020820190508181036000830152610d2781610ba4565b9050919050565b6000604051905081810181811067ffffffffffffffff82111715610d5557610d54610ea3565b5b8060405250919050565b600067ffffffffffffffff821115610d7a57610d79610ea3565b5b601f19601f8301169050602081019050919050565b600081519050919050565b600082825260208201905092915050565b600081905092915050565b6000610dc182610e28565b9150610dcc83610e28565b925082821015610ddf57610dde610e74565b5b828203905092915050565b6000610df582610e08565b9050919050565b60008115159050919050565b600073ffffffffffffffffffffffffffffffffffffffff82169050919050565b6000819050919050565b82818337600083830152505050565b60005b83811015610e5f578082015181840152602081019050610e44565b83811115610e6e576000848401525b50505050565b7f4e487b7100000000000000000000000000000000000000000000000000000000600052601160045260246000fd5b7f4e487b7100000000000000000000000000000000000000000000000000000000600052604160045260246000fd5b6000601f19601f8301169050919050565b610eec81610dea565b8114610ef757600080fd5b5056fea26469706673582212200fecf3b1e5d9d1bef3c676c36fa28c61728427e32bfa4223debfcf1be41caf9a64736f6c63430008000033",
  "immutableReferences": {},
  "source": "// SPDX-License-Identifier: MIT\npragma solidity >=0.4.22 <0.9.0;\n\nimport \"openzeppelin-solidity/contracts/utils/structs/EnumerableSet.sol\";\nimport \"openzeppelin-solidity/contracts/utils/Address.sol\";\n\n/**\n * Implements Role Based Acces Control using a smart contract. (Originally from\n * https://github.com/HQ20/contracts/blob/v0.0.2/contracts/access/RBAC.sol and then\n * adapted to fit newer compiler version)\n */\ncontract RBAC {\n    using EnumerableSet for EnumerableSet.AddressSet;\n    using Address for address;\n\n    mapping(string => EnumerableSet.AddressSet) private _roles;\n    mapping(string => bool) _roleIds;\n\n    event RoleCreated(string roleId);\n    event MemberAdded(address member, string roleId);\n    event MemberRemoved(address member, string roleId);\n\n    string public constant ROOT_ROLE = \"ROOT\";\n    string public constant CONTROL_ROLE = \"CONTROL\";\n    string public constant SUPPLY_CHAIN_ENTITY_ROLE = \"SUPPLY_CHAIN_ENTITY\";\n\n    /**\n     * @notice The contract initializer\n     */\n    constructor() public {\n        _roles[ROOT_ROLE].add(msg.sender);\n        _roleIds[ROOT_ROLE] = true;\n\n        addRole(CONTROL_ROLE);\n        addRole(SUPPLY_CHAIN_ENTITY_ROLE);\n\n        emit RoleCreated(ROOT_ROLE);\n        emit RoleCreated(CONTROL_ROLE);\n        emit RoleCreated(SUPPLY_CHAIN_ENTITY_ROLE);\n        emit MemberAdded(msg.sender, ROOT_ROLE);\n    }\n\n    /**\n     * @notice A method to verify if a role exists.\n     * @param _roleId The id of the role being verified.\n     * @return True or false.\n     */\n    function roleExists(string memory _roleId) public view returns (bool) {\n        return (_roleIds[_roleId]);\n    }\n\n    /**\n     * @notice A method to verify whether an member is a member of a role\n     * @param _member The member to verify.\n     * @param _roleId The role to look into.\n     * @return Whether the member is a member of the role.\n     */\n    function hasRole(address _member, string memory _roleId)\n        public\n        view\n        returns (bool)\n    {\n        require(roleExists(_roleId), \"Role doesn't exist.\");\n        return _roles[_roleId].contains(_member);\n    }\n\n    /**\n     * @notice A method to create a new role.\n     * @param _roleId The id for role that is being created\n     */\n    function addRole(string memory _roleId) private {\n        // require(_roleId != NO_ROLE, \"Reserved role id.\");\n        require(!roleExists(_roleId), \"Role already exists.\");\n        require(hasRole(msg.sender, ROOT_ROLE), \"Caller address is not an admin.\");\n\n        _roles[_roleId];\n        _roleIds[_roleId] = true;\n        emit RoleCreated(_roleId);\n    }\n    \n    /**\n     * @notice A method to add a member to a role\n     * @param _member The member to add as a member.\n     * @param _roleId The role to add the member to.\n     */\n    function addMember(address _member, string memory _roleId) public {\n        require(roleExists(_roleId), \"Role doesn't exist.\");\n        require(\n            _roles[ROOT_ROLE].contains(msg.sender),\n            \"Caller address can't add members.\"\n        );\n        require(\n            !hasRole(_member, _roleId),\n            \"Address is already member of role.\"\n        );\n\n        _roles[_roleId].add(_member);\n        emit MemberAdded(_member, _roleId);\n    }\n\n    /**\n     * @notice A method to remove a member from a role\n     * @param _member The member to remove as a member.\n     * @param _roleId The role to remove the member from.\n     */\n    function removeMember(address _member, string memory _roleId) public {\n        require(roleExists(_roleId), \"Role doesn't exist.\");\n        require(\n            _roles[ROOT_ROLE].contains(msg.sender),\n            \"Caller address can't remove members.\"\n        );\n        require(hasRole(_member, _roleId), \"Address is not member of role.\");\n\n        _roles[_roleId].remove(_member);\n        emit MemberRemoved(_member, _roleId);\n    }\n}\n",
  "sourcePath": "/Users/jabbathegut/repositories/textile-supply-chain-ethereum/contracts/RBAC.sol",
  "compiler": {
    "name": "solc",
    "version": "0.8.0+commit.c7dfd78e.Emscripten.clang"
  },
  "schemaVersion": "3.3.4",
  "updatedAt": "2021-05-04T13:08:06.653Z",
  "networkType": "ethereum",
  "devdoc": {
    "kind": "dev",
    "methods": {
      "addMember(address,string)": {
        "params": {
          "_member": "The member to add as a member.",
          "_roleId": "The role to add the member to."
        }
      },
      "hasRole(address,string)": {
        "params": {
          "_member": "The member to verify.",
          "_roleId": "The role to look into."
        },
        "returns": {
          "_0": "Whether the member is a member of the role."
        }
      },
      "removeMember(address,string)": {
        "params": {
          "_member": "The member to remove as a member.",
          "_roleId": "The role to remove the member from."
        }
      },
      "roleExists(string)": {
        "params": {
          "_roleId": "The id of the role being verified."
        },
        "returns": {
          "_0": "True or false."
        }
      }
    },
    "version": 1
  },
  "userdoc": {
    "kind": "user",
    "methods": {
      "addMember(address,string)": {
        "notice": "A method to add a member to a role"
      },
      "constructor": {
        "notice": "The contract initializer"
      },
      "hasRole(address,string)": {
        "notice": "A method to verify whether an member is a member of a role"
      },
      "removeMember(address,string)": {
        "notice": "A method to remove a member from a role"
      },
      "roleExists(string)": {
        "notice": "A method to verify if a role exists."
      }
    },
    "notice": "Implements Role Based Acces Control using a smart contract. (Originally from https://github.com/HQ20/contracts/blob/v0.0.2/contracts/access/RBAC.sol and then adapted to fit newer compiler version)",
    "version": 1
  }
}