{
  "contractName": "RBAC",
  "abi": [
    {
      "inputs": [],
      "stateMutability": "nonpayable",
      "type": "constructor"
    },
    {
      "anonymous": false,
      "inputs": [
        {
          "indexed": false,
          "internalType": "address",
          "name": "member",
          "type": "address"
        },
        {
          "indexed": false,
          "internalType": "string",
          "name": "roleId",
          "type": "string"
        }
      ],
      "name": "MemberAdded",
      "type": "event"
    },
    {
      "anonymous": false,
      "inputs": [
        {
          "indexed": false,
          "internalType": "address",
          "name": "member",
          "type": "address"
        },
        {
          "indexed": false,
          "internalType": "string",
          "name": "roleId",
          "type": "string"
        }
      ],
      "name": "MemberRemoved",
      "type": "event"
    },
    {
      "anonymous": false,
      "inputs": [
        {
          "indexed": false,
          "internalType": "string",
          "name": "roleId",
          "type": "string"
        }
      ],
      "name": "RoleCreated",
      "type": "event"
    },
    {
      "inputs": [],
      "name": "ROOT_ROLE",
      "outputs": [
        {
          "internalType": "string",
          "name": "",
          "type": "string"
        }
      ],
      "stateMutability": "view",
      "type": "function",
      "constant": true
    },
    {
      "inputs": [],
      "name": "SUPPLY_CHAIN_ADMIN_ROLE",
      "outputs": [
        {
          "internalType": "string",
          "name": "",
          "type": "string"
        }
      ],
      "stateMutability": "view",
      "type": "function",
      "constant": true
    },
    {
      "inputs": [],
      "name": "SUPPLY_CHAIN_CONTROL_ENTITY_ROLE",
      "outputs": [
        {
          "internalType": "string",
          "name": "",
          "type": "string"
        }
      ],
      "stateMutability": "view",
      "type": "function",
      "constant": true
    },
    {
      "inputs": [],
      "name": "SUPPLY_CHAIN_ENTITY_ROLE",
      "outputs": [
        {
          "internalType": "string",
          "name": "",
          "type": "string"
        }
      ],
      "stateMutability": "view",
      "type": "function",
      "constant": true
    },
    {
      "inputs": [
        {
          "internalType": "string",
          "name": "_roleId",
          "type": "string"
        }
      ],
      "name": "roleExists",
      "outputs": [
        {
          "internalType": "bool",
          "name": "",
          "type": "bool"
        }
      ],
      "stateMutability": "view",
      "type": "function",
      "constant": true
    },
    {
      "inputs": [
        {
          "internalType": "address",
          "name": "_member",
          "type": "address"
        },
        {
          "internalType": "string",
          "name": "_roleId",
          "type": "string"
        }
      ],
      "name": "hasRole",
      "outputs": [
        {
          "internalType": "bool",
          "name": "",
          "type": "bool"
        }
      ],
      "stateMutability": "view",
      "type": "function",
      "constant": true
    },
    {
      "inputs": [
        {
          "internalType": "address",
          "name": "_member",
          "type": "address"
        },
        {
          "internalType": "string",
          "name": "_roleId",
          "type": "string"
        }
      ],
      "name": "addMember",
      "outputs": [],
      "stateMutability": "nonpayable",
      "type": "function"
    },
    {
      "inputs": [
        {
          "internalType": "address",
          "name": "_member",
          "type": "address"
        },
        {
          "internalType": "string",
          "name": "_roleId",
          "type": "string"
        }
      ],
      "name": "removeMember",
      "outputs": [],
      "stateMutability": "nonpayable",
      "type": "function"
    }
  ],
  "bytecode": "0x60806040523480156200001157600080fd5b506200008f620000266200039e60201b60201c565b60006040518060400160405280600481526020017f524f4f54000000000000000000000000000000000000000000000000000000008152506040516200006d919062000850565b9081526020016040518091039020620003a660201b6200068d1790919060201c565b506001806040518060400160405280600481526020017f524f4f5400000000000000000000000000000000000000000000000000000000815250604051620000d8919062000850565b908152602001604051809103902060006101000a81548160ff021916908315150217905550620001436040518060400160405280600781526020017f434f4e54524f4c00000000000000000000000000000000000000000000000000815250620003de60201b60201c565b620001896040518060400160405280601381526020017f535550504c595f434841494e5f454e5449545900000000000000000000000000815250620003de60201b60201c565b620001cf6040518060400160405280600581526020017f41444d494e000000000000000000000000000000000000000000000000000000815250620003de60201b60201c565b7fb166be894521206d0ac51e4d2cee3a7fe26260bbef03f04377cfc34ed93d04a66040518060400160405280600481526020017f524f4f54000000000000000000000000000000000000000000000000000000008152506040516200023591906200089d565b60405180910390a17fb166be894521206d0ac51e4d2cee3a7fe26260bbef03f04377cfc34ed93d04a66040518060400160405280600781526020017f434f4e54524f4c00000000000000000000000000000000000000000000000000815250604051620002a391906200089d565b60405180910390a17fb166be894521206d0ac51e4d2cee3a7fe26260bbef03f04377cfc34ed93d04a66040518060400160405280601381526020017f535550504c595f434841494e5f454e54495459000000000000000000000000008152506040516200031191906200089d565b60405180910390a17f5660dfedd5f2d238aa153a2c488e927eb29ea0e780d70089f0e90c7409a2079c6200034a6200039e60201b60201c565b6040518060400160405280600481526020017f524f4f54000000000000000000000000000000000000000000000000000000008152506040516200039092919062000869565b60405180910390a1620009c9565b600033905090565b6000620003d6836000018373ffffffffffffffffffffffffffffffffffffffff1660001b6200055f60201b60201c565b905092915050565b620003ef81620005d960201b60201c565b1562000432576040517f08c379a00000000000000000000000000000000000000000000000000000000081526004016200042990620008e3565b60405180910390fd5b62000488620004466200039e60201b60201c565b6040518060400160405280600481526020017f524f4f54000000000000000000000000000000000000000000000000000000008152506200061060201b60201c565b620004ca576040517f08c379a0000000000000000000000000000000000000000000000000000000008152600401620004c190620008c1565b60405180910390fd5b600081604051620004dc919062000850565b90815260200160405180910390205060018082604051620004fe919062000850565b908152602001604051809103902060006101000a81548160ff0219169083151502179055507fb166be894521206d0ac51e4d2cee3a7fe26260bbef03f04377cfc34ed93d04a6816040516200055491906200089d565b60405180910390a150565b6000620005738383620006a660201b60201c565b620005ce578260000182908060018154018082558091505060019003906000526020600020016000909190919091505582600001805490508360010160008481526020019081526020016000208190555060019050620005d3565b600090505b92915050565b6000600182604051620005ed919062000850565b908152602001604051809103902060009054906101000a900460ff169050919050565b60006200062382620005d960201b60201c565b62000665576040517f08c379a00000000000000000000000000000000000000000000000000000000081526004016200065c9062000905565b60405180910390fd5b6200069e836000846040516200067c919062000850565b9081526020016040518091039020620006c960201b620006bd1790919060201c565b905092915050565b600080836001016000848152602001908152602001600020541415905092915050565b6000620006f9836000018373ffffffffffffffffffffffffffffffffffffffff1660001b620006a660201b60201c565b905092915050565b6200070c816200094e565b82525050565b60006200071f8262000927565b6200072b818562000932565b93506200073d81856020860162000982565b6200074881620009b8565b840191505092915050565b6000620007608262000927565b6200076c818562000943565b93506200077e81856020860162000982565b80840191505092915050565b600062000799601f8362000932565b91507f43616c6c65722061646472657373206973206e6f7420616e2061646d696e2e006000830152602082019050919050565b6000620007db60148362000932565b91507f526f6c6520616c7265616479206578697374732e0000000000000000000000006000830152602082019050919050565b60006200081d60138362000932565b91507f526f6c6520646f65736e27742065786973742e000000000000000000000000006000830152602082019050919050565b60006200085e828462000753565b915081905092915050565b600060408201905062000880600083018562000701565b818103602083015262000894818462000712565b90509392505050565b60006020820190508181036000830152620008b9818462000712565b905092915050565b60006020820190508181036000830152620008dc816200078a565b9050919050565b60006020820190508181036000830152620008fe81620007cc565b9050919050565b6000602082019050818103600083015262000920816200080e565b9050919050565b600081519050919050565b600082825260208201905092915050565b600081905092915050565b60006200095b8262000962565b9050919050565b600073ffffffffffffffffffffffffffffffffffffffff82169050919050565b60005b83811015620009a257808201518184015260208101905062000985565b83811115620009b2576000848401525b50505050565b6000601f19601f8301169050919050565b610fa880620009d96000396000f3fe608060405234801561001057600080fd5b50600436106100885760003560e01c80637e8c7f081161005b5780637e8c7f08146101155780638c84d39c14610133578063c127c24714610151578063d00cce411461016d57610088565b806313552bf81461008d5780631cee4a9d146100a9578063217fe6c6146100c757806339e7c5f5146100f7575b600080fd5b6100a760048036038101906100a291906109b3565b61019d565b005b6100b1610347565b6040516100be9190610ce4565b60405180910390f35b6100e160048036038101906100dc91906109b3565b610380565b6040516100ee9190610cc9565b60405180910390f35b6100ff610402565b60405161010c9190610ce4565b60405180910390f35b61011d61043b565b60405161012a9190610ce4565b60405180910390f35b61013b610474565b6040516101489190610ce4565b60405180910390f35b61016b600480360381019061016691906109b3565b6104ad565b005b61018760048036038101906101829190610a07565b610658565b6040516101949190610cc9565b60405180910390f35b6101a681610658565b6101e5576040517f08c379a00000000000000000000000000000000000000000000000000000000081526004016101dc90610d66565b60405180910390fd5b6102516101f06106ed565b60006040518060400160405280600481526020017f524f4f54000000000000000000000000000000000000000000000000000000008152506040516102359190610c82565b90815260200160405180910390206106bd90919063ffffffff16565b610290576040517f08c379a000000000000000000000000000000000000000000000000000000000815260040161028790610d46565b60405180910390fd5b61029a8282610380565b6102d9576040517f08c379a00000000000000000000000000000000000000000000000000000000081526004016102d090610d06565b60405180910390fd5b610309826000836040516102ed9190610c82565b90815260200160405180910390206106f590919063ffffffff16565b507f969f49cd69e4049f144b7dd012d53b6ef9064eca8bca1f4b30162ab52e04f5c1828260405161033b929190610c99565b60405180910390a15050565b6040518060400160405280601381526020017f535550504c595f434841494e5f454e544954590000000000000000000000000081525081565b600061038b82610658565b6103ca576040517f08c379a00000000000000000000000000000000000000000000000000000000081526004016103c190610d66565b60405180910390fd5b6103fa836000846040516103de9190610c82565b90815260200160405180910390206106bd90919063ffffffff16565b905092915050565b6040518060400160405280600781526020017f434f4e54524f4c0000000000000000000000000000000000000000000000000081525081565b6040518060400160405280600481526020017f524f4f540000000000000000000000000000000000000000000000000000000081525081565b6040518060400160405280600581526020017f41444d494e00000000000000000000000000000000000000000000000000000081525081565b6104b681610658565b6104f5576040517f08c379a00000000000000000000000000000000000000000000000000000000081526004016104ec90610d66565b60405180910390fd5b6105616105006106ed565b60006040518060400160405280600481526020017f524f4f54000000000000000000000000000000000000000000000000000000008152506040516105459190610c82565b90815260200160405180910390206106bd90919063ffffffff16565b6105a0576040517f08c379a000000000000000000000000000000000000000000000000000000000815260040161059790610d26565b60405180910390fd5b6105aa8282610380565b156105ea576040517f08c379a00000000000000000000000000000000000000000000000000000000081526004016105e190610d86565b60405180910390fd5b61061a826000836040516105fe9190610c82565b908152602001604051809103902061068d90919063ffffffff16565b507f5660dfedd5f2d238aa153a2c488e927eb29ea0e780d70089f0e90c7409a2079c828260405161064c929190610c99565b60405180910390a15050565b600060018260405161066a9190610c82565b908152602001604051809103902060009054906101000a900460ff169050919050565b60006106b5836000018373ffffffffffffffffffffffffffffffffffffffff1660001b610725565b905092915050565b60006106e5836000018373ffffffffffffffffffffffffffffffffffffffff1660001b610795565b905092915050565b600033905090565b600061071d836000018373ffffffffffffffffffffffffffffffffffffffff1660001b6107b8565b905092915050565b60006107318383610795565b61078a57826000018290806001815401808255809150506001900390600052602060002001600090919091909150558260000180549050836001016000848152602001908152602001600020819055506001905061078f565b600090505b92915050565b600080836001016000848152602001908152602001600020541415905092915050565b6000808360010160008481526020019081526020016000205490506000811461092a5760006001826107ea9190610e2e565b90506000600186600001805490506108029190610e2e565b90506000866000018281548110610842577f4e487b7100000000000000000000000000000000000000000000000000000000600052603260045260246000fd5b906000526020600020015490508087600001848154811061088c577f4e487b7100000000000000000000000000000000000000000000000000000000600052603260045260246000fd5b90600052602060002001819055508387600101600083815260200190815260200160002081905550866000018054806108ee577f4e487b7100000000000000000000000000000000000000000000000000000000600052603160045260246000fd5b60019003818190600052602060002001600090559055866001016000878152602001908152602001600020600090556001945050505050610930565b60009150505b92915050565b600061094961094484610dd7565b610da6565b90508281526020810184848401111561096157600080fd5b61096c848285610eaa565b509392505050565b60008135905061098381610f5b565b92915050565b600082601f83011261099a57600080fd5b81356109aa848260208601610936565b91505092915050565b600080604083850312156109c657600080fd5b60006109d485828601610974565b925050602083013567ffffffffffffffff8111156109f157600080fd5b6109fd85828601610989565b9150509250929050565b600060208284031215610a1957600080fd5b600082013567ffffffffffffffff811115610a3357600080fd5b610a3f84828501610989565b91505092915050565b610a5181610e62565b82525050565b610a6081610e74565b82525050565b6000610a7182610e07565b610a7b8185610e12565b9350610a8b818560208601610eb9565b610a9481610f4a565b840191505092915050565b6000610aaa82610e07565b610ab48185610e23565b9350610ac4818560208601610eb9565b80840191505092915050565b6000610add601e83610e12565b91507f41646472657373206973206e6f74206d656d626572206f6620726f6c652e00006000830152602082019050919050565b6000610b1d602183610e12565b91507f43616c6c657220616464726573732063616e277420616464206d656d6265727360008301527f2e000000000000000000000000000000000000000000000000000000000000006020830152604082019050919050565b6000610b83602483610e12565b91507f43616c6c657220616464726573732063616e27742072656d6f7665206d656d6260008301527f6572732e000000000000000000000000000000000000000000000000000000006020830152604082019050919050565b6000610be9601383610e12565b91507f526f6c6520646f65736e27742065786973742e000000000000000000000000006000830152602082019050919050565b6000610c29602283610e12565b91507f4164647265737320697320616c7265616479206d656d626572206f6620726f6c60008301527f652e0000000000000000000000000000000000000000000000000000000000006020830152604082019050919050565b6000610c8e8284610a9f565b915081905092915050565b6000604082019050610cae6000830185610a48565b8181036020830152610cc08184610a66565b90509392505050565b6000602082019050610cde6000830184610a57565b92915050565b60006020820190508181036000830152610cfe8184610a66565b905092915050565b60006020820190508181036000830152610d1f81610ad0565b9050919050565b60006020820190508181036000830152610d3f81610b10565b9050919050565b60006020820190508181036000830152610d5f81610b76565b9050919050565b60006020820190508181036000830152610d7f81610bdc565b9050919050565b60006020820190508181036000830152610d9f81610c1c565b9050919050565b6000604051905081810181811067ffffffffffffffff82111715610dcd57610dcc610f1b565b5b8060405250919050565b600067ffffffffffffffff821115610df257610df1610f1b565b5b601f19601f8301169050602081019050919050565b600081519050919050565b600082825260208201905092915050565b600081905092915050565b6000610e3982610ea0565b9150610e4483610ea0565b925082821015610e5757610e56610eec565b5b828203905092915050565b6000610e6d82610e80565b9050919050565b60008115159050919050565b600073ffffffffffffffffffffffffffffffffffffffff82169050919050565b6000819050919050565b82818337600083830152505050565b60005b83811015610ed7578082015181840152602081019050610ebc565b83811115610ee6576000848401525b50505050565b7f4e487b7100000000000000000000000000000000000000000000000000000000600052601160045260246000fd5b7f4e487b7100000000000000000000000000000000000000000000000000000000600052604160045260246000fd5b6000601f19601f8301169050919050565b610f6481610e62565b8114610f6f57600080fd5b5056fea264697066735822122088b28d9399e3baec5d35b597b5956617d587c08a9435e80ee2ee1e774cc68a1764736f6c63430008000033",
  "immutableReferences": {},
  "source": "// SPDX-License-Identifier: MIT\npragma solidity >=0.4.22 <0.9.0;\n\nimport \"openzeppelin-solidity/contracts/utils/structs/EnumerableSet.sol\";\nimport \"openzeppelin-solidity/contracts/utils/Address.sol\";\nimport \"openzeppelin-solidity/contracts/utils/Context.sol\";\n\n\n/**\n * Implements Role Based Acces Control using a smart contract. (Originally from\n * https://github.com/HQ20/contracts/blob/v0.0.2/contracts/access/RBAC.sol and then\n * adapted to fit newer compiler version)\n */\ncontract RBAC is Context{\n    using EnumerableSet for EnumerableSet.AddressSet;\n    using Address for address;\n\n    mapping(string => EnumerableSet.AddressSet) private _roles;\n    mapping(string => bool) private _roleIds;\n\n    event RoleCreated(string roleId);\n    event MemberAdded(address member, string roleId);\n    event MemberRemoved(address member, string roleId);\n\n    string public constant ROOT_ROLE = \"ROOT\";\n    string public constant SUPPLY_CHAIN_ADMIN_ROLE = \"ADMIN\";\n    string public constant SUPPLY_CHAIN_CONTROL_ENTITY_ROLE = \"CONTROL\";\n    string public constant SUPPLY_CHAIN_ENTITY_ROLE = \"SUPPLY_CHAIN_ENTITY\";\n\n    /**\n     * @notice The contract initializer\n     */\n    constructor() public {\n        _roles[ROOT_ROLE].add(_msgSender());\n        _roleIds[ROOT_ROLE] = true;\n\n        addRole(SUPPLY_CHAIN_CONTROL_ENTITY_ROLE);\n        addRole(SUPPLY_CHAIN_ENTITY_ROLE);\n        addRole(SUPPLY_CHAIN_ADMIN_ROLE);\n\n        emit RoleCreated(ROOT_ROLE);\n        emit RoleCreated(SUPPLY_CHAIN_CONTROL_ENTITY_ROLE);\n        emit RoleCreated(SUPPLY_CHAIN_ENTITY_ROLE);\n        emit MemberAdded(_msgSender(), ROOT_ROLE);\n    }\n\n    /**\n     * @notice A method to verify if a role exists.\n     * @param _roleId The id of the role being verified.\n     * @return True or false.\n     */\n    function roleExists(string memory _roleId) public view returns (bool) {\n        return (_roleIds[_roleId]);\n    }\n\n    /**\n     * @notice A method to verify whether an member is a member of a role\n     * @param _member The member to verify.\n     * @param _roleId The role to look into.\n     * @return Whether the member is a member of the role.\n     */\n    function hasRole(address _member, string memory _roleId)\n        public\n        view\n        returns (bool)\n    {\n        require(roleExists(_roleId), \"Role doesn't exist.\");\n        return _roles[_roleId].contains(_member);\n    }\n\n    /**\n     * @notice A method to create a new role.\n     * @param _roleId The id for role that is being created\n     */\n    function addRole(string memory _roleId) private {\n        // require(_roleId != NO_ROLE, \"Reserved role id.\");\n        require(!roleExists(_roleId), \"Role already exists.\");\n        require(hasRole(_msgSender(), ROOT_ROLE), \"Caller address is not an admin.\");\n\n        _roles[_roleId];\n        _roleIds[_roleId] = true;\n        emit RoleCreated(_roleId);\n    }\n    \n    /**\n     * @notice A method to add a member to a role\n     * @param _member The member to add as a member.\n     * @param _roleId The role to add the member to.\n     */\n    function addMember(address _member, string memory _roleId) public {\n        require(roleExists(_roleId), \"Role doesn't exist.\");\n        require(\n            _roles[ROOT_ROLE].contains(_msgSender()),\n            \"Caller address can't add members.\"\n        );\n        require(\n            !hasRole(_member, _roleId),\n            \"Address is already member of role.\"\n        );\n\n        _roles[_roleId].add(_member);\n        emit MemberAdded(_member, _roleId);\n    }\n\n    /**\n     * @notice A method to remove a member from a role\n     * @param _member The member to remove as a member.\n     * @param _roleId The role to remove the member from.\n     */\n    function removeMember(address _member, string memory _roleId) public {\n        require(roleExists(_roleId), \"Role doesn't exist.\");\n        require(\n            _roles[ROOT_ROLE].contains(_msgSender()),\n            \"Caller address can't remove members.\"\n        );\n        require(hasRole(_member, _roleId), \"Address is not member of role.\");\n\n        _roles[_roleId].remove(_member);\n        emit MemberRemoved(_member, _roleId);\n    }\n}\n",
  "sourcePath": "/Users/jabbathegut/repositories/ba_sources/textile-supply-chain/contracts/RBAC.sol",
  "compiler": {
    "name": "solc",
    "version": "0.8.0+commit.c7dfd78e.Emscripten.clang"
  },
  "schemaVersion": "3.3.4",
  "updatedAt": "2021-05-07T07:28:34.871Z",
  "networkType": "ethereum",
  "devdoc": {
    "kind": "dev",
    "methods": {
      "addMember(address,string)": {
        "params": {
          "_member": "The member to add as a member.",
          "_roleId": "The role to add the member to."
        }
      },
      "hasRole(address,string)": {
        "params": {
          "_member": "The member to verify.",
          "_roleId": "The role to look into."
        },
        "returns": {
          "_0": "Whether the member is a member of the role."
        }
      },
      "removeMember(address,string)": {
        "params": {
          "_member": "The member to remove as a member.",
          "_roleId": "The role to remove the member from."
        }
      },
      "roleExists(string)": {
        "params": {
          "_roleId": "The id of the role being verified."
        },
        "returns": {
          "_0": "True or false."
        }
      }
    },
    "version": 1
  },
  "userdoc": {
    "kind": "user",
    "methods": {
      "addMember(address,string)": {
        "notice": "A method to add a member to a role"
      },
      "constructor": {
        "notice": "The contract initializer"
      },
      "hasRole(address,string)": {
        "notice": "A method to verify whether an member is a member of a role"
      },
      "removeMember(address,string)": {
        "notice": "A method to remove a member from a role"
      },
      "roleExists(string)": {
        "notice": "A method to verify if a role exists."
      }
    },
    "notice": "Implements Role Based Acces Control using a smart contract. (Originally from https://github.com/HQ20/contracts/blob/v0.0.2/contracts/access/RBAC.sol and then adapted to fit newer compiler version)",
    "version": 1
  }
}