{
  "contractName": "RBAC",
  "abi": [
    {
      "inputs": [],
      "stateMutability": "nonpayable",
      "type": "constructor"
    },
    {
      "anonymous": false,
      "inputs": [
        {
          "indexed": false,
          "internalType": "address",
          "name": "member",
          "type": "address"
        },
        {
          "indexed": false,
          "internalType": "bytes32",
          "name": "roleId",
          "type": "bytes32"
        }
      ],
      "name": "MemberAdded",
      "type": "event"
    },
    {
      "anonymous": false,
      "inputs": [
        {
          "indexed": false,
          "internalType": "address",
          "name": "member",
          "type": "address"
        },
        {
          "indexed": false,
          "internalType": "bytes32",
          "name": "roleId",
          "type": "bytes32"
        }
      ],
      "name": "MemberRemoved",
      "type": "event"
    },
    {
      "anonymous": false,
      "inputs": [
        {
          "indexed": false,
          "internalType": "bytes32",
          "name": "roleId",
          "type": "bytes32"
        }
      ],
      "name": "RoleCreated",
      "type": "event"
    },
    {
      "anonymous": false,
      "inputs": [
        {
          "indexed": false,
          "internalType": "bytes32",
          "name": "roleId",
          "type": "bytes32"
        }
      ],
      "name": "RoleRemoved",
      "type": "event"
    },
    {
      "inputs": [],
      "name": "CONTROL_ROLE",
      "outputs": [
        {
          "internalType": "bytes32",
          "name": "",
          "type": "bytes32"
        }
      ],
      "stateMutability": "view",
      "type": "function"
    },
    {
      "inputs": [],
      "name": "ROOT_ROLE",
      "outputs": [
        {
          "internalType": "bytes32",
          "name": "",
          "type": "bytes32"
        }
      ],
      "stateMutability": "view",
      "type": "function"
    },
    {
      "inputs": [],
      "name": "SUPPLY_CHAIN_ENTITY_ROLE",
      "outputs": [
        {
          "internalType": "bytes32",
          "name": "",
          "type": "bytes32"
        }
      ],
      "stateMutability": "view",
      "type": "function"
    },
    {
      "inputs": [
        {
          "internalType": "bytes32",
          "name": "_roleId",
          "type": "bytes32"
        }
      ],
      "name": "roleExists",
      "outputs": [
        {
          "internalType": "bool",
          "name": "",
          "type": "bool"
        }
      ],
      "stateMutability": "view",
      "type": "function"
    },
    {
      "inputs": [
        {
          "internalType": "address",
          "name": "_member",
          "type": "address"
        },
        {
          "internalType": "bytes32",
          "name": "_roleId",
          "type": "bytes32"
        }
      ],
      "name": "hasRole",
      "outputs": [
        {
          "internalType": "bool",
          "name": "",
          "type": "bool"
        }
      ],
      "stateMutability": "view",
      "type": "function"
    },
    {
      "inputs": [
        {
          "internalType": "address",
          "name": "_member",
          "type": "address"
        },
        {
          "internalType": "bytes32",
          "name": "_roleId",
          "type": "bytes32"
        }
      ],
      "name": "addMember",
      "outputs": [],
      "stateMutability": "nonpayable",
      "type": "function"
    },
    {
      "inputs": [
        {
          "internalType": "address",
          "name": "_member",
          "type": "address"
        },
        {
          "internalType": "bytes32",
          "name": "_roleId",
          "type": "bytes32"
        }
      ],
      "name": "removeMember",
      "outputs": [],
      "stateMutability": "nonpayable",
      "type": "function"
    }
  ],
  "bytecode": "0x60806040523480156200001157600080fd5b506200005d336000807f524f4f540000000000000000000000000000000000000000000000000000000081526020019081526020016000206200027760201b6200056d1790919060201c565b5060018060007f524f4f5400000000000000000000000000000000000000000000000000000000815260200190815260200160002060006101000a81548160ff021916908315150217905550620000da7f434f4e54524f4c00000000000000000000000000000000000000000000000000620002af60201b60201c565b6200010b7f535550504c595f434841494e5f454e5449545900000000000000000000000000620002af60201b60201c565b7f41ae852bd4986bdb048f0e9fe3e32c8d368d22693a4853f4bb5d6eb35f563f7a7f524f4f54000000000000000000000000000000000000000000000000000000006040516200015c91906200068d565b60405180910390a17f41ae852bd4986bdb048f0e9fe3e32c8d368d22693a4853f4bb5d6eb35f563f7a7f434f4e54524f4c00000000000000000000000000000000000000000000000000604051620001b591906200068d565b60405180910390a17f41ae852bd4986bdb048f0e9fe3e32c8d368d22693a4853f4bb5d6eb35f563f7a7f535550504c595f434841494e5f454e54495459000000000000000000000000006040516200020e91906200068d565b60405180910390a17fefa218b911bf678a6f21f2b3d02057e2eccecfd8a6310eeb77b66e4cb37e9025337f524f4f54000000000000000000000000000000000000000000000000000000006040516200026992919062000660565b60405180910390a16200075f565b6000620002a7836000018373ffffffffffffffffffffffffffffffffffffffff1660001b620003f160201b60201c565b905092915050565b620002c0816200046b60201b60201c565b1562000303576040517f08c379a0000000000000000000000000000000000000000000000000000000008152600401620002fa90620006cc565b60405180910390fd5b62000335337f524f4f54000000000000000000000000000000000000000000000000000000006200049560201b60201c565b62000377576040517f08c379a00000000000000000000000000000000000000000000000000000000081526004016200036e90620006aa565b60405180910390fd5b60008082815260200190815260200160002050600180600083815260200190815260200160002060006101000a81548160ff0219169083151502179055507f41ae852bd4986bdb048f0e9fe3e32c8d368d22693a4853f4bb5d6eb35f563f7a81604051620003e691906200068d565b60405180910390a150565b60006200040583836200051d60201b60201c565b6200046057826000018290806001815401808255809150506001900390600052602060002001600090919091909150558260000180549050836001016000848152602001908152602001600020819055506001905062000465565b600090505b92915050565b60006001600083815260200190815260200160002060009054906101000a900460ff169050919050565b6000620004a8826200046b60201b60201c565b620004ea576040517f08c379a0000000000000000000000000000000000000000000000000000000008152600401620004e190620006ee565b60405180910390fd5b62000515836000808581526020019081526020016000206200054060201b6200059d1790919060201c565b905092915050565b600080836001016000848152602001908152602001600020541415905092915050565b600062000570836000018373ffffffffffffffffffffffffffffffffffffffff1660001b6200051d60201b60201c565b905092915050565b620005838162000721565b82525050565b620005948162000735565b82525050565b6000620005a9601f8362000710565b91507f43616c6c65722061646472657373206973206e6f7420616e2061646d696e2e006000830152602082019050919050565b6000620005eb60148362000710565b91507f526f6c6520616c7265616479206578697374732e0000000000000000000000006000830152602082019050919050565b60006200062d60138362000710565b91507f526f6c6520646f65736e27742065786973742e000000000000000000000000006000830152602082019050919050565b600060408201905062000677600083018562000578565b62000686602083018462000589565b9392505050565b6000602082019050620006a4600083018462000589565b92915050565b60006020820190508181036000830152620006c5816200059a565b9050919050565b60006020820190508181036000830152620006e781620005dc565b9050919050565b6000602082019050818103600083015262000709816200061e565b9050919050565b600082825260208201905092915050565b60006200072e826200073f565b9050919050565b6000819050919050565b600073ffffffffffffffffffffffffffffffffffffffff82169050919050565b610ca5806200076f6000396000f3fe608060405234801561001057600080fd5b506004361061007d5760003560e01c8063ac4ab3fb1161005b578063ac4ab3fb146100da578063b41406f91461010a578063ca7ca5b41461013a578063d7a1e6ab146101565761007d565b80631cee4a9d1461008257806349df7208146100a05780637e8c7f08146100bc575b600080fd5b61008a610174565b6040516100979190610ac0565b60405180910390f35b6100ba60048036038101906100b59190610838565b610198565b005b6100c461030f565b6040516100d19190610ac0565b60405180910390f35b6100f460048036038101906100ef9190610838565b610333565b6040516101019190610aa5565b60405180910390f35b610124600480360381019061011f9190610874565b6103a9565b6040516101319190610aa5565b60405180910390f35b610154600480360381019061014f9190610838565b6103d3565b005b61015e610549565b60405161016b9190610ac0565b60405180910390f35b7f535550504c595f434841494e5f454e544954590000000000000000000000000081565b6101a1816103a9565b6101e0576040517f08c379a00000000000000000000000000000000000000000000000000000000081526004016101d790610b3b565b60405180910390fd5b610224336000807f524f4f5400000000000000000000000000000000000000000000000000000000815260200190815260200160002061059d90919063ffffffff16565b610263576040517f08c379a000000000000000000000000000000000000000000000000000000000815260040161025a90610afb565b60405180910390fd5b61026d8282610333565b156102ad576040517f08c379a00000000000000000000000000000000000000000000000000000000081526004016102a490610b5b565b60405180910390fd5b6102d18260008084815260200190815260200160002061056d90919063ffffffff16565b507fefa218b911bf678a6f21f2b3d02057e2eccecfd8a6310eeb77b66e4cb37e90258282604051610303929190610a7c565b60405180910390a15050565b7f524f4f540000000000000000000000000000000000000000000000000000000081565b600061033e826103a9565b61037d576040517f08c379a000000000000000000000000000000000000000000000000000000000815260040161037490610b3b565b60405180910390fd5b6103a18360008085815260200190815260200160002061059d90919063ffffffff16565b905092915050565b60006001600083815260200190815260200160002060009054906101000a900460ff169050919050565b6103dc816103a9565b61041b576040517f08c379a000000000000000000000000000000000000000000000000000000000815260040161041290610b3b565b60405180910390fd5b61045f336000807f524f4f5400000000000000000000000000000000000000000000000000000000815260200190815260200160002061059d90919063ffffffff16565b61049e576040517f08c379a000000000000000000000000000000000000000000000000000000000815260040161049590610b1b565b60405180910390fd5b6104a88282610333565b6104e7576040517f08c379a00000000000000000000000000000000000000000000000000000000081526004016104de90610adb565b60405180910390fd5b61050b826000808481526020019081526020016000206105cd90919063ffffffff16565b507fbd1f9a02c9ef3c31bebe4c93654b10bf2693f6db933277e6896355ae68c8aac7828260405161053d929190610a7c565b60405180910390a15050565b7f434f4e54524f4c0000000000000000000000000000000000000000000000000081565b6000610595836000018373ffffffffffffffffffffffffffffffffffffffff1660001b6105fd565b905092915050565b60006105c5836000018373ffffffffffffffffffffffffffffffffffffffff1660001b61066d565b905092915050565b60006105f5836000018373ffffffffffffffffffffffffffffffffffffffff1660001b610690565b905092915050565b6000610609838361066d565b610662578260000182908060018154018082558091505060019003906000526020600020016000909190919091505582600001805490508360010160008481526020019081526020016000208190555060019050610667565b600090505b92915050565b600080836001016000848152602001908152602001600020541415905092915050565b600080836001016000848152602001908152602001600020549050600081146108025760006001826106c29190610b8c565b90506000600186600001805490506106da9190610b8c565b9050600086600001828154811061071a577f4e487b7100000000000000000000000000000000000000000000000000000000600052603260045260246000fd5b9060005260206000200154905080876000018481548110610764577f4e487b7100000000000000000000000000000000000000000000000000000000600052603260045260246000fd5b90600052602060002001819055508387600101600083815260200190815260200160002081905550866000018054806107c6577f4e487b7100000000000000000000000000000000000000000000000000000000600052603160045260246000fd5b60019003818190600052602060002001600090559055866001016000878152602001908152602001600020600090556001945050505050610808565b60009150505b92915050565b60008135905061081d81610c41565b92915050565b60008135905061083281610c58565b92915050565b6000806040838503121561084b57600080fd5b60006108598582860161080e565b925050602061086a85828601610823565b9150509250929050565b60006020828403121561088657600080fd5b600061089484828501610823565b91505092915050565b6108a681610bc0565b82525050565b6108b581610bd2565b82525050565b6108c481610bde565b82525050565b60006108d7601e83610b7b565b91507f41646472657373206973206e6f74206d656d626572206f6620726f6c652e00006000830152602082019050919050565b6000610917602183610b7b565b91507f43616c6c657220616464726573732063616e277420616464206d656d6265727360008301527f2e000000000000000000000000000000000000000000000000000000000000006020830152604082019050919050565b600061097d602483610b7b565b91507f43616c6c657220616464726573732063616e27742072656d6f7665206d656d6260008301527f6572732e000000000000000000000000000000000000000000000000000000006020830152604082019050919050565b60006109e3601383610b7b565b91507f526f6c6520646f65736e27742065786973742e000000000000000000000000006000830152602082019050919050565b6000610a23602283610b7b565b91507f4164647265737320697320616c7265616479206d656d626572206f6620726f6c60008301527f652e0000000000000000000000000000000000000000000000000000000000006020830152604082019050919050565b6000604082019050610a91600083018561089d565b610a9e60208301846108bb565b9392505050565b6000602082019050610aba60008301846108ac565b92915050565b6000602082019050610ad560008301846108bb565b92915050565b60006020820190508181036000830152610af4816108ca565b9050919050565b60006020820190508181036000830152610b148161090a565b9050919050565b60006020820190508181036000830152610b3481610970565b9050919050565b60006020820190508181036000830152610b54816109d6565b9050919050565b60006020820190508181036000830152610b7481610a16565b9050919050565b600082825260208201905092915050565b6000610b9782610c08565b9150610ba283610c08565b925082821015610bb557610bb4610c12565b5b828203905092915050565b6000610bcb82610be8565b9050919050565b60008115159050919050565b6000819050919050565b600073ffffffffffffffffffffffffffffffffffffffff82169050919050565b6000819050919050565b7f4e487b7100000000000000000000000000000000000000000000000000000000600052601160045260246000fd5b610c4a81610bc0565b8114610c5557600080fd5b50565b610c6181610bde565b8114610c6c57600080fd5b5056fea26469706673582212204297852cd35e89dcc4bd96545013bac9b11f629e819aa071608c832b57de9df964736f6c63430008000033",
  "immutableReferences": {},
  "source": "// SPDX-License-Identifier: MIT\npragma solidity >=0.4.22 <0.9.0;\n\nimport \"openzeppelin-solidity/contracts/utils/structs/EnumerableSet.sol\";\nimport \"openzeppelin-solidity/contracts/utils/Address.sol\";\n\n/**\n * Implements Role Based Acces Control using a smart contract. (Originally from\n * https://github.com/HQ20/contracts/blob/v0.0.2/contracts/access/RBAC.sol and then\n * adapted to fit newer compiler version)\n */\ncontract RBAC {\n    using EnumerableSet for EnumerableSet.AddressSet;\n    using Address for address;\n\n    mapping(bytes32 => EnumerableSet.AddressSet) private _roles;\n    mapping(bytes32 => bool) _roleIds;\n\n    event RoleCreated(bytes32 roleId);\n    event RoleRemoved(bytes32 roleId);\n    event MemberAdded(address member, bytes32 roleId);\n    event MemberRemoved(address member, bytes32 roleId);\n\n    bytes32 public constant ROOT_ROLE = \"ROOT\";\n    bytes32 public constant CONTROL_ROLE = \"CONTROL\";\n    bytes32 public constant SUPPLY_CHAIN_ENTITY_ROLE = \"SUPPLY_CHAIN_ENTITY\";\n\n    /**\n     * @notice The contract initializer\n     */\n    constructor() public {\n        _roles[ROOT_ROLE].add(msg.sender);\n        _roleIds[ROOT_ROLE] = true;\n\n        addRole(CONTROL_ROLE);\n        addRole(SUPPLY_CHAIN_ENTITY_ROLE);\n\n        emit RoleCreated(ROOT_ROLE);\n        emit RoleCreated(CONTROL_ROLE);\n        emit RoleCreated(SUPPLY_CHAIN_ENTITY_ROLE);\n        emit MemberAdded(msg.sender, ROOT_ROLE);\n    }\n\n    /**\n     * @notice A method to verify if a role exists.\n     * @param _roleId The id of the role being verified.\n     * @return True or false.\n     */\n    function roleExists(bytes32 _roleId) public view returns (bool) {\n        return (_roleIds[_roleId]);\n    }\n\n    /**\n     * @notice A method to verify whether an member is a member of a role\n     * @param _member The member to verify.\n     * @param _roleId The role to look into.\n     * @return Whether the member is a member of the role.\n     */\n    function hasRole(address _member, bytes32 _roleId)\n        public\n        view\n        returns (bool)\n    {\n        require(roleExists(_roleId), \"Role doesn't exist.\");\n        return _roles[_roleId].contains(_member);\n    }\n\n    /**\n     * @notice A method to create a new role.\n     * @param _roleId The id for role that is being created\n     */\n    function addRole(bytes32 _roleId) private {\n        // require(_roleId != NO_ROLE, \"Reserved role id.\");\n        require(!roleExists(_roleId), \"Role already exists.\");\n        require(hasRole(msg.sender, ROOT_ROLE), \"Caller address is not an admin.\");\n\n        _roles[_roleId];\n        _roleIds[_roleId] = true;\n        emit RoleCreated(_roleId);\n    }\n    \n    /**\n     * @notice A method to add a member to a role\n     * @param _member The member to add as a member.\n     * @param _roleId The role to add the member to.\n     */\n    function addMember(address _member, bytes32 _roleId) public {\n        require(roleExists(_roleId), \"Role doesn't exist.\");\n        require(\n            _roles[ROOT_ROLE].contains(msg.sender),\n            \"Caller address can't add members.\"\n        );\n        require(\n            !hasRole(_member, _roleId),\n            \"Address is already member of role.\"\n        );\n\n        _roles[_roleId].add(_member);\n        emit MemberAdded(_member, _roleId);\n    }\n\n    /**\n     * @notice A method to remove a member from a role\n     * @param _member The member to remove as a member.\n     * @param _roleId The role to remove the member from.\n     */\n    function removeMember(address _member, bytes32 _roleId) public {\n        require(roleExists(_roleId), \"Role doesn't exist.\");\n        require(\n            _roles[ROOT_ROLE].contains(msg.sender),\n            \"Caller address can't remove members.\"\n        );\n        require(hasRole(_member, _roleId), \"Address is not member of role.\");\n\n        _roles[_roleId].remove(_member);\n        emit MemberRemoved(_member, _roleId);\n    }\n}\n",
  "sourcePath": "/Users/jabbathegut/repositories/textile-supply-chain-ethereum/contracts/RBAC.sol",
  "compiler": {
    "name": "solc",
    "version": "0.8.0+commit.c7dfd78e.Emscripten.clang"
  },
  "schemaVersion": "3.3.4",
  "updatedAt": "2021-05-03T20:10:38.498Z",
  "devdoc": {
    "kind": "dev",
    "methods": {
      "addMember(address,bytes32)": {
        "params": {
          "_member": "The member to add as a member.",
          "_roleId": "The role to add the member to."
        }
      },
      "hasRole(address,bytes32)": {
        "params": {
          "_member": "The member to verify.",
          "_roleId": "The role to look into."
        },
        "returns": {
          "_0": "Whether the member is a member of the role."
        }
      },
      "removeMember(address,bytes32)": {
        "params": {
          "_member": "The member to remove as a member.",
          "_roleId": "The role to remove the member from."
        }
      },
      "roleExists(bytes32)": {
        "params": {
          "_roleId": "The id of the role being verified."
        },
        "returns": {
          "_0": "True or false."
        }
      }
    },
    "version": 1
  },
  "userdoc": {
    "kind": "user",
    "methods": {
      "addMember(address,bytes32)": {
        "notice": "A method to add a member to a role"
      },
      "constructor": {
        "notice": "The contract initializer"
      },
      "hasRole(address,bytes32)": {
        "notice": "A method to verify whether an member is a member of a role"
      },
      "removeMember(address,bytes32)": {
        "notice": "A method to remove a member from a role"
      },
      "roleExists(bytes32)": {
        "notice": "A method to verify if a role exists."
      }
    },
    "notice": "Implements Role Based Acces Control using a smart contract. (Originally from https://github.com/HQ20/contracts/blob/v0.0.2/contracts/access/RBAC.sol and then adapted to fit newer compiler version)",
    "version": 1
  }
}