{
  "contractName": "SupplyChainNFT",
  "abi": [
    {
      "inputs": [
        {
          "internalType": "string",
          "name": "_name",
          "type": "string"
        },
        {
          "internalType": "string",
          "name": "_symbol",
          "type": "string"
        },
        {
          "internalType": "address",
          "name": "_registry",
          "type": "address"
        },
        {
          "internalType": "address",
          "name": "_rbac",
          "type": "address"
        }
      ],
      "stateMutability": "nonpayable",
      "type": "constructor"
    },
    {
      "anonymous": false,
      "inputs": [
        {
          "indexed": true,
          "internalType": "address",
          "name": "owner",
          "type": "address"
        },
        {
          "indexed": true,
          "internalType": "address",
          "name": "approved",
          "type": "address"
        },
        {
          "indexed": true,
          "internalType": "uint256",
          "name": "tokenId",
          "type": "uint256"
        }
      ],
      "name": "Approval",
      "type": "event"
    },
    {
      "anonymous": false,
      "inputs": [
        {
          "indexed": true,
          "internalType": "address",
          "name": "owner",
          "type": "address"
        },
        {
          "indexed": true,
          "internalType": "address",
          "name": "operator",
          "type": "address"
        },
        {
          "indexed": false,
          "internalType": "bool",
          "name": "approved",
          "type": "bool"
        }
      ],
      "name": "ApprovalForAll",
      "type": "event"
    },
    {
      "anonymous": false,
      "inputs": [
        {
          "components": [
            {
              "internalType": "uint256",
              "name": "time",
              "type": "uint256"
            },
            {
              "internalType": "uint256",
              "name": "tokenId",
              "type": "uint256"
            }
          ],
          "indexed": false,
          "internalType": "struct Structs.NonGSETransaction",
          "name": "",
          "type": "tuple"
        }
      ],
      "name": "NonGSETransaction",
      "type": "event"
    },
    {
      "anonymous": false,
      "inputs": [
        {
          "indexed": true,
          "internalType": "address",
          "name": "previousOwner",
          "type": "address"
        },
        {
          "indexed": true,
          "internalType": "address",
          "name": "newOwner",
          "type": "address"
        }
      ],
      "name": "OwnershipTransferred",
      "type": "event"
    },
    {
      "anonymous": false,
      "inputs": [
        {
          "indexed": true,
          "internalType": "address",
          "name": "from",
          "type": "address"
        },
        {
          "indexed": true,
          "internalType": "address",
          "name": "to",
          "type": "address"
        },
        {
          "indexed": true,
          "internalType": "uint256",
          "name": "tokenId",
          "type": "uint256"
        }
      ],
      "name": "Transfer",
      "type": "event"
    },
    {
      "inputs": [
        {
          "internalType": "address",
          "name": "to",
          "type": "address"
        },
        {
          "internalType": "uint256",
          "name": "tokenId",
          "type": "uint256"
        }
      ],
      "name": "approve",
      "outputs": [],
      "stateMutability": "nonpayable",
      "type": "function"
    },
    {
      "inputs": [
        {
          "internalType": "address",
          "name": "owner",
          "type": "address"
        }
      ],
      "name": "balanceOf",
      "outputs": [
        {
          "internalType": "uint256",
          "name": "",
          "type": "uint256"
        }
      ],
      "stateMutability": "view",
      "type": "function",
      "constant": true
    },
    {
      "inputs": [
        {
          "internalType": "uint256",
          "name": "tokenId",
          "type": "uint256"
        }
      ],
      "name": "getApproved",
      "outputs": [
        {
          "internalType": "address",
          "name": "",
          "type": "address"
        }
      ],
      "stateMutability": "view",
      "type": "function",
      "constant": true
    },
    {
      "inputs": [
        {
          "internalType": "address",
          "name": "owner",
          "type": "address"
        },
        {
          "internalType": "address",
          "name": "operator",
          "type": "address"
        }
      ],
      "name": "isApprovedForAll",
      "outputs": [
        {
          "internalType": "bool",
          "name": "",
          "type": "bool"
        }
      ],
      "stateMutability": "view",
      "type": "function",
      "constant": true
    },
    {
      "inputs": [],
      "name": "name",
      "outputs": [
        {
          "internalType": "string",
          "name": "",
          "type": "string"
        }
      ],
      "stateMutability": "view",
      "type": "function",
      "constant": true
    },
    {
      "inputs": [],
      "name": "owner",
      "outputs": [
        {
          "internalType": "address",
          "name": "",
          "type": "address"
        }
      ],
      "stateMutability": "view",
      "type": "function",
      "constant": true
    },
    {
      "inputs": [
        {
          "internalType": "uint256",
          "name": "tokenId",
          "type": "uint256"
        }
      ],
      "name": "ownerOf",
      "outputs": [
        {
          "internalType": "address",
          "name": "",
          "type": "address"
        }
      ],
      "stateMutability": "view",
      "type": "function",
      "constant": true
    },
    {
      "inputs": [],
      "name": "renounceOwnership",
      "outputs": [],
      "stateMutability": "nonpayable",
      "type": "function"
    },
    {
      "inputs": [
        {
          "internalType": "address",
          "name": "from",
          "type": "address"
        },
        {
          "internalType": "address",
          "name": "to",
          "type": "address"
        },
        {
          "internalType": "uint256",
          "name": "tokenId",
          "type": "uint256"
        }
      ],
      "name": "safeTransferFrom",
      "outputs": [],
      "stateMutability": "nonpayable",
      "type": "function"
    },
    {
      "inputs": [
        {
          "internalType": "address",
          "name": "from",
          "type": "address"
        },
        {
          "internalType": "address",
          "name": "to",
          "type": "address"
        },
        {
          "internalType": "uint256",
          "name": "tokenId",
          "type": "uint256"
        },
        {
          "internalType": "bytes",
          "name": "_data",
          "type": "bytes"
        }
      ],
      "name": "safeTransferFrom",
      "outputs": [],
      "stateMutability": "nonpayable",
      "type": "function"
    },
    {
      "inputs": [
        {
          "internalType": "address",
          "name": "operator",
          "type": "address"
        },
        {
          "internalType": "bool",
          "name": "approved",
          "type": "bool"
        }
      ],
      "name": "setApprovalForAll",
      "outputs": [],
      "stateMutability": "nonpayable",
      "type": "function"
    },
    {
      "inputs": [
        {
          "internalType": "bytes4",
          "name": "interfaceId",
          "type": "bytes4"
        }
      ],
      "name": "supportsInterface",
      "outputs": [
        {
          "internalType": "bool",
          "name": "",
          "type": "bool"
        }
      ],
      "stateMutability": "view",
      "type": "function",
      "constant": true
    },
    {
      "inputs": [],
      "name": "symbol",
      "outputs": [
        {
          "internalType": "string",
          "name": "",
          "type": "string"
        }
      ],
      "stateMutability": "view",
      "type": "function",
      "constant": true
    },
    {
      "inputs": [
        {
          "internalType": "address",
          "name": "from",
          "type": "address"
        },
        {
          "internalType": "address",
          "name": "to",
          "type": "address"
        },
        {
          "internalType": "uint256",
          "name": "tokenId",
          "type": "uint256"
        }
      ],
      "name": "transferFrom",
      "outputs": [],
      "stateMutability": "nonpayable",
      "type": "function"
    },
    {
      "inputs": [
        {
          "internalType": "address",
          "name": "newOwner",
          "type": "address"
        }
      ],
      "name": "transferOwnership",
      "outputs": [],
      "stateMutability": "nonpayable",
      "type": "function"
    },
    {
      "inputs": [
        {
          "internalType": "address",
          "name": "_owner",
          "type": "address"
        },
        {
          "components": [
            {
              "internalType": "uint256",
              "name": "itemId",
              "type": "uint256"
            },
            {
              "internalType": "uint256[]",
              "name": "sourceItemIds",
              "type": "uint256[]"
            }
          ],
          "internalType": "struct Structs.Metadata",
          "name": "_tokenData",
          "type": "tuple"
        }
      ],
      "name": "mintToken",
      "outputs": [
        {
          "internalType": "uint256",
          "name": "",
          "type": "uint256"
        }
      ],
      "stateMutability": "nonpayable",
      "type": "function"
    },
    {
      "inputs": [
        {
          "internalType": "uint256",
          "name": "_tokenId",
          "type": "uint256"
        }
      ],
      "name": "getTokenMetadata",
      "outputs": [
        {
          "internalType": "uint256",
          "name": "",
          "type": "uint256"
        },
        {
          "internalType": "uint256[]",
          "name": "",
          "type": "uint256[]"
        }
      ],
      "stateMutability": "view",
      "type": "function",
      "constant": true
    }
  ],
  "bytecode": "0x60806040523480156200001157600080fd5b5060405162003d6238038062003d62833981810160405281019062000037919062000387565b6040518060400160405280601081526020017f537570706c79436861696e546f6b656e000000000000000000000000000000008152506040518060400160405280600381526020017f53435400000000000000000000000000000000000000000000000000000000008152508160009080519060200190620000bb9291906200024e565b508060019080519060200190620000d49291906200024e565b5050506000620000e96200024660201b60201c565b905080600660006101000a81548173ffffffffffffffffffffffffffffffffffffffff021916908373ffffffffffffffffffffffffffffffffffffffff1602179055508073ffffffffffffffffffffffffffffffffffffffff16600073ffffffffffffffffffffffffffffffffffffffff167f8be0079c531659141344cd1fd0a4f28419497f9722a3daafe3b4186f6b6457e060405160405180910390a35081600860006101000a81548173ffffffffffffffffffffffffffffffffffffffff021916908373ffffffffffffffffffffffffffffffffffffffff16021790555080600960006101000a81548173ffffffffffffffffffffffffffffffffffffffff021916908373ffffffffffffffffffffffffffffffffffffffff16021790555083600a9080519060200190620002229291906200024e565b5082600b90805190602001906200023b9291906200024e565b5050505050620005a4565b600033905090565b8280546200025c90620004f6565b90600052602060002090601f016020900481019282620002805760008555620002cc565b82601f106200029b57805160ff1916838001178555620002cc565b82800160010185558215620002cc579182015b82811115620002cb578251825591602001919060010190620002ae565b5b509050620002db9190620002df565b5090565b5b80821115620002fa576000816000905550600101620002e0565b5090565b6000620003156200030f8462000459565b62000425565b9050828152602081018484840111156200032e57600080fd5b6200033b848285620004c0565b509392505050565b60008151905062000354816200058a565b92915050565b600082601f8301126200036c57600080fd5b81516200037e848260208601620002fe565b91505092915050565b600080600080608085870312156200039e57600080fd5b600085015167ffffffffffffffff811115620003b957600080fd5b620003c7878288016200035a565b945050602085015167ffffffffffffffff811115620003e557600080fd5b620003f3878288016200035a565b9350506040620004068782880162000343565b9250506060620004198782880162000343565b91505092959194509250565b6000604051905081810181811067ffffffffffffffff821117156200044f576200044e6200055b565b5b8060405250919050565b600067ffffffffffffffff8211156200047757620004766200055b565b5b601f19601f8301169050602081019050919050565b60006200049982620004a0565b9050919050565b600073ffffffffffffffffffffffffffffffffffffffff82169050919050565b60005b83811015620004e0578082015181840152602081019050620004c3565b83811115620004f0576000848401525b50505050565b600060028204905060018216806200050f57607f821691505b602082108114156200052657620005256200052c565b5b50919050565b7f4e487b7100000000000000000000000000000000000000000000000000000000600052602260045260246000fd5b7f4e487b7100000000000000000000000000000000000000000000000000000000600052604160045260246000fd5b62000595816200048c565b8114620005a157600080fd5b50565b6137ae80620005b46000396000f3fe608060405234801561001057600080fd5b506004361061010b5760003560e01c806370a08231116100a2578063a22cb46511610071578063a22cb465146102b9578063b88d4fde146102d5578063dec4775c146102f1578063e985e9c514610321578063f2fde38b146103515761010b565b806370a0823114610243578063715018a6146102735780638da5cb5b1461027d57806395d89b411461029b5761010b565b806323b872dd116100de57806323b872dd146101aa57806342842e0e146101c657806360316801146101e25780636352211e146102135761010b565b806301ffc9a71461011057806306fdde0314610140578063081812fc1461015e578063095ea7b31461018e575b600080fd5b61012a600480360381019061012591906126c1565b61036d565b60405161013791906130cb565b60405180910390f35b6101486103e7565b60405161015591906130e6565b60405180910390f35b61017860048036038101906101739190612795565b610475565b604051610185919061300b565b60405180910390f35b6101a860048036038101906101a3919061265c565b6104fa565b005b6101c460048036038101906101bf9190612502565b610612565b005b6101e060048036038101906101db9190612502565b610672565b005b6101fc60048036038101906101f79190612795565b610692565b60405161020a92919061339e565b60405180910390f35b61022d60048036038101906102289190612795565b610766565b60405161023a919061300b565b60405180910390f35b61025d6004803603810190610258919061249d565b610818565b60405161026a9190613383565b60405180910390f35b61027b6108d0565b005b610285610a0d565b604051610292919061300b565b60405180910390f35b6102a3610a37565b6040516102b091906130e6565b60405180910390f35b6102d360048036038101906102ce91906125cc565b610ac5565b005b6102ef60048036038101906102ea9190612551565b610c46565b005b61030b60048036038101906103069190612608565b610ca8565b6040516103189190613383565b60405180910390f35b61033b600480360381019061033691906124c6565b6110b7565b60405161034891906130cb565b60405180910390f35b61036b6004803603810190610366919061249d565b61114b565b005b60007f80ac58cd000000000000000000000000000000000000000000000000000000007bffffffffffffffffffffffffffffffffffffffffffffffffffffffff1916827bffffffffffffffffffffffffffffffffffffffffffffffffffffffff191614806103e057506103df826112f7565b5b9050919050565b600a80546103f49061363c565b80601f01602080910402602001604051908101604052809291908181526020018280546104209061363c565b801561046d5780601f106104425761010080835404028352916020019161046d565b820191906000526020600020905b81548152906001019060200180831161045057829003601f168201915b505050505081565b600061048082611361565b6104bf576040517f08c379a00000000000000000000000000000000000000000000000000000000081526004016104b6906132c8565b60405180910390fd5b6004600083815260200190815260200160002060009054906101000a900473ffffffffffffffffffffffffffffffffffffffff169050919050565b600061050582610766565b90508073ffffffffffffffffffffffffffffffffffffffff168373ffffffffffffffffffffffffffffffffffffffff161415610576576040517f08c379a000000000000000000000000000000000000000000000000000000000815260040161056d90613328565b60405180910390fd5b8073ffffffffffffffffffffffffffffffffffffffff166105956113cd565b73ffffffffffffffffffffffffffffffffffffffff1614806105c457506105c3816105be6113cd565b6110b7565b5b610603576040517f08c379a00000000000000000000000000000000000000000000000000000000081526004016105fa90613208565b60405180910390fd5b61060d83836113d5565b505050565b61062361061d6113cd565b8261148e565b610662576040517f08c379a000000000000000000000000000000000000000000000000000000000815260040161065990613348565b60405180910390fd5b61066d83838361156c565b505050565b61068d83838360405180602001604052806000815250610c46565b505050565b6000606061069f83611361565b6106de576040517f08c379a00000000000000000000000000000000000000000000000000000000081526004016106d590613288565b60405180910390fd5b600c600084815260200190815260200160002060000154600c60008581526020019081526020016000206001018080548060200260200160405190810160405280929190818152602001828054801561075657602002820191906000526020600020905b815481526020019060010190808311610742575b5050505050905091509150915091565b6000806002600084815260200190815260200160002060009054906101000a900473ffffffffffffffffffffffffffffffffffffffff169050600073ffffffffffffffffffffffffffffffffffffffff168173ffffffffffffffffffffffffffffffffffffffff16141561080f576040517f08c379a000000000000000000000000000000000000000000000000000000000815260040161080690613248565b60405180910390fd5b80915050919050565b60008073ffffffffffffffffffffffffffffffffffffffff168273ffffffffffffffffffffffffffffffffffffffff161415610889576040517f08c379a000000000000000000000000000000000000000000000000000000000815260040161088090613228565b60405180910390fd5b600360008373ffffffffffffffffffffffffffffffffffffffff1673ffffffffffffffffffffffffffffffffffffffff168152602001908152602001600020549050919050565b6108d86113cd565b73ffffffffffffffffffffffffffffffffffffffff166108f6610a0d565b73ffffffffffffffffffffffffffffffffffffffff161461094c576040517f08c379a0000000000000000000000000000000000000000000000000000000008152600401610943906132e8565b60405180910390fd5b600073ffffffffffffffffffffffffffffffffffffffff16600660009054906101000a900473ffffffffffffffffffffffffffffffffffffffff1673ffffffffffffffffffffffffffffffffffffffff167f8be0079c531659141344cd1fd0a4f28419497f9722a3daafe3b4186f6b6457e060405160405180910390a36000600660006101000a81548173ffffffffffffffffffffffffffffffffffffffff021916908373ffffffffffffffffffffffffffffffffffffffff160217905550565b6000600660009054906101000a900473ffffffffffffffffffffffffffffffffffffffff16905090565b600b8054610a449061363c565b80601f0160208091040260200160405190810160405280929190818152602001828054610a709061363c565b8015610abd5780601f10610a9257610100808354040283529160200191610abd565b820191906000526020600020905b815481529060010190602001808311610aa057829003601f168201915b505050505081565b610acd6113cd565b73ffffffffffffffffffffffffffffffffffffffff168273ffffffffffffffffffffffffffffffffffffffff161415610b3b576040517f08c379a0000000000000000000000000000000000000000000000000000000008152600401610b32906131c8565b60405180910390fd5b8060056000610b486113cd565b73ffffffffffffffffffffffffffffffffffffffff1673ffffffffffffffffffffffffffffffffffffffff16815260200190815260200160002060008473ffffffffffffffffffffffffffffffffffffffff1673ffffffffffffffffffffffffffffffffffffffff16815260200190815260200160002060006101000a81548160ff0219169083151502179055508173ffffffffffffffffffffffffffffffffffffffff16610bf56113cd565b73ffffffffffffffffffffffffffffffffffffffff167f17307eab39ab6107e8899845ad3d59bd9653f200f220920489ca2b5937696c3183604051610c3a91906130cb565b60405180910390a35050565b610c57610c516113cd565b8361148e565b610c96576040517f08c379a0000000000000000000000000000000000000000000000000000000008152600401610c8d90613348565b60405180910390fd5b610ca2848484846117c8565b50505050565b6000610cb26113cd565b73ffffffffffffffffffffffffffffffffffffffff16610cd0610a0d565b73ffffffffffffffffffffffffffffffffffffffff1614610d26576040517f08c379a0000000000000000000000000000000000000000000000000000000008152600401610d1d906132e8565b60405180910390fd5b600960009054906101000a900473ffffffffffffffffffffffffffffffffffffffff1673ffffffffffffffffffffffffffffffffffffffff1663217fe6c6610d6c6113cd565b600960009054906101000a900473ffffffffffffffffffffffffffffffffffffffff1673ffffffffffffffffffffffffffffffffffffffff16631cee4a9d6040518163ffffffff1660e01b815260040160006040518083038186803b158015610dd457600080fd5b505afa158015610de8573d6000803e3d6000fd5b505050506040513d6000823e3d601f19601f82011682018060405250810190610e119190612713565b6040518363ffffffff1660e01b8152600401610e2e929190613072565b60206040518083038186803b158015610e4657600080fd5b505afa158015610e5a573d6000803e3d6000fd5b505050506040513d601f19601f82011682018060405250810190610e7e9190612698565b610ebd576040517f08c379a0000000000000000000000000000000000000000000000000000000008152600401610eb490613108565b60405180910390fd5b600960009054906101000a900473ffffffffffffffffffffffffffffffffffffffff1673ffffffffffffffffffffffffffffffffffffffff1663217fe6c684600960009054906101000a900473ffffffffffffffffffffffffffffffffffffffff1673ffffffffffffffffffffffffffffffffffffffff16631cee4a9d6040518163ffffffff1660e01b815260040160006040518083038186803b158015610f6457600080fd5b505afa158015610f78573d6000803e3d6000fd5b505050506040513d6000823e3d601f19601f82011682018060405250810190610fa19190612713565b6040518363ffffffff1660e01b8152600401610fbe929190613072565b60206040518083038186803b158015610fd657600080fd5b505afa158015610fea573d6000803e3d6000fd5b505050506040513d601f19601f8201168201806040525081019061100e9190612698565b61104d576040517f08c379a000000000000000000000000000000000000000000000000000000000815260040161104490613128565b60405180910390fd5b6110576007611824565b6000611063600761183a565b905061106f8482611848565b82600c60008381526020019081526020016000206000820151816000015560208201518160010190805190602001906110a992919061205b565b509050508091505092915050565b6000600560008473ffffffffffffffffffffffffffffffffffffffff1673ffffffffffffffffffffffffffffffffffffffff16815260200190815260200160002060008373ffffffffffffffffffffffffffffffffffffffff1673ffffffffffffffffffffffffffffffffffffffff16815260200190815260200160002060009054906101000a900460ff16905092915050565b6111536113cd565b73ffffffffffffffffffffffffffffffffffffffff16611171610a0d565b73ffffffffffffffffffffffffffffffffffffffff16146111c7576040517f08c379a00000000000000000000000000000000000000000000000000000000081526004016111be906132e8565b60405180910390fd5b600073ffffffffffffffffffffffffffffffffffffffff168173ffffffffffffffffffffffffffffffffffffffff161415611237576040517f08c379a000000000000000000000000000000000000000000000000000000000815260040161122e90613168565b60405180910390fd5b8073ffffffffffffffffffffffffffffffffffffffff16600660009054906101000a900473ffffffffffffffffffffffffffffffffffffffff1673ffffffffffffffffffffffffffffffffffffffff167f8be0079c531659141344cd1fd0a4f28419497f9722a3daafe3b4186f6b6457e060405160405180910390a380600660006101000a81548173ffffffffffffffffffffffffffffffffffffffff021916908373ffffffffffffffffffffffffffffffffffffffff16021790555050565b60007f01ffc9a7000000000000000000000000000000000000000000000000000000007bffffffffffffffffffffffffffffffffffffffffffffffffffffffff1916827bffffffffffffffffffffffffffffffffffffffffffffffffffffffff1916149050919050565b60008073ffffffffffffffffffffffffffffffffffffffff166002600084815260200190815260200160002060009054906101000a900473ffffffffffffffffffffffffffffffffffffffff1673ffffffffffffffffffffffffffffffffffffffff1614159050919050565b600033905090565b816004600083815260200190815260200160002060006101000a81548173ffffffffffffffffffffffffffffffffffffffff021916908373ffffffffffffffffffffffffffffffffffffffff160217905550808273ffffffffffffffffffffffffffffffffffffffff1661144883610766565b73ffffffffffffffffffffffffffffffffffffffff167f8c5be1e5ebec7d5bd14f71427d1e84f3dd0314c0f7b2291e5b200ac8c7c3b92560405160405180910390a45050565b600061149982611361565b6114d8576040517f08c379a00000000000000000000000000000000000000000000000000000000081526004016114cf906131e8565b60405180910390fd5b60006114e383610766565b90508073ffffffffffffffffffffffffffffffffffffffff168473ffffffffffffffffffffffffffffffffffffffff16148061155257508373ffffffffffffffffffffffffffffffffffffffff1661153a84610475565b73ffffffffffffffffffffffffffffffffffffffff16145b80611563575061156281856110b7565b5b91505092915050565b8273ffffffffffffffffffffffffffffffffffffffff1661158c82610766565b73ffffffffffffffffffffffffffffffffffffffff16146115e2576040517f08c379a00000000000000000000000000000000000000000000000000000000081526004016115d990613308565b60405180910390fd5b600073ffffffffffffffffffffffffffffffffffffffff168273ffffffffffffffffffffffffffffffffffffffff161415611652576040517f08c379a0000000000000000000000000000000000000000000000000000000008152600401611649906131a8565b60405180910390fd5b61165d838383611a16565b6116686000826113d5565b6001600360008573ffffffffffffffffffffffffffffffffffffffff1673ffffffffffffffffffffffffffffffffffffffff16815260200190815260200160002060008282546116b89190613552565b925050819055506001600360008473ffffffffffffffffffffffffffffffffffffffff1673ffffffffffffffffffffffffffffffffffffffff168152602001908152602001600020600082825461170f91906134fc565b92505081905550816002600083815260200190815260200160002060006101000a81548173ffffffffffffffffffffffffffffffffffffffff021916908373ffffffffffffffffffffffffffffffffffffffff160217905550808273ffffffffffffffffffffffffffffffffffffffff168473ffffffffffffffffffffffffffffffffffffffff167fddf252ad1be2c89b69c2b068fc378daa952ba7f163c4a11628f55a4df523b3ef60405160405180910390a4505050565b6117d384848461156c565b6117df84848484611eb1565b61181e576040517f08c379a000000000000000000000000000000000000000000000000000000000815260040161181590613148565b60405180910390fd5b50505050565b6001816000016000828254019250508190555050565b600081600001549050919050565b600073ffffffffffffffffffffffffffffffffffffffff168273ffffffffffffffffffffffffffffffffffffffff1614156118b8576040517f08c379a00000000000000000000000000000000000000000000000000000000081526004016118af90613268565b60405180910390fd5b6118c181611361565b15611901576040517f08c379a00000000000000000000000000000000000000000000000000000000081526004016118f890613188565b60405180910390fd5b61190d60008383611a16565b6001600360008473ffffffffffffffffffffffffffffffffffffffff1673ffffffffffffffffffffffffffffffffffffffff168152602001908152602001600020600082825461195d91906134fc565b92505081905550816002600083815260200190815260200160002060006101000a81548173ffffffffffffffffffffffffffffffffffffffff021916908373ffffffffffffffffffffffffffffffffffffffff160217905550808273ffffffffffffffffffffffffffffffffffffffff16600073ffffffffffffffffffffffffffffffffffffffff167fddf252ad1be2c89b69c2b068fc378daa952ba7f163c4a11628f55a4df523b3ef60405160405180910390a45050565b600960009054906101000a900473ffffffffffffffffffffffffffffffffffffffff1673ffffffffffffffffffffffffffffffffffffffff1663217fe6c683600960009054906101000a900473ffffffffffffffffffffffffffffffffffffffff1673ffffffffffffffffffffffffffffffffffffffff16631cee4a9d6040518163ffffffff1660e01b815260040160006040518083038186803b158015611abd57600080fd5b505afa158015611ad1573d6000803e3d6000fd5b505050506040513d6000823e3d601f19601f82011682018060405250810190611afa9190612713565b6040518363ffffffff1660e01b8152600401611b17929190613072565b60206040518083038186803b158015611b2f57600080fd5b505afa158015611b43573d6000803e3d6000fd5b505050506040513d601f19601f82011682018060405250810190611b679190612698565b611ba6576040517f08c379a0000000000000000000000000000000000000000000000000000000008152600401611b9d906132a8565b60405180910390fd5b6000600860009054906101000a900473ffffffffffffffffffffffffffffffffffffffff1673ffffffffffffffffffffffffffffffffffffffff166333424a35846040518263ffffffff1660e01b8152600401611c03919061300b565b60006040518083038186803b158015611c1b57600080fd5b505afa158015611c2f573d6000803e3d6000fd5b505050506040513d6000823e3d601f19601f82011682018060405250810190611c589190612754565b90506000600860009054906101000a900473ffffffffffffffffffffffffffffffffffffffff1673ffffffffffffffffffffffffffffffffffffffff166333424a35866040518263ffffffff1660e01b8152600401611cb7919061300b565b60006040518083038186803b158015611ccf57600080fd5b505afa158015611ce3573d6000803e3d6000fd5b505050506040513d6000823e3d601f19601f82011682018060405250810190611d0c9190612754565b905081604001511580611d2157508060400151155b15611eaa57600060405180604001604052804281526020018581525090508260400151611dd857600860009054906101000a900473ffffffffffffffffffffffffffffffffffffffff1673ffffffffffffffffffffffffffffffffffffffff166355b1910a86836040518363ffffffff1660e01b8152600401611da59291906130a2565b600060405180830381600087803b158015611dbf57600080fd5b505af1158015611dd3573d6000803e3d6000fd5b505050505b8160400151611e7157600860009054906101000a900473ffffffffffffffffffffffffffffffffffffffff1673ffffffffffffffffffffffffffffffffffffffff166355b1910a87836040518363ffffffff1660e01b8152600401611e3e9291906130a2565b600060405180830381600087803b158015611e5857600080fd5b505af1158015611e6c573d6000803e3d6000fd5b505050505b7f42877a9eea42c1ac691908c865d7725b555cf0dbd1a6e88da1c18db2051a280381604051611ea09190613368565b60405180910390a1505b5050505050565b6000611ed28473ffffffffffffffffffffffffffffffffffffffff16612048565b1561203b578373ffffffffffffffffffffffffffffffffffffffff1663150b7a02611efb6113cd565b8786866040518563ffffffff1660e01b8152600401611f1d9493929190613026565b602060405180830381600087803b158015611f3757600080fd5b505af1925050508015611f6857506040513d601f19601f82011682018060405250810190611f6591906126ea565b60015b611feb573d8060008114611f98576040519150601f19603f3d011682016040523d82523d6000602084013e611f9d565b606091505b50600081511415611fe3576040517f08c379a0000000000000000000000000000000000000000000000000000000008152600401611fda90613148565b60405180910390fd5b805181602001fd5b63150b7a0260e01b7bffffffffffffffffffffffffffffffffffffffffffffffffffffffff1916817bffffffffffffffffffffffffffffffffffffffffffffffffffffffff191614915050612040565b600190505b949350505050565b600080823b905060008111915050919050565b828054828255906000526020600020908101928215612097579160200282015b8281111561209657825182559160200191906001019061207b565b5b5090506120a491906120a8565b5090565b5b808211156120c15760008160009055506001016120a9565b5090565b60006120d86120d3846133ff565b6133ce565b905080838252602082019050828560208602820111156120f757600080fd5b60005b85811015612127578161210d8882612473565b8452602084019350602083019250506001810190506120fa565b5050509392505050565b600061214461213f846133ff565b6133ce565b9050808382526020820190508285602086028201111561216357600080fd5b60005b8581101561219357816121798882612488565b845260208401935060208301925050600181019050612166565b5050509392505050565b60006121b06121ab8461342b565b6133ce565b9050828152602081018484840111156121c857600080fd5b6121d38482856135fa565b509392505050565b60006121ee6121e98461345b565b6133ce565b90508281526020810184848401111561220657600080fd5b612211848285613609565b509392505050565b6000813590506122288161370c565b92915050565b600082601f83011261223f57600080fd5b813561224f8482602086016120c5565b91505092915050565b600082601f83011261226957600080fd5b8151612279848260208601612131565b91505092915050565b60008135905061229181613723565b92915050565b6000815190506122a681613723565b92915050565b6000813590506122bb8161373a565b92915050565b6000815190506122d08161373a565b92915050565b600082601f8301126122e757600080fd5b81356122f784826020860161219d565b91505092915050565b60008151905061230f81613751565b92915050565b600082601f83011261232657600080fd5b81516123368482602086016121db565b91505092915050565b60006040828403121561235157600080fd5b61235b60406133ce565b9050600061236b84828501612473565b600083015250602082013567ffffffffffffffff81111561238b57600080fd5b6123978482850161222e565b60208301525092915050565b600060a082840312156123b557600080fd5b6123bf60a06133ce565b905060006123cf84828501612300565b600083015250602082015167ffffffffffffffff8111156123ef57600080fd5b6123fb84828501612315565b602083015250604061240f84828501612297565b604083015250606082015167ffffffffffffffff81111561242f57600080fd5b61243b84828501612258565b606083015250608082015167ffffffffffffffff81111561245b57600080fd5b61246784828501612258565b60808301525092915050565b60008135905061248281613761565b92915050565b60008151905061249781613761565b92915050565b6000602082840312156124af57600080fd5b60006124bd84828501612219565b91505092915050565b600080604083850312156124d957600080fd5b60006124e785828601612219565b92505060206124f885828601612219565b9150509250929050565b60008060006060848603121561251757600080fd5b600061252586828701612219565b935050602061253686828701612219565b925050604061254786828701612473565b9150509250925092565b6000806000806080858703121561256757600080fd5b600061257587828801612219565b945050602061258687828801612219565b935050604061259787828801612473565b925050606085013567ffffffffffffffff8111156125b457600080fd5b6125c0878288016122d6565b91505092959194509250565b600080604083850312156125df57600080fd5b60006125ed85828601612219565b92505060206125fe85828601612282565b9150509250929050565b6000806040838503121561261b57600080fd5b600061262985828601612219565b925050602083013567ffffffffffffffff81111561264657600080fd5b6126528582860161233f565b9150509250929050565b6000806040838503121561266f57600080fd5b600061267d85828601612219565b925050602061268e85828601612473565b9150509250929050565b6000602082840312156126aa57600080fd5b60006126b884828501612297565b91505092915050565b6000602082840312156126d357600080fd5b60006126e1848285016122ac565b91505092915050565b6000602082840312156126fc57600080fd5b600061270a848285016122c1565b91505092915050565b60006020828403121561272557600080fd5b600082015167ffffffffffffffff81111561273f57600080fd5b61274b84828501612315565b91505092915050565b60006020828403121561276657600080fd5b600082015167ffffffffffffffff81111561278057600080fd5b61278c848285016123a3565b91505092915050565b6000602082840312156127a757600080fd5b60006127b584828501612473565b91505092915050565b60006127ca8383612fed565b60208301905092915050565b6127df81613586565b82525050565b60006127f08261349b565b6127fa81856134c9565b93506128058361348b565b8060005b8381101561283657815161281d88826127be565b9750612828836134bc565b925050600181019050612809565b5085935050505092915050565b61284c81613598565b82525050565b600061285d826134a6565b61286781856134da565b9350612877818560208601613609565b612880816136fb565b840191505092915050565b6000612896826134b1565b6128a081856134eb565b93506128b0818560208601613609565b6128b9816136fb565b840191505092915050565b60006128d1602c836134eb565b91507f4f6e6c7920737570706c7920636861696e20656e7469746965732063616e206360008301527f726561746520746f6b656e7300000000000000000000000000000000000000006020830152604082019050919050565b60006129376023836134eb565b91507f4f776e6572206d757374206265206120737570706c7920636861696e20656e7460008301527f69747900000000000000000000000000000000000000000000000000000000006020830152604082019050919050565b600061299d6032836134eb565b91507f4552433732313a207472616e7366657220746f206e6f6e20455243373231526560008301527f63656976657220696d706c656d656e74657200000000000000000000000000006020830152604082019050919050565b6000612a036026836134eb565b91507f4f776e61626c653a206e6577206f776e657220697320746865207a65726f206160008301527f64647265737300000000000000000000000000000000000000000000000000006020830152604082019050919050565b6000612a69601c836134eb565b91507f4552433732313a20746f6b656e20616c7265616479206d696e746564000000006000830152602082019050919050565b6000612aa96024836134eb565b91507f4552433732313a207472616e7366657220746f20746865207a65726f2061646460008301527f72657373000000000000000000000000000000000000000000000000000000006020830152604082019050919050565b6000612b0f6019836134eb565b91507f4552433732313a20617070726f766520746f2063616c6c6572000000000000006000830152602082019050919050565b6000612b4f602c836134eb565b91507f4552433732313a206f70657261746f7220717565727920666f72206e6f6e657860008301527f697374656e7420746f6b656e00000000000000000000000000000000000000006020830152604082019050919050565b6000612bb56038836134eb565b91507f4552433732313a20617070726f76652063616c6c6572206973206e6f74206f7760008301527f6e6572206e6f7220617070726f76656420666f7220616c6c00000000000000006020830152604082019050919050565b6000612c1b602a836134eb565b91507f4552433732313a2062616c616e636520717565727920666f7220746865207a6560008301527f726f2061646472657373000000000000000000000000000000000000000000006020830152604082019050919050565b6000612c816029836134eb565b91507f4552433732313a206f776e657220717565727920666f72206e6f6e657869737460008301527f656e7420746f6b656e00000000000000000000000000000000000000000000006020830152604082019050919050565b6000612ce76020836134eb565b91507f4552433732313a206d696e7420746f20746865207a65726f20616464726573736000830152602082019050919050565b6000612d276021836134eb565b91507f546f6b656e2077697468206769766520494420646f6573206e6f74206578697360008301527f74000000000000000000000000000000000000000000000000000000000000006020830152604082019050919050565b6000612d8d602d836134eb565b91507f4f6e6c7920737570706c7920636861696e20656e7469746965732063616e207260008301527f65636569766520746f6b656e73000000000000000000000000000000000000006020830152604082019050919050565b6000612df3602c836134eb565b91507f4552433732313a20617070726f76656420717565727920666f72206e6f6e657860008301527f697374656e7420746f6b656e00000000000000000000000000000000000000006020830152604082019050919050565b6000612e596020836134eb565b91507f4f776e61626c653a2063616c6c6572206973206e6f7420746865206f776e65726000830152602082019050919050565b6000612e996029836134eb565b91507f4552433732313a207472616e73666572206f6620746f6b656e2074686174206960008301527f73206e6f74206f776e00000000000000000000000000000000000000000000006020830152604082019050919050565b6000612eff6021836134eb565b91507f4552433732313a20617070726f76616c20746f2063757272656e74206f776e6560008301527f72000000000000000000000000000000000000000000000000000000000000006020830152604082019050919050565b6000612f656031836134eb565b91507f4552433732313a207472616e736665722063616c6c6572206973206e6f74206f60008301527f776e6572206e6f7220617070726f7665640000000000000000000000000000006020830152604082019050919050565b604082016000820151612fd46000850182612fed565b506020820151612fe76020850182612fed565b50505050565b612ff6816135f0565b82525050565b613005816135f0565b82525050565b600060208201905061302060008301846127d6565b92915050565b600060808201905061303b60008301876127d6565b61304860208301866127d6565b6130556040830185612ffc565b81810360608301526130678184612852565b905095945050505050565b600060408201905061308760008301856127d6565b8181036020830152613099818461288b565b90509392505050565b60006060820190506130b760008301856127d6565b6130c46020830184612fbe565b9392505050565b60006020820190506130e06000830184612843565b92915050565b60006020820190508181036000830152613100818461288b565b905092915050565b60006020820190508181036000830152613121816128c4565b9050919050565b600060208201905081810360008301526131418161292a565b9050919050565b6000602082019050818103600083015261316181612990565b9050919050565b60006020820190508181036000830152613181816129f6565b9050919050565b600060208201905081810360008301526131a181612a5c565b9050919050565b600060208201905081810360008301526131c181612a9c565b9050919050565b600060208201905081810360008301526131e181612b02565b9050919050565b6000602082019050818103600083015261320181612b42565b9050919050565b6000602082019050818103600083015261322181612ba8565b9050919050565b6000602082019050818103600083015261324181612c0e565b9050919050565b6000602082019050818103600083015261326181612c74565b9050919050565b6000602082019050818103600083015261328181612cda565b9050919050565b600060208201905081810360008301526132a181612d1a565b9050919050565b600060208201905081810360008301526132c181612d80565b9050919050565b600060208201905081810360008301526132e181612de6565b9050919050565b6000602082019050818103600083015261330181612e4c565b9050919050565b6000602082019050818103600083015261332181612e8c565b9050919050565b6000602082019050818103600083015261334181612ef2565b9050919050565b6000602082019050818103600083015261336181612f58565b9050919050565b600060408201905061337d6000830184612fbe565b92915050565b60006020820190506133986000830184612ffc565b92915050565b60006040820190506133b36000830185612ffc565b81810360208301526133c581846127e5565b90509392505050565b6000604051905081810181811067ffffffffffffffff821117156133f5576133f46136cc565b5b8060405250919050565b600067ffffffffffffffff82111561341a576134196136cc565b5b602082029050602081019050919050565b600067ffffffffffffffff821115613446576134456136cc565b5b601f19601f8301169050602081019050919050565b600067ffffffffffffffff821115613476576134756136cc565b5b601f19601f8301169050602081019050919050565b6000819050602082019050919050565b600081519050919050565b600081519050919050565b600081519050919050565b6000602082019050919050565b600082825260208201905092915050565b600082825260208201905092915050565b600082825260208201905092915050565b6000613507826135f0565b9150613512836135f0565b9250827fffffffffffffffffffffffffffffffffffffffffffffffffffffffffffffffff038211156135475761354661366e565b5b828201905092915050565b600061355d826135f0565b9150613568836135f0565b92508282101561357b5761357a61366e565b5b828203905092915050565b6000613591826135d0565b9050919050565b60008115159050919050565b60007fffffffff0000000000000000000000000000000000000000000000000000000082169050919050565b600073ffffffffffffffffffffffffffffffffffffffff82169050919050565b6000819050919050565b82818337600083830152505050565b60005b8381101561362757808201518184015260208101905061360c565b83811115613636576000848401525b50505050565b6000600282049050600182168061365457607f821691505b602082108114156136685761366761369d565b5b50919050565b7f4e487b7100000000000000000000000000000000000000000000000000000000600052601160045260246000fd5b7f4e487b7100000000000000000000000000000000000000000000000000000000600052602260045260246000fd5b7f4e487b7100000000000000000000000000000000000000000000000000000000600052604160045260246000fd5b6000601f19601f8301169050919050565b61371581613586565b811461372057600080fd5b50565b61372c81613598565b811461373757600080fd5b50565b613743816135a4565b811461374e57600080fd5b50565b6003811061375e57600080fd5b50565b61376a816135f0565b811461377557600080fd5b5056fea26469706673582212207aa05c803433e1fda9fddef900ea397dfc74aef12606dff7e84470a74415bf3d64736f6c63430008000033",
  "immutableReferences": {},
  "source": "// SPDX-License-Identifier: MIT\npragma solidity >=0.4.22 <0.9.0;\n\nimport \"./ERC721.sol\";\nimport \"./LKGRegistry.sol\";\nimport \"./Structs.sol\";\nimport \"./RBAC.sol\";\nimport \"openzeppelin-solidity/contracts/utils/Counters.sol\";\nimport \"openzeppelin-solidity/contracts/access/Ownable.sol\";\n\n/**\n * Contract that represents a NFT Token for every stage in the supply chain where something is produced\n */\ncontract SupplyChainNFT is ERC721, Ownable {\n    using Counters for Counters.Counter;\n    Counters.Counter private _tokenIds;\n    LKGRegistry private registry;\n    RBAC private rbac;\n    string public name;\n    string public symbol;\n    mapping(uint256 => Structs.Metadata) metadata;\n\n    event NonGSETransaction(Structs.NonGSETransaction);\n\n    constructor(\n        string memory _name,\n        string memory _symbol,\n        address _registry,\n        address _rbac\n    ) ERC721(\"SupplyChainToken\", \"SCT\") {\n        registry = LKGRegistry(_registry);\n        rbac = RBAC(_rbac);\n        name = _name;\n        symbol = _symbol;\n    }\n\n    /**\n     * @notice Creates a token and set's the given address as new owner\n     * @param _owner owner of the newly created token\n     * @param _tokenData metadata for the token to be created\n     */\n    function mintToken(address _owner, Structs.Metadata memory _tokenData)\n        public\n        onlyOwner\n        returns (uint256)\n    {\n        require(\n            rbac.hasRole(_msgSender(), rbac.SUPPLY_CHAIN_ENTITY_ROLE()),\n            \"Only supply chain entities can create tokens\"\n        );\n        require(\n            rbac.hasRole(_owner, rbac.SUPPLY_CHAIN_ENTITY_ROLE()),\n            \"Owner must be a supply chain entity\"\n        );\n\n        // increment counter for first tokenID\n        _tokenIds.increment();\n        uint256 tokenID = _tokenIds.current();\n\n        // mint token\n        _mint(_owner, tokenID);\n\n        // add _tokenData to internal mapping\n        metadata[tokenID] = _tokenData;\n\n        return tokenID;\n    }\n\n    /**\n     * @notice Returns the metadata belonging to a token\n     * @param _tokenId of the token\n     * @return metadata of the token\n     */\n    function getTokenMetadata(uint256 _tokenId)\n        public\n        view\n        returns (uint256, uint256[] memory)\n    {\n        require(_exists(_tokenId), \"Token with give ID does not exist\");\n\n        return (metadata[_tokenId].itemId, metadata[_tokenId].sourceItemIds);\n    }\n\n    /**\n     * @notice Function that gets called before every transfer of a token. Checks if the from and to addresses\n     * have conformed to the \"Grundsatzerklrung\"\n     * @param _from address of the token owner\n     * @param _to address of the token receiver\n     * @param _tokenId of the token to be transferred\n     */\n    function _beforeTokenTransfer(\n        address _from,\n        address _to,\n        uint256 _tokenId\n    ) internal virtual override {\n        require(\n            rbac.hasRole(_to, rbac.SUPPLY_CHAIN_ENTITY_ROLE()),\n            \"Only supply chain entities can receive tokens\"\n        );\n        Structs.SupplyChainEntity memory toEntity =\n            registry.getSupplyChainEntity(_to);\n\n        Structs.SupplyChainEntity memory fromEntity =\n            registry.getSupplyChainEntity(_from);\n\n        if (!toEntity.gseStatus || !fromEntity.gseStatus) {\n            Structs.NonGSETransaction memory transaction =\n                Structs.NonGSETransaction({\n                    time: block.timestamp,\n                    tokenId: _tokenId\n                });\n\n            if (!toEntity.gseStatus) {\n                registry.addNonGSETransaction(_to, transaction);\n            }\n            if (!fromEntity.gseStatus) {\n                registry.addNonGSETransaction(_from, transaction);\n            }\n\n            emit NonGSETransaction(transaction);\n        }\n    }\n}\n",
  "sourcePath": "/Users/jabbathegut/repositories/ba_sources/textile-supply-chain/contracts/SupplyChainNFT.sol",
  "compiler": {
    "name": "solc",
    "version": "0.8.0+commit.c7dfd78e.Emscripten.clang"
  },
  "schemaVersion": "3.3.4",
  "updatedAt": "2021-05-07T14:08:53.929Z",
  "networkType": "ethereum",
  "devdoc": {
    "kind": "dev",
    "methods": {
      "approve(address,uint256)": {
        "details": "See {IERC721-approve}."
      },
      "balanceOf(address)": {
        "details": "See {IERC721-balanceOf}."
      },
      "getApproved(uint256)": {
        "details": "See {IERC721-getApproved}."
      },
      "getTokenMetadata(uint256)": {
        "params": {
          "_tokenId": "of the token"
        },
        "returns": {
          "_0": "metadata of the token"
        }
      },
      "isApprovedForAll(address,address)": {
        "details": "See {IERC721-isApprovedForAll}."
      },
      "mintToken(address,(uint256,uint256[]))": {
        "params": {
          "_owner": "owner of the newly created token",
          "_tokenData": "metadata for the token to be created"
        }
      },
      "owner()": {
        "details": "Returns the address of the current owner."
      },
      "ownerOf(uint256)": {
        "details": "See {IERC721-ownerOf}."
      },
      "renounceOwnership()": {
        "details": "Leaves the contract without owner. It will not be possible to call `onlyOwner` functions anymore. Can only be called by the current owner. NOTE: Renouncing ownership will leave the contract without an owner, thereby removing any functionality that is only available to the owner."
      },
      "safeTransferFrom(address,address,uint256)": {
        "details": "See {IERC721-safeTransferFrom}."
      },
      "safeTransferFrom(address,address,uint256,bytes)": {
        "details": "See {IERC721-safeTransferFrom}."
      },
      "setApprovalForAll(address,bool)": {
        "details": "See {IERC721-setApprovalForAll}."
      },
      "supportsInterface(bytes4)": {
        "details": "See {IERC165-supportsInterface}."
      },
      "transferFrom(address,address,uint256)": {
        "details": "See {IERC721-transferFrom}."
      },
      "transferOwnership(address)": {
        "details": "Transfers ownership of the contract to a new account (`newOwner`). Can only be called by the current owner."
      }
    },
    "version": 1
  },
  "userdoc": {
    "kind": "user",
    "methods": {
      "getTokenMetadata(uint256)": {
        "notice": "Returns the metadata belonging to a token"
      },
      "mintToken(address,(uint256,uint256[]))": {
        "notice": "Creates a token and set's the given address as new owner"
      }
    },
    "notice": "Contract that represents a NFT Token for every stage in the supply chain where something is produced",
    "version": 1
  }
}